{
	"contracts/ERC20/ERC20.sol": {
		"ERC20": {
			"abi": [
				{
					"inputs": [
						{
							"internalType": "string",
							"name": "name_",
							"type": "string"
						},
						{
							"internalType": "string",
							"name": "symbol_",
							"type": "string"
						}
					],
					"stateMutability": "nonpayable",
					"type": "constructor"
				},
				{
					"anonymous": false,
					"inputs": [
						{
							"indexed": true,
							"internalType": "address",
							"name": "owner",
							"type": "address"
						},
						{
							"indexed": true,
							"internalType": "address",
							"name": "spender",
							"type": "address"
						},
						{
							"indexed": false,
							"internalType": "uint256",
							"name": "value",
							"type": "uint256"
						}
					],
					"name": "Approval",
					"type": "event"
				},
				{
					"anonymous": false,
					"inputs": [
						{
							"indexed": true,
							"internalType": "address",
							"name": "oldOwner",
							"type": "address"
						},
						{
							"indexed": true,
							"internalType": "address",
							"name": "newOwner",
							"type": "address"
						}
					],
					"name": "ChangeOwner",
					"type": "event"
				},
				{
					"anonymous": false,
					"inputs": [
						{
							"indexed": true,
							"internalType": "uint8",
							"name": "organizationId",
							"type": "uint8"
						},
						{
							"indexed": false,
							"internalType": "uint256",
							"name": "releaseAllTime",
							"type": "uint256"
						}
					],
					"name": "Organization",
					"type": "event"
				},
				{
					"anonymous": false,
					"inputs": [
						{
							"indexed": true,
							"internalType": "address",
							"name": "from",
							"type": "address"
						},
						{
							"indexed": true,
							"internalType": "address",
							"name": "to",
							"type": "address"
						},
						{
							"indexed": false,
							"internalType": "uint256",
							"name": "value",
							"type": "uint256"
						}
					],
					"name": "Transfer",
					"type": "event"
				},
				{
					"inputs": [
						{
							"internalType": "address",
							"name": "owner",
							"type": "address"
						},
						{
							"internalType": "address",
							"name": "spender",
							"type": "address"
						}
					],
					"name": "allowance",
					"outputs": [
						{
							"internalType": "uint256",
							"name": "",
							"type": "uint256"
						}
					],
					"stateMutability": "view",
					"type": "function"
				},
				{
					"inputs": [
						{
							"internalType": "address",
							"name": "spender",
							"type": "address"
						},
						{
							"internalType": "uint256",
							"name": "amount",
							"type": "uint256"
						}
					],
					"name": "approve",
					"outputs": [
						{
							"internalType": "bool",
							"name": "",
							"type": "bool"
						}
					],
					"stateMutability": "nonpayable",
					"type": "function"
				},
				{
					"inputs": [
						{
							"internalType": "address",
							"name": "account",
							"type": "address"
						}
					],
					"name": "balanceOf",
					"outputs": [
						{
							"internalType": "uint256",
							"name": "",
							"type": "uint256"
						}
					],
					"stateMutability": "view",
					"type": "function"
				},
				{
					"inputs": [
						{
							"internalType": "address",
							"name": "account",
							"type": "address"
						}
					],
					"name": "belongOrg",
					"outputs": [
						{
							"internalType": "uint8",
							"name": "",
							"type": "uint8"
						}
					],
					"stateMutability": "view",
					"type": "function"
				},
				{
					"inputs": [
						{
							"internalType": "address",
							"name": "account",
							"type": "address"
						}
					],
					"name": "changeOwner",
					"outputs": [],
					"stateMutability": "nonpayable",
					"type": "function"
				},
				{
					"inputs": [],
					"name": "decimals",
					"outputs": [
						{
							"internalType": "uint8",
							"name": "",
							"type": "uint8"
						}
					],
					"stateMutability": "view",
					"type": "function"
				},
				{
					"inputs": [
						{
							"internalType": "address",
							"name": "spender",
							"type": "address"
						},
						{
							"internalType": "uint256",
							"name": "subtractedValue",
							"type": "uint256"
						}
					],
					"name": "decreaseAllowance",
					"outputs": [
						{
							"internalType": "bool",
							"name": "",
							"type": "bool"
						}
					],
					"stateMutability": "nonpayable",
					"type": "function"
				},
				{
					"inputs": [
						{
							"internalType": "address",
							"name": "spender",
							"type": "address"
						},
						{
							"internalType": "uint256",
							"name": "addedValue",
							"type": "uint256"
						}
					],
					"name": "increaseAllowance",
					"outputs": [
						{
							"internalType": "bool",
							"name": "",
							"type": "bool"
						}
					],
					"stateMutability": "nonpayable",
					"type": "function"
				},
				{
					"inputs": [
						{
							"internalType": "address",
							"name": "account",
							"type": "address"
						}
					],
					"name": "lockNum",
					"outputs": [
						{
							"internalType": "uint256",
							"name": "",
							"type": "uint256"
						}
					],
					"stateMutability": "view",
					"type": "function"
				},
				{
					"inputs": [],
					"name": "name",
					"outputs": [
						{
							"internalType": "string",
							"name": "",
							"type": "string"
						}
					],
					"stateMutability": "view",
					"type": "function"
				},
				{
					"inputs": [],
					"name": "searchOwner",
					"outputs": [
						{
							"internalType": "address",
							"name": "",
							"type": "address"
						}
					],
					"stateMutability": "view",
					"type": "function"
				},
				{
					"inputs": [],
					"name": "searchStartTime",
					"outputs": [
						{
							"internalType": "uint256",
							"name": "",
							"type": "uint256"
						}
					],
					"stateMutability": "view",
					"type": "function"
				},
				{
					"inputs": [
						{
							"internalType": "uint8",
							"name": "_organizationId",
							"type": "uint8"
						},
						{
							"internalType": "address[]",
							"name": "_walletArray",
							"type": "address[]"
						},
						{
							"internalType": "uint256[]",
							"name": "_amountArray",
							"type": "uint256[]"
						}
					],
					"name": "setOrganization",
					"outputs": [],
					"stateMutability": "nonpayable",
					"type": "function"
				},
				{
					"inputs": [
						{
							"internalType": "uint256",
							"name": "startTime",
							"type": "uint256"
						}
					],
					"name": "setStartTime",
					"outputs": [],
					"stateMutability": "nonpayable",
					"type": "function"
				},
				{
					"inputs": [],
					"name": "symbol",
					"outputs": [
						{
							"internalType": "string",
							"name": "",
							"type": "string"
						}
					],
					"stateMutability": "view",
					"type": "function"
				},
				{
					"inputs": [
						{
							"internalType": "address",
							"name": "account",
							"type": "address"
						}
					],
					"name": "totalLock",
					"outputs": [
						{
							"internalType": "uint256",
							"name": "",
							"type": "uint256"
						}
					],
					"stateMutability": "view",
					"type": "function"
				},
				{
					"inputs": [],
					"name": "totalSupply",
					"outputs": [
						{
							"internalType": "uint256",
							"name": "",
							"type": "uint256"
						}
					],
					"stateMutability": "view",
					"type": "function"
				},
				{
					"inputs": [
						{
							"internalType": "address",
							"name": "to",
							"type": "address"
						},
						{
							"internalType": "uint256",
							"name": "amount",
							"type": "uint256"
						}
					],
					"name": "transfer",
					"outputs": [
						{
							"internalType": "bool",
							"name": "",
							"type": "bool"
						}
					],
					"stateMutability": "nonpayable",
					"type": "function"
				},
				{
					"inputs": [
						{
							"internalType": "address",
							"name": "from",
							"type": "address"
						},
						{
							"internalType": "address",
							"name": "to",
							"type": "address"
						},
						{
							"internalType": "uint256",
							"name": "amount",
							"type": "uint256"
						}
					],
					"name": "transferFrom",
					"outputs": [
						{
							"internalType": "bool",
							"name": "",
							"type": "bool"
						}
					],
					"stateMutability": "nonpayable",
					"type": "function"
				},
				{
					"inputs": [
						{
							"internalType": "uint8",
							"name": "index",
							"type": "uint8"
						}
					],
					"name": "wallets",
					"outputs": [
						{
							"internalType": "address[]",
							"name": "",
							"type": "address[]"
						}
					],
					"stateMutability": "view",
					"type": "function"
				}
			],
			"devdoc": {
				"details": "Implementation of the {IERC20} interface. This implementation is agnostic to the way tokens are created. This means that a supply mechanism has to be added in a derived contract using {_mint}. For a generic mechanism see {ERC20PresetMinterPauser}. TIP: For a detailed writeup see our guide https://forum.zeppelin.solutions/t/how-to-implement-erc20-supply-mechanisms/226[How to implement supply mechanisms]. We have followed general OpenZeppelin Contracts guidelines: functions revert instead returning `false` on failure. This behavior is nonetheless conventional and does not conflict with the expectations of ERC20 applications. Additionally, an {Approval} event is emitted on calls to {transferFrom}. This allows applications to reconstruct the allowance for all accounts just by listening to said events. Other implementations of the EIP may not emit these events, as it isn't required by the specification. Finally, the non-standard {decreaseAllowance} and {increaseAllowance} functions have been added to mitigate the well-known issues around setting allowances. See {IERC20-approve}.",
				"events": {
					"Approval(address,address,uint256)": {
						"details": "Emitted when the allowance of a `spender` for an `owner` is set by a call to {approve}. `value` is the new allowance."
					},
					"Transfer(address,address,uint256)": {
						"details": "Emitted when `value` tokens are moved from one account (`from`) to another (`to`). Note that `value` may be zero."
					}
				},
				"kind": "dev",
				"methods": {
					"allowance(address,address)": {
						"details": "See {IERC20-allowance}."
					},
					"approve(address,uint256)": {
						"details": "See {IERC20-approve}. NOTE: If `amount` is the maximum `uint256`, the allowance is not updated on `transferFrom`. This is semantically equivalent to an infinite approval. Requirements: - `spender` cannot be the zero address."
					},
					"balanceOf(address)": {
						"details": "See {IERC20-balanceOf}."
					},
					"constructor": {
						"details": "Sets the values for {name} and {symbol}. The default value of {decimals} is 18. To select a different value for {decimals} you should overload it. All two of these values are immutable: they can only be set once during construction."
					},
					"decimals()": {
						"details": "Returns the number of decimals used to get its user representation. For example, if `decimals` equals `2`, a balance of `505` tokens should be displayed to a user as `5.05` (`505 / 10 ** 2`). Tokens usually opt for a value of 18, imitating the relationship between Ether and Wei. This is the value {ERC20} uses, unless this function is overridden; NOTE: This information is only used for _display_ purposes: it in no way affects any of the arithmetic of the contract, including {IERC20-balanceOf} and {IERC20-transfer}."
					},
					"decreaseAllowance(address,uint256)": {
						"details": "Atomically decreases the allowance granted to `spender` by the caller. This is an alternative to {approve} that can be used as a mitigation for problems described in {IERC20-approve}. Emits an {Approval} event indicating the updated allowance. Requirements: - `spender` cannot be the zero address. - `spender` must have allowance for the caller of at least `subtractedValue`."
					},
					"increaseAllowance(address,uint256)": {
						"details": "Atomically increases the allowance granted to `spender` by the caller. This is an alternative to {approve} that can be used as a mitigation for problems described in {IERC20-approve}. Emits an {Approval} event indicating the updated allowance. Requirements: - `spender` cannot be the zero address."
					},
					"name()": {
						"details": "Returns the name of the token."
					},
					"symbol()": {
						"details": "Returns the symbol of the token, usually a shorter version of the name."
					},
					"totalSupply()": {
						"details": "See {IERC20-totalSupply}."
					},
					"transfer(address,uint256)": {
						"details": "See {IERC20-transfer}. Requirements: - `to` cannot be the zero address. - the caller must have a balance of at least `amount`."
					},
					"transferFrom(address,address,uint256)": {
						"details": "See {IERC20-transferFrom}. Emits an {Approval} event indicating the updated allowance. This is not required by the EIP. See the note at the beginning of {ERC20}. NOTE: Does not update the allowance if the current allowance is the maximum `uint256`. Requirements: - `from` and `to` cannot be the zero address. - `from` must have a balance of at least `amount`. - the caller must have allowance for ``from``'s tokens of at least `amount`."
					}
				},
				"version": 1
			},
			"evm": {
				"assembly": "    /* \"contracts/ERC20/ERC20.sol\":1514:26285  contract ERC20 is Context, IERC20, IERC20Metadata {... */\n  mstore(0x40, 0xa0)\n    /* \"contracts/ERC20/ERC20.sol\":1946:1952  1 days */\n  0x015180\n    /* \"contracts/ERC20/ERC20.sol\":1913:1952  uint256 immutable baseInterval = 1 days */\n  0x80\n  swap1\n  dup2\n  mstore\n  pop\n    /* \"contracts/ERC20/ERC20.sol\":2265:2321  uint256[5] orgOne = [200000000 * 10**18, 0, 30, 30, 100] */\n  mload(0x40)\n  dup1\n  0xa0\n  add\n  0x40\n  mstore\n  dup1\n    /* \"contracts/ERC20/ERC20.sol\":2286:2304  200000000 * 10**18 */\n  0xa56fa5b99019a5c8000000\n    /* \"contracts/ERC20/ERC20.sol\":2265:2321  uint256[5] orgOne = [200000000 * 10**18, 0, 30, 30, 100] */\n  0xffffffffffffffffffffff\n  and\n  dup2\n  mstore\n  0x20\n  add\n    /* \"contracts/ERC20/ERC20.sol\":2306:2307  0 */\n  0x00\n    /* \"contracts/ERC20/ERC20.sol\":2265:2321  uint256[5] orgOne = [200000000 * 10**18, 0, 30, 30, 100] */\n  0xffffffffffffffffffffff\n  and\n  dup2\n  mstore\n  0x20\n  add\n    /* \"contracts/ERC20/ERC20.sol\":2309:2311  30 */\n  0x1e\n    /* \"contracts/ERC20/ERC20.sol\":2265:2321  uint256[5] orgOne = [200000000 * 10**18, 0, 30, 30, 100] */\n  0xffffffffffffffffffffff\n  and\n  dup2\n  mstore\n  0x20\n  add\n    /* \"contracts/ERC20/ERC20.sol\":2313:2315  30 */\n  0x1e\n    /* \"contracts/ERC20/ERC20.sol\":2265:2321  uint256[5] orgOne = [200000000 * 10**18, 0, 30, 30, 100] */\n  0xffffffffffffffffffffff\n  and\n  dup2\n  mstore\n  0x20\n  add\n    /* \"contracts/ERC20/ERC20.sol\":2317:2320  100 */\n  0x64\n    /* \"contracts/ERC20/ERC20.sol\":2265:2321  uint256[5] orgOne = [200000000 * 10**18, 0, 30, 30, 100] */\n  0xffffffffffffffffffffff\n  and\n  dup2\n  mstore\n  pop\n  0x0a\n  swap1\n  0x05\n  tag_1\n  swap3\n  swap2\n  swap1\n  tag_2\n  jump\t// in\ntag_1:\n  pop\n    /* \"contracts/ERC20/ERC20.sol\":2344:2412  uint256[5] orgTwo   = [150000000 * 10**18, 100, 6 * 30, 3 * 30, 250] */\n  mload(0x40)\n  dup1\n  0xa0\n  add\n  0x40\n  mstore\n  dup1\n    /* \"contracts/ERC20/ERC20.sol\":2367:2385  150000000 * 10**18 */\n  0x7c13bc4b2c133c56000000\n    /* \"contracts/ERC20/ERC20.sol\":2344:2412  uint256[5] orgTwo   = [150000000 * 10**18, 100, 6 * 30, 3 * 30, 250] */\n  0xffffffffffffffffffffff\n  and\n  dup2\n  mstore\n  0x20\n  add\n    /* \"contracts/ERC20/ERC20.sol\":2387:2390  100 */\n  0x64\n    /* \"contracts/ERC20/ERC20.sol\":2344:2412  uint256[5] orgTwo   = [150000000 * 10**18, 100, 6 * 30, 3 * 30, 250] */\n  0xffffffffffffffffffffff\n  and\n  dup2\n  mstore\n  0x20\n  add\n    /* \"contracts/ERC20/ERC20.sol\":2392:2398  6 * 30 */\n  0xb4\n    /* \"contracts/ERC20/ERC20.sol\":2344:2412  uint256[5] orgTwo   = [150000000 * 10**18, 100, 6 * 30, 3 * 30, 250] */\n  0xffffffffffffffffffffff\n  and\n  dup2\n  mstore\n  0x20\n  add\n    /* \"contracts/ERC20/ERC20.sol\":2400:2406  3 * 30 */\n  0x5a\n    /* \"contracts/ERC20/ERC20.sol\":2344:2412  uint256[5] orgTwo   = [150000000 * 10**18, 100, 6 * 30, 3 * 30, 250] */\n  0xffffffffffffffffffffff\n  and\n  dup2\n  mstore\n  0x20\n  add\n    /* \"contracts/ERC20/ERC20.sol\":2408:2411  250 */\n  0xfa\n    /* \"contracts/ERC20/ERC20.sol\":2344:2412  uint256[5] orgTwo   = [150000000 * 10**18, 100, 6 * 30, 3 * 30, 250] */\n  0xffffffffffffffffffffff\n  and\n  dup2\n  mstore\n  pop\n  0x0f\n  swap1\n  0x05\n  tag_3\n  swap3\n  swap2\n  swap1\n  tag_2\n  jump\t// in\ntag_3:\n  pop\n    /* \"contracts/ERC20/ERC20.sol\":2432:2498  uint256[5] orgThree = [100000000 * 10**18, 0, 0 * 30, 3 * 30, 250] */\n  mload(0x40)\n  dup1\n  0xa0\n  add\n  0x40\n  mstore\n  dup1\n    /* \"contracts/ERC20/ERC20.sol\":2455:2473  100000000 * 10**18 */\n  0x52b7d2dcc80cd2e4000000\n    /* \"contracts/ERC20/ERC20.sol\":2432:2498  uint256[5] orgThree = [100000000 * 10**18, 0, 0 * 30, 3 * 30, 250] */\n  0xffffffffffffffffffffff\n  and\n  dup2\n  mstore\n  0x20\n  add\n    /* \"contracts/ERC20/ERC20.sol\":2475:2476  0 */\n  0x00\n    /* \"contracts/ERC20/ERC20.sol\":2432:2498  uint256[5] orgThree = [100000000 * 10**18, 0, 0 * 30, 3 * 30, 250] */\n  0xffffffffffffffffffffff\n  and\n  dup2\n  mstore\n  0x20\n  add\n    /* \"contracts/ERC20/ERC20.sol\":2478:2484  0 * 30 */\n  0x00\n    /* \"contracts/ERC20/ERC20.sol\":2432:2498  uint256[5] orgThree = [100000000 * 10**18, 0, 0 * 30, 3 * 30, 250] */\n  0xffffffffffffffffffffff\n  and\n  dup2\n  mstore\n  0x20\n  add\n    /* \"contracts/ERC20/ERC20.sol\":2486:2492  3 * 30 */\n  0x5a\n    /* \"contracts/ERC20/ERC20.sol\":2432:2498  uint256[5] orgThree = [100000000 * 10**18, 0, 0 * 30, 3 * 30, 250] */\n  0xffffffffffffffffffffff\n  and\n  dup2\n  mstore\n  0x20\n  add\n    /* \"contracts/ERC20/ERC20.sol\":2494:2497  250 */\n  0xfa\n    /* \"contracts/ERC20/ERC20.sol\":2432:2498  uint256[5] orgThree = [100000000 * 10**18, 0, 0 * 30, 3 * 30, 250] */\n  0xffffffffffffffffffffff\n  and\n  dup2\n  mstore\n  pop\n  0x14\n  swap1\n  0x05\n  tag_4\n  swap3\n  swap2\n  swap1\n  tag_2\n  jump\t// in\ntag_4:\n  pop\n    /* \"contracts/ERC20/ERC20.sol\":2518:2584  uint256[5] orgFour = [100000000 * 10**18, 0, 12 * 30, 3 * 30, 125] */\n  mload(0x40)\n  dup1\n  0xa0\n  add\n  0x40\n  mstore\n  dup1\n    /* \"contracts/ERC20/ERC20.sol\":2540:2558  100000000 * 10**18 */\n  0x52b7d2dcc80cd2e4000000\n    /* \"contracts/ERC20/ERC20.sol\":2518:2584  uint256[5] orgFour = [100000000 * 10**18, 0, 12 * 30, 3 * 30, 125] */\n  0xffffffffffffffffffffff\n  and\n  dup2\n  mstore\n  0x20\n  add\n    /* \"contracts/ERC20/ERC20.sol\":2560:2561  0 */\n  0x00\n    /* \"contracts/ERC20/ERC20.sol\":2518:2584  uint256[5] orgFour = [100000000 * 10**18, 0, 12 * 30, 3 * 30, 125] */\n  0xffffffffffffffffffffff\n  and\n  dup2\n  mstore\n  0x20\n  add\n    /* \"contracts/ERC20/ERC20.sol\":2563:2570  12 * 30 */\n  0x0168\n    /* \"contracts/ERC20/ERC20.sol\":2518:2584  uint256[5] orgFour = [100000000 * 10**18, 0, 12 * 30, 3 * 30, 125] */\n  0xffffffffffffffffffffff\n  and\n  dup2\n  mstore\n  0x20\n  add\n    /* \"contracts/ERC20/ERC20.sol\":2572:2578  3 * 30 */\n  0x5a\n    /* \"contracts/ERC20/ERC20.sol\":2518:2584  uint256[5] orgFour = [100000000 * 10**18, 0, 12 * 30, 3 * 30, 125] */\n  0xffffffffffffffffffffff\n  and\n  dup2\n  mstore\n  0x20\n  add\n    /* \"contracts/ERC20/ERC20.sol\":2580:2583  125 */\n  0x7d\n    /* \"contracts/ERC20/ERC20.sol\":2518:2584  uint256[5] orgFour = [100000000 * 10**18, 0, 12 * 30, 3 * 30, 125] */\n  0xffffffffffffffffffffff\n  and\n  dup2\n  mstore\n  pop\n  0x19\n  swap1\n  0x05\n  tag_5\n  swap3\n  swap2\n  swap1\n  tag_2\n  jump\t// in\ntag_5:\n  pop\n    /* \"contracts/ERC20/ERC20.sol\":2607:2672  uint256[5] orgFive = [50000000 * 10**18, 0, 12 * 30, 3 * 30, 125] */\n  mload(0x40)\n  dup1\n  0xa0\n  add\n  0x40\n  mstore\n  dup1\n    /* \"contracts/ERC20/ERC20.sol\":2629:2646  50000000 * 10**18 */\n  0x295be96e64066972000000\n    /* \"contracts/ERC20/ERC20.sol\":2607:2672  uint256[5] orgFive = [50000000 * 10**18, 0, 12 * 30, 3 * 30, 125] */\n  0xffffffffffffffffffffff\n  and\n  dup2\n  mstore\n  0x20\n  add\n    /* \"contracts/ERC20/ERC20.sol\":2648:2649  0 */\n  0x00\n    /* \"contracts/ERC20/ERC20.sol\":2607:2672  uint256[5] orgFive = [50000000 * 10**18, 0, 12 * 30, 3 * 30, 125] */\n  0xffffffffffffffffffffff\n  and\n  dup2\n  mstore\n  0x20\n  add\n    /* \"contracts/ERC20/ERC20.sol\":2651:2658  12 * 30 */\n  0x0168\n    /* \"contracts/ERC20/ERC20.sol\":2607:2672  uint256[5] orgFive = [50000000 * 10**18, 0, 12 * 30, 3 * 30, 125] */\n  0xffffffffffffffffffffff\n  and\n  dup2\n  mstore\n  0x20\n  add\n    /* \"contracts/ERC20/ERC20.sol\":2660:2666  3 * 30 */\n  0x5a\n    /* \"contracts/ERC20/ERC20.sol\":2607:2672  uint256[5] orgFive = [50000000 * 10**18, 0, 12 * 30, 3 * 30, 125] */\n  0xffffffffffffffffffffff\n  and\n  dup2\n  mstore\n  0x20\n  add\n    /* \"contracts/ERC20/ERC20.sol\":2668:2671  125 */\n  0x7d\n    /* \"contracts/ERC20/ERC20.sol\":2607:2672  uint256[5] orgFive = [50000000 * 10**18, 0, 12 * 30, 3 * 30, 125] */\n  0xffffffffffffffffffffff\n  and\n  dup2\n  mstore\n  pop\n  0x1e\n  swap1\n  0x05\n  tag_6\n  swap3\n  swap2\n  swap1\n  tag_2\n  jump\t// in\ntag_6:\n  pop\n    /* \"contracts/ERC20/ERC20.sol\":2698:2753  uint256[5] orgSix = [200000000 * 10**18, 1000, 0, 0, 0] */\n  mload(0x40)\n  dup1\n  0xa0\n  add\n  0x40\n  mstore\n  dup1\n    /* \"contracts/ERC20/ERC20.sol\":2719:2737  200000000 * 10**18 */\n  0xa56fa5b99019a5c8000000\n    /* \"contracts/ERC20/ERC20.sol\":2698:2753  uint256[5] orgSix = [200000000 * 10**18, 1000, 0, 0, 0] */\n  0xffffffffffffffffffffff\n  and\n  dup2\n  mstore\n  0x20\n  add\n    /* \"contracts/ERC20/ERC20.sol\":2739:2743  1000 */\n  0x03e8\n    /* \"contracts/ERC20/ERC20.sol\":2698:2753  uint256[5] orgSix = [200000000 * 10**18, 1000, 0, 0, 0] */\n  0xffffffffffffffffffffff\n  and\n  dup2\n  mstore\n  0x20\n  add\n    /* \"contracts/ERC20/ERC20.sol\":2745:2746  0 */\n  0x00\n    /* \"contracts/ERC20/ERC20.sol\":2698:2753  uint256[5] orgSix = [200000000 * 10**18, 1000, 0, 0, 0] */\n  0xffffffffffffffffffffff\n  and\n  dup2\n  mstore\n  0x20\n  add\n    /* \"contracts/ERC20/ERC20.sol\":2748:2749  0 */\n  0x00\n    /* \"contracts/ERC20/ERC20.sol\":2698:2753  uint256[5] orgSix = [200000000 * 10**18, 1000, 0, 0, 0] */\n  0xffffffffffffffffffffff\n  and\n  dup2\n  mstore\n  0x20\n  add\n    /* \"contracts/ERC20/ERC20.sol\":2751:2752  0 */\n  0x00\n    /* \"contracts/ERC20/ERC20.sol\":2698:2753  uint256[5] orgSix = [200000000 * 10**18, 1000, 0, 0, 0] */\n  0xffffffffffffffffffffff\n  and\n  dup2\n  mstore\n  pop\n  0x23\n  swap1\n  0x05\n  tag_7\n  swap3\n  swap2\n  swap1\n  tag_2\n  jump\t// in\ntag_7:\n  pop\n    /* \"contracts/ERC20/ERC20.sol\":2788:2845  uint256[5] orgSeven = [200000000 * 10**18, 1000, 0, 0, 0] */\n  mload(0x40)\n  dup1\n  0xa0\n  add\n  0x40\n  mstore\n  dup1\n    /* \"contracts/ERC20/ERC20.sol\":2811:2829  200000000 * 10**18 */\n  0xa56fa5b99019a5c8000000\n    /* \"contracts/ERC20/ERC20.sol\":2788:2845  uint256[5] orgSeven = [200000000 * 10**18, 1000, 0, 0, 0] */\n  0xffffffffffffffffffffff\n  and\n  dup2\n  mstore\n  0x20\n  add\n    /* \"contracts/ERC20/ERC20.sol\":2831:2835  1000 */\n  0x03e8\n    /* \"contracts/ERC20/ERC20.sol\":2788:2845  uint256[5] orgSeven = [200000000 * 10**18, 1000, 0, 0, 0] */\n  0xffffffffffffffffffffff\n  and\n  dup2\n  mstore\n  0x20\n  add\n    /* \"contracts/ERC20/ERC20.sol\":2837:2838  0 */\n  0x00\n    /* \"contracts/ERC20/ERC20.sol\":2788:2845  uint256[5] orgSeven = [200000000 * 10**18, 1000, 0, 0, 0] */\n  0xffffffffffffffffffffff\n  and\n  dup2\n  mstore\n  0x20\n  add\n    /* \"contracts/ERC20/ERC20.sol\":2840:2841  0 */\n  0x00\n    /* \"contracts/ERC20/ERC20.sol\":2788:2845  uint256[5] orgSeven = [200000000 * 10**18, 1000, 0, 0, 0] */\n  0xffffffffffffffffffffff\n  and\n  dup2\n  mstore\n  0x20\n  add\n    /* \"contracts/ERC20/ERC20.sol\":2843:2844  0 */\n  0x00\n    /* \"contracts/ERC20/ERC20.sol\":2788:2845  uint256[5] orgSeven = [200000000 * 10**18, 1000, 0, 0, 0] */\n  0xffffffffffffffffffffff\n  and\n  dup2\n  mstore\n  pop\n  0x28\n  swap1\n  0x05\n  tag_8\n  swap3\n  swap2\n  swap1\n  tag_2\n  jump\t// in\ntag_8:\n  pop\n    /* \"contracts/ERC20/ERC20.sol\":2851:3002  uint256[5][7] orgRecords = [... */\n  mload(0x40)\n  dup1\n  0xe0\n  add\n  0x40\n  mstore\n  dup1\n    /* \"contracts/ERC20/ERC20.sol\":2888:2894  orgOne */\n  0x0a\n    /* \"contracts/ERC20/ERC20.sol\":2851:3002  uint256[5][7] orgRecords = [... */\n  0x05\n  dup1\n  0x20\n  mul\n  mload(0x40)\n  swap1\n  dup2\n  add\n  0x40\n  mstore\n  dup1\n  swap3\n  swap2\n  swap1\n  dup3\n  0x05\n  dup1\n  iszero\n  tag_9\n  jumpi\n  0x20\n  mul\n  dup3\n  add\n  swap2\ntag_10:\n  dup2\n  sload\n  dup2\n  mstore\n  0x20\n  add\n  swap1\n  0x01\n  add\n  swap1\n  dup1\n  dup4\n  gt\n  tag_10\n  jumpi\ntag_9:\n  pop\n  pop\n  pop\n  pop\n  pop\n  dup2\n  mstore\n  0x20\n  add\n    /* \"contracts/ERC20/ERC20.sol\":2904:2910  orgTwo */\n  0x0f\n    /* \"contracts/ERC20/ERC20.sol\":2851:3002  uint256[5][7] orgRecords = [... */\n  0x05\n  dup1\n  0x20\n  mul\n  mload(0x40)\n  swap1\n  dup2\n  add\n  0x40\n  mstore\n  dup1\n  swap3\n  swap2\n  swap1\n  dup3\n  0x05\n  dup1\n  iszero\n  tag_11\n  jumpi\n  0x20\n  mul\n  dup3\n  add\n  swap2\ntag_12:\n  dup2\n  sload\n  dup2\n  mstore\n  0x20\n  add\n  swap1\n  0x01\n  add\n  swap1\n  dup1\n  dup4\n  gt\n  tag_12\n  jumpi\ntag_11:\n  pop\n  pop\n  pop\n  pop\n  pop\n  dup2\n  mstore\n  0x20\n  add\n    /* \"contracts/ERC20/ERC20.sol\":2920:2928  orgThree */\n  0x14\n    /* \"contracts/ERC20/ERC20.sol\":2851:3002  uint256[5][7] orgRecords = [... */\n  0x05\n  dup1\n  0x20\n  mul\n  mload(0x40)\n  swap1\n  dup2\n  add\n  0x40\n  mstore\n  dup1\n  swap3\n  swap2\n  swap1\n  dup3\n  0x05\n  dup1\n  iszero\n  tag_13\n  jumpi\n  0x20\n  mul\n  dup3\n  add\n  swap2\ntag_14:\n  dup2\n  sload\n  dup2\n  mstore\n  0x20\n  add\n  swap1\n  0x01\n  add\n  swap1\n  dup1\n  dup4\n  gt\n  tag_14\n  jumpi\ntag_13:\n  pop\n  pop\n  pop\n  pop\n  pop\n  dup2\n  mstore\n  0x20\n  add\n    /* \"contracts/ERC20/ERC20.sol\":2938:2945  orgFour */\n  0x19\n    /* \"contracts/ERC20/ERC20.sol\":2851:3002  uint256[5][7] orgRecords = [... */\n  0x05\n  dup1\n  0x20\n  mul\n  mload(0x40)\n  swap1\n  dup2\n  add\n  0x40\n  mstore\n  dup1\n  swap3\n  swap2\n  swap1\n  dup3\n  0x05\n  dup1\n  iszero\n  tag_15\n  jumpi\n  0x20\n  mul\n  dup3\n  add\n  swap2\ntag_16:\n  dup2\n  sload\n  dup2\n  mstore\n  0x20\n  add\n  swap1\n  0x01\n  add\n  swap1\n  dup1\n  dup4\n  gt\n  tag_16\n  jumpi\ntag_15:\n  pop\n  pop\n  pop\n  pop\n  pop\n  dup2\n  mstore\n  0x20\n  add\n    /* \"contracts/ERC20/ERC20.sol\":2955:2962  orgFive */\n  0x1e\n    /* \"contracts/ERC20/ERC20.sol\":2851:3002  uint256[5][7] orgRecords = [... */\n  0x05\n  dup1\n  0x20\n  mul\n  mload(0x40)\n  swap1\n  dup2\n  add\n  0x40\n  mstore\n  dup1\n  swap3\n  swap2\n  swap1\n  dup3\n  0x05\n  dup1\n  iszero\n  tag_17\n  jumpi\n  0x20\n  mul\n  dup3\n  add\n  swap2\ntag_18:\n  dup2\n  sload\n  dup2\n  mstore\n  0x20\n  add\n  swap1\n  0x01\n  add\n  swap1\n  dup1\n  dup4\n  gt\n  tag_18\n  jumpi\ntag_17:\n  pop\n  pop\n  pop\n  pop\n  pop\n  dup2\n  mstore\n  0x20\n  add\n    /* \"contracts/ERC20/ERC20.sol\":2972:2978  orgSix */\n  0x23\n    /* \"contracts/ERC20/ERC20.sol\":2851:3002  uint256[5][7] orgRecords = [... */\n  0x05\n  dup1\n  0x20\n  mul\n  mload(0x40)\n  swap1\n  dup2\n  add\n  0x40\n  mstore\n  dup1\n  swap3\n  swap2\n  swap1\n  dup3\n  0x05\n  dup1\n  iszero\n  tag_19\n  jumpi\n  0x20\n  mul\n  dup3\n  add\n  swap2\ntag_20:\n  dup2\n  sload\n  dup2\n  mstore\n  0x20\n  add\n  swap1\n  0x01\n  add\n  swap1\n  dup1\n  dup4\n  gt\n  tag_20\n  jumpi\ntag_19:\n  pop\n  pop\n  pop\n  pop\n  pop\n  dup2\n  mstore\n  0x20\n  add\n    /* \"contracts/ERC20/ERC20.sol\":2988:2996  orgSeven */\n  0x28\n    /* \"contracts/ERC20/ERC20.sol\":2851:3002  uint256[5][7] orgRecords = [... */\n  0x05\n  dup1\n  0x20\n  mul\n  mload(0x40)\n  swap1\n  dup2\n  add\n  0x40\n  mstore\n  dup1\n  swap3\n  swap2\n  swap1\n  dup3\n  0x05\n  dup1\n  iszero\n  tag_21\n  jumpi\n  0x20\n  mul\n  dup3\n  add\n  swap2\ntag_22:\n  dup2\n  sload\n  dup2\n  mstore\n  0x20\n  add\n  swap1\n  0x01\n  add\n  swap1\n  dup1\n  dup4\n  gt\n  tag_22\n  jumpi\ntag_21:\n  pop\n  pop\n  pop\n  pop\n  pop\n  dup2\n  mstore\n  pop\n  0x2d\n  swap1\n  0x07\n  tag_23\n  swap3\n  swap2\n  swap1\n  tag_24\n  jump\t// in\ntag_23:\n  pop\n    /* \"contracts/ERC20/ERC20.sol\":4290:4666  constructor(string memory name_, string memory symbol_) {... */\n  callvalue\n  dup1\n  iszero\n  tag_25\n  jumpi\n  0x00\n  dup1\n  revert\ntag_25:\n  pop\n  mload(0x40)\n  sub(codesize, bytecodeSize)\n  dup1\n  bytecodeSize\n  dup4\n  codecopy\n  dup2\n  dup2\n  add\n  0x40\n  mstore\n  dup2\n  add\n  swap1\n  tag_26\n  swap2\n  swap1\n  tag_27\n  jump\t// in\ntag_26:\n    /* \"contracts/ERC20/ERC20.sol\":4364:4369  name_ */\n  dup2\n    /* \"contracts/ERC20/ERC20.sol\":4356:4361  _name */\n  0x03\n    /* \"contracts/ERC20/ERC20.sol\":4356:4369  _name = name_ */\n  swap1\n  dup2\n  tag_30\n  swap2\n  swap1\n  tag_31\n  jump\t// in\ntag_30:\n  pop\n    /* \"contracts/ERC20/ERC20.sol\":4389:4396  symbol_ */\n  dup1\n    /* \"contracts/ERC20/ERC20.sol\":4379:4386  _symbol */\n  0x04\n    /* \"contracts/ERC20/ERC20.sol\":4379:4396  _symbol = symbol_ */\n  swap1\n  dup2\n  tag_32\n  swap2\n  swap1\n  tag_31\n  jump\t// in\ntag_32:\n  pop\n    /* \"contracts/ERC20/ERC20.sol\":4415:4425  msg.sender */\n  caller\n    /* \"contracts/ERC20/ERC20.sol\":4406:4412  _owner */\n  0x05\n  0x00\n    /* \"contracts/ERC20/ERC20.sol\":4406:4425  _owner = msg.sender */\n  0x0100\n  exp\n  dup2\n  sload\n  dup2\n  0xffffffffffffffffffffffffffffffffffffffff\n  mul\n  not\n  and\n  swap1\n  dup4\n  0xffffffffffffffffffffffffffffffffffffffff\n  and\n  mul\n  or\n  swap1\n  sstore\n  pop\n    /* \"contracts/ERC20/ERC20.sol\":4469:4476  uint8 i */\n  0x00\n    /* \"contracts/ERC20/ERC20.sol\":4464:4660  for (uint8 i = 0; i < orgRecords.length; i++) {... */\ntag_33:\n    /* \"contracts/ERC20/ERC20.sol\":4486:4503  orgRecords.length */\n  0x07\n    /* \"contracts/ERC20/ERC20.sol\":4482:4483  i */\n  dup2\n    /* \"contracts/ERC20/ERC20.sol\":4482:4503  i < orgRecords.length */\n  0xff\n  and\n  lt\n    /* \"contracts/ERC20/ERC20.sol\":4464:4660  for (uint8 i = 0; i < orgRecords.length; i++) {... */\n  iszero\n  tag_34\n  jumpi\n    /* \"contracts/ERC20/ERC20.sol\":4524:4531  uint8 x */\n  0x00\n    /* \"contracts/ERC20/ERC20.sol\":4538:4539  1 */\n  0x01\n    /* \"contracts/ERC20/ERC20.sol\":4534:4535  i */\n  dup3\n    /* \"contracts/ERC20/ERC20.sol\":4534:4539  i + 1 */\n  tag_36\n  swap2\n  swap1\n  tag_37\n  jump\t// in\ntag_36:\n    /* \"contracts/ERC20/ERC20.sol\":4524:4539  uint8 x = i + 1 */\n  swap1\n  pop\n    /* \"contracts/ERC20/ERC20.sol\":4577:4587  orgRecords */\n  0x2d\n    /* \"contracts/ERC20/ERC20.sol\":4588:4589  i */\n  dup3\n    /* \"contracts/ERC20/ERC20.sol\":4577:4590  orgRecords[i] */\n  0xff\n  and\n  0x07\n  dup2\n  lt\n  tag_38\n  jumpi\n  tag_39\n  tag_40\n  jump\t// in\ntag_39:\ntag_38:\n  0x05\n  mul\n  add\n    /* \"contracts/ERC20/ERC20.sol\":4591:4592  0 */\n  0x00\n    /* \"contracts/ERC20/ERC20.sol\":4577:4593  orgRecords[i][0] */\n  0x05\n  dup2\n  lt\n  tag_42\n  jumpi\n  tag_43\n  tag_40\n  jump\t// in\ntag_43:\ntag_42:\n  add\n  sload\n    /* \"contracts/ERC20/ERC20.sol\":4553:4562  orgRecord */\n  0x07\n    /* \"contracts/ERC20/ERC20.sol\":4553:4565  orgRecord[x] */\n  0x00\n    /* \"contracts/ERC20/ERC20.sol\":4563:4564  x */\n  dup4\n    /* \"contracts/ERC20/ERC20.sol\":4553:4565  orgRecord[x] */\n  0xff\n  and\n  0xff\n  and\n  dup2\n  mstore\n  0x20\n  add\n  swap1\n  dup2\n  mstore\n  0x20\n  add\n  0x00\n  keccak256\n    /* \"contracts/ERC20/ERC20.sol\":4553:4574  orgRecord[x].orgTotal */\n  0x00\n  add\n    /* \"contracts/ERC20/ERC20.sol\":4553:4593  orgRecord[x].orgTotal = orgRecords[i][0] */\n  dup2\n  swap1\n  sstore\n  pop\n    /* \"contracts/ERC20/ERC20.sol\":4633:4643  orgRecords */\n  0x2d\n    /* \"contracts/ERC20/ERC20.sol\":4644:4645  i */\n  dup3\n    /* \"contracts/ERC20/ERC20.sol\":4633:4646  orgRecords[i] */\n  0xff\n  and\n  0x07\n  dup2\n  lt\n  tag_45\n  jumpi\n  tag_46\n  tag_40\n  jump\t// in\ntag_46:\ntag_45:\n  0x05\n  mul\n  add\n    /* \"contracts/ERC20/ERC20.sol\":4647:4648  0 */\n  0x00\n    /* \"contracts/ERC20/ERC20.sol\":4633:4649  orgRecords[i][0] */\n  0x05\n  dup2\n  lt\n  tag_48\n  jumpi\n  tag_49\n  tag_40\n  jump\t// in\ntag_49:\ntag_48:\n  add\n  sload\n    /* \"contracts/ERC20/ERC20.sol\":4607:4616  orgRecord */\n  0x07\n    /* \"contracts/ERC20/ERC20.sol\":4607:4619  orgRecord[x] */\n  0x00\n    /* \"contracts/ERC20/ERC20.sol\":4617:4618  x */\n  dup4\n    /* \"contracts/ERC20/ERC20.sol\":4607:4619  orgRecord[x] */\n  0xff\n  and\n  0xff\n  and\n  dup2\n  mstore\n  0x20\n  add\n  swap1\n  dup2\n  mstore\n  0x20\n  add\n  0x00\n  keccak256\n    /* \"contracts/ERC20/ERC20.sol\":4607:4630  orgRecord[x].orgBalance */\n  0x01\n  add\n    /* \"contracts/ERC20/ERC20.sol\":4607:4649  orgRecord[x].orgBalance = orgRecords[i][0] */\n  dup2\n  swap1\n  sstore\n  pop\n    /* \"contracts/ERC20/ERC20.sol\":4510:4660  {... */\n  pop\n    /* \"contracts/ERC20/ERC20.sol\":4505:4508  i++ */\n  dup1\n  dup1\n  tag_51\n  swap1\n  tag_52\n  jump\t// in\ntag_51:\n  swap2\n  pop\n  pop\n    /* \"contracts/ERC20/ERC20.sol\":4464:4660  for (uint8 i = 0; i < orgRecords.length; i++) {... */\n  jump(tag_33)\ntag_34:\n  pop\n    /* \"contracts/ERC20/ERC20.sol\":4290:4666  constructor(string memory name_, string memory symbol_) {... */\n  pop\n  pop\n    /* \"contracts/ERC20/ERC20.sol\":1514:26285  contract ERC20 is Context, IERC20, IERC20Metadata {... */\n  jump(tag_53)\ntag_2:\n  dup3\n  0x05\n  dup2\n  add\n  swap3\n  dup3\n  iszero\n  tag_54\n  jumpi\n  swap2\n  0x20\n  mul\n  dup3\n  add\ntag_55:\n  dup3\n  dup2\n  gt\n  iszero\n  tag_56\n  jumpi\n  dup3\n  mload\n  dup3\n  swap1\n  0xffffffffffffffffffffff\n  and\n  swap1\n  sstore\n  swap2\n  0x20\n  add\n  swap2\n  swap1\n  0x01\n  add\n  swap1\n  jump(tag_55)\ntag_56:\ntag_54:\n  pop\n  swap1\n  pop\n  tag_57\n  swap2\n  swap1\n  tag_58\n  jump\t// in\ntag_57:\n  pop\n  swap1\n  jump\t// out\ntag_24:\n  dup3\n  mul(0x05, 0x07)\n  dup2\n  add\n  swap3\n  dup3\n  iszero\n  tag_59\n  jumpi\n  swap2\n  0x20\n  mul\n  dup3\n  add\ntag_60:\n  dup3\n  dup2\n  gt\n  iszero\n  tag_61\n  jumpi\n  dup3\n  mload\n  dup3\n  swap1\n  0x05\n  tag_62\n  swap3\n  swap2\n  swap1\n  tag_63\n  jump\t// in\ntag_62:\n  pop\n  swap2\n  0x20\n  add\n  swap2\n  swap1\n  0x05\n  add\n  swap1\n  jump(tag_60)\ntag_61:\ntag_59:\n  pop\n  swap1\n  pop\n  tag_64\n  swap2\n  swap1\n  tag_65\n  jump\t// in\ntag_64:\n  pop\n  swap1\n  jump\t// out\ntag_58:\ntag_66:\n  dup1\n  dup3\n  gt\n  iszero\n  tag_67\n  jumpi\n  0x00\n  dup2\n  0x00\n  swap1\n  sstore\n  pop\n  0x01\n  add\n  jump(tag_66)\ntag_67:\n  pop\n  swap1\n  jump\t// out\ntag_63:\n  dup3\n  0x05\n  dup2\n  add\n  swap3\n  dup3\n  iszero\n  tag_68\n  jumpi\n  swap2\n  0x20\n  mul\n  dup3\n  add\ntag_69:\n  dup3\n  dup2\n  gt\n  iszero\n  tag_70\n  jumpi\n  dup3\n  mload\n  dup3\n  sstore\n  swap2\n  0x20\n  add\n  swap2\n  swap1\n  0x01\n  add\n  swap1\n  jump(tag_69)\ntag_70:\ntag_68:\n  pop\n  swap1\n  pop\n  tag_71\n  swap2\n  swap1\n  tag_58\n  jump\t// in\ntag_71:\n  pop\n  swap1\n  jump\t// out\ntag_65:\ntag_72:\n  dup1\n  dup3\n  gt\n  iszero\n  tag_73\n  jumpi\n  0x00\n  dup2\n  dup2\n  tag_74\n  swap2\n  swap1\n  tag_75\n  jump\t// in\ntag_74:\n  pop\n  0x05\n  add\n  jump(tag_72)\ntag_73:\n  pop\n  swap1\n  jump\t// out\ntag_75:\n  pop\n  0x00\n  dup2\n  sstore\n  0x01\n  add\n  0x00\n  dup2\n  sstore\n  0x01\n  add\n  0x00\n  dup2\n  sstore\n  0x01\n  add\n  0x00\n  dup2\n  sstore\n  0x01\n  add\n  0x00\n  swap1\n  sstore\n  jump\t// out\n    /* \"#utility.yul\":7:82   */\ntag_76:\n    /* \"#utility.yul\":40:46   */\n  0x00\n    /* \"#utility.yul\":73:75   */\n  0x40\n    /* \"#utility.yul\":67:76   */\n  mload\n    /* \"#utility.yul\":57:76   */\n  swap1\n  pop\n    /* \"#utility.yul\":7:82   */\n  swap1\n  jump\t// out\n    /* \"#utility.yul\":88:205   */\ntag_77:\n    /* \"#utility.yul\":197:198   */\n  0x00\n    /* \"#utility.yul\":194:195   */\n  dup1\n    /* \"#utility.yul\":187:199   */\n  revert\n    /* \"#utility.yul\":211:328   */\ntag_78:\n    /* \"#utility.yul\":320:321   */\n  0x00\n    /* \"#utility.yul\":317:318   */\n  dup1\n    /* \"#utility.yul\":310:322   */\n  revert\n    /* \"#utility.yul\":334:451   */\ntag_79:\n    /* \"#utility.yul\":443:444   */\n  0x00\n    /* \"#utility.yul\":440:441   */\n  dup1\n    /* \"#utility.yul\":433:445   */\n  revert\n    /* \"#utility.yul\":457:574   */\ntag_80:\n    /* \"#utility.yul\":566:567   */\n  0x00\n    /* \"#utility.yul\":563:564   */\n  dup1\n    /* \"#utility.yul\":556:568   */\n  revert\n    /* \"#utility.yul\":580:682   */\ntag_81:\n    /* \"#utility.yul\":621:627   */\n  0x00\n    /* \"#utility.yul\":672:674   */\n  0x1f\n    /* \"#utility.yul\":668:675   */\n  not\n    /* \"#utility.yul\":663:665   */\n  0x1f\n    /* \"#utility.yul\":656:661   */\n  dup4\n    /* \"#utility.yul\":652:666   */\n  add\n    /* \"#utility.yul\":648:676   */\n  and\n    /* \"#utility.yul\":638:676   */\n  swap1\n  pop\n    /* \"#utility.yul\":580:682   */\n  swap2\n  swap1\n  pop\n  jump\t// out\n    /* \"#utility.yul\":688:868   */\ntag_82:\n    /* \"#utility.yul\":736:813   */\n  0x4e487b7100000000000000000000000000000000000000000000000000000000\n    /* \"#utility.yul\":733:734   */\n  0x00\n    /* \"#utility.yul\":726:814   */\n  mstore\n    /* \"#utility.yul\":833:837   */\n  0x41\n    /* \"#utility.yul\":830:831   */\n  0x04\n    /* \"#utility.yul\":823:838   */\n  mstore\n    /* \"#utility.yul\":857:861   */\n  0x24\n    /* \"#utility.yul\":854:855   */\n  0x00\n    /* \"#utility.yul\":847:862   */\n  revert\n    /* \"#utility.yul\":874:1155   */\ntag_83:\n    /* \"#utility.yul\":957:984   */\n  tag_119\n    /* \"#utility.yul\":979:983   */\n  dup3\n    /* \"#utility.yul\":957:984   */\n  tag_81\n  jump\t// in\ntag_119:\n    /* \"#utility.yul\":949:955   */\n  dup2\n    /* \"#utility.yul\":945:985   */\n  add\n    /* \"#utility.yul\":1087:1093   */\n  dup2\n    /* \"#utility.yul\":1075:1085   */\n  dup2\n    /* \"#utility.yul\":1072:1094   */\n  lt\n    /* \"#utility.yul\":1051:1069   */\n  0xffffffffffffffff\n    /* \"#utility.yul\":1039:1049   */\n  dup3\n    /* \"#utility.yul\":1036:1070   */\n  gt\n    /* \"#utility.yul\":1033:1095   */\n  or\n    /* \"#utility.yul\":1030:1118   */\n  iszero\n  tag_120\n  jumpi\n    /* \"#utility.yul\":1098:1116   */\n  tag_121\n  tag_82\n  jump\t// in\ntag_121:\n    /* \"#utility.yul\":1030:1118   */\ntag_120:\n    /* \"#utility.yul\":1138:1148   */\n  dup1\n    /* \"#utility.yul\":1134:1136   */\n  0x40\n    /* \"#utility.yul\":1127:1149   */\n  mstore\n    /* \"#utility.yul\":917:1155   */\n  pop\n    /* \"#utility.yul\":874:1155   */\n  pop\n  pop\n  jump\t// out\n    /* \"#utility.yul\":1161:1290   */\ntag_84:\n    /* \"#utility.yul\":1195:1201   */\n  0x00\n    /* \"#utility.yul\":1222:1242   */\n  tag_123\n  tag_76\n  jump\t// in\ntag_123:\n    /* \"#utility.yul\":1212:1242   */\n  swap1\n  pop\n    /* \"#utility.yul\":1251:1284   */\n  tag_124\n    /* \"#utility.yul\":1279:1283   */\n  dup3\n    /* \"#utility.yul\":1271:1277   */\n  dup3\n    /* \"#utility.yul\":1251:1284   */\n  tag_83\n  jump\t// in\ntag_124:\n    /* \"#utility.yul\":1161:1290   */\n  swap2\n  swap1\n  pop\n  jump\t// out\n    /* \"#utility.yul\":1296:1604   */\ntag_85:\n    /* \"#utility.yul\":1358:1362   */\n  0x00\n    /* \"#utility.yul\":1448:1466   */\n  0xffffffffffffffff\n    /* \"#utility.yul\":1440:1446   */\n  dup3\n    /* \"#utility.yul\":1437:1467   */\n  gt\n    /* \"#utility.yul\":1434:1490   */\n  iszero\n  tag_126\n  jumpi\n    /* \"#utility.yul\":1470:1488   */\n  tag_127\n  tag_82\n  jump\t// in\ntag_127:\n    /* \"#utility.yul\":1434:1490   */\ntag_126:\n    /* \"#utility.yul\":1508:1537   */\n  tag_128\n    /* \"#utility.yul\":1530:1536   */\n  dup3\n    /* \"#utility.yul\":1508:1537   */\n  tag_81\n  jump\t// in\ntag_128:\n    /* \"#utility.yul\":1500:1537   */\n  swap1\n  pop\n    /* \"#utility.yul\":1592:1596   */\n  0x20\n    /* \"#utility.yul\":1586:1590   */\n  dup2\n    /* \"#utility.yul\":1582:1597   */\n  add\n    /* \"#utility.yul\":1574:1597   */\n  swap1\n  pop\n    /* \"#utility.yul\":1296:1604   */\n  swap2\n  swap1\n  pop\n  jump\t// out\n    /* \"#utility.yul\":1610:1856   */\ntag_86:\n    /* \"#utility.yul\":1691:1692   */\n  0x00\n    /* \"#utility.yul\":1701:1814   */\ntag_130:\n    /* \"#utility.yul\":1715:1721   */\n  dup4\n    /* \"#utility.yul\":1712:1713   */\n  dup2\n    /* \"#utility.yul\":1709:1722   */\n  lt\n    /* \"#utility.yul\":1701:1814   */\n  iszero\n  tag_132\n  jumpi\n    /* \"#utility.yul\":1800:1801   */\n  dup1\n    /* \"#utility.yul\":1795:1798   */\n  dup3\n    /* \"#utility.yul\":1791:1802   */\n  add\n    /* \"#utility.yul\":1785:1803   */\n  mload\n    /* \"#utility.yul\":1781:1782   */\n  dup2\n    /* \"#utility.yul\":1776:1779   */\n  dup5\n    /* \"#utility.yul\":1772:1783   */\n  add\n    /* \"#utility.yul\":1765:1804   */\n  mstore\n    /* \"#utility.yul\":1737:1739   */\n  0x20\n    /* \"#utility.yul\":1734:1735   */\n  dup2\n    /* \"#utility.yul\":1730:1740   */\n  add\n    /* \"#utility.yul\":1725:1740   */\n  swap1\n  pop\n    /* \"#utility.yul\":1701:1814   */\n  jump(tag_130)\ntag_132:\n    /* \"#utility.yul\":1848:1849   */\n  0x00\n    /* \"#utility.yul\":1839:1845   */\n  dup5\n    /* \"#utility.yul\":1834:1837   */\n  dup5\n    /* \"#utility.yul\":1830:1846   */\n  add\n    /* \"#utility.yul\":1823:1850   */\n  mstore\n    /* \"#utility.yul\":1672:1856   */\n  pop\n    /* \"#utility.yul\":1610:1856   */\n  pop\n  pop\n  pop\n  jump\t// out\n    /* \"#utility.yul\":1862:2296   */\ntag_87:\n    /* \"#utility.yul\":1951:1956   */\n  0x00\n    /* \"#utility.yul\":1976:2042   */\n  tag_134\n    /* \"#utility.yul\":1992:2041   */\n  tag_135\n    /* \"#utility.yul\":2034:2040   */\n  dup5\n    /* \"#utility.yul\":1992:2041   */\n  tag_85\n  jump\t// in\ntag_135:\n    /* \"#utility.yul\":1976:2042   */\n  tag_84\n  jump\t// in\ntag_134:\n    /* \"#utility.yul\":1967:2042   */\n  swap1\n  pop\n    /* \"#utility.yul\":2065:2071   */\n  dup3\n    /* \"#utility.yul\":2058:2063   */\n  dup2\n    /* \"#utility.yul\":2051:2072   */\n  mstore\n    /* \"#utility.yul\":2103:2107   */\n  0x20\n    /* \"#utility.yul\":2096:2101   */\n  dup2\n    /* \"#utility.yul\":2092:2108   */\n  add\n    /* \"#utility.yul\":2141:2144   */\n  dup5\n    /* \"#utility.yul\":2132:2138   */\n  dup5\n    /* \"#utility.yul\":2127:2130   */\n  dup5\n    /* \"#utility.yul\":2123:2139   */\n  add\n    /* \"#utility.yul\":2120:2145   */\n  gt\n    /* \"#utility.yul\":2117:2229   */\n  iszero\n  tag_136\n  jumpi\n    /* \"#utility.yul\":2148:2227   */\n  tag_137\n  tag_80\n  jump\t// in\ntag_137:\n    /* \"#utility.yul\":2117:2229   */\ntag_136:\n    /* \"#utility.yul\":2238:2290   */\n  tag_138\n    /* \"#utility.yul\":2283:2289   */\n  dup5\n    /* \"#utility.yul\":2278:2281   */\n  dup3\n    /* \"#utility.yul\":2273:2276   */\n  dup6\n    /* \"#utility.yul\":2238:2290   */\n  tag_86\n  jump\t// in\ntag_138:\n    /* \"#utility.yul\":1957:2296   */\n  pop\n    /* \"#utility.yul\":1862:2296   */\n  swap4\n  swap3\n  pop\n  pop\n  pop\n  jump\t// out\n    /* \"#utility.yul\":2316:2671   */\ntag_88:\n    /* \"#utility.yul\":2383:2388   */\n  0x00\n    /* \"#utility.yul\":2432:2435   */\n  dup3\n    /* \"#utility.yul\":2425:2429   */\n  0x1f\n    /* \"#utility.yul\":2417:2423   */\n  dup4\n    /* \"#utility.yul\":2413:2430   */\n  add\n    /* \"#utility.yul\":2409:2436   */\n  slt\n    /* \"#utility.yul\":2399:2521   */\n  tag_140\n  jumpi\n    /* \"#utility.yul\":2440:2519   */\n  tag_141\n  tag_79\n  jump\t// in\ntag_141:\n    /* \"#utility.yul\":2399:2521   */\ntag_140:\n    /* \"#utility.yul\":2550:2556   */\n  dup2\n    /* \"#utility.yul\":2544:2557   */\n  mload\n    /* \"#utility.yul\":2575:2665   */\n  tag_142\n    /* \"#utility.yul\":2661:2664   */\n  dup5\n    /* \"#utility.yul\":2653:2659   */\n  dup3\n    /* \"#utility.yul\":2646:2650   */\n  0x20\n    /* \"#utility.yul\":2638:2644   */\n  dup7\n    /* \"#utility.yul\":2634:2651   */\n  add\n    /* \"#utility.yul\":2575:2665   */\n  tag_87\n  jump\t// in\ntag_142:\n    /* \"#utility.yul\":2566:2665   */\n  swap2\n  pop\n    /* \"#utility.yul\":2389:2671   */\n  pop\n    /* \"#utility.yul\":2316:2671   */\n  swap3\n  swap2\n  pop\n  pop\n  jump\t// out\n    /* \"#utility.yul\":2677:3530   */\ntag_27:\n    /* \"#utility.yul\":2776:2782   */\n  0x00\n    /* \"#utility.yul\":2784:2790   */\n  dup1\n    /* \"#utility.yul\":2833:2835   */\n  0x40\n    /* \"#utility.yul\":2821:2830   */\n  dup4\n    /* \"#utility.yul\":2812:2819   */\n  dup6\n    /* \"#utility.yul\":2808:2831   */\n  sub\n    /* \"#utility.yul\":2804:2836   */\n  slt\n    /* \"#utility.yul\":2801:2920   */\n  iszero\n  tag_144\n  jumpi\n    /* \"#utility.yul\":2839:2918   */\n  tag_145\n  tag_77\n  jump\t// in\ntag_145:\n    /* \"#utility.yul\":2801:2920   */\ntag_144:\n    /* \"#utility.yul\":2980:2981   */\n  0x00\n    /* \"#utility.yul\":2969:2978   */\n  dup4\n    /* \"#utility.yul\":2965:2982   */\n  add\n    /* \"#utility.yul\":2959:2983   */\n  mload\n    /* \"#utility.yul\":3010:3028   */\n  0xffffffffffffffff\n    /* \"#utility.yul\":3002:3008   */\n  dup2\n    /* \"#utility.yul\":2999:3029   */\n  gt\n    /* \"#utility.yul\":2996:3113   */\n  iszero\n  tag_146\n  jumpi\n    /* \"#utility.yul\":3032:3111   */\n  tag_147\n  tag_78\n  jump\t// in\ntag_147:\n    /* \"#utility.yul\":2996:3113   */\ntag_146:\n    /* \"#utility.yul\":3137:3211   */\n  tag_148\n    /* \"#utility.yul\":3203:3210   */\n  dup6\n    /* \"#utility.yul\":3194:3200   */\n  dup3\n    /* \"#utility.yul\":3183:3192   */\n  dup7\n    /* \"#utility.yul\":3179:3201   */\n  add\n    /* \"#utility.yul\":3137:3211   */\n  tag_88\n  jump\t// in\ntag_148:\n    /* \"#utility.yul\":3127:3211   */\n  swap3\n  pop\n    /* \"#utility.yul\":2930:3221   */\n  pop\n    /* \"#utility.yul\":3281:3283   */\n  0x20\n    /* \"#utility.yul\":3270:3279   */\n  dup4\n    /* \"#utility.yul\":3266:3284   */\n  add\n    /* \"#utility.yul\":3260:3285   */\n  mload\n    /* \"#utility.yul\":3312:3330   */\n  0xffffffffffffffff\n    /* \"#utility.yul\":3304:3310   */\n  dup2\n    /* \"#utility.yul\":3301:3331   */\n  gt\n    /* \"#utility.yul\":3298:3415   */\n  iszero\n  tag_149\n  jumpi\n    /* \"#utility.yul\":3334:3413   */\n  tag_150\n  tag_78\n  jump\t// in\ntag_150:\n    /* \"#utility.yul\":3298:3415   */\ntag_149:\n    /* \"#utility.yul\":3439:3513   */\n  tag_151\n    /* \"#utility.yul\":3505:3512   */\n  dup6\n    /* \"#utility.yul\":3496:3502   */\n  dup3\n    /* \"#utility.yul\":3485:3494   */\n  dup7\n    /* \"#utility.yul\":3481:3503   */\n  add\n    /* \"#utility.yul\":3439:3513   */\n  tag_88\n  jump\t// in\ntag_151:\n    /* \"#utility.yul\":3429:3513   */\n  swap2\n  pop\n    /* \"#utility.yul\":3231:3523   */\n  pop\n    /* \"#utility.yul\":2677:3530   */\n  swap3\n  pop\n  swap3\n  swap1\n  pop\n  jump\t// out\n    /* \"#utility.yul\":3536:3635   */\ntag_89:\n    /* \"#utility.yul\":3588:3594   */\n  0x00\n    /* \"#utility.yul\":3622:3627   */\n  dup2\n    /* \"#utility.yul\":3616:3628   */\n  mload\n    /* \"#utility.yul\":3606:3628   */\n  swap1\n  pop\n    /* \"#utility.yul\":3536:3635   */\n  swap2\n  swap1\n  pop\n  jump\t// out\n    /* \"#utility.yul\":3641:3821   */\ntag_90:\n    /* \"#utility.yul\":3689:3766   */\n  0x4e487b7100000000000000000000000000000000000000000000000000000000\n    /* \"#utility.yul\":3686:3687   */\n  0x00\n    /* \"#utility.yul\":3679:3767   */\n  mstore\n    /* \"#utility.yul\":3786:3790   */\n  0x22\n    /* \"#utility.yul\":3783:3784   */\n  0x04\n    /* \"#utility.yul\":3776:3791   */\n  mstore\n    /* \"#utility.yul\":3810:3814   */\n  0x24\n    /* \"#utility.yul\":3807:3808   */\n  0x00\n    /* \"#utility.yul\":3800:3815   */\n  revert\n    /* \"#utility.yul\":3827:4147   */\ntag_91:\n    /* \"#utility.yul\":3871:3877   */\n  0x00\n    /* \"#utility.yul\":3908:3909   */\n  0x02\n    /* \"#utility.yul\":3902:3906   */\n  dup3\n    /* \"#utility.yul\":3898:3910   */\n  div\n    /* \"#utility.yul\":3888:3910   */\n  swap1\n  pop\n    /* \"#utility.yul\":3955:3956   */\n  0x01\n    /* \"#utility.yul\":3949:3953   */\n  dup3\n    /* \"#utility.yul\":3945:3957   */\n  and\n    /* \"#utility.yul\":3976:3994   */\n  dup1\n    /* \"#utility.yul\":3966:4047   */\n  tag_155\n  jumpi\n    /* \"#utility.yul\":4032:4036   */\n  0x7f\n    /* \"#utility.yul\":4024:4030   */\n  dup3\n    /* \"#utility.yul\":4020:4037   */\n  and\n    /* \"#utility.yul\":4010:4037   */\n  swap2\n  pop\n    /* \"#utility.yul\":3966:4047   */\ntag_155:\n    /* \"#utility.yul\":4094:4096   */\n  0x20\n    /* \"#utility.yul\":4086:4092   */\n  dup3\n    /* \"#utility.yul\":4083:4097   */\n  lt\n    /* \"#utility.yul\":4063:4081   */\n  dup2\n    /* \"#utility.yul\":4060:4098   */\n  sub\n    /* \"#utility.yul\":4057:4141   */\n  tag_156\n  jumpi\n    /* \"#utility.yul\":4113:4131   */\n  tag_157\n  tag_90\n  jump\t// in\ntag_157:\n    /* \"#utility.yul\":4057:4141   */\ntag_156:\n    /* \"#utility.yul\":3878:4147   */\n  pop\n    /* \"#utility.yul\":3827:4147   */\n  swap2\n  swap1\n  pop\n  jump\t// out\n    /* \"#utility.yul\":4153:4294   */\ntag_92:\n    /* \"#utility.yul\":4202:4206   */\n  0x00\n    /* \"#utility.yul\":4225:4228   */\n  dup2\n    /* \"#utility.yul\":4217:4228   */\n  swap1\n  pop\n    /* \"#utility.yul\":4248:4251   */\n  dup2\n    /* \"#utility.yul\":4245:4246   */\n  0x00\n    /* \"#utility.yul\":4238:4252   */\n  mstore\n    /* \"#utility.yul\":4282:4286   */\n  0x20\n    /* \"#utility.yul\":4279:4280   */\n  0x00\n    /* \"#utility.yul\":4269:4287   */\n  keccak256\n    /* \"#utility.yul\":4261:4287   */\n  swap1\n  pop\n    /* \"#utility.yul\":4153:4294   */\n  swap2\n  swap1\n  pop\n  jump\t// out\n    /* \"#utility.yul\":4300:4393   */\ntag_93:\n    /* \"#utility.yul\":4337:4343   */\n  0x00\n    /* \"#utility.yul\":4384:4386   */\n  0x20\n    /* \"#utility.yul\":4379:4381   */\n  0x1f\n    /* \"#utility.yul\":4372:4377   */\n  dup4\n    /* \"#utility.yul\":4368:4382   */\n  add\n    /* \"#utility.yul\":4364:4387   */\n  div\n    /* \"#utility.yul\":4354:4387   */\n  swap1\n  pop\n    /* \"#utility.yul\":4300:4393   */\n  swap2\n  swap1\n  pop\n  jump\t// out\n    /* \"#utility.yul\":4399:4506   */\ntag_94:\n    /* \"#utility.yul\":4443:4451   */\n  0x00\n    /* \"#utility.yul\":4493:4498   */\n  dup3\n    /* \"#utility.yul\":4487:4491   */\n  dup3\n    /* \"#utility.yul\":4483:4499   */\n  shl\n    /* \"#utility.yul\":4462:4499   */\n  swap1\n  pop\n    /* \"#utility.yul\":4399:4506   */\n  swap3\n  swap2\n  pop\n  pop\n  jump\t// out\n    /* \"#utility.yul\":4512:4905   */\ntag_95:\n    /* \"#utility.yul\":4581:4587   */\n  0x00\n    /* \"#utility.yul\":4631:4632   */\n  0x08\n    /* \"#utility.yul\":4619:4629   */\n  dup4\n    /* \"#utility.yul\":4615:4633   */\n  mul\n    /* \"#utility.yul\":4654:4751   */\n  tag_162\n    /* \"#utility.yul\":4684:4750   */\n  0xffffffffffffffffffffffffffffffffffffffffffffffffffffffffffffffff\n    /* \"#utility.yul\":4673:4682   */\n  dup3\n    /* \"#utility.yul\":4654:4751   */\n  tag_94\n  jump\t// in\ntag_162:\n    /* \"#utility.yul\":4772:4811   */\n  tag_163\n    /* \"#utility.yul\":4802:4810   */\n  dup7\n    /* \"#utility.yul\":4791:4800   */\n  dup4\n    /* \"#utility.yul\":4772:4811   */\n  tag_94\n  jump\t// in\ntag_163:\n    /* \"#utility.yul\":4760:4811   */\n  swap6\n  pop\n    /* \"#utility.yul\":4844:4848   */\n  dup1\n    /* \"#utility.yul\":4840:4849   */\n  not\n    /* \"#utility.yul\":4833:4838   */\n  dup5\n    /* \"#utility.yul\":4829:4850   */\n  and\n    /* \"#utility.yul\":4820:4850   */\n  swap4\n  pop\n    /* \"#utility.yul\":4893:4897   */\n  dup1\n    /* \"#utility.yul\":4883:4891   */\n  dup7\n    /* \"#utility.yul\":4879:4898   */\n  and\n    /* \"#utility.yul\":4872:4877   */\n  dup5\n    /* \"#utility.yul\":4869:4899   */\n  or\n    /* \"#utility.yul\":4859:4899   */\n  swap3\n  pop\n    /* \"#utility.yul\":4588:4905   */\n  pop\n  pop\n    /* \"#utility.yul\":4512:4905   */\n  swap4\n  swap3\n  pop\n  pop\n  pop\n  jump\t// out\n    /* \"#utility.yul\":4911:4988   */\ntag_96:\n    /* \"#utility.yul\":4948:4955   */\n  0x00\n    /* \"#utility.yul\":4977:4982   */\n  dup2\n    /* \"#utility.yul\":4966:4982   */\n  swap1\n  pop\n    /* \"#utility.yul\":4911:4988   */\n  swap2\n  swap1\n  pop\n  jump\t// out\n    /* \"#utility.yul\":4994:5054   */\ntag_97:\n    /* \"#utility.yul\":5022:5025   */\n  0x00\n    /* \"#utility.yul\":5043:5048   */\n  dup2\n    /* \"#utility.yul\":5036:5048   */\n  swap1\n  pop\n    /* \"#utility.yul\":4994:5054   */\n  swap2\n  swap1\n  pop\n  jump\t// out\n    /* \"#utility.yul\":5060:5202   */\ntag_98:\n    /* \"#utility.yul\":5110:5119   */\n  0x00\n    /* \"#utility.yul\":5143:5196   */\n  tag_167\n    /* \"#utility.yul\":5161:5195   */\n  tag_168\n    /* \"#utility.yul\":5170:5194   */\n  tag_169\n    /* \"#utility.yul\":5188:5193   */\n  dup5\n    /* \"#utility.yul\":5170:5194   */\n  tag_96\n  jump\t// in\ntag_169:\n    /* \"#utility.yul\":5161:5195   */\n  tag_97\n  jump\t// in\ntag_168:\n    /* \"#utility.yul\":5143:5196   */\n  tag_96\n  jump\t// in\ntag_167:\n    /* \"#utility.yul\":5130:5196   */\n  swap1\n  pop\n    /* \"#utility.yul\":5060:5202   */\n  swap2\n  swap1\n  pop\n  jump\t// out\n    /* \"#utility.yul\":5208:5283   */\ntag_99:\n    /* \"#utility.yul\":5251:5254   */\n  0x00\n    /* \"#utility.yul\":5272:5277   */\n  dup2\n    /* \"#utility.yul\":5265:5277   */\n  swap1\n  pop\n    /* \"#utility.yul\":5208:5283   */\n  swap2\n  swap1\n  pop\n  jump\t// out\n    /* \"#utility.yul\":5289:5558   */\ntag_100:\n    /* \"#utility.yul\":5399:5438   */\n  tag_172\n    /* \"#utility.yul\":5430:5437   */\n  dup4\n    /* \"#utility.yul\":5399:5438   */\n  tag_98\n  jump\t// in\ntag_172:\n    /* \"#utility.yul\":5460:5551   */\n  tag_173\n    /* \"#utility.yul\":5509:5550   */\n  tag_174\n    /* \"#utility.yul\":5533:5549   */\n  dup3\n    /* \"#utility.yul\":5509:5550   */\n  tag_99\n  jump\t// in\ntag_174:\n    /* \"#utility.yul\":5501:5507   */\n  dup5\n    /* \"#utility.yul\":5494:5498   */\n  dup5\n    /* \"#utility.yul\":5488:5499   */\n  sload\n    /* \"#utility.yul\":5460:5551   */\n  tag_95\n  jump\t// in\ntag_173:\n    /* \"#utility.yul\":5454:5458   */\n  dup3\n    /* \"#utility.yul\":5447:5552   */\n  sstore\n    /* \"#utility.yul\":5365:5558   */\n  pop\n    /* \"#utility.yul\":5289:5558   */\n  pop\n  pop\n  pop\n  jump\t// out\n    /* \"#utility.yul\":5564:5637   */\ntag_101:\n    /* \"#utility.yul\":5609:5612   */\n  0x00\n    /* \"#utility.yul\":5564:5637   */\n  swap1\n  jump\t// out\n    /* \"#utility.yul\":5643:5832   */\ntag_102:\n    /* \"#utility.yul\":5720:5752   */\n  tag_177\n  tag_101\n  jump\t// in\ntag_177:\n    /* \"#utility.yul\":5761:5826   */\n  tag_178\n    /* \"#utility.yul\":5819:5825   */\n  dup2\n    /* \"#utility.yul\":5811:5817   */\n  dup5\n    /* \"#utility.yul\":5805:5809   */\n  dup5\n    /* \"#utility.yul\":5761:5826   */\n  tag_100\n  jump\t// in\ntag_178:\n    /* \"#utility.yul\":5696:5832   */\n  pop\n    /* \"#utility.yul\":5643:5832   */\n  pop\n  pop\n  jump\t// out\n    /* \"#utility.yul\":5838:6024   */\ntag_103:\n    /* \"#utility.yul\":5898:6018   */\ntag_180:\n    /* \"#utility.yul\":5915:5918   */\n  dup2\n    /* \"#utility.yul\":5908:5913   */\n  dup2\n    /* \"#utility.yul\":5905:5919   */\n  lt\n    /* \"#utility.yul\":5898:6018   */\n  iszero\n  tag_182\n  jumpi\n    /* \"#utility.yul\":5969:6008   */\n  tag_183\n    /* \"#utility.yul\":6006:6007   */\n  0x00\n    /* \"#utility.yul\":5999:6004   */\n  dup3\n    /* \"#utility.yul\":5969:6008   */\n  tag_102\n  jump\t// in\ntag_183:\n    /* \"#utility.yul\":5942:5943   */\n  0x01\n    /* \"#utility.yul\":5935:5940   */\n  dup2\n    /* \"#utility.yul\":5931:5944   */\n  add\n    /* \"#utility.yul\":5922:5944   */\n  swap1\n  pop\n    /* \"#utility.yul\":5898:6018   */\n  jump(tag_180)\ntag_182:\n    /* \"#utility.yul\":5838:6024   */\n  pop\n  pop\n  jump\t// out\n    /* \"#utility.yul\":6030:6573   */\ntag_104:\n    /* \"#utility.yul\":6131:6133   */\n  0x1f\n    /* \"#utility.yul\":6126:6129   */\n  dup3\n    /* \"#utility.yul\":6123:6134   */\n  gt\n    /* \"#utility.yul\":6120:6566   */\n  iszero\n  tag_185\n  jumpi\n    /* \"#utility.yul\":6165:6203   */\n  tag_186\n    /* \"#utility.yul\":6197:6202   */\n  dup2\n    /* \"#utility.yul\":6165:6203   */\n  tag_92\n  jump\t// in\ntag_186:\n    /* \"#utility.yul\":6249:6278   */\n  tag_187\n    /* \"#utility.yul\":6267:6277   */\n  dup5\n    /* \"#utility.yul\":6249:6278   */\n  tag_93\n  jump\t// in\ntag_187:\n    /* \"#utility.yul\":6239:6247   */\n  dup2\n    /* \"#utility.yul\":6235:6279   */\n  add\n    /* \"#utility.yul\":6432:6434   */\n  0x20\n    /* \"#utility.yul\":6420:6430   */\n  dup6\n    /* \"#utility.yul\":6417:6435   */\n  lt\n    /* \"#utility.yul\":6414:6463   */\n  iszero\n  tag_188\n  jumpi\n    /* \"#utility.yul\":6453:6461   */\n  dup2\n    /* \"#utility.yul\":6438:6461   */\n  swap1\n  pop\n    /* \"#utility.yul\":6414:6463   */\ntag_188:\n    /* \"#utility.yul\":6476:6556   */\n  tag_189\n    /* \"#utility.yul\":6532:6554   */\n  tag_190\n    /* \"#utility.yul\":6550:6553   */\n  dup6\n    /* \"#utility.yul\":6532:6554   */\n  tag_93\n  jump\t// in\ntag_190:\n    /* \"#utility.yul\":6522:6530   */\n  dup4\n    /* \"#utility.yul\":6518:6555   */\n  add\n    /* \"#utility.yul\":6505:6516   */\n  dup3\n    /* \"#utility.yul\":6476:6556   */\n  tag_103\n  jump\t// in\ntag_189:\n    /* \"#utility.yul\":6135:6566   */\n  pop\n  pop\n    /* \"#utility.yul\":6120:6566   */\ntag_185:\n    /* \"#utility.yul\":6030:6573   */\n  pop\n  pop\n  pop\n  jump\t// out\n    /* \"#utility.yul\":6579:6696   */\ntag_105:\n    /* \"#utility.yul\":6633:6641   */\n  0x00\n    /* \"#utility.yul\":6683:6688   */\n  dup3\n    /* \"#utility.yul\":6677:6681   */\n  dup3\n    /* \"#utility.yul\":6673:6689   */\n  shr\n    /* \"#utility.yul\":6652:6689   */\n  swap1\n  pop\n    /* \"#utility.yul\":6579:6696   */\n  swap3\n  swap2\n  pop\n  pop\n  jump\t// out\n    /* \"#utility.yul\":6702:6871   */\ntag_106:\n    /* \"#utility.yul\":6746:6752   */\n  0x00\n    /* \"#utility.yul\":6779:6830   */\n  tag_193\n    /* \"#utility.yul\":6827:6828   */\n  0x00\n    /* \"#utility.yul\":6823:6829   */\n  not\n    /* \"#utility.yul\":6815:6820   */\n  dup5\n    /* \"#utility.yul\":6812:6813   */\n  0x08\n    /* \"#utility.yul\":6808:6821   */\n  mul\n    /* \"#utility.yul\":6779:6830   */\n  tag_105\n  jump\t// in\ntag_193:\n    /* \"#utility.yul\":6775:6831   */\n  not\n    /* \"#utility.yul\":6860:6864   */\n  dup1\n    /* \"#utility.yul\":6854:6858   */\n  dup4\n    /* \"#utility.yul\":6850:6865   */\n  and\n    /* \"#utility.yul\":6840:6865   */\n  swap2\n  pop\n    /* \"#utility.yul\":6753:6871   */\n  pop\n    /* \"#utility.yul\":6702:6871   */\n  swap3\n  swap2\n  pop\n  pop\n  jump\t// out\n    /* \"#utility.yul\":6876:7171   */\ntag_107:\n    /* \"#utility.yul\":6952:6956   */\n  0x00\n    /* \"#utility.yul\":7098:7127   */\n  tag_195\n    /* \"#utility.yul\":7123:7126   */\n  dup4\n    /* \"#utility.yul\":7117:7121   */\n  dup4\n    /* \"#utility.yul\":7098:7127   */\n  tag_106\n  jump\t// in\ntag_195:\n    /* \"#utility.yul\":7090:7127   */\n  swap2\n  pop\n    /* \"#utility.yul\":7160:7163   */\n  dup3\n    /* \"#utility.yul\":7157:7158   */\n  0x02\n    /* \"#utility.yul\":7153:7164   */\n  mul\n    /* \"#utility.yul\":7147:7151   */\n  dup3\n    /* \"#utility.yul\":7144:7165   */\n  or\n    /* \"#utility.yul\":7136:7165   */\n  swap1\n  pop\n    /* \"#utility.yul\":6876:7171   */\n  swap3\n  swap2\n  pop\n  pop\n  jump\t// out\n    /* \"#utility.yul\":7176:8571   */\ntag_31:\n    /* \"#utility.yul\":7293:7330   */\n  tag_197\n    /* \"#utility.yul\":7326:7329   */\n  dup3\n    /* \"#utility.yul\":7293:7330   */\n  tag_89\n  jump\t// in\ntag_197:\n    /* \"#utility.yul\":7395:7413   */\n  0xffffffffffffffff\n    /* \"#utility.yul\":7387:7393   */\n  dup2\n    /* \"#utility.yul\":7384:7414   */\n  gt\n    /* \"#utility.yul\":7381:7437   */\n  iszero\n  tag_198\n  jumpi\n    /* \"#utility.yul\":7417:7435   */\n  tag_199\n  tag_82\n  jump\t// in\ntag_199:\n    /* \"#utility.yul\":7381:7437   */\ntag_198:\n    /* \"#utility.yul\":7461:7499   */\n  tag_200\n    /* \"#utility.yul\":7493:7497   */\n  dup3\n    /* \"#utility.yul\":7487:7498   */\n  sload\n    /* \"#utility.yul\":7461:7499   */\n  tag_91\n  jump\t// in\ntag_200:\n    /* \"#utility.yul\":7546:7613   */\n  tag_201\n    /* \"#utility.yul\":7606:7612   */\n  dup3\n    /* \"#utility.yul\":7598:7604   */\n  dup3\n    /* \"#utility.yul\":7592:7596   */\n  dup6\n    /* \"#utility.yul\":7546:7613   */\n  tag_104\n  jump\t// in\ntag_201:\n    /* \"#utility.yul\":7640:7641   */\n  0x00\n    /* \"#utility.yul\":7664:7668   */\n  0x20\n    /* \"#utility.yul\":7651:7668   */\n  swap1\n  pop\n    /* \"#utility.yul\":7696:7698   */\n  0x1f\n    /* \"#utility.yul\":7688:7694   */\n  dup4\n    /* \"#utility.yul\":7685:7699   */\n  gt\n    /* \"#utility.yul\":7713:7714   */\n  0x01\n    /* \"#utility.yul\":7708:8326   */\n  dup2\n  eq\n  tag_203\n  jumpi\n    /* \"#utility.yul\":8370:8371   */\n  0x00\n    /* \"#utility.yul\":8387:8393   */\n  dup5\n    /* \"#utility.yul\":8384:8461   */\n  iszero\n  tag_204\n  jumpi\n    /* \"#utility.yul\":8436:8445   */\n  dup3\n    /* \"#utility.yul\":8431:8434   */\n  dup8\n    /* \"#utility.yul\":8427:8446   */\n  add\n    /* \"#utility.yul\":8421:8447   */\n  mload\n    /* \"#utility.yul\":8412:8447   */\n  swap1\n  pop\n    /* \"#utility.yul\":8384:8461   */\ntag_204:\n    /* \"#utility.yul\":8487:8554   */\n  tag_205\n    /* \"#utility.yul\":8547:8553   */\n  dup6\n    /* \"#utility.yul\":8540:8545   */\n  dup3\n    /* \"#utility.yul\":8487:8554   */\n  tag_107\n  jump\t// in\ntag_205:\n    /* \"#utility.yul\":8481:8485   */\n  dup7\n    /* \"#utility.yul\":8474:8555   */\n  sstore\n    /* \"#utility.yul\":8343:8565   */\n  pop\n    /* \"#utility.yul\":7678:8565   */\n  jump(tag_202)\n    /* \"#utility.yul\":7708:8326   */\ntag_203:\n    /* \"#utility.yul\":7760:7764   */\n  0x1f\n    /* \"#utility.yul\":7756:7765   */\n  not\n    /* \"#utility.yul\":7748:7754   */\n  dup5\n    /* \"#utility.yul\":7744:7766   */\n  and\n    /* \"#utility.yul\":7794:7831   */\n  tag_206\n    /* \"#utility.yul\":7826:7830   */\n  dup7\n    /* \"#utility.yul\":7794:7831   */\n  tag_92\n  jump\t// in\ntag_206:\n    /* \"#utility.yul\":7853:7854   */\n  0x00\n    /* \"#utility.yul\":7867:8075   */\ntag_207:\n    /* \"#utility.yul\":7881:7888   */\n  dup3\n    /* \"#utility.yul\":7878:7879   */\n  dup2\n    /* \"#utility.yul\":7875:7889   */\n  lt\n    /* \"#utility.yul\":7867:8075   */\n  iszero\n  tag_209\n  jumpi\n    /* \"#utility.yul\":7960:7969   */\n  dup5\n    /* \"#utility.yul\":7955:7958   */\n  dup10\n    /* \"#utility.yul\":7951:7970   */\n  add\n    /* \"#utility.yul\":7945:7971   */\n  mload\n    /* \"#utility.yul\":7937:7943   */\n  dup3\n    /* \"#utility.yul\":7930:7972   */\n  sstore\n    /* \"#utility.yul\":8011:8012   */\n  0x01\n    /* \"#utility.yul\":8003:8009   */\n  dup3\n    /* \"#utility.yul\":7999:8013   */\n  add\n    /* \"#utility.yul\":7989:8013   */\n  swap2\n  pop\n    /* \"#utility.yul\":8058:8060   */\n  0x20\n    /* \"#utility.yul\":8047:8056   */\n  dup6\n    /* \"#utility.yul\":8043:8061   */\n  add\n    /* \"#utility.yul\":8030:8061   */\n  swap5\n  pop\n    /* \"#utility.yul\":7904:7908   */\n  0x20\n    /* \"#utility.yul\":7901:7902   */\n  dup2\n    /* \"#utility.yul\":7897:7909   */\n  add\n    /* \"#utility.yul\":7892:7909   */\n  swap1\n  pop\n    /* \"#utility.yul\":7867:8075   */\n  jump(tag_207)\ntag_209:\n    /* \"#utility.yul\":8103:8109   */\n  dup7\n    /* \"#utility.yul\":8094:8101   */\n  dup4\n    /* \"#utility.yul\":8091:8110   */\n  lt\n    /* \"#utility.yul\":8088:8267   */\n  iszero\n  tag_210\n  jumpi\n    /* \"#utility.yul\":8161:8170   */\n  dup5\n    /* \"#utility.yul\":8156:8159   */\n  dup10\n    /* \"#utility.yul\":8152:8171   */\n  add\n    /* \"#utility.yul\":8146:8172   */\n  mload\n    /* \"#utility.yul\":8204:8252   */\n  tag_211\n    /* \"#utility.yul\":8246:8250   */\n  0x1f\n    /* \"#utility.yul\":8238:8244   */\n  dup10\n    /* \"#utility.yul\":8234:8251   */\n  and\n    /* \"#utility.yul\":8223:8232   */\n  dup3\n    /* \"#utility.yul\":8204:8252   */\n  tag_106\n  jump\t// in\ntag_211:\n    /* \"#utility.yul\":8196:8202   */\n  dup4\n    /* \"#utility.yul\":8189:8253   */\n  sstore\n    /* \"#utility.yul\":8111:8267   */\n  pop\n    /* \"#utility.yul\":8088:8267   */\ntag_210:\n    /* \"#utility.yul\":8313:8314   */\n  0x01\n    /* \"#utility.yul\":8309:8310   */\n  0x02\n    /* \"#utility.yul\":8301:8307   */\n  dup9\n    /* \"#utility.yul\":8297:8311   */\n  mul\n    /* \"#utility.yul\":8293:8315   */\n  add\n    /* \"#utility.yul\":8287:8291   */\n  dup9\n    /* \"#utility.yul\":8280:8316   */\n  sstore\n    /* \"#utility.yul\":7715:8326   */\n  pop\n  pop\n  pop\n    /* \"#utility.yul\":7678:8565   */\ntag_202:\n  pop\n    /* \"#utility.yul\":7268:8571   */\n  pop\n  pop\n  pop\n    /* \"#utility.yul\":7176:8571   */\n  pop\n  pop\n  jump\t// out\n    /* \"#utility.yul\":8577:8663   */\ntag_108:\n    /* \"#utility.yul\":8612:8619   */\n  0x00\n    /* \"#utility.yul\":8652:8656   */\n  0xff\n    /* \"#utility.yul\":8645:8650   */\n  dup3\n    /* \"#utility.yul\":8641:8657   */\n  and\n    /* \"#utility.yul\":8630:8657   */\n  swap1\n  pop\n    /* \"#utility.yul\":8577:8663   */\n  swap2\n  swap1\n  pop\n  jump\t// out\n    /* \"#utility.yul\":8669:8849   */\ntag_109:\n    /* \"#utility.yul\":8717:8794   */\n  0x4e487b7100000000000000000000000000000000000000000000000000000000\n    /* \"#utility.yul\":8714:8715   */\n  0x00\n    /* \"#utility.yul\":8707:8795   */\n  mstore\n    /* \"#utility.yul\":8814:8818   */\n  0x11\n    /* \"#utility.yul\":8811:8812   */\n  0x04\n    /* \"#utility.yul\":8804:8819   */\n  mstore\n    /* \"#utility.yul\":8838:8842   */\n  0x24\n    /* \"#utility.yul\":8835:8836   */\n  0x00\n    /* \"#utility.yul\":8828:8843   */\n  revert\n    /* \"#utility.yul\":8855:9043   */\ntag_37:\n    /* \"#utility.yul\":8893:8896   */\n  0x00\n    /* \"#utility.yul\":8912:8930   */\n  tag_215\n    /* \"#utility.yul\":8928:8929   */\n  dup3\n    /* \"#utility.yul\":8912:8930   */\n  tag_108\n  jump\t// in\ntag_215:\n    /* \"#utility.yul\":8907:8930   */\n  swap2\n  pop\n    /* \"#utility.yul\":8944:8962   */\n  tag_216\n    /* \"#utility.yul\":8960:8961   */\n  dup4\n    /* \"#utility.yul\":8944:8962   */\n  tag_108\n  jump\t// in\ntag_216:\n    /* \"#utility.yul\":8939:8962   */\n  swap3\n  pop\n    /* \"#utility.yul\":8985:8986   */\n  dup3\n    /* \"#utility.yul\":8982:8983   */\n  dup3\n    /* \"#utility.yul\":8978:8987   */\n  add\n    /* \"#utility.yul\":8971:8987   */\n  swap1\n  pop\n    /* \"#utility.yul\":9008:9012   */\n  0xff\n    /* \"#utility.yul\":9003:9006   */\n  dup2\n    /* \"#utility.yul\":9000:9013   */\n  gt\n    /* \"#utility.yul\":8997:9036   */\n  iszero\n  tag_217\n  jumpi\n    /* \"#utility.yul\":9016:9034   */\n  tag_218\n  tag_109\n  jump\t// in\ntag_218:\n    /* \"#utility.yul\":8997:9036   */\ntag_217:\n    /* \"#utility.yul\":8855:9043   */\n  swap3\n  swap2\n  pop\n  pop\n  jump\t// out\n    /* \"#utility.yul\":9049:9229   */\ntag_40:\n    /* \"#utility.yul\":9097:9174   */\n  0x4e487b7100000000000000000000000000000000000000000000000000000000\n    /* \"#utility.yul\":9094:9095   */\n  0x00\n    /* \"#utility.yul\":9087:9175   */\n  mstore\n    /* \"#utility.yul\":9194:9198   */\n  0x32\n    /* \"#utility.yul\":9191:9192   */\n  0x04\n    /* \"#utility.yul\":9184:9199   */\n  mstore\n    /* \"#utility.yul\":9218:9222   */\n  0x24\n    /* \"#utility.yul\":9215:9216   */\n  0x00\n    /* \"#utility.yul\":9208:9223   */\n  revert\n    /* \"#utility.yul\":9235:9402   */\ntag_52:\n    /* \"#utility.yul\":9272:9275   */\n  0x00\n    /* \"#utility.yul\":9295:9317   */\n  tag_221\n    /* \"#utility.yul\":9311:9316   */\n  dup3\n    /* \"#utility.yul\":9295:9317   */\n  tag_108\n  jump\t// in\ntag_221:\n    /* \"#utility.yul\":9286:9317   */\n  swap2\n  pop\n    /* \"#utility.yul\":9339:9343   */\n  0xff\n    /* \"#utility.yul\":9332:9337   */\n  dup3\n    /* \"#utility.yul\":9329:9344   */\n  sub\n    /* \"#utility.yul\":9326:9367   */\n  tag_222\n  jumpi\n    /* \"#utility.yul\":9347:9365   */\n  tag_223\n  tag_109\n  jump\t// in\ntag_223:\n    /* \"#utility.yul\":9326:9367   */\ntag_222:\n    /* \"#utility.yul\":9394:9395   */\n  0x01\n    /* \"#utility.yul\":9387:9392   */\n  dup3\n    /* \"#utility.yul\":9383:9396   */\n  add\n    /* \"#utility.yul\":9376:9396   */\n  swap1\n  pop\n    /* \"#utility.yul\":9235:9402   */\n  swap2\n  swap1\n  pop\n  jump\t// out\n    /* \"contracts/ERC20/ERC20.sol\":1514:26285  contract ERC20 is Context, IERC20, IERC20Metadata {... */\ntag_53:\n  mload(0x80)\n  codecopy(0x00, dataOffset(sub_0), dataSize(sub_0))\n  0x00\n  assignImmutable(\"0x90dacc74a051bb02f6fef34c96c77d9e73e206b15a1ade4f6e7a8ca7a52ff111\")\n  return(0x00, dataSize(sub_0))\nstop\n\nsub_0: assembly {\n        /* \"contracts/ERC20/ERC20.sol\":1514:26285  contract ERC20 is Context, IERC20, IERC20Metadata {... */\n      mstore(0x40, 0x80)\n      callvalue\n      dup1\n      iszero\n      tag_1\n      jumpi\n      0x00\n      dup1\n      revert\n    tag_1:\n      pop\n      jumpi(tag_2, lt(calldatasize, 0x04))\n      shr(0xe0, calldataload(0x00))\n      dup1\n      0x70a08231\n      gt\n      tag_23\n      jumpi\n      dup1\n      0xa6fe01b3\n      gt\n      tag_24\n      jumpi\n      dup1\n      0xa6fe01b3\n      eq\n      tag_18\n      jumpi\n      dup1\n      0xa9059cbb\n      eq\n      tag_19\n      jumpi\n      dup1\n      0xdd62ed3e\n      eq\n      tag_20\n      jumpi\n      dup1\n      0xee579c12\n      eq\n      tag_21\n      jumpi\n      dup1\n      0xf9c3ae83\n      eq\n      tag_22\n      jumpi\n      jump(tag_2)\n    tag_24:\n      dup1\n      0x70a08231\n      eq\n      tag_13\n      jumpi\n      dup1\n      0x733f28a8\n      eq\n      tag_14\n      jumpi\n      dup1\n      0x95d89b41\n      eq\n      tag_15\n      jumpi\n      dup1\n      0xa457c2d7\n      eq\n      tag_16\n      jumpi\n      dup1\n      0xa6f9dae1\n      eq\n      tag_17\n      jumpi\n      jump(tag_2)\n    tag_23:\n      dup1\n      0x2ae122bf\n      gt\n      tag_25\n      jumpi\n      dup1\n      0x2ae122bf\n      eq\n      tag_8\n      jumpi\n      dup1\n      0x313ce567\n      eq\n      tag_9\n      jumpi\n      dup1\n      0x39509351\n      eq\n      tag_10\n      jumpi\n      dup1\n      0x3e0a322d\n      eq\n      tag_11\n      jumpi\n      dup1\n      0x4b8c7daf\n      eq\n      tag_12\n      jumpi\n      jump(tag_2)\n    tag_25:\n      dup1\n      0x06fdde03\n      eq\n      tag_3\n      jumpi\n      dup1\n      0x095ea7b3\n      eq\n      tag_4\n      jumpi\n      dup1\n      0x16b81889\n      eq\n      tag_5\n      jumpi\n      dup1\n      0x18160ddd\n      eq\n      tag_6\n      jumpi\n      dup1\n      0x23b872dd\n      eq\n      tag_7\n      jumpi\n    tag_2:\n      0x00\n      dup1\n      revert\n        /* \"contracts/ERC20/ERC20.sol\":4731:4829  function name() public view virtual override returns (string memory) {... */\n    tag_3:\n      tag_26\n      tag_27\n      jump\t// in\n    tag_26:\n      mload(0x40)\n      tag_28\n      swap2\n      swap1\n      tag_29\n      jump\t// in\n    tag_28:\n      mload(0x40)\n      dup1\n      swap2\n      sub\n      swap1\n      return\n        /* \"contracts/ERC20/ERC20.sol\":7132:7365  function approve(address spender, uint256 amount)... */\n    tag_4:\n      tag_30\n      0x04\n      dup1\n      calldatasize\n      sub\n      dup2\n      add\n      swap1\n      tag_31\n      swap2\n      swap1\n      tag_32\n      jump\t// in\n    tag_31:\n      tag_33\n      jump\t// in\n    tag_30:\n      mload(0x40)\n      tag_34\n      swap2\n      swap1\n      tag_35\n      jump\t// in\n    tag_34:\n      mload(0x40)\n      dup1\n      swap2\n      sub\n      swap1\n      return\n        /* \"contracts/ERC20/ERC20.sol\":9880:10048  function lockNum(address account) external view returns (uint256) {... */\n    tag_5:\n      tag_36\n      0x04\n      dup1\n      calldatasize\n      sub\n      dup2\n      add\n      swap1\n      tag_37\n      swap2\n      swap1\n      tag_38\n      jump\t// in\n    tag_37:\n      tag_39\n      jump\t// in\n    tag_36:\n      mload(0x40)\n      tag_40\n      swap2\n      swap1\n      tag_41\n      jump\t// in\n    tag_40:\n      mload(0x40)\n      dup1\n      swap2\n      sub\n      swap1\n      return\n        /* \"contracts/ERC20/ERC20.sol\":5819:5925  function totalSupply() public view virtual override returns (uint256) {... */\n    tag_6:\n      tag_42\n      tag_43\n      jump\t// in\n    tag_42:\n      mload(0x40)\n      tag_44\n      swap2\n      swap1\n      tag_41\n      jump\t// in\n    tag_44:\n      mload(0x40)\n      dup1\n      swap2\n      sub\n      swap1\n      return\n        /* \"contracts/ERC20/ERC20.sol\":7927:8213  function transferFrom(... */\n    tag_7:\n      tag_45\n      0x04\n      dup1\n      calldatasize\n      sub\n      dup2\n      add\n      swap1\n      tag_46\n      swap2\n      swap1\n      tag_47\n      jump\t// in\n    tag_46:\n      tag_48\n      jump\t// in\n    tag_45:\n      mload(0x40)\n      tag_49\n      swap2\n      swap1\n      tag_35\n      jump\t// in\n    tag_49:\n      mload(0x40)\n      dup1\n      swap2\n      sub\n      swap1\n      return\n        /* \"contracts/ERC20/ERC20.sol\":10540:10658  function belongOrg(address account) external view returns (uint8) {... */\n    tag_8:\n      tag_50\n      0x04\n      dup1\n      calldatasize\n      sub\n      dup2\n      add\n      swap1\n      tag_51\n      swap2\n      swap1\n      tag_38\n      jump\t// in\n    tag_51:\n      tag_52\n      jump\t// in\n    tag_50:\n      mload(0x40)\n      tag_53\n      swap2\n      swap1\n      tag_54\n      jump\t// in\n    tag_53:\n      mload(0x40)\n      dup1\n      swap2\n      sub\n      swap1\n      return\n        /* \"contracts/ERC20/ERC20.sol\":5668:5759  function decimals() public view virtual override returns (uint8) {... */\n    tag_9:\n      tag_55\n      tag_56\n      jump\t// in\n    tag_55:\n      mload(0x40)\n      tag_57\n      swap2\n      swap1\n      tag_54\n      jump\t// in\n    tag_57:\n      mload(0x40)\n      dup1\n      swap2\n      sub\n      swap1\n      return\n        /* \"contracts/ERC20/ERC20.sol\":8608:8870  function increaseAllowance(address spender, uint256 addedValue)... */\n    tag_10:\n      tag_58\n      0x04\n      dup1\n      calldatasize\n      sub\n      dup2\n      add\n      swap1\n      tag_59\n      swap2\n      swap1\n      tag_32\n      jump\t// in\n    tag_59:\n      tag_60\n      jump\t// in\n    tag_58:\n      mload(0x40)\n      tag_61\n      swap2\n      swap1\n      tag_35\n      jump\t// in\n    tag_61:\n      mload(0x40)\n      dup1\n      swap2\n      sub\n      swap1\n      return\n        /* \"contracts/ERC20/ERC20.sol\":10984:11750  function setStartTime(uint256 startTime) external onlyOwner {... */\n    tag_11:\n      tag_62\n      0x04\n      dup1\n      calldatasize\n      sub\n      dup2\n      add\n      swap1\n      tag_63\n      swap2\n      swap1\n      tag_64\n      jump\t// in\n    tag_63:\n      tag_65\n      jump\t// in\n    tag_62:\n      stop\n        /* \"contracts/ERC20/ERC20.sol\":12282:14101  function setOrganization(... */\n    tag_12:\n      tag_66\n      0x04\n      dup1\n      calldatasize\n      sub\n      dup2\n      add\n      swap1\n      tag_67\n      swap2\n      swap1\n      tag_68\n      jump\t// in\n    tag_67:\n      tag_69\n      jump\t// in\n    tag_66:\n      stop\n        /* \"contracts/ERC20/ERC20.sol\":5983:6152  function balanceOf(address account)... */\n    tag_13:\n      tag_70\n      0x04\n      dup1\n      calldatasize\n      sub\n      dup2\n      add\n      swap1\n      tag_71\n      swap2\n      swap1\n      tag_38\n      jump\t// in\n    tag_71:\n      tag_72\n      jump\t// in\n    tag_70:\n      mload(0x40)\n      tag_73\n      swap2\n      swap1\n      tag_41\n      jump\t// in\n    tag_73:\n      mload(0x40)\n      dup1\n      swap2\n      sub\n      swap1\n      return\n        /* \"contracts/ERC20/ERC20.sol\":10352:10509  function wallets(uint8 index)... */\n    tag_14:\n      tag_74\n      0x04\n      dup1\n      calldatasize\n      sub\n      dup2\n      add\n      swap1\n      tag_75\n      swap2\n      swap1\n      tag_76\n      jump\t// in\n    tag_75:\n      tag_77\n      jump\t// in\n    tag_74:\n      mload(0x40)\n      tag_78\n      swap2\n      swap1\n      tag_79\n      jump\t// in\n    tag_78:\n      mload(0x40)\n      dup1\n      swap2\n      sub\n      swap1\n      return\n        /* \"contracts/ERC20/ERC20.sol\":4942:5044  function symbol() public view virtual override returns (string memory) {... */\n    tag_15:\n      tag_80\n      tag_81\n      jump\t// in\n    tag_80:\n      mload(0x40)\n      tag_82\n      swap2\n      swap1\n      tag_29\n      jump\t// in\n    tag_82:\n      mload(0x40)\n      dup1\n      swap2\n      sub\n      swap1\n      return\n        /* \"contracts/ERC20/ERC20.sol\":9357:9846  function decreaseAllowance(address spender, uint256 subtractedValue)... */\n    tag_16:\n      tag_83\n      0x04\n      dup1\n      calldatasize\n      sub\n      dup2\n      add\n      swap1\n      tag_84\n      swap2\n      swap1\n      tag_32\n      jump\t// in\n    tag_84:\n      tag_85\n      jump\t// in\n    tag_83:\n      mload(0x40)\n      tag_86\n      swap2\n      swap1\n      tag_35\n      jump\t// in\n    tag_86:\n      mload(0x40)\n      dup1\n      swap2\n      sub\n      swap1\n      return\n        /* \"contracts/ERC20/ERC20.sol\":10811:10944  function changeOwner(address account) external onlyOwner {... */\n    tag_17:\n      tag_87\n      0x04\n      dup1\n      calldatasize\n      sub\n      dup2\n      add\n      swap1\n      tag_88\n      swap2\n      swap1\n      tag_38\n      jump\t// in\n    tag_88:\n      tag_89\n      jump\t// in\n    tag_87:\n      stop\n        /* \"contracts/ERC20/ERC20.sol\":10228:10321  function searchStartTime() external view returns (uint256) {... */\n    tag_18:\n      tag_90\n      tag_91\n      jump\t// in\n    tag_90:\n      mload(0x40)\n      tag_92\n      swap2\n      swap1\n      tag_41\n      jump\t// in\n    tag_92:\n      mload(0x40)\n      dup1\n      swap2\n      sub\n      swap1\n      return\n        /* \"contracts/ERC20/ERC20.sol\":6348:6573  function transfer(address to, uint256 amount)... */\n    tag_19:\n      tag_93\n      0x04\n      dup1\n      calldatasize\n      sub\n      dup2\n      add\n      swap1\n      tag_94\n      swap2\n      swap1\n      tag_32\n      jump\t// in\n    tag_94:\n      tag_95\n      jump\t// in\n    tag_93:\n      mload(0x40)\n      tag_96\n      swap2\n      swap1\n      tag_35\n      jump\t// in\n    tag_96:\n      mload(0x40)\n      dup1\n      swap2\n      sub\n      swap1\n      return\n        /* \"contracts/ERC20/ERC20.sol\":6631:6824  function allowance(address owner, address spender)... */\n    tag_20:\n      tag_97\n      0x04\n      dup1\n      calldatasize\n      sub\n      dup2\n      add\n      swap1\n      tag_98\n      swap2\n      swap1\n      tag_99\n      jump\t// in\n    tag_98:\n      tag_100\n      jump\t// in\n    tag_97:\n      mload(0x40)\n      tag_101\n      swap2\n      swap1\n      tag_41\n      jump\t// in\n    tag_101:\n      mload(0x40)\n      dup1\n      swap2\n      sub\n      swap1\n      return\n        /* \"contracts/ERC20/ERC20.sol\":10079:10203  function totalLock(address account) external view returns (uint256) {... */\n    tag_21:\n      tag_102\n      0x04\n      dup1\n      calldatasize\n      sub\n      dup2\n      add\n      swap1\n      tag_103\n      swap2\n      swap1\n      tag_38\n      jump\t// in\n    tag_103:\n      tag_104\n      jump\t// in\n    tag_102:\n      mload(0x40)\n      tag_105\n      swap2\n      swap1\n      tag_41\n      jump\t// in\n    tag_105:\n      mload(0x40)\n      dup1\n      swap2\n      sub\n      swap1\n      return\n        /* \"contracts/ERC20/ERC20.sol\":10692:10777  function searchOwner() external view returns (address) {... */\n    tag_22:\n      tag_106\n      tag_107\n      jump\t// in\n    tag_106:\n      mload(0x40)\n      tag_108\n      swap2\n      swap1\n      tag_109\n      jump\t// in\n    tag_108:\n      mload(0x40)\n      dup1\n      swap2\n      sub\n      swap1\n      return\n        /* \"contracts/ERC20/ERC20.sol\":4731:4829  function name() public view virtual override returns (string memory) {... */\n    tag_27:\n        /* \"contracts/ERC20/ERC20.sol\":4785:4798  string memory */\n      0x60\n        /* \"contracts/ERC20/ERC20.sol\":4817:4822  _name */\n      0x03\n        /* \"contracts/ERC20/ERC20.sol\":4810:4822  return _name */\n      dup1\n      sload\n      tag_111\n      swap1\n      tag_112\n      jump\t// in\n    tag_111:\n      dup1\n      0x1f\n      add\n      0x20\n      dup1\n      swap2\n      div\n      mul\n      0x20\n      add\n      mload(0x40)\n      swap1\n      dup2\n      add\n      0x40\n      mstore\n      dup1\n      swap3\n      swap2\n      swap1\n      dup2\n      dup2\n      mstore\n      0x20\n      add\n      dup3\n      dup1\n      sload\n      tag_113\n      swap1\n      tag_112\n      jump\t// in\n    tag_113:\n      dup1\n      iszero\n      tag_114\n      jumpi\n      dup1\n      0x1f\n      lt\n      tag_115\n      jumpi\n      0x0100\n      dup1\n      dup4\n      sload\n      div\n      mul\n      dup4\n      mstore\n      swap2\n      0x20\n      add\n      swap2\n      jump(tag_114)\n    tag_115:\n      dup3\n      add\n      swap2\n      swap1\n      0x00\n      mstore\n      keccak256(0x00, 0x20)\n      swap1\n    tag_116:\n      dup2\n      sload\n      dup2\n      mstore\n      swap1\n      0x01\n      add\n      swap1\n      0x20\n      add\n      dup1\n      dup4\n      gt\n      tag_116\n      jumpi\n      dup3\n      swap1\n      sub\n      0x1f\n      and\n      dup3\n      add\n      swap2\n    tag_114:\n      pop\n      pop\n      pop\n      pop\n      pop\n      swap1\n      pop\n        /* \"contracts/ERC20/ERC20.sol\":4731:4829  function name() public view virtual override returns (string memory) {... */\n      swap1\n      jump\t// out\n        /* \"contracts/ERC20/ERC20.sol\":7132:7365  function approve(address spender, uint256 amount)... */\n    tag_33:\n        /* \"contracts/ERC20/ERC20.sol\":7247:7251  bool */\n      0x00\n        /* \"contracts/ERC20/ERC20.sol\":7267:7280  address owner */\n      dup1\n        /* \"contracts/ERC20/ERC20.sol\":7283:7295  _msgSender() */\n      tag_118\n        /* \"contracts/ERC20/ERC20.sol\":7283:7293  _msgSender */\n      tag_119\n        /* \"contracts/ERC20/ERC20.sol\":7283:7295  _msgSender() */\n      jump\t// in\n    tag_118:\n        /* \"contracts/ERC20/ERC20.sol\":7267:7295  address owner = _msgSender() */\n      swap1\n      pop\n        /* \"contracts/ERC20/ERC20.sol\":7305:7337  _approve(owner, spender, amount) */\n      tag_120\n        /* \"contracts/ERC20/ERC20.sol\":7314:7319  owner */\n      dup2\n        /* \"contracts/ERC20/ERC20.sol\":7321:7328  spender */\n      dup6\n        /* \"contracts/ERC20/ERC20.sol\":7330:7336  amount */\n      dup6\n        /* \"contracts/ERC20/ERC20.sol\":7305:7313  _approve */\n      tag_121\n        /* \"contracts/ERC20/ERC20.sol\":7305:7337  _approve(owner, spender, amount) */\n      jump\t// in\n    tag_120:\n        /* \"contracts/ERC20/ERC20.sol\":7354:7358  true */\n      0x01\n        /* \"contracts/ERC20/ERC20.sol\":7347:7358  return true */\n      swap2\n      pop\n      pop\n        /* \"contracts/ERC20/ERC20.sol\":7132:7365  function approve(address spender, uint256 amount)... */\n      swap3\n      swap2\n      pop\n      pop\n      jump\t// out\n        /* \"contracts/ERC20/ERC20.sol\":9880:10048  function lockNum(address account) external view returns (uint256) {... */\n    tag_39:\n        /* \"contracts/ERC20/ERC20.sol\":9937:9944  uint256 */\n      0x00\n        /* \"contracts/ERC20/ERC20.sol\":9956:9978  uint256 balanceLockNum */\n      dup1\n        /* \"contracts/ERC20/ERC20.sol\":9981:10009  _releaseTokenSearch(account) */\n      tag_123\n        /* \"contracts/ERC20/ERC20.sol\":10001:10008  account */\n      dup4\n        /* \"contracts/ERC20/ERC20.sol\":9981:10000  _releaseTokenSearch */\n      tag_124\n        /* \"contracts/ERC20/ERC20.sol\":9981:10009  _releaseTokenSearch(account) */\n      jump\t// in\n    tag_123:\n        /* \"contracts/ERC20/ERC20.sol\":9956:10009  uint256 balanceLockNum = _releaseTokenSearch(account) */\n      swap1\n      pop\n        /* \"contracts/ERC20/ERC20.sol\":10027:10041  balanceLockNum */\n      dup1\n        /* \"contracts/ERC20/ERC20.sol\":10020:10041  return balanceLockNum */\n      swap2\n      pop\n      pop\n        /* \"contracts/ERC20/ERC20.sol\":9880:10048  function lockNum(address account) external view returns (uint256) {... */\n      swap2\n      swap1\n      pop\n      jump\t// out\n        /* \"contracts/ERC20/ERC20.sol\":5819:5925  function totalSupply() public view virtual override returns (uint256) {... */\n    tag_43:\n        /* \"contracts/ERC20/ERC20.sol\":5880:5887  uint256 */\n      0x00\n        /* \"contracts/ERC20/ERC20.sol\":5906:5918  _totalSupply */\n      sload(0x02)\n        /* \"contracts/ERC20/ERC20.sol\":5899:5918  return _totalSupply */\n      swap1\n      pop\n        /* \"contracts/ERC20/ERC20.sol\":5819:5925  function totalSupply() public view virtual override returns (uint256) {... */\n      swap1\n      jump\t// out\n        /* \"contracts/ERC20/ERC20.sol\":7927:8213  function transferFrom(... */\n    tag_48:\n        /* \"contracts/ERC20/ERC20.sol\":8054:8058  bool */\n      0x00\n        /* \"contracts/ERC20/ERC20.sol\":8070:8085  address spender */\n      dup1\n        /* \"contracts/ERC20/ERC20.sol\":8088:8100  _msgSender() */\n      tag_127\n        /* \"contracts/ERC20/ERC20.sol\":8088:8098  _msgSender */\n      tag_119\n        /* \"contracts/ERC20/ERC20.sol\":8088:8100  _msgSender() */\n      jump\t// in\n    tag_127:\n        /* \"contracts/ERC20/ERC20.sol\":8070:8100  address spender = _msgSender() */\n      swap1\n      pop\n        /* \"contracts/ERC20/ERC20.sol\":8110:8148  _spendAllowance(from, spender, amount) */\n      tag_128\n        /* \"contracts/ERC20/ERC20.sol\":8126:8130  from */\n      dup6\n        /* \"contracts/ERC20/ERC20.sol\":8132:8139  spender */\n      dup3\n        /* \"contracts/ERC20/ERC20.sol\":8141:8147  amount */\n      dup6\n        /* \"contracts/ERC20/ERC20.sol\":8110:8125  _spendAllowance */\n      tag_129\n        /* \"contracts/ERC20/ERC20.sol\":8110:8148  _spendAllowance(from, spender, amount) */\n      jump\t// in\n    tag_128:\n        /* \"contracts/ERC20/ERC20.sol\":8158:8185  _transfer(from, to, amount) */\n      tag_130\n        /* \"contracts/ERC20/ERC20.sol\":8168:8172  from */\n      dup6\n        /* \"contracts/ERC20/ERC20.sol\":8174:8176  to */\n      dup6\n        /* \"contracts/ERC20/ERC20.sol\":8178:8184  amount */\n      dup6\n        /* \"contracts/ERC20/ERC20.sol\":8158:8167  _transfer */\n      tag_131\n        /* \"contracts/ERC20/ERC20.sol\":8158:8185  _transfer(from, to, amount) */\n      jump\t// in\n    tag_130:\n        /* \"contracts/ERC20/ERC20.sol\":8202:8206  true */\n      0x01\n        /* \"contracts/ERC20/ERC20.sol\":8195:8206  return true */\n      swap2\n      pop\n      pop\n        /* \"contracts/ERC20/ERC20.sol\":7927:8213  function transferFrom(... */\n      swap4\n      swap3\n      pop\n      pop\n      pop\n      jump\t// out\n        /* \"contracts/ERC20/ERC20.sol\":10540:10658  function belongOrg(address account) external view returns (uint8) {... */\n    tag_52:\n        /* \"contracts/ERC20/ERC20.sol\":10599:10604  uint8 */\n      0x00\n        /* \"contracts/ERC20/ERC20.sol\":10623:10636  walletRecords */\n      0x09\n        /* \"contracts/ERC20/ERC20.sol\":10623:10645  walletRecords[account] */\n      0x00\n        /* \"contracts/ERC20/ERC20.sol\":10637:10644  account */\n      dup4\n        /* \"contracts/ERC20/ERC20.sol\":10623:10645  walletRecords[account] */\n      0xffffffffffffffffffffffffffffffffffffffff\n      and\n      0xffffffffffffffffffffffffffffffffffffffff\n      and\n      dup2\n      mstore\n      0x20\n      add\n      swap1\n      dup2\n      mstore\n      0x20\n      add\n      0x00\n      keccak256\n        /* \"contracts/ERC20/ERC20.sol\":10623:10651  walletRecords[account].index */\n      0x02\n      add\n      0x00\n      swap1\n      sload\n      swap1\n      0x0100\n      exp\n      swap1\n      div\n      0xff\n      and\n        /* \"contracts/ERC20/ERC20.sol\":10616:10651  return walletRecords[account].index */\n      swap1\n      pop\n        /* \"contracts/ERC20/ERC20.sol\":10540:10658  function belongOrg(address account) external view returns (uint8) {... */\n      swap2\n      swap1\n      pop\n      jump\t// out\n        /* \"contracts/ERC20/ERC20.sol\":5668:5759  function decimals() public view virtual override returns (uint8) {... */\n    tag_56:\n        /* \"contracts/ERC20/ERC20.sol\":5726:5731  uint8 */\n      0x00\n        /* \"contracts/ERC20/ERC20.sol\":5750:5752  18 */\n      0x12\n        /* \"contracts/ERC20/ERC20.sol\":5743:5752  return 18 */\n      swap1\n      pop\n        /* \"contracts/ERC20/ERC20.sol\":5668:5759  function decimals() public view virtual override returns (uint8) {... */\n      swap1\n      jump\t// out\n        /* \"contracts/ERC20/ERC20.sol\":8608:8870  function increaseAllowance(address spender, uint256 addedValue)... */\n    tag_60:\n        /* \"contracts/ERC20/ERC20.sol\":8720:8724  bool */\n      0x00\n        /* \"contracts/ERC20/ERC20.sol\":8740:8753  address owner */\n      dup1\n        /* \"contracts/ERC20/ERC20.sol\":8756:8768  _msgSender() */\n      tag_135\n        /* \"contracts/ERC20/ERC20.sol\":8756:8766  _msgSender */\n      tag_119\n        /* \"contracts/ERC20/ERC20.sol\":8756:8768  _msgSender() */\n      jump\t// in\n    tag_135:\n        /* \"contracts/ERC20/ERC20.sol\":8740:8768  address owner = _msgSender() */\n      swap1\n      pop\n        /* \"contracts/ERC20/ERC20.sol\":8778:8842  _approve(owner, spender, allowance(owner, spender) + addedValue) */\n      tag_136\n        /* \"contracts/ERC20/ERC20.sol\":8787:8792  owner */\n      dup2\n        /* \"contracts/ERC20/ERC20.sol\":8794:8801  spender */\n      dup6\n        /* \"contracts/ERC20/ERC20.sol\":8831:8841  addedValue */\n      dup6\n        /* \"contracts/ERC20/ERC20.sol\":8803:8828  allowance(owner, spender) */\n      tag_137\n        /* \"contracts/ERC20/ERC20.sol\":8813:8818  owner */\n      dup6\n        /* \"contracts/ERC20/ERC20.sol\":8820:8827  spender */\n      dup10\n        /* \"contracts/ERC20/ERC20.sol\":8803:8812  allowance */\n      tag_100\n        /* \"contracts/ERC20/ERC20.sol\":8803:8828  allowance(owner, spender) */\n      jump\t// in\n    tag_137:\n        /* \"contracts/ERC20/ERC20.sol\":8803:8841  allowance(owner, spender) + addedValue */\n      tag_138\n      swap2\n      swap1\n      tag_139\n      jump\t// in\n    tag_138:\n        /* \"contracts/ERC20/ERC20.sol\":8778:8786  _approve */\n      tag_121\n        /* \"contracts/ERC20/ERC20.sol\":8778:8842  _approve(owner, spender, allowance(owner, spender) + addedValue) */\n      jump\t// in\n    tag_136:\n        /* \"contracts/ERC20/ERC20.sol\":8859:8863  true */\n      0x01\n        /* \"contracts/ERC20/ERC20.sol\":8852:8863  return true */\n      swap2\n      pop\n      pop\n        /* \"contracts/ERC20/ERC20.sol\":8608:8870  function increaseAllowance(address spender, uint256 addedValue)... */\n      swap3\n      swap2\n      pop\n      pop\n      jump\t// out\n        /* \"contracts/ERC20/ERC20.sol\":10984:11750  function setStartTime(uint256 startTime) external onlyOwner {... */\n    tag_65:\n        /* \"contracts/ERC20/ERC20.sol\":3943:3949  _owner */\n      0x05\n      0x00\n      swap1\n      sload\n      swap1\n      0x0100\n      exp\n      swap1\n      div\n      0xffffffffffffffffffffffffffffffffffffffff\n      and\n        /* \"contracts/ERC20/ERC20.sol\":3929:3949  msg.sender == _owner */\n      0xffffffffffffffffffffffffffffffffffffffff\n      and\n        /* \"contracts/ERC20/ERC20.sol\":3929:3939  msg.sender */\n      caller\n        /* \"contracts/ERC20/ERC20.sol\":3929:3949  msg.sender == _owner */\n      0xffffffffffffffffffffffffffffffffffffffff\n      and\n      eq\n        /* \"contracts/ERC20/ERC20.sol\":3921:3963  require(msg.sender == _owner, \"not onwer\") */\n      tag_141\n      jumpi\n      mload(0x40)\n      0x08c379a000000000000000000000000000000000000000000000000000000000\n      dup2\n      mstore\n      0x04\n      add\n      tag_142\n      swap1\n      tag_143\n      jump\t// in\n    tag_142:\n      mload(0x40)\n      dup1\n      swap2\n      sub\n      swap1\n      revert\n    tag_141:\n        /* \"contracts/ERC20/ERC20.sol\":11076:11077  0 */\n      0x00\n        /* \"contracts/ERC20/ERC20.sol\":11062:11072  _startTime */\n      sload(0x06)\n        /* \"contracts/ERC20/ERC20.sol\":11062:11077  _startTime == 0 */\n      eq\n        /* \"contracts/ERC20/ERC20.sol\":11054:11097  require(_startTime == 0, \"startTime exist\") */\n      tag_145\n      jumpi\n      mload(0x40)\n      0x08c379a000000000000000000000000000000000000000000000000000000000\n      dup2\n      mstore\n      0x04\n      add\n      tag_146\n      swap1\n      tag_147\n      jump\t// in\n    tag_146:\n      mload(0x40)\n      dup1\n      swap2\n      sub\n      swap1\n      revert\n    tag_145:\n        /* \"contracts/ERC20/ERC20.sol\":11128:11143  block.timestamp */\n      timestamp\n        /* \"contracts/ERC20/ERC20.sol\":11115:11124  startTime */\n      dup2\n        /* \"contracts/ERC20/ERC20.sol\":11115:11143  startTime >= block.timestamp */\n      lt\n      iszero\n        /* \"contracts/ERC20/ERC20.sol\":11107:11158  require(startTime >= block.timestamp, \"time error\") */\n      tag_148\n      jumpi\n      mload(0x40)\n      0x08c379a000000000000000000000000000000000000000000000000000000000\n      dup2\n      mstore\n      0x04\n      add\n      tag_149\n      swap1\n      tag_150\n      jump\t// in\n    tag_149:\n      mload(0x40)\n      dup1\n      swap2\n      sub\n      swap1\n      revert\n    tag_148:\n        /* \"contracts/ERC20/ERC20.sol\":11181:11190  startTime */\n      dup1\n        /* \"contracts/ERC20/ERC20.sol\":11168:11178  _startTime */\n      0x06\n        /* \"contracts/ERC20/ERC20.sol\":11168:11190  _startTime = startTime */\n      dup2\n      swap1\n      sstore\n      pop\n        /* \"contracts/ERC20/ERC20.sol\":11264:11271  uint8 i */\n      0x00\n        /* \"contracts/ERC20/ERC20.sol\":11259:11744  for (uint8 i = 0; i < 5; i++) {... */\n    tag_151:\n        /* \"contracts/ERC20/ERC20.sol\":11281:11282  5 */\n      0x05\n        /* \"contracts/ERC20/ERC20.sol\":11277:11278  i */\n      dup2\n        /* \"contracts/ERC20/ERC20.sol\":11277:11282  i < 5 */\n      0xff\n      and\n      lt\n        /* \"contracts/ERC20/ERC20.sol\":11259:11744  for (uint8 i = 0; i < 5; i++) {... */\n      iszero\n      tag_152\n      jumpi\n        /* \"contracts/ERC20/ERC20.sol\":11303:11326  uint256 _releaseAllTime */\n      0x00\n        /* \"contracts/ERC20/ERC20.sol\":11368:11394  _releaseAll(orgRecords[i]) */\n      tag_154\n        /* \"contracts/ERC20/ERC20.sol\":11380:11390  orgRecords */\n      0x2d\n        /* \"contracts/ERC20/ERC20.sol\":11391:11392  i */\n      dup4\n        /* \"contracts/ERC20/ERC20.sol\":11380:11393  orgRecords[i] */\n      0xff\n      and\n      0x07\n      dup2\n      lt\n      tag_155\n      jumpi\n      tag_156\n      tag_157\n      jump\t// in\n    tag_156:\n    tag_155:\n      0x05\n      mul\n      add\n        /* \"contracts/ERC20/ERC20.sol\":11368:11379  _releaseAll */\n      tag_159\n        /* \"contracts/ERC20/ERC20.sol\":11368:11394  _releaseAll(orgRecords[i]) */\n      jump\t// in\n    tag_154:\n        /* \"contracts/ERC20/ERC20.sol\":11340:11394  (_releaseAllTime, , , , ) = _releaseAll(orgRecords[i]) */\n      swap1\n      swap2\n      swap3\n      pop\n      swap1\n      swap2\n      pop\n      swap1\n      pop\n      pop\n      dup1\n      swap2\n      pop\n      pop\n        /* \"contracts/ERC20/ERC20.sol\":11408:11415  uint8 y */\n      0x00\n        /* \"contracts/ERC20/ERC20.sol\":11422:11423  1 */\n      0x01\n        /* \"contracts/ERC20/ERC20.sol\":11418:11419  i */\n      dup4\n        /* \"contracts/ERC20/ERC20.sol\":11418:11423  i + 1 */\n      tag_160\n      swap2\n      swap1\n      tag_161\n      jump\t// in\n    tag_160:\n        /* \"contracts/ERC20/ERC20.sol\":11408:11423  uint8 y = i + 1 */\n      swap1\n      pop\n        /* \"contracts/ERC20/ERC20.sol\":11442:11449  uint8 x */\n      0x00\n        /* \"contracts/ERC20/ERC20.sol\":11437:11734  for (uint8 x = 0; x < orgWallet[y].length; x++) {... */\n    tag_162:\n        /* \"contracts/ERC20/ERC20.sol\":11459:11468  orgWallet */\n      0x08\n        /* \"contracts/ERC20/ERC20.sol\":11459:11471  orgWallet[y] */\n      0x00\n        /* \"contracts/ERC20/ERC20.sol\":11469:11470  y */\n      dup4\n        /* \"contracts/ERC20/ERC20.sol\":11459:11471  orgWallet[y] */\n      0xff\n      and\n      0xff\n      and\n      dup2\n      mstore\n      0x20\n      add\n      swap1\n      dup2\n      mstore\n      0x20\n      add\n      0x00\n      keccak256\n        /* \"contracts/ERC20/ERC20.sol\":11459:11478  orgWallet[y].length */\n      dup1\n      sload\n      swap1\n      pop\n        /* \"contracts/ERC20/ERC20.sol\":11455:11456  x */\n      dup2\n        /* \"contracts/ERC20/ERC20.sol\":11455:11478  x < orgWallet[y].length */\n      0xff\n      and\n      lt\n        /* \"contracts/ERC20/ERC20.sol\":11437:11734  for (uint8 x = 0; x < orgWallet[y].length; x++) {... */\n      iszero\n      tag_163\n      jumpi\n        /* \"contracts/ERC20/ERC20.sol\":11530:11531  0 */\n      0x00\n        /* \"contracts/ERC20/ERC20.sol\":11507:11516  orgWallet */\n      0x08\n        /* \"contracts/ERC20/ERC20.sol\":11507:11519  orgWallet[y] */\n      0x00\n        /* \"contracts/ERC20/ERC20.sol\":11517:11518  y */\n      dup5\n        /* \"contracts/ERC20/ERC20.sol\":11507:11519  orgWallet[y] */\n      0xff\n      and\n      0xff\n      and\n      dup2\n      mstore\n      0x20\n      add\n      swap1\n      dup2\n      mstore\n      0x20\n      add\n      0x00\n      keccak256\n        /* \"contracts/ERC20/ERC20.sol\":11507:11526  orgWallet[y].length */\n      dup1\n      sload\n      swap1\n      pop\n        /* \"contracts/ERC20/ERC20.sol\":11507:11531  orgWallet[y].length != 0 */\n      eq\n        /* \"contracts/ERC20/ERC20.sol\":11503:11720  if (orgWallet[y].length != 0) {... */\n      tag_165\n      jumpi\n        /* \"contracts/ERC20/ERC20.sol\":11628:11643  _releaseAllTime */\n      dup3\n        /* \"contracts/ERC20/ERC20.sol\":11555:11568  walletRecords */\n      0x09\n        /* \"contracts/ERC20/ERC20.sol\":11555:11585  walletRecords[orgWallet[y][x]] */\n      0x00\n        /* \"contracts/ERC20/ERC20.sol\":11569:11578  orgWallet */\n      0x08\n        /* \"contracts/ERC20/ERC20.sol\":11569:11581  orgWallet[y] */\n      0x00\n        /* \"contracts/ERC20/ERC20.sol\":11579:11580  y */\n      dup7\n        /* \"contracts/ERC20/ERC20.sol\":11569:11581  orgWallet[y] */\n      0xff\n      and\n      0xff\n      and\n      dup2\n      mstore\n      0x20\n      add\n      swap1\n      dup2\n      mstore\n      0x20\n      add\n      0x00\n      keccak256\n        /* \"contracts/ERC20/ERC20.sol\":11582:11583  x */\n      dup5\n        /* \"contracts/ERC20/ERC20.sol\":11569:11584  orgWallet[y][x] */\n      0xff\n      and\n      dup2\n      sload\n      dup2\n      lt\n      tag_166\n      jumpi\n      tag_167\n      tag_157\n      jump\t// in\n    tag_167:\n    tag_166:\n      swap1\n      0x00\n      mstore\n      keccak256(0x00, 0x20)\n      add\n      0x00\n      swap1\n      sload\n      swap1\n      0x0100\n      exp\n      swap1\n      div\n      0xffffffffffffffffffffffffffffffffffffffff\n      and\n        /* \"contracts/ERC20/ERC20.sol\":11555:11585  walletRecords[orgWallet[y][x]] */\n      0xffffffffffffffffffffffffffffffffffffffff\n      and\n      0xffffffffffffffffffffffffffffffffffffffff\n      and\n      dup2\n      mstore\n      0x20\n      add\n      swap1\n      dup2\n      mstore\n      0x20\n      add\n      0x00\n      keccak256\n        /* \"contracts/ERC20/ERC20.sol\":11555:11625  walletRecords[orgWallet[y][x]]... */\n      0x08\n      add\n        /* \"contracts/ERC20/ERC20.sol\":11555:11643  walletRecords[orgWallet[y][x]]... */\n      dup2\n      swap1\n      sstore\n      pop\n        /* \"contracts/ERC20/ERC20.sol\":11665:11701  _releaseToken(orgWallet[y][x], true) */\n      tag_169\n        /* \"contracts/ERC20/ERC20.sol\":11679:11688  orgWallet */\n      0x08\n        /* \"contracts/ERC20/ERC20.sol\":11679:11691  orgWallet[y] */\n      0x00\n        /* \"contracts/ERC20/ERC20.sol\":11689:11690  y */\n      dup5\n        /* \"contracts/ERC20/ERC20.sol\":11679:11691  orgWallet[y] */\n      0xff\n      and\n      0xff\n      and\n      dup2\n      mstore\n      0x20\n      add\n      swap1\n      dup2\n      mstore\n      0x20\n      add\n      0x00\n      keccak256\n        /* \"contracts/ERC20/ERC20.sol\":11692:11693  x */\n      dup3\n        /* \"contracts/ERC20/ERC20.sol\":11679:11694  orgWallet[y][x] */\n      0xff\n      and\n      dup2\n      sload\n      dup2\n      lt\n      tag_170\n      jumpi\n      tag_171\n      tag_157\n      jump\t// in\n    tag_171:\n    tag_170:\n      swap1\n      0x00\n      mstore\n      keccak256(0x00, 0x20)\n      add\n      0x00\n      swap1\n      sload\n      swap1\n      0x0100\n      exp\n      swap1\n      div\n      0xffffffffffffffffffffffffffffffffffffffff\n      and\n        /* \"contracts/ERC20/ERC20.sol\":11696:11700  true */\n      0x01\n        /* \"contracts/ERC20/ERC20.sol\":11665:11678  _releaseToken */\n      tag_173\n        /* \"contracts/ERC20/ERC20.sol\":11665:11701  _releaseToken(orgWallet[y][x], true) */\n      jump\t// in\n    tag_169:\n        /* \"contracts/ERC20/ERC20.sol\":11503:11720  if (orgWallet[y].length != 0) {... */\n    tag_165:\n        /* \"contracts/ERC20/ERC20.sol\":11480:11483  x++ */\n      dup1\n      dup1\n      tag_174\n      swap1\n      tag_175\n      jump\t// in\n    tag_174:\n      swap2\n      pop\n      pop\n        /* \"contracts/ERC20/ERC20.sol\":11437:11734  for (uint8 x = 0; x < orgWallet[y].length; x++) {... */\n      jump(tag_162)\n    tag_163:\n      pop\n        /* \"contracts/ERC20/ERC20.sol\":11289:11744  {... */\n      pop\n      pop\n        /* \"contracts/ERC20/ERC20.sol\":11284:11287  i++ */\n      dup1\n      dup1\n      tag_176\n      swap1\n      tag_175\n      jump\t// in\n    tag_176:\n      swap2\n      pop\n      pop\n        /* \"contracts/ERC20/ERC20.sol\":11259:11744  for (uint8 i = 0; i < 5; i++) {... */\n      jump(tag_151)\n    tag_152:\n      pop\n        /* \"contracts/ERC20/ERC20.sol\":10984:11750  function setStartTime(uint256 startTime) external onlyOwner {... */\n      pop\n      jump\t// out\n        /* \"contracts/ERC20/ERC20.sol\":12282:14101  function setOrganization(... */\n    tag_69:\n        /* \"contracts/ERC20/ERC20.sol\":3943:3949  _owner */\n      0x05\n      0x00\n      swap1\n      sload\n      swap1\n      0x0100\n      exp\n      swap1\n      div\n      0xffffffffffffffffffffffffffffffffffffffff\n      and\n        /* \"contracts/ERC20/ERC20.sol\":3929:3949  msg.sender == _owner */\n      0xffffffffffffffffffffffffffffffffffffffff\n      and\n        /* \"contracts/ERC20/ERC20.sol\":3929:3939  msg.sender */\n      caller\n        /* \"contracts/ERC20/ERC20.sol\":3929:3949  msg.sender == _owner */\n      0xffffffffffffffffffffffffffffffffffffffff\n      and\n      eq\n        /* \"contracts/ERC20/ERC20.sol\":3921:3963  require(msg.sender == _owner, \"not onwer\") */\n      tag_178\n      jumpi\n      mload(0x40)\n      0x08c379a000000000000000000000000000000000000000000000000000000000\n      dup2\n      mstore\n      0x04\n      add\n      tag_179\n      swap1\n      tag_143\n      jump\t// in\n    tag_179:\n      mload(0x40)\n      dup1\n      swap2\n      sub\n      swap1\n      revert\n    tag_178:\n        /* \"contracts/ERC20/ERC20.sol\":12478:12479  0 */\n      0x00\n        /* \"contracts/ERC20/ERC20.sol\":12459:12474  _organizationId */\n      dup4\n        /* \"contracts/ERC20/ERC20.sol\":12459:12479  _organizationId != 0 */\n      0xff\n      and\n      sub\n        /* \"contracts/ERC20/ERC20.sol\":12451:12497  require(_organizationId != 0, \"orgid is zero\") */\n      tag_181\n      jumpi\n      mload(0x40)\n      0x08c379a000000000000000000000000000000000000000000000000000000000\n      dup2\n      mstore\n      0x04\n      add\n      tag_182\n      swap1\n      tag_183\n      jump\t// in\n    tag_182:\n      mload(0x40)\n      dup1\n      swap2\n      sub\n      swap1\n      revert\n    tag_181:\n        /* \"contracts/ERC20/ERC20.sol\":12538:12550  _amountArray */\n      dup1\n        /* \"contracts/ERC20/ERC20.sol\":12538:12557  _amountArray.length */\n      mload\n        /* \"contracts/ERC20/ERC20.sol\":12515:12527  _walletArray */\n      dup3\n        /* \"contracts/ERC20/ERC20.sol\":12515:12534  _walletArray.length */\n      mload\n        /* \"contracts/ERC20/ERC20.sol\":12515:12557  _walletArray.length == _amountArray.length */\n      eq\n        /* \"contracts/ERC20/ERC20.sol\":12507:12574  require(_walletArray.length == _amountArray.length, \"length error\") */\n      tag_184\n      jumpi\n      mload(0x40)\n      0x08c379a000000000000000000000000000000000000000000000000000000000\n      dup2\n      mstore\n      0x04\n      add\n      tag_185\n      swap1\n      tag_186\n      jump\t// in\n    tag_185:\n      mload(0x40)\n      dup1\n      swap2\n      sub\n      swap1\n      revert\n    tag_184:\n        /* \"contracts/ERC20/ERC20.sol\":12584:12604  uint8 organizationId */\n      0x00\n        /* \"contracts/ERC20/ERC20.sol\":12625:12626  1 */\n      0x01\n        /* \"contracts/ERC20/ERC20.sol\":12607:12622  _organizationId */\n      dup5\n        /* \"contracts/ERC20/ERC20.sol\":12607:12626  _organizationId - 1 */\n      tag_187\n      swap2\n      swap1\n      tag_188\n      jump\t// in\n    tag_187:\n        /* \"contracts/ERC20/ERC20.sol\":12584:12626  uint8 organizationId = _organizationId - 1 */\n      swap1\n      pop\n        /* \"contracts/ERC20/ERC20.sol\":12741:12757  uint256 orgTotal */\n      0x00\n        /* \"contracts/ERC20/ERC20.sol\":12767:12797  OrgRecord storage oneOrgRecord */\n      dup1\n        /* \"contracts/ERC20/ERC20.sol\":12800:12809  orgRecord */\n      0x07\n        /* \"contracts/ERC20/ERC20.sol\":12800:12826  orgRecord[_organizationId] */\n      0x00\n        /* \"contracts/ERC20/ERC20.sol\":12810:12825  _organizationId */\n      dup8\n        /* \"contracts/ERC20/ERC20.sol\":12800:12826  orgRecord[_organizationId] */\n      0xff\n      and\n      0xff\n      and\n      dup2\n      mstore\n      0x20\n      add\n      swap1\n      dup2\n      mstore\n      0x20\n      add\n      0x00\n      keccak256\n        /* \"contracts/ERC20/ERC20.sol\":12767:12826  OrgRecord storage oneOrgRecord = orgRecord[_organizationId] */\n      swap1\n      pop\n        /* \"contracts/ERC20/ERC20.sol\":12841:12850  uint256 i */\n      0x00\n        /* \"contracts/ERC20/ERC20.sol\":12836:12938  for (uint256 i = 0; i < _amountArray.length; i++) {... */\n    tag_189:\n        /* \"contracts/ERC20/ERC20.sol\":12860:12872  _amountArray */\n      dup5\n        /* \"contracts/ERC20/ERC20.sol\":12860:12879  _amountArray.length */\n      mload\n        /* \"contracts/ERC20/ERC20.sol\":12856:12857  i */\n      dup2\n        /* \"contracts/ERC20/ERC20.sol\":12856:12879  i < _amountArray.length */\n      lt\n        /* \"contracts/ERC20/ERC20.sol\":12836:12938  for (uint256 i = 0; i < _amountArray.length; i++) {... */\n      iszero\n      tag_190\n      jumpi\n        /* \"contracts/ERC20/ERC20.sol\":12912:12924  _amountArray */\n      dup5\n        /* \"contracts/ERC20/ERC20.sol\":12925:12926  i */\n      dup2\n        /* \"contracts/ERC20/ERC20.sol\":12912:12927  _amountArray[i] */\n      dup2\n      mload\n      dup2\n      lt\n      tag_192\n      jumpi\n      tag_193\n      tag_157\n      jump\t// in\n    tag_193:\n    tag_192:\n      0x20\n      mul\n      0x20\n      add\n      add\n      mload\n        /* \"contracts/ERC20/ERC20.sol\":12900:12927  orgTotal += _amountArray[i] */\n      dup4\n      tag_194\n      swap2\n      swap1\n      tag_139\n      jump\t// in\n    tag_194:\n      swap3\n      pop\n        /* \"contracts/ERC20/ERC20.sol\":12881:12884  i++ */\n      dup1\n      dup1\n      tag_195\n      swap1\n      tag_196\n      jump\t// in\n    tag_195:\n      swap2\n      pop\n      pop\n        /* \"contracts/ERC20/ERC20.sol\":12836:12938  for (uint256 i = 0; i < _amountArray.length; i++) {... */\n      jump(tag_189)\n    tag_190:\n      pop\n        /* \"contracts/ERC20/ERC20.sol\":12982:12990  orgTotal */\n      dup2\n        /* \"contracts/ERC20/ERC20.sol\":12955:12967  oneOrgRecord */\n      dup2\n        /* \"contracts/ERC20/ERC20.sol\":12955:12978  oneOrgRecord.orgBalance */\n      0x01\n      add\n      sload\n        /* \"contracts/ERC20/ERC20.sol\":12955:12990  oneOrgRecord.orgBalance >= orgTotal */\n      lt\n      iszero\n        /* \"contracts/ERC20/ERC20.sol\":12947:13006  require(oneOrgRecord.orgBalance >= orgTotal, \"total error\") */\n      tag_197\n      jumpi\n      mload(0x40)\n      0x08c379a000000000000000000000000000000000000000000000000000000000\n      dup2\n      mstore\n      0x04\n      add\n      tag_198\n      swap1\n      tag_199\n      jump\t// in\n    tag_198:\n      mload(0x40)\n      dup1\n      swap2\n      sub\n      swap1\n      revert\n    tag_197:\n        /* \"contracts/ERC20/ERC20.sol\":13068:13076  orgTotal */\n      dup2\n        /* \"contracts/ERC20/ERC20.sol\":13042:13054  oneOrgRecord */\n      dup2\n        /* \"contracts/ERC20/ERC20.sol\":13042:13065  oneOrgRecord.orgBalance */\n      0x01\n      add\n      sload\n        /* \"contracts/ERC20/ERC20.sol\":13042:13076  oneOrgRecord.orgBalance - orgTotal */\n      tag_200\n      swap2\n      swap1\n      tag_201\n      jump\t// in\n    tag_200:\n        /* \"contracts/ERC20/ERC20.sol\":13016:13028  oneOrgRecord */\n      dup2\n        /* \"contracts/ERC20/ERC20.sol\":13016:13039  oneOrgRecord.orgBalance */\n      0x01\n      add\n        /* \"contracts/ERC20/ERC20.sol\":13016:13076  oneOrgRecord.orgBalance = oneOrgRecord.orgBalance - orgTotal */\n      dup2\n      swap1\n      sstore\n      pop\n        /* \"contracts/ERC20/ERC20.sol\":13086:13109  uint256 _releaseAllTime */\n      0x00\n        /* \"contracts/ERC20/ERC20.sol\":13119:13148  uint256 _releaseIntervalValue */\n      dup1\n        /* \"contracts/ERC20/ERC20.sol\":13158:13184  uint256 _intervalTimeValue */\n      0x00\n        /* \"contracts/ERC20/ERC20.sol\":13194:13217  uint256 _firstUnlockPre */\n      dup1\n        /* \"contracts/ERC20/ERC20.sol\":13227:13251  uint256 _secondUnlockPre */\n      0x00\n        /* \"contracts/ERC20/ERC20.sol\":13430:13469  _releaseAll(orgRecords[organizationId]) */\n      tag_202\n        /* \"contracts/ERC20/ERC20.sol\":13442:13452  orgRecords */\n      0x2d\n        /* \"contracts/ERC20/ERC20.sol\":13453:13467  organizationId */\n      dup10\n        /* \"contracts/ERC20/ERC20.sol\":13442:13468  orgRecords[organizationId] */\n      0xff\n      and\n      0x07\n      dup2\n      lt\n      tag_203\n      jumpi\n      tag_204\n      tag_157\n      jump\t// in\n    tag_204:\n    tag_203:\n      0x05\n      mul\n      add\n        /* \"contracts/ERC20/ERC20.sol\":13430:13441  _releaseAll */\n      tag_159\n        /* \"contracts/ERC20/ERC20.sol\":13430:13469  _releaseAll(orgRecords[organizationId]) */\n      jump\t// in\n    tag_202:\n        /* \"contracts/ERC20/ERC20.sol\":13262:13469  (... */\n      dup1\n      swap6\n      pop\n      dup2\n      swap7\n      pop\n      dup3\n      swap8\n      pop\n      dup4\n      swap9\n      pop\n      dup5\n      swap10\n      pop\n      pop\n      pop\n      pop\n      pop\n      pop\n        /* \"contracts/ERC20/ERC20.sol\":13485:13494  uint256 i */\n      0x00\n        /* \"contracts/ERC20/ERC20.sol\":13480:14034  for (uint256 i = 0; i < _walletArray.length; i++) {... */\n    tag_206:\n        /* \"contracts/ERC20/ERC20.sol\":13504:13516  _walletArray */\n      dup11\n        /* \"contracts/ERC20/ERC20.sol\":13504:13523  _walletArray.length */\n      mload\n        /* \"contracts/ERC20/ERC20.sol\":13500:13501  i */\n      dup2\n        /* \"contracts/ERC20/ERC20.sol\":13500:13523  i < _walletArray.length */\n      lt\n        /* \"contracts/ERC20/ERC20.sol\":13480:14034  for (uint256 i = 0; i < _walletArray.length; i++) {... */\n      iszero\n      tag_207\n      jumpi\n        /* \"contracts/ERC20/ERC20.sol\":13544:13553  orgWallet */\n      0x08\n        /* \"contracts/ERC20/ERC20.sol\":13544:13570  orgWallet[_organizationId] */\n      0x00\n        /* \"contracts/ERC20/ERC20.sol\":13554:13569  _organizationId */\n      dup14\n        /* \"contracts/ERC20/ERC20.sol\":13544:13570  orgWallet[_organizationId] */\n      0xff\n      and\n      0xff\n      and\n      dup2\n      mstore\n      0x20\n      add\n      swap1\n      dup2\n      mstore\n      0x20\n      add\n      0x00\n      keccak256\n        /* \"contracts/ERC20/ERC20.sol\":13576:13588  _walletArray */\n      dup12\n        /* \"contracts/ERC20/ERC20.sol\":13589:13590  i */\n      dup3\n        /* \"contracts/ERC20/ERC20.sol\":13576:13591  _walletArray[i] */\n      dup2\n      mload\n      dup2\n      lt\n      tag_209\n      jumpi\n      tag_210\n      tag_157\n      jump\t// in\n    tag_210:\n    tag_209:\n      0x20\n      mul\n      0x20\n      add\n      add\n      mload\n        /* \"contracts/ERC20/ERC20.sol\":13544:13592  orgWallet[_organizationId].push(_walletArray[i]) */\n      swap1\n      dup1\n      0x01\n      dup2\n      sload\n      add\n      dup1\n      dup3\n      sstore\n      dup1\n      swap2\n      pop\n      pop\n      0x01\n      swap1\n      sub\n      swap1\n      0x00\n      mstore\n      keccak256(0x00, 0x20)\n      add\n      0x00\n      swap1\n      swap2\n      swap1\n      swap2\n      swap1\n      swap2\n      0x0100\n      exp\n      dup2\n      sload\n      dup2\n      0xffffffffffffffffffffffffffffffffffffffff\n      mul\n      not\n      and\n      swap1\n      dup4\n      0xffffffffffffffffffffffffffffffffffffffff\n      and\n      mul\n      or\n      swap1\n      sstore\n      pop\n        /* \"contracts/ERC20/ERC20.sol\":13639:13958  WalletRecord(... */\n      mload(0x40)\n      dup1\n      0x0120\n      add\n      0x40\n      mstore\n      dup1\n        /* \"contracts/ERC20/ERC20.sol\":13669:13681  _amountArray */\n      dup12\n        /* \"contracts/ERC20/ERC20.sol\":13682:13683  i */\n      dup4\n        /* \"contracts/ERC20/ERC20.sol\":13669:13684  _amountArray[i] */\n      dup2\n      mload\n      dup2\n      lt\n      tag_212\n      jumpi\n      tag_213\n      tag_157\n      jump\t// in\n    tag_213:\n    tag_212:\n      0x20\n      mul\n      0x20\n      add\n      add\n      mload\n        /* \"contracts/ERC20/ERC20.sol\":13639:13958  WalletRecord(... */\n      dup2\n      mstore\n      0x20\n      add\n        /* \"contracts/ERC20/ERC20.sol\":13702:13714  _amountArray */\n      dup12\n        /* \"contracts/ERC20/ERC20.sol\":13715:13716  i */\n      dup4\n        /* \"contracts/ERC20/ERC20.sol\":13702:13717  _amountArray[i] */\n      dup2\n      mload\n      dup2\n      lt\n      tag_214\n      jumpi\n      tag_215\n      tag_157\n      jump\t// in\n    tag_215:\n    tag_214:\n      0x20\n      mul\n      0x20\n      add\n      add\n      mload\n        /* \"contracts/ERC20/ERC20.sol\":13639:13958  WalletRecord(... */\n      dup2\n      mstore\n      0x20\n      add\n        /* \"contracts/ERC20/ERC20.sol\":13735:13750  _organizationId */\n      dup14\n        /* \"contracts/ERC20/ERC20.sol\":13639:13958  WalletRecord(... */\n      0xff\n      and\n      dup2\n      mstore\n      0x20\n      add\n        /* \"contracts/ERC20/ERC20.sol\":13768:13783  _firstUnlockPre */\n      dup5\n        /* \"contracts/ERC20/ERC20.sol\":13639:13958  WalletRecord(... */\n      dup2\n      mstore\n      0x20\n      add\n        /* \"contracts/ERC20/ERC20.sol\":13801:13822  _releaseIntervalValue */\n      dup7\n        /* \"contracts/ERC20/ERC20.sol\":13639:13958  WalletRecord(... */\n      dup2\n      mstore\n      0x20\n      add\n        /* \"contracts/ERC20/ERC20.sol\":13840:13858  _intervalTimeValue */\n      dup6\n        /* \"contracts/ERC20/ERC20.sol\":13639:13958  WalletRecord(... */\n      dup2\n      mstore\n      0x20\n      add\n        /* \"contracts/ERC20/ERC20.sol\":13876:13892  _secondUnlockPre */\n      dup4\n        /* \"contracts/ERC20/ERC20.sol\":13639:13958  WalletRecord(... */\n      dup2\n      mstore\n      0x20\n      add\n        /* \"contracts/ERC20/ERC20.sol\":13910:13911  0 */\n      0x00\n        /* \"contracts/ERC20/ERC20.sol\":13639:13958  WalletRecord(... */\n      dup2\n      mstore\n      0x20\n      add\n        /* \"contracts/ERC20/ERC20.sol\":13929:13944  _releaseAllTime */\n      dup8\n        /* \"contracts/ERC20/ERC20.sol\":13639:13958  WalletRecord(... */\n      dup2\n      mstore\n      pop\n        /* \"contracts/ERC20/ERC20.sol\":13606:13619  walletRecords */\n      0x09\n        /* \"contracts/ERC20/ERC20.sol\":13606:13636  walletRecords[_walletArray[i]] */\n      0x00\n        /* \"contracts/ERC20/ERC20.sol\":13620:13632  _walletArray */\n      dup14\n        /* \"contracts/ERC20/ERC20.sol\":13633:13634  i */\n      dup5\n        /* \"contracts/ERC20/ERC20.sol\":13620:13635  _walletArray[i] */\n      dup2\n      mload\n      dup2\n      lt\n      tag_216\n      jumpi\n      tag_217\n      tag_157\n      jump\t// in\n    tag_217:\n    tag_216:\n      0x20\n      mul\n      0x20\n      add\n      add\n      mload\n        /* \"contracts/ERC20/ERC20.sol\":13606:13636  walletRecords[_walletArray[i]] */\n      0xffffffffffffffffffffffffffffffffffffffff\n      and\n      0xffffffffffffffffffffffffffffffffffffffff\n      and\n      dup2\n      mstore\n      0x20\n      add\n      swap1\n      dup2\n      mstore\n      0x20\n      add\n      0x00\n      keccak256\n        /* \"contracts/ERC20/ERC20.sol\":13606:13958  walletRecords[_walletArray[i]] = WalletRecord(... */\n      0x00\n      dup3\n      add\n      mload\n      dup2\n      0x00\n      add\n      sstore\n      0x20\n      dup3\n      add\n      mload\n      dup2\n      0x01\n      add\n      sstore\n      0x40\n      dup3\n      add\n      mload\n      dup2\n      0x02\n      add\n      exp(0x0100, 0x00)\n      dup2\n      sload\n      dup2\n      0xff\n      mul\n      not\n      and\n      swap1\n      dup4\n      0xff\n      and\n      mul\n      or\n      swap1\n      sstore\n      pop\n      0x60\n      dup3\n      add\n      mload\n      dup2\n      0x03\n      add\n      sstore\n      0x80\n      dup3\n      add\n      mload\n      dup2\n      0x04\n      add\n      sstore\n      0xa0\n      dup3\n      add\n      mload\n      dup2\n      0x05\n      add\n      sstore\n      0xc0\n      dup3\n      add\n      mload\n      dup2\n      0x06\n      add\n      sstore\n      0xe0\n      dup3\n      add\n      mload\n      dup2\n      0x07\n      add\n      sstore\n      0x0100\n      dup3\n      add\n      mload\n      dup2\n      0x08\n      add\n      sstore\n      swap1\n      pop\n      pop\n        /* \"contracts/ERC20/ERC20.sol\":13972:14023  _transfer(_owner, _walletArray[i], _amountArray[i]) */\n      tag_218\n        /* \"contracts/ERC20/ERC20.sol\":13982:13988  _owner */\n      0x05\n      0x00\n      swap1\n      sload\n      swap1\n      0x0100\n      exp\n      swap1\n      div\n      0xffffffffffffffffffffffffffffffffffffffff\n      and\n        /* \"contracts/ERC20/ERC20.sol\":13990:14002  _walletArray */\n      dup13\n        /* \"contracts/ERC20/ERC20.sol\":14003:14004  i */\n      dup4\n        /* \"contracts/ERC20/ERC20.sol\":13990:14005  _walletArray[i] */\n      dup2\n      mload\n      dup2\n      lt\n      tag_219\n      jumpi\n      tag_220\n      tag_157\n      jump\t// in\n    tag_220:\n    tag_219:\n      0x20\n      mul\n      0x20\n      add\n      add\n      mload\n        /* \"contracts/ERC20/ERC20.sol\":14007:14019  _amountArray */\n      dup13\n        /* \"contracts/ERC20/ERC20.sol\":14020:14021  i */\n      dup5\n        /* \"contracts/ERC20/ERC20.sol\":14007:14022  _amountArray[i] */\n      dup2\n      mload\n      dup2\n      lt\n      tag_221\n      jumpi\n      tag_222\n      tag_157\n      jump\t// in\n    tag_222:\n    tag_221:\n      0x20\n      mul\n      0x20\n      add\n      add\n      mload\n        /* \"contracts/ERC20/ERC20.sol\":13972:13981  _transfer */\n      tag_131\n        /* \"contracts/ERC20/ERC20.sol\":13972:14023  _transfer(_owner, _walletArray[i], _amountArray[i]) */\n      jump\t// in\n    tag_218:\n        /* \"contracts/ERC20/ERC20.sol\":13525:13528  i++ */\n      dup1\n      dup1\n      tag_223\n      swap1\n      tag_196\n      jump\t// in\n    tag_223:\n      swap2\n      pop\n      pop\n        /* \"contracts/ERC20/ERC20.sol\":13480:14034  for (uint256 i = 0; i < _walletArray.length; i++) {... */\n      jump(tag_206)\n    tag_207:\n      pop\n        /* \"contracts/ERC20/ERC20.sol\":14061:14076  _organizationId */\n      dup11\n        /* \"contracts/ERC20/ERC20.sol\":14048:14094  Organization(_organizationId, _releaseAllTime) */\n      0xff\n      and\n      0xd3356a0b92566db109e603a7da2c30cb2e62fd20493200be85a409eeb009b36b\n        /* \"contracts/ERC20/ERC20.sol\":14078:14093  _releaseAllTime */\n      dup7\n        /* \"contracts/ERC20/ERC20.sol\":14048:14094  Organization(_organizationId, _releaseAllTime) */\n      mload(0x40)\n      tag_224\n      swap2\n      swap1\n      tag_41\n      jump\t// in\n    tag_224:\n      mload(0x40)\n      dup1\n      swap2\n      sub\n      swap1\n      log2\n        /* \"contracts/ERC20/ERC20.sol\":12441:14101  {... */\n      pop\n      pop\n      pop\n      pop\n      pop\n      pop\n      pop\n      pop\n        /* \"contracts/ERC20/ERC20.sol\":12282:14101  function setOrganization(... */\n      pop\n      pop\n      pop\n      jump\t// out\n        /* \"contracts/ERC20/ERC20.sol\":5983:6152  function balanceOf(address account)... */\n    tag_72:\n        /* \"contracts/ERC20/ERC20.sol\":6097:6104  uint256 */\n      0x00\n        /* \"contracts/ERC20/ERC20.sol\":6127:6136  _balances */\n      dup1\n        /* \"contracts/ERC20/ERC20.sol\":6127:6145  _balances[account] */\n      0x00\n        /* \"contracts/ERC20/ERC20.sol\":6137:6144  account */\n      dup4\n        /* \"contracts/ERC20/ERC20.sol\":6127:6145  _balances[account] */\n      0xffffffffffffffffffffffffffffffffffffffff\n      and\n      0xffffffffffffffffffffffffffffffffffffffff\n      and\n      dup2\n      mstore\n      0x20\n      add\n      swap1\n      dup2\n      mstore\n      0x20\n      add\n      0x00\n      keccak256\n      sload\n        /* \"contracts/ERC20/ERC20.sol\":6120:6145  return _balances[account] */\n      swap1\n      pop\n        /* \"contracts/ERC20/ERC20.sol\":5983:6152  function balanceOf(address account)... */\n      swap2\n      swap1\n      pop\n      jump\t// out\n        /* \"contracts/ERC20/ERC20.sol\":10352:10509  function wallets(uint8 index)... */\n    tag_77:\n        /* \"contracts/ERC20/ERC20.sol\":10447:10463  address[] memory */\n      0x60\n        /* \"contracts/ERC20/ERC20.sol\":3943:3949  _owner */\n      0x05\n      0x00\n      swap1\n      sload\n      swap1\n      0x0100\n      exp\n      swap1\n      div\n      0xffffffffffffffffffffffffffffffffffffffff\n      and\n        /* \"contracts/ERC20/ERC20.sol\":3929:3949  msg.sender == _owner */\n      0xffffffffffffffffffffffffffffffffffffffff\n      and\n        /* \"contracts/ERC20/ERC20.sol\":3929:3939  msg.sender */\n      caller\n        /* \"contracts/ERC20/ERC20.sol\":3929:3949  msg.sender == _owner */\n      0xffffffffffffffffffffffffffffffffffffffff\n      and\n      eq\n        /* \"contracts/ERC20/ERC20.sol\":3921:3963  require(msg.sender == _owner, \"not onwer\") */\n      tag_227\n      jumpi\n      mload(0x40)\n      0x08c379a000000000000000000000000000000000000000000000000000000000\n      dup2\n      mstore\n      0x04\n      add\n      tag_228\n      swap1\n      tag_143\n      jump\t// in\n    tag_228:\n      mload(0x40)\n      dup1\n      swap2\n      sub\n      swap1\n      revert\n    tag_227:\n        /* \"contracts/ERC20/ERC20.sol\":10486:10495  orgWallet */\n      0x08\n        /* \"contracts/ERC20/ERC20.sol\":10486:10502  orgWallet[index] */\n      0x00\n        /* \"contracts/ERC20/ERC20.sol\":10496:10501  index */\n      dup4\n        /* \"contracts/ERC20/ERC20.sol\":10486:10502  orgWallet[index] */\n      0xff\n      and\n      0xff\n      and\n      dup2\n      mstore\n      0x20\n      add\n      swap1\n      dup2\n      mstore\n      0x20\n      add\n      0x00\n      keccak256\n        /* \"contracts/ERC20/ERC20.sol\":10479:10502  return orgWallet[index] */\n      dup1\n      sload\n      dup1\n      0x20\n      mul\n      0x20\n      add\n      mload(0x40)\n      swap1\n      dup2\n      add\n      0x40\n      mstore\n      dup1\n      swap3\n      swap2\n      swap1\n      dup2\n      dup2\n      mstore\n      0x20\n      add\n      dup3\n      dup1\n      sload\n      dup1\n      iszero\n      tag_230\n      jumpi\n      0x20\n      mul\n      dup3\n      add\n      swap2\n      swap1\n      0x00\n      mstore\n      keccak256(0x00, 0x20)\n      swap1\n    tag_231:\n      dup2\n      0x00\n      swap1\n      sload\n      swap1\n      0x0100\n      exp\n      swap1\n      div\n      0xffffffffffffffffffffffffffffffffffffffff\n      and\n      0xffffffffffffffffffffffffffffffffffffffff\n      and\n      dup2\n      mstore\n      0x20\n      add\n      swap1\n      0x01\n      add\n      swap1\n      dup1\n      dup4\n      gt\n      tag_231\n      jumpi\n    tag_230:\n      pop\n      pop\n      pop\n      pop\n      pop\n      swap1\n      pop\n        /* \"contracts/ERC20/ERC20.sol\":10352:10509  function wallets(uint8 index)... */\n      swap2\n      swap1\n      pop\n      jump\t// out\n        /* \"contracts/ERC20/ERC20.sol\":4942:5044  function symbol() public view virtual override returns (string memory) {... */\n    tag_81:\n        /* \"contracts/ERC20/ERC20.sol\":4998:5011  string memory */\n      0x60\n        /* \"contracts/ERC20/ERC20.sol\":5030:5037  _symbol */\n      0x04\n        /* \"contracts/ERC20/ERC20.sol\":5023:5037  return _symbol */\n      dup1\n      sload\n      tag_233\n      swap1\n      tag_112\n      jump\t// in\n    tag_233:\n      dup1\n      0x1f\n      add\n      0x20\n      dup1\n      swap2\n      div\n      mul\n      0x20\n      add\n      mload(0x40)\n      swap1\n      dup2\n      add\n      0x40\n      mstore\n      dup1\n      swap3\n      swap2\n      swap1\n      dup2\n      dup2\n      mstore\n      0x20\n      add\n      dup3\n      dup1\n      sload\n      tag_234\n      swap1\n      tag_112\n      jump\t// in\n    tag_234:\n      dup1\n      iszero\n      tag_235\n      jumpi\n      dup1\n      0x1f\n      lt\n      tag_236\n      jumpi\n      0x0100\n      dup1\n      dup4\n      sload\n      div\n      mul\n      dup4\n      mstore\n      swap2\n      0x20\n      add\n      swap2\n      jump(tag_235)\n    tag_236:\n      dup3\n      add\n      swap2\n      swap1\n      0x00\n      mstore\n      keccak256(0x00, 0x20)\n      swap1\n    tag_237:\n      dup2\n      sload\n      dup2\n      mstore\n      swap1\n      0x01\n      add\n      swap1\n      0x20\n      add\n      dup1\n      dup4\n      gt\n      tag_237\n      jumpi\n      dup3\n      swap1\n      sub\n      0x1f\n      and\n      dup3\n      add\n      swap2\n    tag_235:\n      pop\n      pop\n      pop\n      pop\n      pop\n      swap1\n      pop\n        /* \"contracts/ERC20/ERC20.sol\":4942:5044  function symbol() public view virtual override returns (string memory) {... */\n      swap1\n      jump\t// out\n        /* \"contracts/ERC20/ERC20.sol\":9357:9846  function decreaseAllowance(address spender, uint256 subtractedValue)... */\n    tag_85:\n        /* \"contracts/ERC20/ERC20.sol\":9474:9478  bool */\n      0x00\n        /* \"contracts/ERC20/ERC20.sol\":9494:9507  address owner */\n      dup1\n        /* \"contracts/ERC20/ERC20.sol\":9510:9522  _msgSender() */\n      tag_239\n        /* \"contracts/ERC20/ERC20.sol\":9510:9520  _msgSender */\n      tag_119\n        /* \"contracts/ERC20/ERC20.sol\":9510:9522  _msgSender() */\n      jump\t// in\n    tag_239:\n        /* \"contracts/ERC20/ERC20.sol\":9494:9522  address owner = _msgSender() */\n      swap1\n      pop\n        /* \"contracts/ERC20/ERC20.sol\":9532:9556  uint256 currentAllowance */\n      0x00\n        /* \"contracts/ERC20/ERC20.sol\":9559:9584  allowance(owner, spender) */\n      tag_240\n        /* \"contracts/ERC20/ERC20.sol\":9569:9574  owner */\n      dup3\n        /* \"contracts/ERC20/ERC20.sol\":9576:9583  spender */\n      dup7\n        /* \"contracts/ERC20/ERC20.sol\":9559:9568  allowance */\n      tag_100\n        /* \"contracts/ERC20/ERC20.sol\":9559:9584  allowance(owner, spender) */\n      jump\t// in\n    tag_240:\n        /* \"contracts/ERC20/ERC20.sol\":9532:9584  uint256 currentAllowance = allowance(owner, spender) */\n      swap1\n      pop\n        /* \"contracts/ERC20/ERC20.sol\":9635:9650  subtractedValue */\n      dup4\n        /* \"contracts/ERC20/ERC20.sol\":9615:9631  currentAllowance */\n      dup2\n        /* \"contracts/ERC20/ERC20.sol\":9615:9650  currentAllowance >= subtractedValue */\n      lt\n      iszero\n        /* \"contracts/ERC20/ERC20.sol\":9594:9713  require(... */\n      tag_241\n      jumpi\n      mload(0x40)\n      0x08c379a000000000000000000000000000000000000000000000000000000000\n      dup2\n      mstore\n      0x04\n      add\n      tag_242\n      swap1\n      tag_243\n      jump\t// in\n    tag_242:\n      mload(0x40)\n      dup1\n      swap2\n      sub\n      swap1\n      revert\n    tag_241:\n        /* \"contracts/ERC20/ERC20.sol\":9747:9807  _approve(owner, spender, currentAllowance - subtractedValue) */\n      tag_244\n        /* \"contracts/ERC20/ERC20.sol\":9756:9761  owner */\n      dup3\n        /* \"contracts/ERC20/ERC20.sol\":9763:9770  spender */\n      dup7\n        /* \"contracts/ERC20/ERC20.sol\":9791:9806  subtractedValue */\n      dup7\n        /* \"contracts/ERC20/ERC20.sol\":9772:9788  currentAllowance */\n      dup5\n        /* \"contracts/ERC20/ERC20.sol\":9772:9806  currentAllowance - subtractedValue */\n      sub\n        /* \"contracts/ERC20/ERC20.sol\":9747:9755  _approve */\n      tag_121\n        /* \"contracts/ERC20/ERC20.sol\":9747:9807  _approve(owner, spender, currentAllowance - subtractedValue) */\n      jump\t// in\n    tag_244:\n        /* \"contracts/ERC20/ERC20.sol\":9835:9839  true */\n      0x01\n        /* \"contracts/ERC20/ERC20.sol\":9828:9839  return true */\n      swap3\n      pop\n      pop\n      pop\n        /* \"contracts/ERC20/ERC20.sol\":9357:9846  function decreaseAllowance(address spender, uint256 subtractedValue)... */\n      swap3\n      swap2\n      pop\n      pop\n      jump\t// out\n        /* \"contracts/ERC20/ERC20.sol\":10811:10944  function changeOwner(address account) external onlyOwner {... */\n    tag_89:\n        /* \"contracts/ERC20/ERC20.sol\":3943:3949  _owner */\n      0x05\n      0x00\n      swap1\n      sload\n      swap1\n      0x0100\n      exp\n      swap1\n      div\n      0xffffffffffffffffffffffffffffffffffffffff\n      and\n        /* \"contracts/ERC20/ERC20.sol\":3929:3949  msg.sender == _owner */\n      0xffffffffffffffffffffffffffffffffffffffff\n      and\n        /* \"contracts/ERC20/ERC20.sol\":3929:3939  msg.sender */\n      caller\n        /* \"contracts/ERC20/ERC20.sol\":3929:3949  msg.sender == _owner */\n      0xffffffffffffffffffffffffffffffffffffffff\n      and\n      eq\n        /* \"contracts/ERC20/ERC20.sol\":3921:3963  require(msg.sender == _owner, \"not onwer\") */\n      tag_246\n      jumpi\n      mload(0x40)\n      0x08c379a000000000000000000000000000000000000000000000000000000000\n      dup2\n      mstore\n      0x04\n      add\n      tag_247\n      swap1\n      tag_143\n      jump\t// in\n    tag_247:\n      mload(0x40)\n      dup1\n      swap2\n      sub\n      swap1\n      revert\n    tag_246:\n        /* \"contracts/ERC20/ERC20.sol\":10903:10910  account */\n      dup1\n        /* \"contracts/ERC20/ERC20.sol\":10883:10911  ChangeOwner(_owner, account) */\n      0xffffffffffffffffffffffffffffffffffffffff\n      and\n        /* \"contracts/ERC20/ERC20.sol\":10895:10901  _owner */\n      0x05\n      0x00\n      swap1\n      sload\n      swap1\n      0x0100\n      exp\n      swap1\n      div\n      0xffffffffffffffffffffffffffffffffffffffff\n      and\n        /* \"contracts/ERC20/ERC20.sol\":10883:10911  ChangeOwner(_owner, account) */\n      0xffffffffffffffffffffffffffffffffffffffff\n      and\n      0x9aecf86140d81442289f667eb72e1202a8fbb3478a686659952e145e85319656\n      mload(0x40)\n      mload(0x40)\n      dup1\n      swap2\n      sub\n      swap1\n      log3\n        /* \"contracts/ERC20/ERC20.sol\":10930:10937  account */\n      dup1\n        /* \"contracts/ERC20/ERC20.sol\":10921:10927  _owner */\n      0x05\n      0x00\n        /* \"contracts/ERC20/ERC20.sol\":10921:10937  _owner = account */\n      0x0100\n      exp\n      dup2\n      sload\n      dup2\n      0xffffffffffffffffffffffffffffffffffffffff\n      mul\n      not\n      and\n      swap1\n      dup4\n      0xffffffffffffffffffffffffffffffffffffffff\n      and\n      mul\n      or\n      swap1\n      sstore\n      pop\n        /* \"contracts/ERC20/ERC20.sol\":10811:10944  function changeOwner(address account) external onlyOwner {... */\n      pop\n      jump\t// out\n        /* \"contracts/ERC20/ERC20.sol\":10228:10321  function searchStartTime() external view returns (uint256) {... */\n    tag_91:\n        /* \"contracts/ERC20/ERC20.sol\":10278:10285  uint256 */\n      0x00\n        /* \"contracts/ERC20/ERC20.sol\":10304:10314  _startTime */\n      sload(0x06)\n        /* \"contracts/ERC20/ERC20.sol\":10297:10314  return _startTime */\n      swap1\n      pop\n        /* \"contracts/ERC20/ERC20.sol\":10228:10321  function searchStartTime() external view returns (uint256) {... */\n      swap1\n      jump\t// out\n        /* \"contracts/ERC20/ERC20.sol\":6348:6573  function transfer(address to, uint256 amount)... */\n    tag_95:\n        /* \"contracts/ERC20/ERC20.sol\":6459:6463  bool */\n      0x00\n        /* \"contracts/ERC20/ERC20.sol\":6479:6492  address owner */\n      dup1\n        /* \"contracts/ERC20/ERC20.sol\":6495:6507  _msgSender() */\n      tag_251\n        /* \"contracts/ERC20/ERC20.sol\":6495:6505  _msgSender */\n      tag_119\n        /* \"contracts/ERC20/ERC20.sol\":6495:6507  _msgSender() */\n      jump\t// in\n    tag_251:\n        /* \"contracts/ERC20/ERC20.sol\":6479:6507  address owner = _msgSender() */\n      swap1\n      pop\n        /* \"contracts/ERC20/ERC20.sol\":6517:6545  _transfer(owner, to, amount) */\n      tag_252\n        /* \"contracts/ERC20/ERC20.sol\":6527:6532  owner */\n      dup2\n        /* \"contracts/ERC20/ERC20.sol\":6534:6536  to */\n      dup6\n        /* \"contracts/ERC20/ERC20.sol\":6538:6544  amount */\n      dup6\n        /* \"contracts/ERC20/ERC20.sol\":6517:6526  _transfer */\n      tag_131\n        /* \"contracts/ERC20/ERC20.sol\":6517:6545  _transfer(owner, to, amount) */\n      jump\t// in\n    tag_252:\n        /* \"contracts/ERC20/ERC20.sol\":6562:6566  true */\n      0x01\n        /* \"contracts/ERC20/ERC20.sol\":6555:6566  return true */\n      swap2\n      pop\n      pop\n        /* \"contracts/ERC20/ERC20.sol\":6348:6573  function transfer(address to, uint256 amount)... */\n      swap3\n      swap2\n      pop\n      pop\n      jump\t// out\n        /* \"contracts/ERC20/ERC20.sol\":6631:6824  function allowance(address owner, address spender)... */\n    tag_100:\n        /* \"contracts/ERC20/ERC20.sol\":6760:6767  uint256 */\n      0x00\n        /* \"contracts/ERC20/ERC20.sol\":6790:6801  _allowances */\n      0x01\n        /* \"contracts/ERC20/ERC20.sol\":6790:6808  _allowances[owner] */\n      0x00\n        /* \"contracts/ERC20/ERC20.sol\":6802:6807  owner */\n      dup5\n        /* \"contracts/ERC20/ERC20.sol\":6790:6808  _allowances[owner] */\n      0xffffffffffffffffffffffffffffffffffffffff\n      and\n      0xffffffffffffffffffffffffffffffffffffffff\n      and\n      dup2\n      mstore\n      0x20\n      add\n      swap1\n      dup2\n      mstore\n      0x20\n      add\n      0x00\n      keccak256\n        /* \"contracts/ERC20/ERC20.sol\":6790:6817  _allowances[owner][spender] */\n      0x00\n        /* \"contracts/ERC20/ERC20.sol\":6809:6816  spender */\n      dup4\n        /* \"contracts/ERC20/ERC20.sol\":6790:6817  _allowances[owner][spender] */\n      0xffffffffffffffffffffffffffffffffffffffff\n      and\n      0xffffffffffffffffffffffffffffffffffffffff\n      and\n      dup2\n      mstore\n      0x20\n      add\n      swap1\n      dup2\n      mstore\n      0x20\n      add\n      0x00\n      keccak256\n      sload\n        /* \"contracts/ERC20/ERC20.sol\":6783:6817  return _allowances[owner][spender] */\n      swap1\n      pop\n        /* \"contracts/ERC20/ERC20.sol\":6631:6824  function allowance(address owner, address spender)... */\n      swap3\n      swap2\n      pop\n      pop\n      jump\t// out\n        /* \"contracts/ERC20/ERC20.sol\":10079:10203  function totalLock(address account) external view returns (uint256) {... */\n    tag_104:\n        /* \"contracts/ERC20/ERC20.sol\":10138:10145  uint256 */\n      0x00\n        /* \"contracts/ERC20/ERC20.sol\":10164:10177  walletRecords */\n      0x09\n        /* \"contracts/ERC20/ERC20.sol\":10164:10186  walletRecords[account] */\n      0x00\n        /* \"contracts/ERC20/ERC20.sol\":10178:10185  account */\n      dup4\n        /* \"contracts/ERC20/ERC20.sol\":10164:10186  walletRecords[account] */\n      0xffffffffffffffffffffffffffffffffffffffff\n      and\n      0xffffffffffffffffffffffffffffffffffffffff\n      and\n      dup2\n      mstore\n      0x20\n      add\n      swap1\n      dup2\n      mstore\n      0x20\n      add\n      0x00\n      keccak256\n        /* \"contracts/ERC20/ERC20.sol\":10164:10196  walletRecords[account].lockTotal */\n      0x00\n      add\n      sload\n        /* \"contracts/ERC20/ERC20.sol\":10157:10196  return walletRecords[account].lockTotal */\n      swap1\n      pop\n        /* \"contracts/ERC20/ERC20.sol\":10079:10203  function totalLock(address account) external view returns (uint256) {... */\n      swap2\n      swap1\n      pop\n      jump\t// out\n        /* \"contracts/ERC20/ERC20.sol\":10692:10777  function searchOwner() external view returns (address) {... */\n    tag_107:\n        /* \"contracts/ERC20/ERC20.sol\":10738:10745  address */\n      0x00\n        /* \"contracts/ERC20/ERC20.sol\":10764:10770  _owner */\n      0x05\n      0x00\n      swap1\n      sload\n      swap1\n      0x0100\n      exp\n      swap1\n      div\n      0xffffffffffffffffffffffffffffffffffffffff\n      and\n        /* \"contracts/ERC20/ERC20.sol\":10757:10770  return _owner */\n      swap1\n      pop\n        /* \"contracts/ERC20/ERC20.sol\":10692:10777  function searchOwner() external view returns (address) {... */\n      swap1\n      jump\t// out\n        /* \"contracts/ERC20/utils/Context.sol\":640:736  function _msgSender() internal view virtual returns (address) {... */\n    tag_119:\n        /* \"contracts/ERC20/utils/Context.sol\":693:700  address */\n      0x00\n        /* \"contracts/ERC20/utils/Context.sol\":719:729  msg.sender */\n      caller\n        /* \"contracts/ERC20/utils/Context.sol\":712:729  return msg.sender */\n      swap1\n      pop\n        /* \"contracts/ERC20/utils/Context.sol\":640:736  function _msgSender() internal view virtual returns (address) {... */\n      swap1\n      jump\t// out\n        /* \"contracts/ERC20/ERC20.sol\":19597:19967  function _approve(... */\n    tag_121:\n        /* \"contracts/ERC20/ERC20.sol\":19745:19746  0 */\n      0x00\n        /* \"contracts/ERC20/ERC20.sol\":19728:19747  owner != address(0) */\n      0xffffffffffffffffffffffffffffffffffffffff\n      and\n        /* \"contracts/ERC20/ERC20.sol\":19728:19733  owner */\n      dup4\n        /* \"contracts/ERC20/ERC20.sol\":19728:19747  owner != address(0) */\n      0xffffffffffffffffffffffffffffffffffffffff\n      and\n      sub\n        /* \"contracts/ERC20/ERC20.sol\":19720:19788  require(owner != address(0), \"ERC20: approve from the zero address\") */\n      tag_258\n      jumpi\n      mload(0x40)\n      0x08c379a000000000000000000000000000000000000000000000000000000000\n      dup2\n      mstore\n      0x04\n      add\n      tag_259\n      swap1\n      tag_260\n      jump\t// in\n    tag_259:\n      mload(0x40)\n      dup1\n      swap2\n      sub\n      swap1\n      revert\n    tag_258:\n        /* \"contracts/ERC20/ERC20.sol\":19825:19826  0 */\n      0x00\n        /* \"contracts/ERC20/ERC20.sol\":19806:19827  spender != address(0) */\n      0xffffffffffffffffffffffffffffffffffffffff\n      and\n        /* \"contracts/ERC20/ERC20.sol\":19806:19813  spender */\n      dup3\n        /* \"contracts/ERC20/ERC20.sol\":19806:19827  spender != address(0) */\n      0xffffffffffffffffffffffffffffffffffffffff\n      and\n      sub\n        /* \"contracts/ERC20/ERC20.sol\":19798:19866  require(spender != address(0), \"ERC20: approve to the zero address\") */\n      tag_261\n      jumpi\n      mload(0x40)\n      0x08c379a000000000000000000000000000000000000000000000000000000000\n      dup2\n      mstore\n      0x04\n      add\n      tag_262\n      swap1\n      tag_263\n      jump\t// in\n    tag_262:\n      mload(0x40)\n      dup1\n      swap2\n      sub\n      swap1\n      revert\n    tag_261:\n        /* \"contracts/ERC20/ERC20.sol\":19907:19913  amount */\n      dup1\n        /* \"contracts/ERC20/ERC20.sol\":19877:19888  _allowances */\n      0x01\n        /* \"contracts/ERC20/ERC20.sol\":19877:19895  _allowances[owner] */\n      0x00\n        /* \"contracts/ERC20/ERC20.sol\":19889:19894  owner */\n      dup6\n        /* \"contracts/ERC20/ERC20.sol\":19877:19895  _allowances[owner] */\n      0xffffffffffffffffffffffffffffffffffffffff\n      and\n      0xffffffffffffffffffffffffffffffffffffffff\n      and\n      dup2\n      mstore\n      0x20\n      add\n      swap1\n      dup2\n      mstore\n      0x20\n      add\n      0x00\n      keccak256\n        /* \"contracts/ERC20/ERC20.sol\":19877:19904  _allowances[owner][spender] */\n      0x00\n        /* \"contracts/ERC20/ERC20.sol\":19896:19903  spender */\n      dup5\n        /* \"contracts/ERC20/ERC20.sol\":19877:19904  _allowances[owner][spender] */\n      0xffffffffffffffffffffffffffffffffffffffff\n      and\n      0xffffffffffffffffffffffffffffffffffffffff\n      and\n      dup2\n      mstore\n      0x20\n      add\n      swap1\n      dup2\n      mstore\n      0x20\n      add\n      0x00\n      keccak256\n        /* \"contracts/ERC20/ERC20.sol\":19877:19913  _allowances[owner][spender] = amount */\n      dup2\n      swap1\n      sstore\n      pop\n        /* \"contracts/ERC20/ERC20.sol\":19944:19951  spender */\n      dup2\n        /* \"contracts/ERC20/ERC20.sol\":19928:19960  Approval(owner, spender, amount) */\n      0xffffffffffffffffffffffffffffffffffffffff\n      and\n        /* \"contracts/ERC20/ERC20.sol\":19937:19942  owner */\n      dup4\n        /* \"contracts/ERC20/ERC20.sol\":19928:19960  Approval(owner, spender, amount) */\n      0xffffffffffffffffffffffffffffffffffffffff\n      and\n      0x8c5be1e5ebec7d5bd14f71427d1e84f3dd0314c0f7b2291e5b200ac8c7c3b925\n        /* \"contracts/ERC20/ERC20.sol\":19953:19959  amount */\n      dup4\n        /* \"contracts/ERC20/ERC20.sol\":19928:19960  Approval(owner, spender, amount) */\n      mload(0x40)\n      tag_264\n      swap2\n      swap1\n      tag_41\n      jump\t// in\n    tag_264:\n      mload(0x40)\n      dup1\n      swap2\n      sub\n      swap1\n      log3\n        /* \"contracts/ERC20/ERC20.sol\":19597:19967  function _approve(... */\n      pop\n      pop\n      pop\n      jump\t// out\n        /* \"contracts/ERC20/ERC20.sol\":15300:15995  function _releaseTokenSearch(address account)... */\n    tag_124:\n        /* \"contracts/ERC20/ERC20.sol\":15392:15399  uint256 */\n      0x00\n        /* \"contracts/ERC20/ERC20.sol\":15415:15449  WalletRecord storage walletRecorde */\n      dup1\n        /* \"contracts/ERC20/ERC20.sol\":15452:15465  walletRecords */\n      0x09\n        /* \"contracts/ERC20/ERC20.sol\":15452:15474  walletRecords[account] */\n      0x00\n        /* \"contracts/ERC20/ERC20.sol\":15466:15473  account */\n      dup5\n        /* \"contracts/ERC20/ERC20.sol\":15452:15474  walletRecords[account] */\n      0xffffffffffffffffffffffffffffffffffffffff\n      and\n      0xffffffffffffffffffffffffffffffffffffffff\n      and\n      dup2\n      mstore\n      0x20\n      add\n      swap1\n      dup2\n      mstore\n      0x20\n      add\n      0x00\n      keccak256\n        /* \"contracts/ERC20/ERC20.sol\":15415:15474  WalletRecord storage walletRecorde = walletRecords[account] */\n      swap1\n      pop\n        /* \"contracts/ERC20/ERC20.sol\":15484:15505  uint8 _organizationId */\n      0x00\n        /* \"contracts/ERC20/ERC20.sol\":15508:15521  walletRecorde */\n      dup2\n        /* \"contracts/ERC20/ERC20.sol\":15508:15527  walletRecorde.index */\n      0x02\n      add\n      0x00\n      swap1\n      sload\n      swap1\n      0x0100\n      exp\n      swap1\n      div\n      0xff\n      and\n        /* \"contracts/ERC20/ERC20.sol\":15484:15527  uint8 _organizationId = walletRecorde.index */\n      swap1\n      pop\n        /* \"contracts/ERC20/ERC20.sol\":15560:15561  0 */\n      0x00\n        /* \"contracts/ERC20/ERC20.sol\":15541:15556  _organizationId */\n      dup2\n        /* \"contracts/ERC20/ERC20.sol\":15541:15561  _organizationId == 0 */\n      0xff\n      and\n      eq\n        /* \"contracts/ERC20/ERC20.sol\":15541:15598  _organizationId == 0 || walletRecorde.lockBalanceNum == 0 */\n      dup1\n      tag_266\n      jumpi\n      pop\n        /* \"contracts/ERC20/ERC20.sol\":15597:15598  0 */\n      0x00\n        /* \"contracts/ERC20/ERC20.sol\":15565:15578  walletRecorde */\n      dup3\n        /* \"contracts/ERC20/ERC20.sol\":15565:15593  walletRecorde.lockBalanceNum */\n      0x01\n      add\n      sload\n        /* \"contracts/ERC20/ERC20.sol\":15565:15598  walletRecorde.lockBalanceNum == 0 */\n      eq\n        /* \"contracts/ERC20/ERC20.sol\":15541:15598  _organizationId == 0 || walletRecorde.lockBalanceNum == 0 */\n    tag_266:\n        /* \"contracts/ERC20/ERC20.sol\":15537:15633  if (_organizationId == 0 || walletRecorde.lockBalanceNum == 0) {... */\n      iszero\n      tag_267\n      jumpi\n        /* \"contracts/ERC20/ERC20.sol\":15621:15622  0 */\n      0x00\n        /* \"contracts/ERC20/ERC20.sol\":15614:15622  return 0 */\n      swap3\n      pop\n      pop\n      pop\n      jump(tag_265)\n        /* \"contracts/ERC20/ERC20.sol\":15537:15633  if (_organizationId == 0 || walletRecorde.lockBalanceNum == 0) {... */\n    tag_267:\n        /* \"contracts/ERC20/ERC20.sol\":15643:15658  uint256 nowTime */\n      0x00\n        /* \"contracts/ERC20/ERC20.sol\":15661:15676  block.timestamp */\n      timestamp\n        /* \"contracts/ERC20/ERC20.sol\":15643:15676  uint256 nowTime = block.timestamp */\n      swap1\n      pop\n        /* \"contracts/ERC20/ERC20.sol\":15686:15708  uint256 lockTotalValue */\n      0x00\n        /* \"contracts/ERC20/ERC20.sol\":15711:15724  walletRecorde */\n      dup4\n        /* \"contracts/ERC20/ERC20.sol\":15711:15734  walletRecorde.lockTotal */\n      0x00\n      add\n      sload\n        /* \"contracts/ERC20/ERC20.sol\":15686:15734  uint256 lockTotalValue = walletRecorde.lockTotal */\n      swap1\n      pop\n        /* \"contracts/ERC20/ERC20.sol\":15781:15782  6 */\n      0x06\n        /* \"contracts/ERC20/ERC20.sol\":15762:15777  _organizationId */\n      dup4\n        /* \"contracts/ERC20/ERC20.sol\":15762:15782  _organizationId != 6 */\n      0xff\n      and\n      eq\n      iszero\n        /* \"contracts/ERC20/ERC20.sol\":15762:15818  _organizationId != 6 &&... */\n      dup1\n      iszero\n      tag_268\n      jumpi\n      pop\n        /* \"contracts/ERC20/ERC20.sol\":15817:15818  7 */\n      0x07\n        /* \"contracts/ERC20/ERC20.sol\":15798:15813  _organizationId */\n      dup4\n        /* \"contracts/ERC20/ERC20.sol\":15798:15818  _organizationId != 7 */\n      0xff\n      and\n      eq\n      iszero\n        /* \"contracts/ERC20/ERC20.sol\":15762:15818  _organizationId != 6 &&... */\n    tag_268:\n        /* \"contracts/ERC20/ERC20.sol\":15762:15875  _organizationId != 6 &&... */\n      dup1\n      iszero\n      tag_269\n      jumpi\n      pop\n        /* \"contracts/ERC20/ERC20.sol\":15849:15850  0 */\n      0x00\n        /* \"contracts/ERC20/ERC20.sol\":15835:15845  _startTime */\n      sload(0x06)\n        /* \"contracts/ERC20/ERC20.sol\":15835:15850  _startTime == 0 */\n      eq\n        /* \"contracts/ERC20/ERC20.sol\":15835:15874  _startTime == 0 || nowTime < _startTime */\n      dup1\n      tag_270\n      jumpi\n      pop\n        /* \"contracts/ERC20/ERC20.sol\":15864:15874  _startTime */\n      sload(0x06)\n        /* \"contracts/ERC20/ERC20.sol\":15854:15861  nowTime */\n      dup3\n        /* \"contracts/ERC20/ERC20.sol\":15854:15874  nowTime < _startTime */\n      lt\n        /* \"contracts/ERC20/ERC20.sol\":15835:15874  _startTime == 0 || nowTime < _startTime */\n    tag_270:\n        /* \"contracts/ERC20/ERC20.sol\":15762:15875  _organizationId != 6 &&... */\n    tag_269:\n        /* \"contracts/ERC20/ERC20.sol\":15745:15932  if (... */\n      iszero\n      tag_271\n      jumpi\n        /* \"contracts/ERC20/ERC20.sol\":15907:15921  lockTotalValue */\n      dup1\n        /* \"contracts/ERC20/ERC20.sol\":15900:15921  return lockTotalValue */\n      swap5\n      pop\n      pop\n      pop\n      pop\n      pop\n      jump(tag_265)\n        /* \"contracts/ERC20/ERC20.sol\":15745:15932  if (... */\n    tag_271:\n        /* \"contracts/ERC20/ERC20.sol\":15949:15988  _lockBalanceNum(walletRecorde, nowTime) */\n      tag_272\n        /* \"contracts/ERC20/ERC20.sol\":15965:15978  walletRecorde */\n      dup5\n        /* \"contracts/ERC20/ERC20.sol\":15980:15987  nowTime */\n      dup4\n        /* \"contracts/ERC20/ERC20.sol\":15949:15964  _lockBalanceNum */\n      tag_273\n        /* \"contracts/ERC20/ERC20.sol\":15949:15988  _lockBalanceNum(walletRecorde, nowTime) */\n      jump\t// in\n    tag_272:\n        /* \"contracts/ERC20/ERC20.sol\":15942:15988  return _lockBalanceNum(walletRecorde, nowTime) */\n      swap5\n      pop\n      pop\n      pop\n      pop\n      pop\n        /* \"contracts/ERC20/ERC20.sol\":15300:15995  function _releaseTokenSearch(address account)... */\n    tag_265:\n      swap2\n      swap1\n      pop\n      jump\t// out\n        /* \"contracts/ERC20/ERC20.sol\":20248:20735  function _spendAllowance(... */\n    tag_129:\n        /* \"contracts/ERC20/ERC20.sol\":20378:20402  uint256 currentAllowance */\n      0x00\n        /* \"contracts/ERC20/ERC20.sol\":20405:20430  allowance(owner, spender) */\n      tag_275\n        /* \"contracts/ERC20/ERC20.sol\":20415:20420  owner */\n      dup5\n        /* \"contracts/ERC20/ERC20.sol\":20422:20429  spender */\n      dup5\n        /* \"contracts/ERC20/ERC20.sol\":20405:20414  allowance */\n      tag_100\n        /* \"contracts/ERC20/ERC20.sol\":20405:20430  allowance(owner, spender) */\n      jump\t// in\n    tag_275:\n        /* \"contracts/ERC20/ERC20.sol\":20378:20430  uint256 currentAllowance = allowance(owner, spender) */\n      swap1\n      pop\n        /* \"contracts/ERC20/ERC20.sol\":20464:20481  type(uint256).max */\n      0xffffffffffffffffffffffffffffffffffffffffffffffffffffffffffffffff\n        /* \"contracts/ERC20/ERC20.sol\":20444:20460  currentAllowance */\n      dup2\n        /* \"contracts/ERC20/ERC20.sol\":20444:20481  currentAllowance != type(uint256).max */\n      eq\n        /* \"contracts/ERC20/ERC20.sol\":20440:20729  if (currentAllowance != type(uint256).max) {... */\n      tag_276\n      jumpi\n        /* \"contracts/ERC20/ERC20.sol\":20542:20548  amount */\n      dup2\n        /* \"contracts/ERC20/ERC20.sol\":20522:20538  currentAllowance */\n      dup2\n        /* \"contracts/ERC20/ERC20.sol\":20522:20548  currentAllowance >= amount */\n      lt\n      iszero\n        /* \"contracts/ERC20/ERC20.sol\":20497:20611  require(... */\n      tag_277\n      jumpi\n      mload(0x40)\n      0x08c379a000000000000000000000000000000000000000000000000000000000\n      dup2\n      mstore\n      0x04\n      add\n      tag_278\n      swap1\n      tag_279\n      jump\t// in\n    tag_278:\n      mload(0x40)\n      dup1\n      swap2\n      sub\n      swap1\n      revert\n    tag_277:\n        /* \"contracts/ERC20/ERC20.sol\":20653:20704  _approve(owner, spender, currentAllowance - amount) */\n      tag_280\n        /* \"contracts/ERC20/ERC20.sol\":20662:20667  owner */\n      dup5\n        /* \"contracts/ERC20/ERC20.sol\":20669:20676  spender */\n      dup5\n        /* \"contracts/ERC20/ERC20.sol\":20697:20703  amount */\n      dup5\n        /* \"contracts/ERC20/ERC20.sol\":20678:20694  currentAllowance */\n      dup5\n        /* \"contracts/ERC20/ERC20.sol\":20678:20703  currentAllowance - amount */\n      sub\n        /* \"contracts/ERC20/ERC20.sol\":20653:20661  _approve */\n      tag_121\n        /* \"contracts/ERC20/ERC20.sol\":20653:20704  _approve(owner, spender, currentAllowance - amount) */\n      jump\t// in\n    tag_280:\n        /* \"contracts/ERC20/ERC20.sol\":20440:20729  if (currentAllowance != type(uint256).max) {... */\n    tag_276:\n        /* \"contracts/ERC20/ERC20.sol\":20368:20735  {... */\n      pop\n        /* \"contracts/ERC20/ERC20.sol\":20248:20735  function _spendAllowance(... */\n      pop\n      pop\n      pop\n      jump\t// out\n        /* \"contracts/ERC20/ERC20.sol\":16449:17613  function _transfer(... */\n    tag_131:\n        /* \"contracts/ERC20/ERC20.sol\":16591:16592  0 */\n      0x00\n        /* \"contracts/ERC20/ERC20.sol\":16575:16593  from != address(0) */\n      0xffffffffffffffffffffffffffffffffffffffff\n      and\n        /* \"contracts/ERC20/ERC20.sol\":16575:16579  from */\n      dup4\n        /* \"contracts/ERC20/ERC20.sol\":16575:16593  from != address(0) */\n      0xffffffffffffffffffffffffffffffffffffffff\n      and\n      sub\n        /* \"contracts/ERC20/ERC20.sol\":16567:16635  require(from != address(0), \"ERC20: transfer from the zero address\") */\n      tag_282\n      jumpi\n      mload(0x40)\n      0x08c379a000000000000000000000000000000000000000000000000000000000\n      dup2\n      mstore\n      0x04\n      add\n      tag_283\n      swap1\n      tag_284\n      jump\t// in\n    tag_283:\n      mload(0x40)\n      dup1\n      swap2\n      sub\n      swap1\n      revert\n    tag_282:\n        /* \"contracts/ERC20/ERC20.sol\":16667:16668  0 */\n      0x00\n        /* \"contracts/ERC20/ERC20.sol\":16653:16669  to != address(0) */\n      0xffffffffffffffffffffffffffffffffffffffff\n      and\n        /* \"contracts/ERC20/ERC20.sol\":16653:16655  to */\n      dup3\n        /* \"contracts/ERC20/ERC20.sol\":16653:16669  to != address(0) */\n      0xffffffffffffffffffffffffffffffffffffffff\n      and\n      sub\n        /* \"contracts/ERC20/ERC20.sol\":16645:16709  require(to != address(0), \"ERC20: transfer to the zero address\") */\n      tag_285\n      jumpi\n      mload(0x40)\n      0x08c379a000000000000000000000000000000000000000000000000000000000\n      dup2\n      mstore\n      0x04\n      add\n      tag_286\n      swap1\n      tag_287\n      jump\t// in\n    tag_286:\n      mload(0x40)\n      dup1\n      swap2\n      sub\n      swap1\n      revert\n    tag_285:\n        /* \"contracts/ERC20/ERC20.sol\":16813:16819  _owner */\n      0x05\n      0x00\n      swap1\n      sload\n      swap1\n      0x0100\n      exp\n      swap1\n      div\n      0xffffffffffffffffffffffffffffffffffffffff\n      and\n        /* \"contracts/ERC20/ERC20.sol\":16805:16819  from == _owner */\n      0xffffffffffffffffffffffffffffffffffffffff\n      and\n        /* \"contracts/ERC20/ERC20.sol\":16805:16809  from */\n      dup4\n        /* \"contracts/ERC20/ERC20.sol\":16805:16819  from == _owner */\n      0xffffffffffffffffffffffffffffffffffffffff\n      and\n      sub\n        /* \"contracts/ERC20/ERC20.sol\":16801:17001  if (from == _owner) {... */\n      tag_288\n      jumpi\n        /* \"contracts/ERC20/ERC20.sol\":16887:16888  0 */\n      0x00\n        /* \"contracts/ERC20/ERC20.sol\":16860:16873  walletRecords */\n      0x09\n        /* \"contracts/ERC20/ERC20.sol\":16860:16877  walletRecords[to] */\n      0x00\n        /* \"contracts/ERC20/ERC20.sol\":16874:16876  to */\n      dup5\n        /* \"contracts/ERC20/ERC20.sol\":16860:16877  walletRecords[to] */\n      0xffffffffffffffffffffffffffffffffffffffff\n      and\n      0xffffffffffffffffffffffffffffffffffffffff\n      and\n      dup2\n      mstore\n      0x20\n      add\n      swap1\n      dup2\n      mstore\n      0x20\n      add\n      0x00\n      keccak256\n        /* \"contracts/ERC20/ERC20.sol\":16860:16883  walletRecords[to].index */\n      0x02\n      add\n      0x00\n      swap1\n      sload\n      swap1\n      0x0100\n      exp\n      swap1\n      div\n      0xff\n      and\n        /* \"contracts/ERC20/ERC20.sol\":16860:16888  walletRecords[to].index != 0 */\n      0xff\n      and\n      eq\n      iszero\n        /* \"contracts/ERC20/ERC20.sol\":16860:16946  walletRecords[to].index != 0 &&... */\n      dup1\n      iszero\n      tag_289\n      jumpi\n      pop\n        /* \"contracts/ERC20/ERC20.sol\":16945:16946  0 */\n      0x00\n        /* \"contracts/ERC20/ERC20.sol\":16912:16925  walletRecords */\n      0x09\n        /* \"contracts/ERC20/ERC20.sol\":16912:16929  walletRecords[to] */\n      0x00\n        /* \"contracts/ERC20/ERC20.sol\":16926:16928  to */\n      dup5\n        /* \"contracts/ERC20/ERC20.sol\":16912:16929  walletRecords[to] */\n      0xffffffffffffffffffffffffffffffffffffffff\n      and\n      0xffffffffffffffffffffffffffffffffffffffff\n      and\n      dup2\n      mstore\n      0x20\n      add\n      swap1\n      dup2\n      mstore\n      0x20\n      add\n      0x00\n      keccak256\n        /* \"contracts/ERC20/ERC20.sol\":16912:16941  walletRecords[to].lastRelease */\n      0x07\n      add\n      sload\n        /* \"contracts/ERC20/ERC20.sol\":16912:16946  walletRecords[to].lastRelease == 0 */\n      eq\n        /* \"contracts/ERC20/ERC20.sol\":16860:16946  walletRecords[to].index != 0 &&... */\n    tag_289:\n        /* \"contracts/ERC20/ERC20.sol\":16835:16990  require(... */\n      tag_290\n      jumpi\n      mload(0x40)\n      0x08c379a000000000000000000000000000000000000000000000000000000000\n      dup2\n      mstore\n      0x04\n      add\n      tag_291\n      swap1\n      tag_292\n      jump\t// in\n    tag_291:\n      mload(0x40)\n      dup1\n      swap2\n      sub\n      swap1\n      revert\n    tag_290:\n        /* \"contracts/ERC20/ERC20.sol\":16801:17001  if (from == _owner) {... */\n    tag_288:\n        /* \"contracts/ERC20/ERC20.sol\":17010:17036  _releaseToken(from, false) */\n      tag_293\n        /* \"contracts/ERC20/ERC20.sol\":17024:17028  from */\n      dup4\n        /* \"contracts/ERC20/ERC20.sol\":17030:17035  false */\n      0x00\n        /* \"contracts/ERC20/ERC20.sol\":17010:17023  _releaseToken */\n      tag_173\n        /* \"contracts/ERC20/ERC20.sol\":17010:17036  _releaseToken(from, false) */\n      jump\t// in\n    tag_293:\n        /* \"contracts/ERC20/ERC20.sol\":17047:17066  uint256 fromBalance */\n      0x00\n        /* \"contracts/ERC20/ERC20.sol\":17069:17078  _balances */\n      dup1\n        /* \"contracts/ERC20/ERC20.sol\":17069:17084  _balances[from] */\n      0x00\n        /* \"contracts/ERC20/ERC20.sol\":17079:17083  from */\n      dup6\n        /* \"contracts/ERC20/ERC20.sol\":17069:17084  _balances[from] */\n      0xffffffffffffffffffffffffffffffffffffffff\n      and\n      0xffffffffffffffffffffffffffffffffffffffff\n      and\n      dup2\n      mstore\n      0x20\n      add\n      swap1\n      dup2\n      mstore\n      0x20\n      add\n      0x00\n      keccak256\n      sload\n        /* \"contracts/ERC20/ERC20.sol\":17047:17084  uint256 fromBalance = _balances[from] */\n      swap1\n      pop\n        /* \"contracts/ERC20/ERC20.sol\":17094:17121  uint256 lockBalanceNumValue */\n      0x00\n        /* \"contracts/ERC20/ERC20.sol\":17124:17137  walletRecords */\n      0x09\n        /* \"contracts/ERC20/ERC20.sol\":17124:17143  walletRecords[from] */\n      0x00\n        /* \"contracts/ERC20/ERC20.sol\":17138:17142  from */\n      dup7\n        /* \"contracts/ERC20/ERC20.sol\":17124:17143  walletRecords[from] */\n      0xffffffffffffffffffffffffffffffffffffffff\n      and\n      0xffffffffffffffffffffffffffffffffffffffff\n      and\n      dup2\n      mstore\n      0x20\n      add\n      swap1\n      dup2\n      mstore\n      0x20\n      add\n      0x00\n      keccak256\n        /* \"contracts/ERC20/ERC20.sol\":17124:17158  walletRecords[from].lockBalanceNum */\n      0x01\n      add\n      sload\n        /* \"contracts/ERC20/ERC20.sol\":17094:17158  uint256 lockBalanceNumValue = walletRecords[from].lockBalanceNum */\n      swap1\n      pop\n        /* \"contracts/ERC20/ERC20.sol\":17213:17219  amount */\n      dup3\n        /* \"contracts/ERC20/ERC20.sol\":17190:17209  lockBalanceNumValue */\n      dup2\n        /* \"contracts/ERC20/ERC20.sol\":17176:17187  fromBalance */\n      dup4\n        /* \"contracts/ERC20/ERC20.sol\":17176:17209  fromBalance - lockBalanceNumValue */\n      tag_294\n      swap2\n      swap1\n      tag_201\n      jump\t// in\n    tag_294:\n        /* \"contracts/ERC20/ERC20.sol\":17176:17219  fromBalance - lockBalanceNumValue >= amount */\n      lt\n      iszero\n        /* \"contracts/ERC20/ERC20.sol\":17168:17234  require(fromBalance - lockBalanceNumValue >= amount, \"not enough\") */\n      tag_295\n      jumpi\n      mload(0x40)\n      0x08c379a000000000000000000000000000000000000000000000000000000000\n      dup2\n      mstore\n      0x04\n      add\n      tag_296\n      swap1\n      tag_297\n      jump\t// in\n    tag_296:\n      mload(0x40)\n      dup1\n      swap2\n      sub\n      swap1\n      revert\n    tag_295:\n        /* \"contracts/ERC20/ERC20.sol\":17245:17283  _beforeTokenTransfer(from, to, amount) */\n      tag_298\n        /* \"contracts/ERC20/ERC20.sol\":17266:17270  from */\n      dup6\n        /* \"contracts/ERC20/ERC20.sol\":17272:17274  to */\n      dup6\n        /* \"contracts/ERC20/ERC20.sol\":17276:17282  amount */\n      dup6\n        /* \"contracts/ERC20/ERC20.sol\":17245:17265  _beforeTokenTransfer */\n      tag_299\n        /* \"contracts/ERC20/ERC20.sol\":17245:17283  _beforeTokenTransfer(from, to, amount) */\n      jump\t// in\n    tag_298:\n        /* \"contracts/ERC20/ERC20.sol\":17330:17336  amount */\n      dup3\n        /* \"contracts/ERC20/ERC20.sol\":17315:17326  fromBalance */\n      dup3\n        /* \"contracts/ERC20/ERC20.sol\":17315:17336  fromBalance >= amount */\n      lt\n      iszero\n        /* \"contracts/ERC20/ERC20.sol\":17294:17400  require(... */\n      tag_300\n      jumpi\n      mload(0x40)\n      0x08c379a000000000000000000000000000000000000000000000000000000000\n      dup2\n      mstore\n      0x04\n      add\n      tag_301\n      swap1\n      tag_302\n      jump\t// in\n    tag_301:\n      mload(0x40)\n      dup1\n      swap2\n      sub\n      swap1\n      revert\n    tag_300:\n        /* \"contracts/ERC20/ERC20.sol\":17467:17473  amount */\n      dup3\n        /* \"contracts/ERC20/ERC20.sol\":17453:17464  fromBalance */\n      dup3\n        /* \"contracts/ERC20/ERC20.sol\":17453:17473  fromBalance - amount */\n      sub\n        /* \"contracts/ERC20/ERC20.sol\":17435:17444  _balances */\n      0x00\n        /* \"contracts/ERC20/ERC20.sol\":17435:17450  _balances[from] */\n      dup1\n        /* \"contracts/ERC20/ERC20.sol\":17445:17449  from */\n      dup8\n        /* \"contracts/ERC20/ERC20.sol\":17435:17450  _balances[from] */\n      0xffffffffffffffffffffffffffffffffffffffff\n      and\n      0xffffffffffffffffffffffffffffffffffffffff\n      and\n      dup2\n      mstore\n      0x20\n      add\n      swap1\n      dup2\n      mstore\n      0x20\n      add\n      0x00\n      keccak256\n        /* \"contracts/ERC20/ERC20.sol\":17435:17473  _balances[from] = fromBalance - amount */\n      dup2\n      swap1\n      sstore\n      pop\n        /* \"contracts/ERC20/ERC20.sol\":17510:17516  amount */\n      dup3\n        /* \"contracts/ERC20/ERC20.sol\":17493:17502  _balances */\n      0x00\n        /* \"contracts/ERC20/ERC20.sol\":17493:17506  _balances[to] */\n      dup1\n        /* \"contracts/ERC20/ERC20.sol\":17503:17505  to */\n      dup7\n        /* \"contracts/ERC20/ERC20.sol\":17493:17506  _balances[to] */\n      0xffffffffffffffffffffffffffffffffffffffff\n      and\n      0xffffffffffffffffffffffffffffffffffffffff\n      and\n      dup2\n      mstore\n      0x20\n      add\n      swap1\n      dup2\n      mstore\n      0x20\n      add\n      0x00\n      keccak256\n      0x00\n        /* \"contracts/ERC20/ERC20.sol\":17493:17516  _balances[to] += amount */\n      dup3\n      dup3\n      sload\n      tag_303\n      swap2\n      swap1\n      tag_139\n      jump\t// in\n    tag_303:\n      swap3\n      pop\n      pop\n      dup2\n      swap1\n      sstore\n      pop\n        /* \"contracts/ERC20/ERC20.sol\":17547:17549  to */\n      dup4\n        /* \"contracts/ERC20/ERC20.sol\":17532:17558  Transfer(from, to, amount) */\n      0xffffffffffffffffffffffffffffffffffffffff\n      and\n        /* \"contracts/ERC20/ERC20.sol\":17541:17545  from */\n      dup6\n        /* \"contracts/ERC20/ERC20.sol\":17532:17558  Transfer(from, to, amount) */\n      0xffffffffffffffffffffffffffffffffffffffff\n      and\n      0xddf252ad1be2c89b69c2b068fc378daa952ba7f163c4a11628f55a4df523b3ef\n        /* \"contracts/ERC20/ERC20.sol\":17551:17557  amount */\n      dup6\n        /* \"contracts/ERC20/ERC20.sol\":17532:17558  Transfer(from, to, amount) */\n      mload(0x40)\n      tag_304\n      swap2\n      swap1\n      tag_41\n      jump\t// in\n    tag_304:\n      mload(0x40)\n      dup1\n      swap2\n      sub\n      swap1\n      log3\n        /* \"contracts/ERC20/ERC20.sol\":17569:17606  _afterTokenTransfer(from, to, amount) */\n      tag_305\n        /* \"contracts/ERC20/ERC20.sol\":17589:17593  from */\n      dup6\n        /* \"contracts/ERC20/ERC20.sol\":17595:17597  to */\n      dup6\n        /* \"contracts/ERC20/ERC20.sol\":17599:17605  amount */\n      dup6\n        /* \"contracts/ERC20/ERC20.sol\":17569:17588  _afterTokenTransfer */\n      tag_306\n        /* \"contracts/ERC20/ERC20.sol\":17569:17606  _afterTokenTransfer(from, to, amount) */\n      jump\t// in\n    tag_305:\n        /* \"contracts/ERC20/ERC20.sol\":16557:17613  {... */\n      pop\n      pop\n        /* \"contracts/ERC20/ERC20.sol\":16449:17613  function _transfer(... */\n      pop\n      pop\n      pop\n      jump\t// out\n        /* \"contracts/ERC20/ERC20.sol\":22194:23516  function _releaseAll(uint256[5] storage oneOrgRecordMsg)... */\n    tag_159:\n        /* \"contracts/ERC20/ERC20.sol\":22310:22317  uint256 */\n      0x00\n        /* \"contracts/ERC20/ERC20.sol\":22331:22338  uint256 */\n      dup1\n        /* \"contracts/ERC20/ERC20.sol\":22352:22359  uint256 */\n      0x00\n        /* \"contracts/ERC20/ERC20.sol\":22373:22380  uint256 */\n      dup1\n        /* \"contracts/ERC20/ERC20.sol\":22394:22401  uint256 */\n      0x00\n        /* \"contracts/ERC20/ERC20.sol\":22426:22449  uint256 _firstUnlockPre */\n      dup1\n        /* \"contracts/ERC20/ERC20.sol\":22452:22467  oneOrgRecordMsg */\n      dup7\n        /* \"contracts/ERC20/ERC20.sol\":22468:22469  1 */\n      0x01\n        /* \"contracts/ERC20/ERC20.sol\":22452:22470  oneOrgRecordMsg[1] */\n      0x05\n      dup2\n      lt\n      tag_308\n      jumpi\n      tag_309\n      tag_157\n      jump\t// in\n    tag_309:\n    tag_308:\n      add\n      sload\n        /* \"contracts/ERC20/ERC20.sol\":22426:22470  uint256 _firstUnlockPre = oneOrgRecordMsg[1] */\n      swap1\n      pop\n        /* \"contracts/ERC20/ERC20.sol\":22509:22533  uint256 _releaseInterval */\n      0x00\n        /* \"contracts/ERC20/ERC20.sol\":22536:22572  oneOrgRecordMsg[2].mul(baseInterval) */\n      tag_311\n        /* \"contracts/ERC20/ERC20.sol\":22559:22571  baseInterval */\n      immutable(\"0x90dacc74a051bb02f6fef34c96c77d9e73e206b15a1ade4f6e7a8ca7a52ff111\")\n        /* \"contracts/ERC20/ERC20.sol\":22536:22551  oneOrgRecordMsg */\n      dup10\n        /* \"contracts/ERC20/ERC20.sol\":22552:22553  2 */\n      0x02\n        /* \"contracts/ERC20/ERC20.sol\":22536:22554  oneOrgRecordMsg[2] */\n      0x05\n      dup2\n      lt\n      tag_312\n      jumpi\n      tag_313\n      tag_157\n      jump\t// in\n    tag_313:\n    tag_312:\n      add\n      sload\n        /* \"contracts/ERC20/ERC20.sol\":22536:22558  oneOrgRecordMsg[2].mul */\n      tag_315\n      swap1\n        /* \"contracts/ERC20/ERC20.sol\":22536:22572  oneOrgRecordMsg[2].mul(baseInterval) */\n      swap2\n      swap1\n      0xffffffff\n      and\n      jump\t// in\n    tag_311:\n        /* \"contracts/ERC20/ERC20.sol\":22509:22572  uint256 _releaseInterval = oneOrgRecordMsg[2].mul(baseInterval) */\n      swap1\n      pop\n        /* \"contracts/ERC20/ERC20.sol\":22611:22632  uint256 _intervalTime */\n      0x00\n        /* \"contracts/ERC20/ERC20.sol\":22635:22671  oneOrgRecordMsg[3].mul(baseInterval) */\n      tag_316\n        /* \"contracts/ERC20/ERC20.sol\":22658:22670  baseInterval */\n      immutable(\"0x90dacc74a051bb02f6fef34c96c77d9e73e206b15a1ade4f6e7a8ca7a52ff111\")\n        /* \"contracts/ERC20/ERC20.sol\":22635:22650  oneOrgRecordMsg */\n      dup11\n        /* \"contracts/ERC20/ERC20.sol\":22651:22652  3 */\n      0x03\n        /* \"contracts/ERC20/ERC20.sol\":22635:22653  oneOrgRecordMsg[3] */\n      0x05\n      dup2\n      lt\n      tag_317\n      jumpi\n      tag_318\n      tag_157\n      jump\t// in\n    tag_318:\n    tag_317:\n      add\n      sload\n        /* \"contracts/ERC20/ERC20.sol\":22635:22657  oneOrgRecordMsg[3].mul */\n      tag_315\n      swap1\n        /* \"contracts/ERC20/ERC20.sol\":22635:22671  oneOrgRecordMsg[3].mul(baseInterval) */\n      swap2\n      swap1\n      0xffffffff\n      and\n      jump\t// in\n    tag_316:\n        /* \"contracts/ERC20/ERC20.sol\":22611:22671  uint256 _intervalTime = oneOrgRecordMsg[3].mul(baseInterval) */\n      swap1\n      pop\n        /* \"contracts/ERC20/ERC20.sol\":22681:22705  uint256 _secondUnlockPre */\n      0x00\n        /* \"contracts/ERC20/ERC20.sol\":22708:22723  oneOrgRecordMsg */\n      dup10\n        /* \"contracts/ERC20/ERC20.sol\":22724:22725  4 */\n      0x04\n        /* \"contracts/ERC20/ERC20.sol\":22708:22726  oneOrgRecordMsg[4] */\n      0x05\n      dup2\n      lt\n      tag_320\n      jumpi\n      tag_321\n      tag_157\n      jump\t// in\n    tag_321:\n    tag_320:\n      add\n      sload\n        /* \"contracts/ERC20/ERC20.sol\":22681:22726  uint256 _secondUnlockPre = oneOrgRecordMsg[4] */\n      swap1\n      pop\n        /* \"contracts/ERC20/ERC20.sol\":22761:22762  0 */\n      0x00\n        /* \"contracts/ERC20/ERC20.sol\":22741:22757  _secondUnlockPre */\n      dup2\n        /* \"contracts/ERC20/ERC20.sol\":22741:22762  _secondUnlockPre == 0 */\n      sub\n        /* \"contracts/ERC20/ERC20.sol\":22737:22970  if (_secondUnlockPre == 0) {... */\n      tag_323\n      jumpi\n        /* \"contracts/ERC20/ERC20.sol\":22803:22813  _startTime */\n      sload(0x06)\n        /* \"contracts/ERC20/ERC20.sol\":22831:22847  _releaseInterval */\n      dup4\n        /* \"contracts/ERC20/ERC20.sol\":22865:22878  _intervalTime */\n      dup4\n        /* \"contracts/ERC20/ERC20.sol\":22896:22911  _firstUnlockPre */\n      dup7\n        /* \"contracts/ERC20/ERC20.sol\":22929:22945  _secondUnlockPre */\n      dup5\n        /* \"contracts/ERC20/ERC20.sol\":22778:22959  return (... */\n      swap9\n      pop\n      swap9\n      pop\n      swap9\n      pop\n      swap9\n      pop\n      swap9\n      pop\n      pop\n      pop\n      pop\n      pop\n      jump(tag_307)\n        /* \"contracts/ERC20/ERC20.sol\":22737:22970  if (_secondUnlockPre == 0) {... */\n    tag_323:\n        /* \"contracts/ERC20/ERC20.sol\":22979:22994  uint256 baseNum */\n      0x00\n        /* \"contracts/ERC20/ERC20.sol\":22997:23001  1000 */\n      0x03e8\n        /* \"contracts/ERC20/ERC20.sol\":22979:23001  uint256 baseNum = 1000 */\n      swap1\n      pop\n        /* \"contracts/ERC20/ERC20.sol\":23011:23031  uint256 firstBalance */\n      0x00\n        /* \"contracts/ERC20/ERC20.sol\":23034:23062  baseNum.sub(_firstUnlockPre) */\n      tag_324\n        /* \"contracts/ERC20/ERC20.sol\":23046:23061  _firstUnlockPre */\n      dup7\n        /* \"contracts/ERC20/ERC20.sol\":23034:23041  baseNum */\n      dup4\n        /* \"contracts/ERC20/ERC20.sol\":23034:23045  baseNum.sub */\n      tag_325\n      swap1\n        /* \"contracts/ERC20/ERC20.sol\":23034:23062  baseNum.sub(_firstUnlockPre) */\n      swap2\n      swap1\n      0xffffffff\n      and\n      jump\t// in\n    tag_324:\n        /* \"contracts/ERC20/ERC20.sol\":23011:23062  uint256 firstBalance = baseNum.sub(_firstUnlockPre) */\n      swap1\n      pop\n        /* \"contracts/ERC20/ERC20.sol\":23110:23123  uint256 times */\n      0x00\n        /* \"contracts/ERC20/ERC20.sol\":23126:23215  (firstBalance.sub(firstBalance.mod(_secondUnlockPre)))... */\n      tag_326\n        /* \"contracts/ERC20/ERC20.sol\":23198:23214  _secondUnlockPre */\n      dup5\n        /* \"contracts/ERC20/ERC20.sol\":23127:23179  firstBalance.sub(firstBalance.mod(_secondUnlockPre)) */\n      tag_327\n        /* \"contracts/ERC20/ERC20.sol\":23144:23178  firstBalance.mod(_secondUnlockPre) */\n      tag_328\n        /* \"contracts/ERC20/ERC20.sol\":23161:23177  _secondUnlockPre */\n      dup8\n        /* \"contracts/ERC20/ERC20.sol\":23144:23156  firstBalance */\n      dup7\n        /* \"contracts/ERC20/ERC20.sol\":23144:23160  firstBalance.mod */\n      tag_329\n      swap1\n        /* \"contracts/ERC20/ERC20.sol\":23144:23178  firstBalance.mod(_secondUnlockPre) */\n      swap2\n      swap1\n      0xffffffff\n      and\n      jump\t// in\n    tag_328:\n        /* \"contracts/ERC20/ERC20.sol\":23127:23139  firstBalance */\n      dup6\n        /* \"contracts/ERC20/ERC20.sol\":23127:23143  firstBalance.sub */\n      tag_325\n      swap1\n        /* \"contracts/ERC20/ERC20.sol\":23127:23179  firstBalance.sub(firstBalance.mod(_secondUnlockPre)) */\n      swap2\n      swap1\n      0xffffffff\n      and\n      jump\t// in\n    tag_327:\n        /* \"contracts/ERC20/ERC20.sol\":23126:23197  (firstBalance.sub(firstBalance.mod(_secondUnlockPre)))... */\n      tag_330\n      swap1\n        /* \"contracts/ERC20/ERC20.sol\":23126:23215  (firstBalance.sub(firstBalance.mod(_secondUnlockPre)))... */\n      swap2\n      swap1\n      0xffffffff\n      and\n      jump\t// in\n    tag_326:\n        /* \"contracts/ERC20/ERC20.sol\":23110:23215  uint256 times = (firstBalance.sub(firstBalance.mod(_secondUnlockPre)))... */\n      swap1\n      pop\n        /* \"contracts/ERC20/ERC20.sol\":23225:23249  uint256 _releaseAllTimes */\n      0x00\n        /* \"contracts/ERC20/ERC20.sol\":23252:23336  _startTime.add(_releaseInterval).add(... */\n      tag_331\n        /* \"contracts/ERC20/ERC20.sol\":23302:23326  times.mul(_intervalTime) */\n      tag_332\n        /* \"contracts/ERC20/ERC20.sol\":23312:23325  _intervalTime */\n      dup8\n        /* \"contracts/ERC20/ERC20.sol\":23302:23307  times */\n      dup5\n        /* \"contracts/ERC20/ERC20.sol\":23302:23311  times.mul */\n      tag_315\n      swap1\n        /* \"contracts/ERC20/ERC20.sol\":23302:23326  times.mul(_intervalTime) */\n      swap2\n      swap1\n      0xffffffff\n      and\n      jump\t// in\n    tag_332:\n        /* \"contracts/ERC20/ERC20.sol\":23252:23284  _startTime.add(_releaseInterval) */\n      tag_333\n        /* \"contracts/ERC20/ERC20.sol\":23267:23283  _releaseInterval */\n      dup10\n        /* \"contracts/ERC20/ERC20.sol\":23252:23262  _startTime */\n      sload(0x06)\n        /* \"contracts/ERC20/ERC20.sol\":23252:23266  _startTime.add */\n      tag_334\n      swap1\n        /* \"contracts/ERC20/ERC20.sol\":23252:23284  _startTime.add(_releaseInterval) */\n      swap2\n      swap1\n      0xffffffff\n      and\n      jump\t// in\n    tag_333:\n        /* \"contracts/ERC20/ERC20.sol\":23252:23288  _startTime.add(_releaseInterval).add */\n      tag_334\n      swap1\n        /* \"contracts/ERC20/ERC20.sol\":23252:23336  _startTime.add(_releaseInterval).add(... */\n      swap2\n      swap1\n      0xffffffff\n      and\n      jump\t// in\n    tag_331:\n        /* \"contracts/ERC20/ERC20.sol\":23225:23336  uint256 _releaseAllTimes = _startTime.add(_releaseInterval).add(... */\n      swap1\n      pop\n        /* \"contracts/ERC20/ERC20.sol\":23367:23383  _releaseAllTimes */\n      dup1\n        /* \"contracts/ERC20/ERC20.sol\":23397:23413  _releaseInterval */\n      dup8\n        /* \"contracts/ERC20/ERC20.sol\":23427:23440  _intervalTime */\n      dup8\n        /* \"contracts/ERC20/ERC20.sol\":23454:23469  _firstUnlockPre */\n      dup11\n        /* \"contracts/ERC20/ERC20.sol\":23483:23499  _secondUnlockPre */\n      dup9\n        /* \"contracts/ERC20/ERC20.sol\":23346:23509  return (... */\n      swap13\n      pop\n      swap13\n      pop\n      swap13\n      pop\n      swap13\n      pop\n      swap13\n      pop\n      pop\n      pop\n      pop\n      pop\n      pop\n      pop\n      pop\n      pop\n        /* \"contracts/ERC20/ERC20.sol\":22194:23516  function _releaseAll(uint256[5] storage oneOrgRecordMsg)... */\n    tag_307:\n      swap2\n      swap4\n      swap6\n      swap1\n      swap3\n      swap5\n      pop\n      jump\t// out\n        /* \"contracts/ERC20/ERC20.sol\":14135:15266  function _releaseToken(address account, bool isSetTime) private {... */\n    tag_173:\n        /* \"contracts/ERC20/ERC20.sol\":14209:14243  WalletRecord storage walletRecorde */\n      0x00\n        /* \"contracts/ERC20/ERC20.sol\":14246:14259  walletRecords */\n      0x09\n        /* \"contracts/ERC20/ERC20.sol\":14246:14268  walletRecords[account] */\n      0x00\n        /* \"contracts/ERC20/ERC20.sol\":14260:14267  account */\n      dup5\n        /* \"contracts/ERC20/ERC20.sol\":14246:14268  walletRecords[account] */\n      0xffffffffffffffffffffffffffffffffffffffff\n      and\n      0xffffffffffffffffffffffffffffffffffffffff\n      and\n      dup2\n      mstore\n      0x20\n      add\n      swap1\n      dup2\n      mstore\n      0x20\n      add\n      0x00\n      keccak256\n        /* \"contracts/ERC20/ERC20.sol\":14209:14268  WalletRecord storage walletRecorde = walletRecords[account] */\n      swap1\n      pop\n        /* \"contracts/ERC20/ERC20.sol\":14278:14299  uint8 _organizationId */\n      0x00\n        /* \"contracts/ERC20/ERC20.sol\":14302:14315  walletRecorde */\n      dup2\n        /* \"contracts/ERC20/ERC20.sol\":14302:14321  walletRecorde.index */\n      0x02\n      add\n      0x00\n      swap1\n      sload\n      swap1\n      0x0100\n      exp\n      swap1\n      div\n      0xff\n      and\n        /* \"contracts/ERC20/ERC20.sol\":14278:14321  uint8 _organizationId = walletRecorde.index */\n      swap1\n      pop\n        /* \"contracts/ERC20/ERC20.sol\":14367:14368  0 */\n      0x00\n        /* \"contracts/ERC20/ERC20.sol\":14348:14363  _organizationId */\n      dup2\n        /* \"contracts/ERC20/ERC20.sol\":14348:14368  _organizationId == 0 */\n      0xff\n      and\n      eq\n        /* \"contracts/ERC20/ERC20.sol\":14348:14414  _organizationId == 0 || walletRecords[account].lockBalanceNum == 0 */\n      dup1\n      tag_336\n      jumpi\n      pop\n        /* \"contracts/ERC20/ERC20.sol\":14413:14414  0 */\n      0x00\n        /* \"contracts/ERC20/ERC20.sol\":14372:14385  walletRecords */\n      0x09\n        /* \"contracts/ERC20/ERC20.sol\":14372:14394  walletRecords[account] */\n      0x00\n        /* \"contracts/ERC20/ERC20.sol\":14386:14393  account */\n      dup7\n        /* \"contracts/ERC20/ERC20.sol\":14372:14394  walletRecords[account] */\n      0xffffffffffffffffffffffffffffffffffffffff\n      and\n      0xffffffffffffffffffffffffffffffffffffffff\n      and\n      dup2\n      mstore\n      0x20\n      add\n      swap1\n      dup2\n      mstore\n      0x20\n      add\n      0x00\n      keccak256\n        /* \"contracts/ERC20/ERC20.sol\":14372:14409  walletRecords[account].lockBalanceNum */\n      0x01\n      add\n      sload\n        /* \"contracts/ERC20/ERC20.sol\":14372:14414  walletRecords[account].lockBalanceNum == 0 */\n      eq\n        /* \"contracts/ERC20/ERC20.sol\":14348:14414  _organizationId == 0 || walletRecords[account].lockBalanceNum == 0 */\n    tag_336:\n        /* \"contracts/ERC20/ERC20.sol\":14331:14456  if (... */\n      iszero\n      tag_337\n      jumpi\n        /* \"contracts/ERC20/ERC20.sol\":14439:14446  return; */\n      pop\n      pop\n      jump(tag_335)\n        /* \"contracts/ERC20/ERC20.sol\":14331:14456  if (... */\n    tag_337:\n        /* \"contracts/ERC20/ERC20.sol\":14465:14480  uint256 nowTime */\n      0x00\n        /* \"contracts/ERC20/ERC20.sol\":14483:14498  block.timestamp */\n      timestamp\n        /* \"contracts/ERC20/ERC20.sol\":14465:14498  uint256 nowTime = block.timestamp */\n      swap1\n      pop\n        /* \"contracts/ERC20/ERC20.sol\":14545:14546  6 */\n      0x06\n        /* \"contracts/ERC20/ERC20.sol\":14526:14541  _organizationId */\n      dup3\n        /* \"contracts/ERC20/ERC20.sol\":14526:14546  _organizationId != 6 */\n      0xff\n      and\n      eq\n      iszero\n        /* \"contracts/ERC20/ERC20.sol\":14526:14570  _organizationId != 6 && _organizationId != 7 */\n      dup1\n      iszero\n      tag_338\n      jumpi\n      pop\n        /* \"contracts/ERC20/ERC20.sol\":14569:14570  7 */\n      0x07\n        /* \"contracts/ERC20/ERC20.sol\":14550:14565  _organizationId */\n      dup3\n        /* \"contracts/ERC20/ERC20.sol\":14550:14570  _organizationId != 7 */\n      0xff\n      and\n      eq\n      iszero\n        /* \"contracts/ERC20/ERC20.sol\":14526:14570  _organizationId != 6 && _organizationId != 7 */\n    tag_338:\n        /* \"contracts/ERC20/ERC20.sol\":14526:14594  _organizationId != 6 && _organizationId != 7 && _organizationId != 0 */\n      dup1\n      iszero\n      tag_339\n      jumpi\n      pop\n        /* \"contracts/ERC20/ERC20.sol\":14593:14594  0 */\n      0x00\n        /* \"contracts/ERC20/ERC20.sol\":14574:14589  _organizationId */\n      dup3\n        /* \"contracts/ERC20/ERC20.sol\":14574:14594  _organizationId != 0 */\n      0xff\n      and\n      eq\n      iszero\n        /* \"contracts/ERC20/ERC20.sol\":14526:14594  _organizationId != 6 && _organizationId != 7 && _organizationId != 0 */\n    tag_339:\n        /* \"contracts/ERC20/ERC20.sol\":14509:14889  if (... */\n      iszero\n      tag_340\n      jumpi\n        /* \"contracts/ERC20/ERC20.sol\":14641:14642  0 */\n      0x00\n        /* \"contracts/ERC20/ERC20.sol\":14627:14637  _startTime */\n      sload(0x06)\n        /* \"contracts/ERC20/ERC20.sol\":14627:14642  _startTime != 0 */\n      sub\n        /* \"contracts/ERC20/ERC20.sol\":14619:14660  require(_startTime != 0, \"no start time\") */\n      tag_341\n      jumpi\n      mload(0x40)\n      0x08c379a000000000000000000000000000000000000000000000000000000000\n      dup2\n      mstore\n      0x04\n      add\n      tag_342\n      swap1\n      tag_343\n      jump\t// in\n    tag_342:\n      mload(0x40)\n      dup1\n      swap2\n      sub\n      swap1\n      revert\n    tag_341:\n        /* \"contracts/ERC20/ERC20.sol\":14762:14771  isSetTime */\n      dup4\n        /* \"contracts/ERC20/ERC20.sol\":14758:14879  if (isSetTime) {... */\n      iszero\n      tag_344\n      jumpi\n        /* \"contracts/ERC20/ERC20.sol\":14809:14819  _startTime */\n      sload(0x06)\n        /* \"contracts/ERC20/ERC20.sol\":14799:14806  nowTime */\n      dup2\n        /* \"contracts/ERC20/ERC20.sol\":14799:14819  nowTime < _startTime */\n      lt\n        /* \"contracts/ERC20/ERC20.sol\":14791:14840  require(nowTime < _startTime, \"not initial time\") */\n      tag_345\n      jumpi\n      mload(0x40)\n      0x08c379a000000000000000000000000000000000000000000000000000000000\n      dup2\n      mstore\n      0x04\n      add\n      tag_346\n      swap1\n      tag_347\n      jump\t// in\n    tag_346:\n      mload(0x40)\n      dup1\n      swap2\n      sub\n      swap1\n      revert\n    tag_345:\n        /* \"contracts/ERC20/ERC20.sol\":14858:14865  return; */\n      pop\n      pop\n      pop\n      jump(tag_335)\n        /* \"contracts/ERC20/ERC20.sol\":14758:14879  if (isSetTime) {... */\n    tag_344:\n        /* \"contracts/ERC20/ERC20.sol\":14509:14889  if (... */\n    tag_340:\n        /* \"contracts/ERC20/ERC20.sol\":15013:15014  0 */\n      0x00\n        /* \"contracts/ERC20/ERC20.sol\":14981:14994  walletRecorde */\n      dup4\n        /* \"contracts/ERC20/ERC20.sol\":14981:15009  walletRecorde.lockBalanceNum */\n      0x01\n      add\n      sload\n        /* \"contracts/ERC20/ERC20.sol\":14981:15014  walletRecorde.lockBalanceNum != 0 */\n      sub\n        /* \"contracts/ERC20/ERC20.sol\":14973:15031  require(walletRecorde.lockBalanceNum != 0, \"all released\") */\n      tag_348\n      jumpi\n      mload(0x40)\n      0x08c379a000000000000000000000000000000000000000000000000000000000\n      dup2\n      mstore\n      0x04\n      add\n      tag_349\n      swap1\n      tag_350\n      jump\t// in\n    tag_349:\n      mload(0x40)\n      dup1\n      swap2\n      sub\n      swap1\n      revert\n    tag_348:\n        /* \"contracts/ERC20/ERC20.sol\":15091:15115  uint256 lockBalanceValue */\n      0x00\n        /* \"contracts/ERC20/ERC20.sol\":15118:15157  _lockBalanceNum(walletRecorde, nowTime) */\n      tag_351\n        /* \"contracts/ERC20/ERC20.sol\":15134:15147  walletRecorde */\n      dup5\n        /* \"contracts/ERC20/ERC20.sol\":15149:15156  nowTime */\n      dup4\n        /* \"contracts/ERC20/ERC20.sol\":15118:15133  _lockBalanceNum */\n      tag_273\n        /* \"contracts/ERC20/ERC20.sol\":15118:15157  _lockBalanceNum(walletRecorde, nowTime) */\n      jump\t// in\n    tag_351:\n        /* \"contracts/ERC20/ERC20.sol\":15091:15157  uint256 lockBalanceValue = _lockBalanceNum(walletRecorde, nowTime) */\n      swap1\n      pop\n        /* \"contracts/ERC20/ERC20.sol\":15198:15214  lockBalanceValue */\n      dup1\n        /* \"contracts/ERC20/ERC20.sol\":15167:15180  walletRecorde */\n      dup5\n        /* \"contracts/ERC20/ERC20.sol\":15167:15195  walletRecorde.lockBalanceNum */\n      0x01\n      add\n        /* \"contracts/ERC20/ERC20.sol\":15167:15214  walletRecorde.lockBalanceNum = lockBalanceValue */\n      dup2\n      swap1\n      sstore\n      pop\n        /* \"contracts/ERC20/ERC20.sol\":15252:15259  nowTime */\n      dup2\n        /* \"contracts/ERC20/ERC20.sol\":15224:15237  walletRecorde */\n      dup5\n        /* \"contracts/ERC20/ERC20.sol\":15224:15249  walletRecorde.lastRelease */\n      0x07\n      add\n        /* \"contracts/ERC20/ERC20.sol\":15224:15259  walletRecorde.lastRelease = nowTime */\n      dup2\n      swap1\n      sstore\n      pop\n        /* \"contracts/ERC20/ERC20.sol\":14199:15266  {... */\n      pop\n      pop\n      pop\n      pop\n        /* \"contracts/ERC20/ERC20.sol\":14135:15266  function _releaseToken(address account, bool isSetTime) private {... */\n    tag_335:\n      pop\n      pop\n      jump\t// out\n        /* \"contracts/ERC20/ERC20.sol\":23556:26283  function _lockBalanceNum(... */\n    tag_273:\n        /* \"contracts/ERC20/ERC20.sol\":23678:23685  uint256 */\n      0x00\n        /* \"contracts/ERC20/ERC20.sol\":23869:23885  uint256 lastTime */\n      dup1\n        /* \"contracts/ERC20/ERC20.sol\":23895:23911  uint256 duration */\n      0x00\n        /* \"contracts/ERC20/ERC20.sol\":24003:24004  0 */\n      dup1\n        /* \"contracts/ERC20/ERC20.sol\":23974:23987  walletRecorde */\n      dup6\n        /* \"contracts/ERC20/ERC20.sol\":23974:23999  walletRecorde.lastRelease */\n      0x07\n      add\n      sload\n        /* \"contracts/ERC20/ERC20.sol\":23974:24004  walletRecorde.lastRelease == 0 */\n      sub\n        /* \"contracts/ERC20/ERC20.sol\":23970:26277  if (walletRecorde.lastRelease == 0) {... */\n      tag_353\n      jumpi\n        /* \"contracts/ERC20/ERC20.sol\":24111:24118  nowTime */\n      dup4\n        /* \"contracts/ERC20/ERC20.sol\":24063:24108  walletRecorde.releaseInterval.add(_startTime) */\n      tag_354\n        /* \"contracts/ERC20/ERC20.sol\":24097:24107  _startTime */\n      sload(0x06)\n        /* \"contracts/ERC20/ERC20.sol\":24063:24076  walletRecorde */\n      dup8\n        /* \"contracts/ERC20/ERC20.sol\":24063:24092  walletRecorde.releaseInterval */\n      0x04\n      add\n      sload\n        /* \"contracts/ERC20/ERC20.sol\":24063:24096  walletRecorde.releaseInterval.add */\n      tag_334\n      swap1\n        /* \"contracts/ERC20/ERC20.sol\":24063:24108  walletRecorde.releaseInterval.add(_startTime) */\n      swap2\n      swap1\n      0xffffffff\n      and\n      jump\t// in\n    tag_354:\n        /* \"contracts/ERC20/ERC20.sol\":24063:24118  walletRecorde.releaseInterval.add(_startTime) > nowTime */\n      gt\n        /* \"contracts/ERC20/ERC20.sol\":24059:25464  if (walletRecorde.releaseInterval.add(_startTime) > nowTime) {... */\n      iszero\n      tag_355\n      jumpi\n        /* \"contracts/ERC20/ERC20.sol\":24165:24399  walletRecorde.lockBalanceNum.sub(... */\n      tag_356\n        /* \"contracts/ERC20/ERC20.sol\":24223:24377  walletRecorde... */\n      tag_357\n        /* \"contracts/ERC20/ERC20.sol\":24372:24376  1000 */\n      0x03e8\n        /* \"contracts/ERC20/ERC20.sol\":24223:24338  walletRecorde... */\n      tag_358\n        /* \"contracts/ERC20/ERC20.sol\":24309:24322  walletRecorde */\n      dup9\n        /* \"contracts/ERC20/ERC20.sol\":24309:24337  walletRecorde.firstUnlockPre */\n      0x03\n      add\n      sload\n        /* \"contracts/ERC20/ERC20.sol\":24223:24236  walletRecorde */\n      dup10\n        /* \"contracts/ERC20/ERC20.sol\":24223:24275  walletRecorde... */\n      0x00\n      add\n      sload\n        /* \"contracts/ERC20/ERC20.sol\":24223:24308  walletRecorde... */\n      tag_315\n      swap1\n        /* \"contracts/ERC20/ERC20.sol\":24223:24338  walletRecorde... */\n      swap2\n      swap1\n      0xffffffff\n      and\n      jump\t// in\n    tag_358:\n        /* \"contracts/ERC20/ERC20.sol\":24223:24371  walletRecorde... */\n      tag_330\n      swap1\n        /* \"contracts/ERC20/ERC20.sol\":24223:24377  walletRecorde... */\n      swap2\n      swap1\n      0xffffffff\n      and\n      jump\t// in\n    tag_357:\n        /* \"contracts/ERC20/ERC20.sol\":24165:24178  walletRecorde */\n      dup7\n        /* \"contracts/ERC20/ERC20.sol\":24165:24193  walletRecorde.lockBalanceNum */\n      0x01\n      add\n      sload\n        /* \"contracts/ERC20/ERC20.sol\":24165:24197  walletRecorde.lockBalanceNum.sub */\n      tag_325\n      swap1\n        /* \"contracts/ERC20/ERC20.sol\":24165:24399  walletRecorde.lockBalanceNum.sub(... */\n      swap2\n      swap1\n      0xffffffff\n      and\n      jump\t// in\n    tag_356:\n        /* \"contracts/ERC20/ERC20.sol\":24138:24399  return... */\n      swap3\n      pop\n      pop\n      pop\n      jump(tag_352)\n        /* \"contracts/ERC20/ERC20.sol\":24059:25464  if (walletRecorde.releaseInterval.add(_startTime) > nowTime) {... */\n    tag_355:\n        /* \"contracts/ERC20/ERC20.sol\":24486:24499  walletRecorde */\n      dup5\n        /* \"contracts/ERC20/ERC20.sol\":24486:24514  walletRecorde.releaseAllTime */\n      0x08\n      add\n      sload\n        /* \"contracts/ERC20/ERC20.sol\":24476:24483  nowTime */\n      dup5\n        /* \"contracts/ERC20/ERC20.sol\":24476:24514  nowTime > walletRecorde.releaseAllTime */\n      gt\n        /* \"contracts/ERC20/ERC20.sol\":24472:25450  if (nowTime > walletRecorde.releaseAllTime) {... */\n      iszero\n      tag_360\n      jumpi\n        /* \"contracts/ERC20/ERC20.sol\":24545:24546  0 */\n      0x00\n        /* \"contracts/ERC20/ERC20.sol\":24538:24546  return 0 */\n      swap3\n      pop\n      pop\n      pop\n      jump(tag_352)\n        /* \"contracts/ERC20/ERC20.sol\":24472:25450  if (nowTime > walletRecorde.releaseAllTime) {... */\n    tag_360:\n        /* \"contracts/ERC20/ERC20.sol\":24651:24696  _startTime.add(walletRecorde.releaseInterval) */\n      tag_362\n        /* \"contracts/ERC20/ERC20.sol\":24666:24679  walletRecorde */\n      dup6\n        /* \"contracts/ERC20/ERC20.sol\":24666:24695  walletRecorde.releaseInterval */\n      0x04\n      add\n      sload\n        /* \"contracts/ERC20/ERC20.sol\":24651:24661  _startTime */\n      sload(0x06)\n        /* \"contracts/ERC20/ERC20.sol\":24651:24665  _startTime.add */\n      tag_334\n      swap1\n        /* \"contracts/ERC20/ERC20.sol\":24651:24696  _startTime.add(walletRecorde.releaseInterval) */\n      swap2\n      swap1\n      0xffffffff\n      and\n      jump\t// in\n    tag_362:\n        /* \"contracts/ERC20/ERC20.sol\":24640:24696  lastTime = _startTime.add(walletRecorde.releaseInterval) */\n      swap2\n      pop\n        /* \"contracts/ERC20/ERC20.sol\":24729:24750  nowTime.sub(lastTime) */\n      tag_363\n        /* \"contracts/ERC20/ERC20.sol\":24741:24749  lastTime */\n      dup3\n        /* \"contracts/ERC20/ERC20.sol\":24729:24736  nowTime */\n      dup6\n        /* \"contracts/ERC20/ERC20.sol\":24729:24740  nowTime.sub */\n      tag_325\n      swap1\n        /* \"contracts/ERC20/ERC20.sol\":24729:24750  nowTime.sub(lastTime) */\n      swap2\n      swap1\n      0xffffffff\n      and\n      jump\t// in\n    tag_363:\n        /* \"contracts/ERC20/ERC20.sol\":24718:24750  duration = nowTime.sub(lastTime) */\n      swap1\n      pop\n        /* \"contracts/ERC20/ERC20.sol\":24772:24785  uint256 times */\n      0x00\n        /* \"contracts/ERC20/ERC20.sol\":24788:24929  (... */\n      tag_364\n        /* \"contracts/ERC20/ERC20.sol\":24927:24928  1 */\n      0x01\n        /* \"contracts/ERC20/ERC20.sol\":24788:24922  (... */\n      tag_365\n        /* \"contracts/ERC20/ERC20.sol\":24895:24908  walletRecorde */\n      dup9\n        /* \"contracts/ERC20/ERC20.sol\":24895:24921  walletRecorde.intervalTime */\n      0x05\n      add\n      sload\n        /* \"contracts/ERC20/ERC20.sol\":24814:24868  duration.sub(duration.mod(walletRecorde.intervalTime)) */\n      tag_366\n        /* \"contracts/ERC20/ERC20.sol\":24827:24867  duration.mod(walletRecorde.intervalTime) */\n      tag_367\n        /* \"contracts/ERC20/ERC20.sol\":24840:24853  walletRecorde */\n      dup12\n        /* \"contracts/ERC20/ERC20.sol\":24840:24866  walletRecorde.intervalTime */\n      0x05\n      add\n      sload\n        /* \"contracts/ERC20/ERC20.sol\":24827:24835  duration */\n      dup9\n        /* \"contracts/ERC20/ERC20.sol\":24827:24839  duration.mod */\n      tag_329\n      swap1\n        /* \"contracts/ERC20/ERC20.sol\":24827:24867  duration.mod(walletRecorde.intervalTime) */\n      swap2\n      swap1\n      0xffffffff\n      and\n      jump\t// in\n    tag_367:\n        /* \"contracts/ERC20/ERC20.sol\":24814:24822  duration */\n      dup8\n        /* \"contracts/ERC20/ERC20.sol\":24814:24826  duration.sub */\n      tag_325\n      swap1\n        /* \"contracts/ERC20/ERC20.sol\":24814:24868  duration.sub(duration.mod(walletRecorde.intervalTime)) */\n      swap2\n      swap1\n      0xffffffff\n      and\n      jump\t// in\n    tag_366:\n        /* \"contracts/ERC20/ERC20.sol\":24788:24894  (... */\n      tag_330\n      swap1\n        /* \"contracts/ERC20/ERC20.sol\":24788:24922  (... */\n      swap2\n      swap1\n      0xffffffff\n      and\n      jump\t// in\n    tag_365:\n        /* \"contracts/ERC20/ERC20.sol\":24788:24926  (... */\n      tag_334\n      swap1\n        /* \"contracts/ERC20/ERC20.sol\":24788:24929  (... */\n      swap2\n      swap1\n      0xffffffff\n      and\n      jump\t// in\n    tag_364:\n        /* \"contracts/ERC20/ERC20.sol\":24772:24929  uint256 times = (... */\n      swap1\n      pop\n        /* \"contracts/ERC20/ERC20.sol\":24983:25431  walletRecorde.lockBalanceNum.sub(... */\n      tag_368\n        /* \"contracts/ERC20/ERC20.sol\":25045:25405  walletRecorde... */\n      tag_369\n        /* \"contracts/ERC20/ERC20.sol\":25400:25404  1000 */\n      0x03e8\n        /* \"contracts/ERC20/ERC20.sol\":25045:25362  walletRecorde... */\n      tag_370\n        /* \"contracts/ERC20/ERC20.sol\":25176:25328  walletRecorde.firstUnlockPre.add(... */\n      tag_371\n        /* \"contracts/ERC20/ERC20.sol\":25250:25290  times.mul(walletRecorde.secondUnlockPre) */\n      tag_372\n        /* \"contracts/ERC20/ERC20.sol\":25260:25273  walletRecorde */\n      dup12\n        /* \"contracts/ERC20/ERC20.sol\":25260:25289  walletRecorde.secondUnlockPre */\n      0x06\n      add\n      sload\n        /* \"contracts/ERC20/ERC20.sol\":25250:25255  times */\n      dup8\n        /* \"contracts/ERC20/ERC20.sol\":25250:25259  times.mul */\n      tag_315\n      swap1\n        /* \"contracts/ERC20/ERC20.sol\":25250:25290  times.mul(walletRecorde.secondUnlockPre) */\n      swap2\n      swap1\n      0xffffffff\n      and\n      jump\t// in\n    tag_372:\n        /* \"contracts/ERC20/ERC20.sol\":25176:25189  walletRecorde */\n      dup12\n        /* \"contracts/ERC20/ERC20.sol\":25176:25204  walletRecorde.firstUnlockPre */\n      0x03\n      add\n      sload\n        /* \"contracts/ERC20/ERC20.sol\":25176:25208  walletRecorde.firstUnlockPre.add */\n      tag_334\n      swap1\n        /* \"contracts/ERC20/ERC20.sol\":25176:25328  walletRecorde.firstUnlockPre.add(... */\n      swap2\n      swap1\n      0xffffffff\n      and\n      jump\t// in\n    tag_371:\n        /* \"contracts/ERC20/ERC20.sol\":25045:25058  walletRecorde */\n      dup11\n        /* \"contracts/ERC20/ERC20.sol\":25045:25101  walletRecorde... */\n      0x00\n      add\n      sload\n        /* \"contracts/ERC20/ERC20.sol\":25045:25138  walletRecorde... */\n      tag_315\n      swap1\n        /* \"contracts/ERC20/ERC20.sol\":25045:25362  walletRecorde... */\n      swap2\n      swap1\n      0xffffffff\n      and\n      jump\t// in\n    tag_370:\n        /* \"contracts/ERC20/ERC20.sol\":25045:25399  walletRecorde... */\n      tag_330\n      swap1\n        /* \"contracts/ERC20/ERC20.sol\":25045:25405  walletRecorde... */\n      swap2\n      swap1\n      0xffffffff\n      and\n      jump\t// in\n    tag_369:\n        /* \"contracts/ERC20/ERC20.sol\":24983:24996  walletRecorde */\n      dup8\n        /* \"contracts/ERC20/ERC20.sol\":24983:25011  walletRecorde.lockBalanceNum */\n      0x01\n      add\n      sload\n        /* \"contracts/ERC20/ERC20.sol\":24983:25015  walletRecorde.lockBalanceNum.sub */\n      tag_325\n      swap1\n        /* \"contracts/ERC20/ERC20.sol\":24983:25431  walletRecorde.lockBalanceNum.sub(... */\n      swap2\n      swap1\n      0xffffffff\n      and\n      jump\t// in\n    tag_368:\n        /* \"contracts/ERC20/ERC20.sol\":24952:25431  return... */\n      swap4\n      pop\n      pop\n      pop\n      pop\n      jump(tag_352)\n        /* \"contracts/ERC20/ERC20.sol\":23970:26277  if (walletRecorde.lastRelease == 0) {... */\n    tag_353:\n        /* \"contracts/ERC20/ERC20.sol\":25538:25551  walletRecorde */\n      dup5\n        /* \"contracts/ERC20/ERC20.sol\":25538:25566  walletRecorde.releaseAllTime */\n      0x08\n      add\n      sload\n        /* \"contracts/ERC20/ERC20.sol\":25528:25535  nowTime */\n      dup5\n        /* \"contracts/ERC20/ERC20.sol\":25528:25566  nowTime > walletRecorde.releaseAllTime */\n      gt\n        /* \"contracts/ERC20/ERC20.sol\":25524:26267  if (nowTime > walletRecorde.releaseAllTime) {... */\n      iszero\n      tag_374\n      jumpi\n        /* \"contracts/ERC20/ERC20.sol\":25593:25594  0 */\n      0x00\n        /* \"contracts/ERC20/ERC20.sol\":25586:25594  return 0 */\n      swap3\n      pop\n      pop\n      pop\n      jump(tag_352)\n        /* \"contracts/ERC20/ERC20.sol\":25524:26267  if (nowTime > walletRecorde.releaseAllTime) {... */\n    tag_374:\n        /* \"contracts/ERC20/ERC20.sol\":25687:25725  nowTime.sub(walletRecorde.lastRelease) */\n      tag_376\n        /* \"contracts/ERC20/ERC20.sol\":25699:25712  walletRecorde */\n      dup6\n        /* \"contracts/ERC20/ERC20.sol\":25699:25724  walletRecorde.lastRelease */\n      0x07\n      add\n      sload\n        /* \"contracts/ERC20/ERC20.sol\":25687:25694  nowTime */\n      dup6\n        /* \"contracts/ERC20/ERC20.sol\":25687:25698  nowTime.sub */\n      tag_325\n      swap1\n        /* \"contracts/ERC20/ERC20.sol\":25687:25725  nowTime.sub(walletRecorde.lastRelease) */\n      swap2\n      swap1\n      0xffffffff\n      and\n      jump\t// in\n    tag_376:\n        /* \"contracts/ERC20/ERC20.sol\":25676:25725  duration = nowTime.sub(walletRecorde.lastRelease) */\n      swap1\n      pop\n        /* \"contracts/ERC20/ERC20.sol\":25743:25756  uint256 times */\n      0x00\n        /* \"contracts/ERC20/ERC20.sol\":25759:25894  (... */\n      tag_377\n        /* \"contracts/ERC20/ERC20.sol\":25892:25893  1 */\n      0x01\n        /* \"contracts/ERC20/ERC20.sol\":25759:25887  (... */\n      tag_378\n        /* \"contracts/ERC20/ERC20.sol\":25860:25873  walletRecorde */\n      dup9\n        /* \"contracts/ERC20/ERC20.sol\":25860:25886  walletRecorde.intervalTime */\n      0x05\n      add\n      sload\n        /* \"contracts/ERC20/ERC20.sol\":25782:25836  duration.sub(duration.mod(walletRecorde.intervalTime)) */\n      tag_379\n        /* \"contracts/ERC20/ERC20.sol\":25795:25835  duration.mod(walletRecorde.intervalTime) */\n      tag_380\n        /* \"contracts/ERC20/ERC20.sol\":25808:25821  walletRecorde */\n      dup12\n        /* \"contracts/ERC20/ERC20.sol\":25808:25834  walletRecorde.intervalTime */\n      0x05\n      add\n      sload\n        /* \"contracts/ERC20/ERC20.sol\":25795:25803  duration */\n      dup9\n        /* \"contracts/ERC20/ERC20.sol\":25795:25807  duration.mod */\n      tag_329\n      swap1\n        /* \"contracts/ERC20/ERC20.sol\":25795:25835  duration.mod(walletRecorde.intervalTime) */\n      swap2\n      swap1\n      0xffffffff\n      and\n      jump\t// in\n    tag_380:\n        /* \"contracts/ERC20/ERC20.sol\":25782:25790  duration */\n      dup8\n        /* \"contracts/ERC20/ERC20.sol\":25782:25794  duration.sub */\n      tag_325\n      swap1\n        /* \"contracts/ERC20/ERC20.sol\":25782:25836  duration.sub(duration.mod(walletRecorde.intervalTime)) */\n      swap2\n      swap1\n      0xffffffff\n      and\n      jump\t// in\n    tag_379:\n        /* \"contracts/ERC20/ERC20.sol\":25759:25859  (... */\n      tag_330\n      swap1\n        /* \"contracts/ERC20/ERC20.sol\":25759:25887  (... */\n      swap2\n      swap1\n      0xffffffff\n      and\n      jump\t// in\n    tag_378:\n        /* \"contracts/ERC20/ERC20.sol\":25759:25891  (... */\n      tag_334\n      swap1\n        /* \"contracts/ERC20/ERC20.sol\":25759:25894  (... */\n      swap2\n      swap1\n      0xffffffff\n      and\n      jump\t// in\n    tag_377:\n        /* \"contracts/ERC20/ERC20.sol\":25743:25894  uint256 times = (... */\n      swap1\n      pop\n        /* \"contracts/ERC20/ERC20.sol\":25940:26252  walletRecorde.lockBalanceNum.sub(... */\n      tag_381\n        /* \"contracts/ERC20/ERC20.sol\":25998:26230  times.mul(... */\n      tag_382\n        /* \"contracts/ERC20/ERC20.sol\":26037:26204  walletRecorde... */\n      tag_383\n        /* \"contracts/ERC20/ERC20.sol\":26199:26203  1000 */\n      0x03e8\n        /* \"contracts/ERC20/ERC20.sol\":26037:26161  walletRecorde... */\n      tag_384\n        /* \"contracts/ERC20/ERC20.sol\":26131:26144  walletRecorde */\n      dup11\n        /* \"contracts/ERC20/ERC20.sol\":26131:26160  walletRecorde.secondUnlockPre */\n      0x06\n      add\n      sload\n        /* \"contracts/ERC20/ERC20.sol\":26037:26050  walletRecorde */\n      dup12\n        /* \"contracts/ERC20/ERC20.sol\":26037:26093  walletRecorde... */\n      0x00\n      add\n      sload\n        /* \"contracts/ERC20/ERC20.sol\":26037:26130  walletRecorde... */\n      tag_315\n      swap1\n        /* \"contracts/ERC20/ERC20.sol\":26037:26161  walletRecorde... */\n      swap2\n      swap1\n      0xffffffff\n      and\n      jump\t// in\n    tag_384:\n        /* \"contracts/ERC20/ERC20.sol\":26037:26198  walletRecorde... */\n      tag_330\n      swap1\n        /* \"contracts/ERC20/ERC20.sol\":26037:26204  walletRecorde... */\n      swap2\n      swap1\n      0xffffffff\n      and\n      jump\t// in\n    tag_383:\n        /* \"contracts/ERC20/ERC20.sol\":25998:26003  times */\n      dup4\n        /* \"contracts/ERC20/ERC20.sol\":25998:26007  times.mul */\n      tag_315\n      swap1\n        /* \"contracts/ERC20/ERC20.sol\":25998:26230  times.mul(... */\n      swap2\n      swap1\n      0xffffffff\n      and\n      jump\t// in\n    tag_382:\n        /* \"contracts/ERC20/ERC20.sol\":25940:25953  walletRecorde */\n      dup8\n        /* \"contracts/ERC20/ERC20.sol\":25940:25968  walletRecorde.lockBalanceNum */\n      0x01\n      add\n      sload\n        /* \"contracts/ERC20/ERC20.sol\":25940:25972  walletRecorde.lockBalanceNum.sub */\n      tag_325\n      swap1\n        /* \"contracts/ERC20/ERC20.sol\":25940:26252  walletRecorde.lockBalanceNum.sub(... */\n      swap2\n      swap1\n      0xffffffff\n      and\n      jump\t// in\n    tag_381:\n        /* \"contracts/ERC20/ERC20.sol\":25913:26252  return... */\n      swap4\n      pop\n      pop\n      pop\n      pop\n        /* \"contracts/ERC20/ERC20.sol\":23556:26283  function _lockBalanceNum(... */\n    tag_352:\n      swap3\n      swap2\n      pop\n      pop\n      jump\t// out\n        /* \"contracts/ERC20/ERC20.sol\":21319:21440  function _beforeTokenTransfer(... */\n    tag_299:\n      pop\n      pop\n      pop\n      jump\t// out\n        /* \"contracts/ERC20/ERC20.sol\":22028:22148  function _afterTokenTransfer(... */\n    tag_306:\n      pop\n      pop\n      pop\n      jump\t// out\n        /* \"@openzeppelin/contracts/utils/math/SafeMath.sol\":3465:3561  function mul(uint256 a, uint256 b) internal pure returns (uint256) {... */\n    tag_315:\n        /* \"@openzeppelin/contracts/utils/math/SafeMath.sol\":3523:3530  uint256 */\n      0x00\n        /* \"@openzeppelin/contracts/utils/math/SafeMath.sol\":3553:3554  b */\n      dup2\n        /* \"@openzeppelin/contracts/utils/math/SafeMath.sol\":3549:3550  a */\n      dup4\n        /* \"@openzeppelin/contracts/utils/math/SafeMath.sol\":3549:3554  a * b */\n      tag_388\n      swap2\n      swap1\n      tag_389\n      jump\t// in\n    tag_388:\n        /* \"@openzeppelin/contracts/utils/math/SafeMath.sol\":3542:3554  return a * b */\n      swap1\n      pop\n        /* \"@openzeppelin/contracts/utils/math/SafeMath.sol\":3465:3561  function mul(uint256 a, uint256 b) internal pure returns (uint256) {... */\n      swap3\n      swap2\n      pop\n      pop\n      jump\t// out\n        /* \"@openzeppelin/contracts/utils/math/SafeMath.sol\":3122:3218  function sub(uint256 a, uint256 b) internal pure returns (uint256) {... */\n    tag_325:\n        /* \"@openzeppelin/contracts/utils/math/SafeMath.sol\":3180:3187  uint256 */\n      0x00\n        /* \"@openzeppelin/contracts/utils/math/SafeMath.sol\":3210:3211  b */\n      dup2\n        /* \"@openzeppelin/contracts/utils/math/SafeMath.sol\":3206:3207  a */\n      dup4\n        /* \"@openzeppelin/contracts/utils/math/SafeMath.sol\":3206:3211  a - b */\n      tag_391\n      swap2\n      swap1\n      tag_201\n      jump\t// in\n    tag_391:\n        /* \"@openzeppelin/contracts/utils/math/SafeMath.sol\":3199:3211  return a - b */\n      swap1\n      pop\n        /* \"@openzeppelin/contracts/utils/math/SafeMath.sol\":3122:3218  function sub(uint256 a, uint256 b) internal pure returns (uint256) {... */\n      swap3\n      swap2\n      pop\n      pop\n      jump\t// out\n        /* \"@openzeppelin/contracts/utils/math/SafeMath.sol\":4399:4495  function mod(uint256 a, uint256 b) internal pure returns (uint256) {... */\n    tag_329:\n        /* \"@openzeppelin/contracts/utils/math/SafeMath.sol\":4457:4464  uint256 */\n      0x00\n        /* \"@openzeppelin/contracts/utils/math/SafeMath.sol\":4487:4488  b */\n      dup2\n        /* \"@openzeppelin/contracts/utils/math/SafeMath.sol\":4483:4484  a */\n      dup4\n        /* \"@openzeppelin/contracts/utils/math/SafeMath.sol\":4483:4488  a % b */\n      tag_393\n      swap2\n      swap1\n      tag_394\n      jump\t// in\n    tag_393:\n        /* \"@openzeppelin/contracts/utils/math/SafeMath.sol\":4476:4488  return a % b */\n      swap1\n      pop\n        /* \"@openzeppelin/contracts/utils/math/SafeMath.sol\":4399:4495  function mod(uint256 a, uint256 b) internal pure returns (uint256) {... */\n      swap3\n      swap2\n      pop\n      pop\n      jump\t// out\n        /* \"@openzeppelin/contracts/utils/math/SafeMath.sol\":3850:3946  function div(uint256 a, uint256 b) internal pure returns (uint256) {... */\n    tag_330:\n        /* \"@openzeppelin/contracts/utils/math/SafeMath.sol\":3908:3915  uint256 */\n      0x00\n        /* \"@openzeppelin/contracts/utils/math/SafeMath.sol\":3938:3939  b */\n      dup2\n        /* \"@openzeppelin/contracts/utils/math/SafeMath.sol\":3934:3935  a */\n      dup4\n        /* \"@openzeppelin/contracts/utils/math/SafeMath.sol\":3934:3939  a / b */\n      tag_396\n      swap2\n      swap1\n      tag_397\n      jump\t// in\n    tag_396:\n        /* \"@openzeppelin/contracts/utils/math/SafeMath.sol\":3927:3939  return a / b */\n      swap1\n      pop\n        /* \"@openzeppelin/contracts/utils/math/SafeMath.sol\":3850:3946  function div(uint256 a, uint256 b) internal pure returns (uint256) {... */\n      swap3\n      swap2\n      pop\n      pop\n      jump\t// out\n        /* \"@openzeppelin/contracts/utils/math/SafeMath.sol\":2755:2851  function add(uint256 a, uint256 b) internal pure returns (uint256) {... */\n    tag_334:\n        /* \"@openzeppelin/contracts/utils/math/SafeMath.sol\":2813:2820  uint256 */\n      0x00\n        /* \"@openzeppelin/contracts/utils/math/SafeMath.sol\":2843:2844  b */\n      dup2\n        /* \"@openzeppelin/contracts/utils/math/SafeMath.sol\":2839:2840  a */\n      dup4\n        /* \"@openzeppelin/contracts/utils/math/SafeMath.sol\":2839:2844  a + b */\n      tag_399\n      swap2\n      swap1\n      tag_139\n      jump\t// in\n    tag_399:\n        /* \"@openzeppelin/contracts/utils/math/SafeMath.sol\":2832:2844  return a + b */\n      swap1\n      pop\n        /* \"@openzeppelin/contracts/utils/math/SafeMath.sol\":2755:2851  function add(uint256 a, uint256 b) internal pure returns (uint256) {... */\n      swap3\n      swap2\n      pop\n      pop\n      jump\t// out\n        /* \"#utility.yul\":7:106   */\n    tag_400:\n        /* \"#utility.yul\":59:65   */\n      0x00\n        /* \"#utility.yul\":93:98   */\n      dup2\n        /* \"#utility.yul\":87:99   */\n      mload\n        /* \"#utility.yul\":77:99   */\n      swap1\n      pop\n        /* \"#utility.yul\":7:106   */\n      swap2\n      swap1\n      pop\n      jump\t// out\n        /* \"#utility.yul\":112:281   */\n    tag_401:\n        /* \"#utility.yul\":196:207   */\n      0x00\n        /* \"#utility.yul\":230:236   */\n      dup3\n        /* \"#utility.yul\":225:228   */\n      dup3\n        /* \"#utility.yul\":218:237   */\n      mstore\n        /* \"#utility.yul\":270:274   */\n      0x20\n        /* \"#utility.yul\":265:268   */\n      dup3\n        /* \"#utility.yul\":261:275   */\n      add\n        /* \"#utility.yul\":246:275   */\n      swap1\n      pop\n        /* \"#utility.yul\":112:281   */\n      swap3\n      swap2\n      pop\n      pop\n      jump\t// out\n        /* \"#utility.yul\":287:533   */\n    tag_402:\n        /* \"#utility.yul\":368:369   */\n      0x00\n        /* \"#utility.yul\":378:491   */\n    tag_484:\n        /* \"#utility.yul\":392:398   */\n      dup4\n        /* \"#utility.yul\":389:390   */\n      dup2\n        /* \"#utility.yul\":386:399   */\n      lt\n        /* \"#utility.yul\":378:491   */\n      iszero\n      tag_486\n      jumpi\n        /* \"#utility.yul\":477:478   */\n      dup1\n        /* \"#utility.yul\":472:475   */\n      dup3\n        /* \"#utility.yul\":468:479   */\n      add\n        /* \"#utility.yul\":462:480   */\n      mload\n        /* \"#utility.yul\":458:459   */\n      dup2\n        /* \"#utility.yul\":453:456   */\n      dup5\n        /* \"#utility.yul\":449:460   */\n      add\n        /* \"#utility.yul\":442:481   */\n      mstore\n        /* \"#utility.yul\":414:416   */\n      0x20\n        /* \"#utility.yul\":411:412   */\n      dup2\n        /* \"#utility.yul\":407:417   */\n      add\n        /* \"#utility.yul\":402:417   */\n      swap1\n      pop\n        /* \"#utility.yul\":378:491   */\n      jump(tag_484)\n    tag_486:\n        /* \"#utility.yul\":525:526   */\n      0x00\n        /* \"#utility.yul\":516:522   */\n      dup5\n        /* \"#utility.yul\":511:514   */\n      dup5\n        /* \"#utility.yul\":507:523   */\n      add\n        /* \"#utility.yul\":500:527   */\n      mstore\n        /* \"#utility.yul\":349:533   */\n      pop\n        /* \"#utility.yul\":287:533   */\n      pop\n      pop\n      pop\n      jump\t// out\n        /* \"#utility.yul\":539:641   */\n    tag_403:\n        /* \"#utility.yul\":580:586   */\n      0x00\n        /* \"#utility.yul\":631:633   */\n      0x1f\n        /* \"#utility.yul\":627:634   */\n      not\n        /* \"#utility.yul\":622:624   */\n      0x1f\n        /* \"#utility.yul\":615:620   */\n      dup4\n        /* \"#utility.yul\":611:625   */\n      add\n        /* \"#utility.yul\":607:635   */\n      and\n        /* \"#utility.yul\":597:635   */\n      swap1\n      pop\n        /* \"#utility.yul\":539:641   */\n      swap2\n      swap1\n      pop\n      jump\t// out\n        /* \"#utility.yul\":647:1024   */\n    tag_404:\n        /* \"#utility.yul\":735:738   */\n      0x00\n        /* \"#utility.yul\":763:802   */\n      tag_489\n        /* \"#utility.yul\":796:801   */\n      dup3\n        /* \"#utility.yul\":763:802   */\n      tag_400\n      jump\t// in\n    tag_489:\n        /* \"#utility.yul\":818:889   */\n      tag_490\n        /* \"#utility.yul\":882:888   */\n      dup2\n        /* \"#utility.yul\":877:880   */\n      dup6\n        /* \"#utility.yul\":818:889   */\n      tag_401\n      jump\t// in\n    tag_490:\n        /* \"#utility.yul\":811:889   */\n      swap4\n      pop\n        /* \"#utility.yul\":898:963   */\n      tag_491\n        /* \"#utility.yul\":956:962   */\n      dup2\n        /* \"#utility.yul\":951:954   */\n      dup6\n        /* \"#utility.yul\":944:948   */\n      0x20\n        /* \"#utility.yul\":937:942   */\n      dup7\n        /* \"#utility.yul\":933:949   */\n      add\n        /* \"#utility.yul\":898:963   */\n      tag_402\n      jump\t// in\n    tag_491:\n        /* \"#utility.yul\":988:1017   */\n      tag_492\n        /* \"#utility.yul\":1010:1016   */\n      dup2\n        /* \"#utility.yul\":988:1017   */\n      tag_403\n      jump\t// in\n    tag_492:\n        /* \"#utility.yul\":983:986   */\n      dup5\n        /* \"#utility.yul\":979:1018   */\n      add\n        /* \"#utility.yul\":972:1018   */\n      swap2\n      pop\n        /* \"#utility.yul\":739:1024   */\n      pop\n        /* \"#utility.yul\":647:1024   */\n      swap3\n      swap2\n      pop\n      pop\n      jump\t// out\n        /* \"#utility.yul\":1030:1343   */\n    tag_29:\n        /* \"#utility.yul\":1143:1147   */\n      0x00\n        /* \"#utility.yul\":1181:1183   */\n      0x20\n        /* \"#utility.yul\":1170:1179   */\n      dup3\n        /* \"#utility.yul\":1166:1184   */\n      add\n        /* \"#utility.yul\":1158:1184   */\n      swap1\n      pop\n        /* \"#utility.yul\":1230:1239   */\n      dup2\n        /* \"#utility.yul\":1224:1228   */\n      dup2\n        /* \"#utility.yul\":1220:1240   */\n      sub\n        /* \"#utility.yul\":1216:1217   */\n      0x00\n        /* \"#utility.yul\":1205:1214   */\n      dup4\n        /* \"#utility.yul\":1201:1218   */\n      add\n        /* \"#utility.yul\":1194:1241   */\n      mstore\n        /* \"#utility.yul\":1258:1336   */\n      tag_494\n        /* \"#utility.yul\":1331:1335   */\n      dup2\n        /* \"#utility.yul\":1322:1328   */\n      dup5\n        /* \"#utility.yul\":1258:1336   */\n      tag_404\n      jump\t// in\n    tag_494:\n        /* \"#utility.yul\":1250:1336   */\n      swap1\n      pop\n        /* \"#utility.yul\":1030:1343   */\n      swap3\n      swap2\n      pop\n      pop\n      jump\t// out\n        /* \"#utility.yul\":1349:1424   */\n    tag_405:\n        /* \"#utility.yul\":1382:1388   */\n      0x00\n        /* \"#utility.yul\":1415:1417   */\n      0x40\n        /* \"#utility.yul\":1409:1418   */\n      mload\n        /* \"#utility.yul\":1399:1418   */\n      swap1\n      pop\n        /* \"#utility.yul\":1349:1424   */\n      swap1\n      jump\t// out\n        /* \"#utility.yul\":1430:1547   */\n    tag_406:\n        /* \"#utility.yul\":1539:1540   */\n      0x00\n        /* \"#utility.yul\":1536:1537   */\n      dup1\n        /* \"#utility.yul\":1529:1541   */\n      revert\n        /* \"#utility.yul\":1553:1670   */\n    tag_407:\n        /* \"#utility.yul\":1662:1663   */\n      0x00\n        /* \"#utility.yul\":1659:1660   */\n      dup1\n        /* \"#utility.yul\":1652:1664   */\n      revert\n        /* \"#utility.yul\":1676:1802   */\n    tag_408:\n        /* \"#utility.yul\":1713:1720   */\n      0x00\n        /* \"#utility.yul\":1753:1795   */\n      0xffffffffffffffffffffffffffffffffffffffff\n        /* \"#utility.yul\":1746:1751   */\n      dup3\n        /* \"#utility.yul\":1742:1796   */\n      and\n        /* \"#utility.yul\":1731:1796   */\n      swap1\n      pop\n        /* \"#utility.yul\":1676:1802   */\n      swap2\n      swap1\n      pop\n      jump\t// out\n        /* \"#utility.yul\":1808:1904   */\n    tag_409:\n        /* \"#utility.yul\":1845:1852   */\n      0x00\n        /* \"#utility.yul\":1874:1898   */\n      tag_500\n        /* \"#utility.yul\":1892:1897   */\n      dup3\n        /* \"#utility.yul\":1874:1898   */\n      tag_408\n      jump\t// in\n    tag_500:\n        /* \"#utility.yul\":1863:1898   */\n      swap1\n      pop\n        /* \"#utility.yul\":1808:1904   */\n      swap2\n      swap1\n      pop\n      jump\t// out\n        /* \"#utility.yul\":1910:2032   */\n    tag_410:\n        /* \"#utility.yul\":1983:2007   */\n      tag_502\n        /* \"#utility.yul\":2001:2006   */\n      dup2\n        /* \"#utility.yul\":1983:2007   */\n      tag_409\n      jump\t// in\n    tag_502:\n        /* \"#utility.yul\":1976:1981   */\n      dup2\n        /* \"#utility.yul\":1973:2008   */\n      eq\n        /* \"#utility.yul\":1963:2026   */\n      tag_503\n      jumpi\n        /* \"#utility.yul\":2022:2023   */\n      0x00\n        /* \"#utility.yul\":2019:2020   */\n      dup1\n        /* \"#utility.yul\":2012:2024   */\n      revert\n        /* \"#utility.yul\":1963:2026   */\n    tag_503:\n        /* \"#utility.yul\":1910:2032   */\n      pop\n      jump\t// out\n        /* \"#utility.yul\":2038:2177   */\n    tag_411:\n        /* \"#utility.yul\":2084:2089   */\n      0x00\n        /* \"#utility.yul\":2122:2128   */\n      dup2\n        /* \"#utility.yul\":2109:2129   */\n      calldataload\n        /* \"#utility.yul\":2100:2129   */\n      swap1\n      pop\n        /* \"#utility.yul\":2138:2171   */\n      tag_505\n        /* \"#utility.yul\":2165:2170   */\n      dup2\n        /* \"#utility.yul\":2138:2171   */\n      tag_410\n      jump\t// in\n    tag_505:\n        /* \"#utility.yul\":2038:2177   */\n      swap3\n      swap2\n      pop\n      pop\n      jump\t// out\n        /* \"#utility.yul\":2183:2260   */\n    tag_412:\n        /* \"#utility.yul\":2220:2227   */\n      0x00\n        /* \"#utility.yul\":2249:2254   */\n      dup2\n        /* \"#utility.yul\":2238:2254   */\n      swap1\n      pop\n        /* \"#utility.yul\":2183:2260   */\n      swap2\n      swap1\n      pop\n      jump\t// out\n        /* \"#utility.yul\":2266:2388   */\n    tag_413:\n        /* \"#utility.yul\":2339:2363   */\n      tag_508\n        /* \"#utility.yul\":2357:2362   */\n      dup2\n        /* \"#utility.yul\":2339:2363   */\n      tag_412\n      jump\t// in\n    tag_508:\n        /* \"#utility.yul\":2332:2337   */\n      dup2\n        /* \"#utility.yul\":2329:2364   */\n      eq\n        /* \"#utility.yul\":2319:2382   */\n      tag_509\n      jumpi\n        /* \"#utility.yul\":2378:2379   */\n      0x00\n        /* \"#utility.yul\":2375:2376   */\n      dup1\n        /* \"#utility.yul\":2368:2380   */\n      revert\n        /* \"#utility.yul\":2319:2382   */\n    tag_509:\n        /* \"#utility.yul\":2266:2388   */\n      pop\n      jump\t// out\n        /* \"#utility.yul\":2394:2533   */\n    tag_414:\n        /* \"#utility.yul\":2440:2445   */\n      0x00\n        /* \"#utility.yul\":2478:2484   */\n      dup2\n        /* \"#utility.yul\":2465:2485   */\n      calldataload\n        /* \"#utility.yul\":2456:2485   */\n      swap1\n      pop\n        /* \"#utility.yul\":2494:2527   */\n      tag_511\n        /* \"#utility.yul\":2521:2526   */\n      dup2\n        /* \"#utility.yul\":2494:2527   */\n      tag_413\n      jump\t// in\n    tag_511:\n        /* \"#utility.yul\":2394:2533   */\n      swap3\n      swap2\n      pop\n      pop\n      jump\t// out\n        /* \"#utility.yul\":2539:3013   */\n    tag_32:\n        /* \"#utility.yul\":2607:2613   */\n      0x00\n        /* \"#utility.yul\":2615:2621   */\n      dup1\n        /* \"#utility.yul\":2664:2666   */\n      0x40\n        /* \"#utility.yul\":2652:2661   */\n      dup4\n        /* \"#utility.yul\":2643:2650   */\n      dup6\n        /* \"#utility.yul\":2639:2662   */\n      sub\n        /* \"#utility.yul\":2635:2667   */\n      slt\n        /* \"#utility.yul\":2632:2751   */\n      iszero\n      tag_513\n      jumpi\n        /* \"#utility.yul\":2670:2749   */\n      tag_514\n      tag_406\n      jump\t// in\n    tag_514:\n        /* \"#utility.yul\":2632:2751   */\n    tag_513:\n        /* \"#utility.yul\":2790:2791   */\n      0x00\n        /* \"#utility.yul\":2815:2868   */\n      tag_515\n        /* \"#utility.yul\":2860:2867   */\n      dup6\n        /* \"#utility.yul\":2851:2857   */\n      dup3\n        /* \"#utility.yul\":2840:2849   */\n      dup7\n        /* \"#utility.yul\":2836:2858   */\n      add\n        /* \"#utility.yul\":2815:2868   */\n      tag_411\n      jump\t// in\n    tag_515:\n        /* \"#utility.yul\":2805:2868   */\n      swap3\n      pop\n        /* \"#utility.yul\":2761:2878   */\n      pop\n        /* \"#utility.yul\":2917:2919   */\n      0x20\n        /* \"#utility.yul\":2943:2996   */\n      tag_516\n        /* \"#utility.yul\":2988:2995   */\n      dup6\n        /* \"#utility.yul\":2979:2985   */\n      dup3\n        /* \"#utility.yul\":2968:2977   */\n      dup7\n        /* \"#utility.yul\":2964:2986   */\n      add\n        /* \"#utility.yul\":2943:2996   */\n      tag_414\n      jump\t// in\n    tag_516:\n        /* \"#utility.yul\":2933:2996   */\n      swap2\n      pop\n        /* \"#utility.yul\":2888:3006   */\n      pop\n        /* \"#utility.yul\":2539:3013   */\n      swap3\n      pop\n      swap3\n      swap1\n      pop\n      jump\t// out\n        /* \"#utility.yul\":3019:3109   */\n    tag_415:\n        /* \"#utility.yul\":3053:3060   */\n      0x00\n        /* \"#utility.yul\":3096:3101   */\n      dup2\n        /* \"#utility.yul\":3089:3102   */\n      iszero\n        /* \"#utility.yul\":3082:3103   */\n      iszero\n        /* \"#utility.yul\":3071:3103   */\n      swap1\n      pop\n        /* \"#utility.yul\":3019:3109   */\n      swap2\n      swap1\n      pop\n      jump\t// out\n        /* \"#utility.yul\":3115:3224   */\n    tag_416:\n        /* \"#utility.yul\":3196:3217   */\n      tag_519\n        /* \"#utility.yul\":3211:3216   */\n      dup2\n        /* \"#utility.yul\":3196:3217   */\n      tag_415\n      jump\t// in\n    tag_519:\n        /* \"#utility.yul\":3191:3194   */\n      dup3\n        /* \"#utility.yul\":3184:3218   */\n      mstore\n        /* \"#utility.yul\":3115:3224   */\n      pop\n      pop\n      jump\t// out\n        /* \"#utility.yul\":3230:3440   */\n    tag_35:\n        /* \"#utility.yul\":3317:3321   */\n      0x00\n        /* \"#utility.yul\":3355:3357   */\n      0x20\n        /* \"#utility.yul\":3344:3353   */\n      dup3\n        /* \"#utility.yul\":3340:3358   */\n      add\n        /* \"#utility.yul\":3332:3358   */\n      swap1\n      pop\n        /* \"#utility.yul\":3368:3433   */\n      tag_521\n        /* \"#utility.yul\":3430:3431   */\n      0x00\n        /* \"#utility.yul\":3419:3428   */\n      dup4\n        /* \"#utility.yul\":3415:3432   */\n      add\n        /* \"#utility.yul\":3406:3412   */\n      dup5\n        /* \"#utility.yul\":3368:3433   */\n      tag_416\n      jump\t// in\n    tag_521:\n        /* \"#utility.yul\":3230:3440   */\n      swap3\n      swap2\n      pop\n      pop\n      jump\t// out\n        /* \"#utility.yul\":3446:3775   */\n    tag_38:\n        /* \"#utility.yul\":3505:3511   */\n      0x00\n        /* \"#utility.yul\":3554:3556   */\n      0x20\n        /* \"#utility.yul\":3542:3551   */\n      dup3\n        /* \"#utility.yul\":3533:3540   */\n      dup5\n        /* \"#utility.yul\":3529:3552   */\n      sub\n        /* \"#utility.yul\":3525:3557   */\n      slt\n        /* \"#utility.yul\":3522:3641   */\n      iszero\n      tag_523\n      jumpi\n        /* \"#utility.yul\":3560:3639   */\n      tag_524\n      tag_406\n      jump\t// in\n    tag_524:\n        /* \"#utility.yul\":3522:3641   */\n    tag_523:\n        /* \"#utility.yul\":3680:3681   */\n      0x00\n        /* \"#utility.yul\":3705:3758   */\n      tag_525\n        /* \"#utility.yul\":3750:3757   */\n      dup5\n        /* \"#utility.yul\":3741:3747   */\n      dup3\n        /* \"#utility.yul\":3730:3739   */\n      dup6\n        /* \"#utility.yul\":3726:3748   */\n      add\n        /* \"#utility.yul\":3705:3758   */\n      tag_411\n      jump\t// in\n    tag_525:\n        /* \"#utility.yul\":3695:3758   */\n      swap2\n      pop\n        /* \"#utility.yul\":3651:3768   */\n      pop\n        /* \"#utility.yul\":3446:3775   */\n      swap3\n      swap2\n      pop\n      pop\n      jump\t// out\n        /* \"#utility.yul\":3781:3899   */\n    tag_417:\n        /* \"#utility.yul\":3868:3892   */\n      tag_527\n        /* \"#utility.yul\":3886:3891   */\n      dup2\n        /* \"#utility.yul\":3868:3892   */\n      tag_412\n      jump\t// in\n    tag_527:\n        /* \"#utility.yul\":3863:3866   */\n      dup3\n        /* \"#utility.yul\":3856:3893   */\n      mstore\n        /* \"#utility.yul\":3781:3899   */\n      pop\n      pop\n      jump\t// out\n        /* \"#utility.yul\":3905:4127   */\n    tag_41:\n        /* \"#utility.yul\":3998:4002   */\n      0x00\n        /* \"#utility.yul\":4036:4038   */\n      0x20\n        /* \"#utility.yul\":4025:4034   */\n      dup3\n        /* \"#utility.yul\":4021:4039   */\n      add\n        /* \"#utility.yul\":4013:4039   */\n      swap1\n      pop\n        /* \"#utility.yul\":4049:4120   */\n      tag_529\n        /* \"#utility.yul\":4117:4118   */\n      0x00\n        /* \"#utility.yul\":4106:4115   */\n      dup4\n        /* \"#utility.yul\":4102:4119   */\n      add\n        /* \"#utility.yul\":4093:4099   */\n      dup5\n        /* \"#utility.yul\":4049:4120   */\n      tag_417\n      jump\t// in\n    tag_529:\n        /* \"#utility.yul\":3905:4127   */\n      swap3\n      swap2\n      pop\n      pop\n      jump\t// out\n        /* \"#utility.yul\":4133:4752   */\n    tag_47:\n        /* \"#utility.yul\":4210:4216   */\n      0x00\n        /* \"#utility.yul\":4218:4224   */\n      dup1\n        /* \"#utility.yul\":4226:4232   */\n      0x00\n        /* \"#utility.yul\":4275:4277   */\n      0x60\n        /* \"#utility.yul\":4263:4272   */\n      dup5\n        /* \"#utility.yul\":4254:4261   */\n      dup7\n        /* \"#utility.yul\":4250:4273   */\n      sub\n        /* \"#utility.yul\":4246:4278   */\n      slt\n        /* \"#utility.yul\":4243:4362   */\n      iszero\n      tag_531\n      jumpi\n        /* \"#utility.yul\":4281:4360   */\n      tag_532\n      tag_406\n      jump\t// in\n    tag_532:\n        /* \"#utility.yul\":4243:4362   */\n    tag_531:\n        /* \"#utility.yul\":4401:4402   */\n      0x00\n        /* \"#utility.yul\":4426:4479   */\n      tag_533\n        /* \"#utility.yul\":4471:4478   */\n      dup7\n        /* \"#utility.yul\":4462:4468   */\n      dup3\n        /* \"#utility.yul\":4451:4460   */\n      dup8\n        /* \"#utility.yul\":4447:4469   */\n      add\n        /* \"#utility.yul\":4426:4479   */\n      tag_411\n      jump\t// in\n    tag_533:\n        /* \"#utility.yul\":4416:4479   */\n      swap4\n      pop\n        /* \"#utility.yul\":4372:4489   */\n      pop\n        /* \"#utility.yul\":4528:4530   */\n      0x20\n        /* \"#utility.yul\":4554:4607   */\n      tag_534\n        /* \"#utility.yul\":4599:4606   */\n      dup7\n        /* \"#utility.yul\":4590:4596   */\n      dup3\n        /* \"#utility.yul\":4579:4588   */\n      dup8\n        /* \"#utility.yul\":4575:4597   */\n      add\n        /* \"#utility.yul\":4554:4607   */\n      tag_411\n      jump\t// in\n    tag_534:\n        /* \"#utility.yul\":4544:4607   */\n      swap3\n      pop\n        /* \"#utility.yul\":4499:4617   */\n      pop\n        /* \"#utility.yul\":4656:4658   */\n      0x40\n        /* \"#utility.yul\":4682:4735   */\n      tag_535\n        /* \"#utility.yul\":4727:4734   */\n      dup7\n        /* \"#utility.yul\":4718:4724   */\n      dup3\n        /* \"#utility.yul\":4707:4716   */\n      dup8\n        /* \"#utility.yul\":4703:4725   */\n      add\n        /* \"#utility.yul\":4682:4735   */\n      tag_414\n      jump\t// in\n    tag_535:\n        /* \"#utility.yul\":4672:4735   */\n      swap2\n      pop\n        /* \"#utility.yul\":4627:4745   */\n      pop\n        /* \"#utility.yul\":4133:4752   */\n      swap3\n      pop\n      swap3\n      pop\n      swap3\n      jump\t// out\n        /* \"#utility.yul\":4758:4844   */\n    tag_418:\n        /* \"#utility.yul\":4793:4800   */\n      0x00\n        /* \"#utility.yul\":4833:4837   */\n      0xff\n        /* \"#utility.yul\":4826:4831   */\n      dup3\n        /* \"#utility.yul\":4822:4838   */\n      and\n        /* \"#utility.yul\":4811:4838   */\n      swap1\n      pop\n        /* \"#utility.yul\":4758:4844   */\n      swap2\n      swap1\n      pop\n      jump\t// out\n        /* \"#utility.yul\":4850:4962   */\n    tag_419:\n        /* \"#utility.yul\":4933:4955   */\n      tag_538\n        /* \"#utility.yul\":4949:4954   */\n      dup2\n        /* \"#utility.yul\":4933:4955   */\n      tag_418\n      jump\t// in\n    tag_538:\n        /* \"#utility.yul\":4928:4931   */\n      dup3\n        /* \"#utility.yul\":4921:4956   */\n      mstore\n        /* \"#utility.yul\":4850:4962   */\n      pop\n      pop\n      jump\t// out\n        /* \"#utility.yul\":4968:5182   */\n    tag_54:\n        /* \"#utility.yul\":5057:5061   */\n      0x00\n        /* \"#utility.yul\":5095:5097   */\n      0x20\n        /* \"#utility.yul\":5084:5093   */\n      dup3\n        /* \"#utility.yul\":5080:5098   */\n      add\n        /* \"#utility.yul\":5072:5098   */\n      swap1\n      pop\n        /* \"#utility.yul\":5108:5175   */\n      tag_540\n        /* \"#utility.yul\":5172:5173   */\n      0x00\n        /* \"#utility.yul\":5161:5170   */\n      dup4\n        /* \"#utility.yul\":5157:5174   */\n      add\n        /* \"#utility.yul\":5148:5154   */\n      dup5\n        /* \"#utility.yul\":5108:5175   */\n      tag_419\n      jump\t// in\n    tag_540:\n        /* \"#utility.yul\":4968:5182   */\n      swap3\n      swap2\n      pop\n      pop\n      jump\t// out\n        /* \"#utility.yul\":5188:5517   */\n    tag_64:\n        /* \"#utility.yul\":5247:5253   */\n      0x00\n        /* \"#utility.yul\":5296:5298   */\n      0x20\n        /* \"#utility.yul\":5284:5293   */\n      dup3\n        /* \"#utility.yul\":5275:5282   */\n      dup5\n        /* \"#utility.yul\":5271:5294   */\n      sub\n        /* \"#utility.yul\":5267:5299   */\n      slt\n        /* \"#utility.yul\":5264:5383   */\n      iszero\n      tag_542\n      jumpi\n        /* \"#utility.yul\":5302:5381   */\n      tag_543\n      tag_406\n      jump\t// in\n    tag_543:\n        /* \"#utility.yul\":5264:5383   */\n    tag_542:\n        /* \"#utility.yul\":5422:5423   */\n      0x00\n        /* \"#utility.yul\":5447:5500   */\n      tag_544\n        /* \"#utility.yul\":5492:5499   */\n      dup5\n        /* \"#utility.yul\":5483:5489   */\n      dup3\n        /* \"#utility.yul\":5472:5481   */\n      dup6\n        /* \"#utility.yul\":5468:5490   */\n      add\n        /* \"#utility.yul\":5447:5500   */\n      tag_414\n      jump\t// in\n    tag_544:\n        /* \"#utility.yul\":5437:5500   */\n      swap2\n      pop\n        /* \"#utility.yul\":5393:5510   */\n      pop\n        /* \"#utility.yul\":5188:5517   */\n      swap3\n      swap2\n      pop\n      pop\n      jump\t// out\n        /* \"#utility.yul\":5523:5641   */\n    tag_420:\n        /* \"#utility.yul\":5594:5616   */\n      tag_546\n        /* \"#utility.yul\":5610:5615   */\n      dup2\n        /* \"#utility.yul\":5594:5616   */\n      tag_418\n      jump\t// in\n    tag_546:\n        /* \"#utility.yul\":5587:5592   */\n      dup2\n        /* \"#utility.yul\":5584:5617   */\n      eq\n        /* \"#utility.yul\":5574:5635   */\n      tag_547\n      jumpi\n        /* \"#utility.yul\":5631:5632   */\n      0x00\n        /* \"#utility.yul\":5628:5629   */\n      dup1\n        /* \"#utility.yul\":5621:5633   */\n      revert\n        /* \"#utility.yul\":5574:5635   */\n    tag_547:\n        /* \"#utility.yul\":5523:5641   */\n      pop\n      jump\t// out\n        /* \"#utility.yul\":5647:5782   */\n    tag_421:\n        /* \"#utility.yul\":5691:5696   */\n      0x00\n        /* \"#utility.yul\":5729:5735   */\n      dup2\n        /* \"#utility.yul\":5716:5736   */\n      calldataload\n        /* \"#utility.yul\":5707:5736   */\n      swap1\n      pop\n        /* \"#utility.yul\":5745:5776   */\n      tag_549\n        /* \"#utility.yul\":5770:5775   */\n      dup2\n        /* \"#utility.yul\":5745:5776   */\n      tag_420\n      jump\t// in\n    tag_549:\n        /* \"#utility.yul\":5647:5782   */\n      swap3\n      swap2\n      pop\n      pop\n      jump\t// out\n        /* \"#utility.yul\":5788:5905   */\n    tag_422:\n        /* \"#utility.yul\":5897:5898   */\n      0x00\n        /* \"#utility.yul\":5894:5895   */\n      dup1\n        /* \"#utility.yul\":5887:5899   */\n      revert\n        /* \"#utility.yul\":5911:6091   */\n    tag_423:\n        /* \"#utility.yul\":5959:6036   */\n      0x4e487b7100000000000000000000000000000000000000000000000000000000\n        /* \"#utility.yul\":5956:5957   */\n      0x00\n        /* \"#utility.yul\":5949:6037   */\n      mstore\n        /* \"#utility.yul\":6056:6060   */\n      0x41\n        /* \"#utility.yul\":6053:6054   */\n      0x04\n        /* \"#utility.yul\":6046:6061   */\n      mstore\n        /* \"#utility.yul\":6080:6084   */\n      0x24\n        /* \"#utility.yul\":6077:6078   */\n      0x00\n        /* \"#utility.yul\":6070:6085   */\n      revert\n        /* \"#utility.yul\":6097:6378   */\n    tag_424:\n        /* \"#utility.yul\":6180:6207   */\n      tag_553\n        /* \"#utility.yul\":6202:6206   */\n      dup3\n        /* \"#utility.yul\":6180:6207   */\n      tag_403\n      jump\t// in\n    tag_553:\n        /* \"#utility.yul\":6172:6178   */\n      dup2\n        /* \"#utility.yul\":6168:6208   */\n      add\n        /* \"#utility.yul\":6310:6316   */\n      dup2\n        /* \"#utility.yul\":6298:6308   */\n      dup2\n        /* \"#utility.yul\":6295:6317   */\n      lt\n        /* \"#utility.yul\":6274:6292   */\n      0xffffffffffffffff\n        /* \"#utility.yul\":6262:6272   */\n      dup3\n        /* \"#utility.yul\":6259:6293   */\n      gt\n        /* \"#utility.yul\":6256:6318   */\n      or\n        /* \"#utility.yul\":6253:6341   */\n      iszero\n      tag_554\n      jumpi\n        /* \"#utility.yul\":6321:6339   */\n      tag_555\n      tag_423\n      jump\t// in\n    tag_555:\n        /* \"#utility.yul\":6253:6341   */\n    tag_554:\n        /* \"#utility.yul\":6361:6371   */\n      dup1\n        /* \"#utility.yul\":6357:6359   */\n      0x40\n        /* \"#utility.yul\":6350:6372   */\n      mstore\n        /* \"#utility.yul\":6140:6378   */\n      pop\n        /* \"#utility.yul\":6097:6378   */\n      pop\n      pop\n      jump\t// out\n        /* \"#utility.yul\":6384:6513   */\n    tag_425:\n        /* \"#utility.yul\":6418:6424   */\n      0x00\n        /* \"#utility.yul\":6445:6465   */\n      tag_557\n      tag_405\n      jump\t// in\n    tag_557:\n        /* \"#utility.yul\":6435:6465   */\n      swap1\n      pop\n        /* \"#utility.yul\":6474:6507   */\n      tag_558\n        /* \"#utility.yul\":6502:6506   */\n      dup3\n        /* \"#utility.yul\":6494:6500   */\n      dup3\n        /* \"#utility.yul\":6474:6507   */\n      tag_424\n      jump\t// in\n    tag_558:\n        /* \"#utility.yul\":6384:6513   */\n      swap2\n      swap1\n      pop\n      jump\t// out\n        /* \"#utility.yul\":6519:6830   */\n    tag_426:\n        /* \"#utility.yul\":6596:6600   */\n      0x00\n        /* \"#utility.yul\":6686:6704   */\n      0xffffffffffffffff\n        /* \"#utility.yul\":6678:6684   */\n      dup3\n        /* \"#utility.yul\":6675:6705   */\n      gt\n        /* \"#utility.yul\":6672:6728   */\n      iszero\n      tag_560\n      jumpi\n        /* \"#utility.yul\":6708:6726   */\n      tag_561\n      tag_423\n      jump\t// in\n    tag_561:\n        /* \"#utility.yul\":6672:6728   */\n    tag_560:\n        /* \"#utility.yul\":6758:6762   */\n      0x20\n        /* \"#utility.yul\":6750:6756   */\n      dup3\n        /* \"#utility.yul\":6746:6763   */\n      mul\n        /* \"#utility.yul\":6738:6763   */\n      swap1\n      pop\n        /* \"#utility.yul\":6818:6822   */\n      0x20\n        /* \"#utility.yul\":6812:6816   */\n      dup2\n        /* \"#utility.yul\":6808:6823   */\n      add\n        /* \"#utility.yul\":6800:6823   */\n      swap1\n      pop\n        /* \"#utility.yul\":6519:6830   */\n      swap2\n      swap1\n      pop\n      jump\t// out\n        /* \"#utility.yul\":6836:6953   */\n    tag_427:\n        /* \"#utility.yul\":6945:6946   */\n      0x00\n        /* \"#utility.yul\":6942:6943   */\n      dup1\n        /* \"#utility.yul\":6935:6947   */\n      revert\n        /* \"#utility.yul\":6976:7686   */\n    tag_428:\n        /* \"#utility.yul\":7072:7077   */\n      0x00\n        /* \"#utility.yul\":7097:7178   */\n      tag_564\n        /* \"#utility.yul\":7113:7177   */\n      tag_565\n        /* \"#utility.yul\":7170:7176   */\n      dup5\n        /* \"#utility.yul\":7113:7177   */\n      tag_426\n      jump\t// in\n    tag_565:\n        /* \"#utility.yul\":7097:7178   */\n      tag_425\n      jump\t// in\n    tag_564:\n        /* \"#utility.yul\":7088:7178   */\n      swap1\n      pop\n        /* \"#utility.yul\":7198:7203   */\n      dup1\n        /* \"#utility.yul\":7227:7233   */\n      dup4\n        /* \"#utility.yul\":7220:7225   */\n      dup3\n        /* \"#utility.yul\":7213:7234   */\n      mstore\n        /* \"#utility.yul\":7261:7265   */\n      0x20\n        /* \"#utility.yul\":7254:7259   */\n      dup3\n        /* \"#utility.yul\":7250:7266   */\n      add\n        /* \"#utility.yul\":7243:7266   */\n      swap1\n      pop\n        /* \"#utility.yul\":7314:7318   */\n      0x20\n        /* \"#utility.yul\":7306:7312   */\n      dup5\n        /* \"#utility.yul\":7302:7319   */\n      mul\n        /* \"#utility.yul\":7294:7300   */\n      dup4\n        /* \"#utility.yul\":7290:7320   */\n      add\n        /* \"#utility.yul\":7343:7346   */\n      dup6\n        /* \"#utility.yul\":7335:7341   */\n      dup2\n        /* \"#utility.yul\":7332:7347   */\n      gt\n        /* \"#utility.yul\":7329:7451   */\n      iszero\n      tag_566\n      jumpi\n        /* \"#utility.yul\":7362:7441   */\n      tag_567\n      tag_427\n      jump\t// in\n    tag_567:\n        /* \"#utility.yul\":7329:7451   */\n    tag_566:\n        /* \"#utility.yul\":7477:7483   */\n      dup4\n        /* \"#utility.yul\":7460:7680   */\n    tag_568:\n        /* \"#utility.yul\":7494:7500   */\n      dup2\n        /* \"#utility.yul\":7489:7492   */\n      dup2\n        /* \"#utility.yul\":7486:7501   */\n      lt\n        /* \"#utility.yul\":7460:7680   */\n      iszero\n      tag_570\n      jumpi\n        /* \"#utility.yul\":7569:7572   */\n      dup1\n        /* \"#utility.yul\":7598:7635   */\n      tag_571\n        /* \"#utility.yul\":7631:7634   */\n      dup9\n        /* \"#utility.yul\":7619:7629   */\n      dup3\n        /* \"#utility.yul\":7598:7635   */\n      tag_411\n      jump\t// in\n    tag_571:\n        /* \"#utility.yul\":7593:7596   */\n      dup5\n        /* \"#utility.yul\":7586:7636   */\n      mstore\n        /* \"#utility.yul\":7665:7669   */\n      0x20\n        /* \"#utility.yul\":7660:7663   */\n      dup5\n        /* \"#utility.yul\":7656:7670   */\n      add\n        /* \"#utility.yul\":7649:7670   */\n      swap4\n      pop\n        /* \"#utility.yul\":7536:7680   */\n      pop\n        /* \"#utility.yul\":7520:7524   */\n      0x20\n        /* \"#utility.yul\":7515:7518   */\n      dup2\n        /* \"#utility.yul\":7511:7525   */\n      add\n        /* \"#utility.yul\":7504:7525   */\n      swap1\n      pop\n        /* \"#utility.yul\":7460:7680   */\n      jump(tag_568)\n    tag_570:\n        /* \"#utility.yul\":7464:7485   */\n      pop\n        /* \"#utility.yul\":7078:7686   */\n      pop\n      pop\n        /* \"#utility.yul\":6976:7686   */\n      swap4\n      swap3\n      pop\n      pop\n      pop\n      jump\t// out\n        /* \"#utility.yul\":7709:8079   */\n    tag_429:\n        /* \"#utility.yul\":7780:7785   */\n      0x00\n        /* \"#utility.yul\":7829:7832   */\n      dup3\n        /* \"#utility.yul\":7822:7826   */\n      0x1f\n        /* \"#utility.yul\":7814:7820   */\n      dup4\n        /* \"#utility.yul\":7810:7827   */\n      add\n        /* \"#utility.yul\":7806:7833   */\n      slt\n        /* \"#utility.yul\":7796:7918   */\n      tag_573\n      jumpi\n        /* \"#utility.yul\":7837:7916   */\n      tag_574\n      tag_422\n      jump\t// in\n    tag_574:\n        /* \"#utility.yul\":7796:7918   */\n    tag_573:\n        /* \"#utility.yul\":7954:7960   */\n      dup2\n        /* \"#utility.yul\":7941:7961   */\n      calldataload\n        /* \"#utility.yul\":7979:8073   */\n      tag_575\n        /* \"#utility.yul\":8069:8072   */\n      dup5\n        /* \"#utility.yul\":8061:8067   */\n      dup3\n        /* \"#utility.yul\":8054:8058   */\n      0x20\n        /* \"#utility.yul\":8046:8052   */\n      dup7\n        /* \"#utility.yul\":8042:8059   */\n      add\n        /* \"#utility.yul\":7979:8073   */\n      tag_428\n      jump\t// in\n    tag_575:\n        /* \"#utility.yul\":7970:8073   */\n      swap2\n      pop\n        /* \"#utility.yul\":7786:8079   */\n      pop\n        /* \"#utility.yul\":7709:8079   */\n      swap3\n      swap2\n      pop\n      pop\n      jump\t// out\n        /* \"#utility.yul\":8085:8396   */\n    tag_430:\n        /* \"#utility.yul\":8162:8166   */\n      0x00\n        /* \"#utility.yul\":8252:8270   */\n      0xffffffffffffffff\n        /* \"#utility.yul\":8244:8250   */\n      dup3\n        /* \"#utility.yul\":8241:8271   */\n      gt\n        /* \"#utility.yul\":8238:8294   */\n      iszero\n      tag_577\n      jumpi\n        /* \"#utility.yul\":8274:8292   */\n      tag_578\n      tag_423\n      jump\t// in\n    tag_578:\n        /* \"#utility.yul\":8238:8294   */\n    tag_577:\n        /* \"#utility.yul\":8324:8328   */\n      0x20\n        /* \"#utility.yul\":8316:8322   */\n      dup3\n        /* \"#utility.yul\":8312:8329   */\n      mul\n        /* \"#utility.yul\":8304:8329   */\n      swap1\n      pop\n        /* \"#utility.yul\":8384:8388   */\n      0x20\n        /* \"#utility.yul\":8378:8382   */\n      dup2\n        /* \"#utility.yul\":8374:8389   */\n      add\n        /* \"#utility.yul\":8366:8389   */\n      swap1\n      pop\n        /* \"#utility.yul\":8085:8396   */\n      swap2\n      swap1\n      pop\n      jump\t// out\n        /* \"#utility.yul\":8419:9129   */\n    tag_431:\n        /* \"#utility.yul\":8515:8520   */\n      0x00\n        /* \"#utility.yul\":8540:8621   */\n      tag_580\n        /* \"#utility.yul\":8556:8620   */\n      tag_581\n        /* \"#utility.yul\":8613:8619   */\n      dup5\n        /* \"#utility.yul\":8556:8620   */\n      tag_430\n      jump\t// in\n    tag_581:\n        /* \"#utility.yul\":8540:8621   */\n      tag_425\n      jump\t// in\n    tag_580:\n        /* \"#utility.yul\":8531:8621   */\n      swap1\n      pop\n        /* \"#utility.yul\":8641:8646   */\n      dup1\n        /* \"#utility.yul\":8670:8676   */\n      dup4\n        /* \"#utility.yul\":8663:8668   */\n      dup3\n        /* \"#utility.yul\":8656:8677   */\n      mstore\n        /* \"#utility.yul\":8704:8708   */\n      0x20\n        /* \"#utility.yul\":8697:8702   */\n      dup3\n        /* \"#utility.yul\":8693:8709   */\n      add\n        /* \"#utility.yul\":8686:8709   */\n      swap1\n      pop\n        /* \"#utility.yul\":8757:8761   */\n      0x20\n        /* \"#utility.yul\":8749:8755   */\n      dup5\n        /* \"#utility.yul\":8745:8762   */\n      mul\n        /* \"#utility.yul\":8737:8743   */\n      dup4\n        /* \"#utility.yul\":8733:8763   */\n      add\n        /* \"#utility.yul\":8786:8789   */\n      dup6\n        /* \"#utility.yul\":8778:8784   */\n      dup2\n        /* \"#utility.yul\":8775:8790   */\n      gt\n        /* \"#utility.yul\":8772:8894   */\n      iszero\n      tag_582\n      jumpi\n        /* \"#utility.yul\":8805:8884   */\n      tag_583\n      tag_427\n      jump\t// in\n    tag_583:\n        /* \"#utility.yul\":8772:8894   */\n    tag_582:\n        /* \"#utility.yul\":8920:8926   */\n      dup4\n        /* \"#utility.yul\":8903:9123   */\n    tag_584:\n        /* \"#utility.yul\":8937:8943   */\n      dup2\n        /* \"#utility.yul\":8932:8935   */\n      dup2\n        /* \"#utility.yul\":8929:8944   */\n      lt\n        /* \"#utility.yul\":8903:9123   */\n      iszero\n      tag_586\n      jumpi\n        /* \"#utility.yul\":9012:9015   */\n      dup1\n        /* \"#utility.yul\":9041:9078   */\n      tag_587\n        /* \"#utility.yul\":9074:9077   */\n      dup9\n        /* \"#utility.yul\":9062:9072   */\n      dup3\n        /* \"#utility.yul\":9041:9078   */\n      tag_414\n      jump\t// in\n    tag_587:\n        /* \"#utility.yul\":9036:9039   */\n      dup5\n        /* \"#utility.yul\":9029:9079   */\n      mstore\n        /* \"#utility.yul\":9108:9112   */\n      0x20\n        /* \"#utility.yul\":9103:9106   */\n      dup5\n        /* \"#utility.yul\":9099:9113   */\n      add\n        /* \"#utility.yul\":9092:9113   */\n      swap4\n      pop\n        /* \"#utility.yul\":8979:9123   */\n      pop\n        /* \"#utility.yul\":8963:8967   */\n      0x20\n        /* \"#utility.yul\":8958:8961   */\n      dup2\n        /* \"#utility.yul\":8954:8968   */\n      add\n        /* \"#utility.yul\":8947:8968   */\n      swap1\n      pop\n        /* \"#utility.yul\":8903:9123   */\n      jump(tag_584)\n    tag_586:\n        /* \"#utility.yul\":8907:8928   */\n      pop\n        /* \"#utility.yul\":8521:9129   */\n      pop\n      pop\n        /* \"#utility.yul\":8419:9129   */\n      swap4\n      swap3\n      pop\n      pop\n      pop\n      jump\t// out\n        /* \"#utility.yul\":9152:9522   */\n    tag_432:\n        /* \"#utility.yul\":9223:9228   */\n      0x00\n        /* \"#utility.yul\":9272:9275   */\n      dup3\n        /* \"#utility.yul\":9265:9269   */\n      0x1f\n        /* \"#utility.yul\":9257:9263   */\n      dup4\n        /* \"#utility.yul\":9253:9270   */\n      add\n        /* \"#utility.yul\":9249:9276   */\n      slt\n        /* \"#utility.yul\":9239:9361   */\n      tag_589\n      jumpi\n        /* \"#utility.yul\":9280:9359   */\n      tag_590\n      tag_422\n      jump\t// in\n    tag_590:\n        /* \"#utility.yul\":9239:9361   */\n    tag_589:\n        /* \"#utility.yul\":9397:9403   */\n      dup2\n        /* \"#utility.yul\":9384:9404   */\n      calldataload\n        /* \"#utility.yul\":9422:9516   */\n      tag_591\n        /* \"#utility.yul\":9512:9515   */\n      dup5\n        /* \"#utility.yul\":9504:9510   */\n      dup3\n        /* \"#utility.yul\":9497:9501   */\n      0x20\n        /* \"#utility.yul\":9489:9495   */\n      dup7\n        /* \"#utility.yul\":9485:9502   */\n      add\n        /* \"#utility.yul\":9422:9516   */\n      tag_431\n      jump\t// in\n    tag_591:\n        /* \"#utility.yul\":9413:9516   */\n      swap2\n      pop\n        /* \"#utility.yul\":9229:9522   */\n      pop\n        /* \"#utility.yul\":9152:9522   */\n      swap3\n      swap2\n      pop\n      pop\n      jump\t// out\n        /* \"#utility.yul\":9528:10563   */\n    tag_68:\n        /* \"#utility.yul\":9653:9659   */\n      0x00\n        /* \"#utility.yul\":9661:9667   */\n      dup1\n        /* \"#utility.yul\":9669:9675   */\n      0x00\n        /* \"#utility.yul\":9718:9720   */\n      0x60\n        /* \"#utility.yul\":9706:9715   */\n      dup5\n        /* \"#utility.yul\":9697:9704   */\n      dup7\n        /* \"#utility.yul\":9693:9716   */\n      sub\n        /* \"#utility.yul\":9689:9721   */\n      slt\n        /* \"#utility.yul\":9686:9805   */\n      iszero\n      tag_593\n      jumpi\n        /* \"#utility.yul\":9724:9803   */\n      tag_594\n      tag_406\n      jump\t// in\n    tag_594:\n        /* \"#utility.yul\":9686:9805   */\n    tag_593:\n        /* \"#utility.yul\":9844:9845   */\n      0x00\n        /* \"#utility.yul\":9869:9920   */\n      tag_595\n        /* \"#utility.yul\":9912:9919   */\n      dup7\n        /* \"#utility.yul\":9903:9909   */\n      dup3\n        /* \"#utility.yul\":9892:9901   */\n      dup8\n        /* \"#utility.yul\":9888:9910   */\n      add\n        /* \"#utility.yul\":9869:9920   */\n      tag_421\n      jump\t// in\n    tag_595:\n        /* \"#utility.yul\":9859:9920   */\n      swap4\n      pop\n        /* \"#utility.yul\":9815:9930   */\n      pop\n        /* \"#utility.yul\":9997:9999   */\n      0x20\n        /* \"#utility.yul\":9986:9995   */\n      dup5\n        /* \"#utility.yul\":9982:10000   */\n      add\n        /* \"#utility.yul\":9969:10001   */\n      calldataload\n        /* \"#utility.yul\":10028:10046   */\n      0xffffffffffffffff\n        /* \"#utility.yul\":10020:10026   */\n      dup2\n        /* \"#utility.yul\":10017:10047   */\n      gt\n        /* \"#utility.yul\":10014:10131   */\n      iszero\n      tag_596\n      jumpi\n        /* \"#utility.yul\":10050:10129   */\n      tag_597\n      tag_407\n      jump\t// in\n    tag_597:\n        /* \"#utility.yul\":10014:10131   */\n    tag_596:\n        /* \"#utility.yul\":10155:10233   */\n      tag_598\n        /* \"#utility.yul\":10225:10232   */\n      dup7\n        /* \"#utility.yul\":10216:10222   */\n      dup3\n        /* \"#utility.yul\":10205:10214   */\n      dup8\n        /* \"#utility.yul\":10201:10223   */\n      add\n        /* \"#utility.yul\":10155:10233   */\n      tag_429\n      jump\t// in\n    tag_598:\n        /* \"#utility.yul\":10145:10233   */\n      swap3\n      pop\n        /* \"#utility.yul\":9940:10243   */\n      pop\n        /* \"#utility.yul\":10310:10312   */\n      0x40\n        /* \"#utility.yul\":10299:10308   */\n      dup5\n        /* \"#utility.yul\":10295:10313   */\n      add\n        /* \"#utility.yul\":10282:10314   */\n      calldataload\n        /* \"#utility.yul\":10341:10359   */\n      0xffffffffffffffff\n        /* \"#utility.yul\":10333:10339   */\n      dup2\n        /* \"#utility.yul\":10330:10360   */\n      gt\n        /* \"#utility.yul\":10327:10444   */\n      iszero\n      tag_599\n      jumpi\n        /* \"#utility.yul\":10363:10442   */\n      tag_600\n      tag_407\n      jump\t// in\n    tag_600:\n        /* \"#utility.yul\":10327:10444   */\n    tag_599:\n        /* \"#utility.yul\":10468:10546   */\n      tag_601\n        /* \"#utility.yul\":10538:10545   */\n      dup7\n        /* \"#utility.yul\":10529:10535   */\n      dup3\n        /* \"#utility.yul\":10518:10527   */\n      dup8\n        /* \"#utility.yul\":10514:10536   */\n      add\n        /* \"#utility.yul\":10468:10546   */\n      tag_432\n      jump\t// in\n    tag_601:\n        /* \"#utility.yul\":10458:10546   */\n      swap2\n      pop\n        /* \"#utility.yul\":10253:10556   */\n      pop\n        /* \"#utility.yul\":9528:10563   */\n      swap3\n      pop\n      swap3\n      pop\n      swap3\n      jump\t// out\n        /* \"#utility.yul\":10569:10894   */\n    tag_76:\n        /* \"#utility.yul\":10626:10632   */\n      0x00\n        /* \"#utility.yul\":10675:10677   */\n      0x20\n        /* \"#utility.yul\":10663:10672   */\n      dup3\n        /* \"#utility.yul\":10654:10661   */\n      dup5\n        /* \"#utility.yul\":10650:10673   */\n      sub\n        /* \"#utility.yul\":10646:10678   */\n      slt\n        /* \"#utility.yul\":10643:10762   */\n      iszero\n      tag_603\n      jumpi\n        /* \"#utility.yul\":10681:10760   */\n      tag_604\n      tag_406\n      jump\t// in\n    tag_604:\n        /* \"#utility.yul\":10643:10762   */\n    tag_603:\n        /* \"#utility.yul\":10801:10802   */\n      0x00\n        /* \"#utility.yul\":10826:10877   */\n      tag_605\n        /* \"#utility.yul\":10869:10876   */\n      dup5\n        /* \"#utility.yul\":10860:10866   */\n      dup3\n        /* \"#utility.yul\":10849:10858   */\n      dup6\n        /* \"#utility.yul\":10845:10867   */\n      add\n        /* \"#utility.yul\":10826:10877   */\n      tag_421\n      jump\t// in\n    tag_605:\n        /* \"#utility.yul\":10816:10877   */\n      swap2\n      pop\n        /* \"#utility.yul\":10772:10887   */\n      pop\n        /* \"#utility.yul\":10569:10894   */\n      swap3\n      swap2\n      pop\n      pop\n      jump\t// out\n        /* \"#utility.yul\":10900:11014   */\n    tag_433:\n        /* \"#utility.yul\":10967:10973   */\n      0x00\n        /* \"#utility.yul\":11001:11006   */\n      dup2\n        /* \"#utility.yul\":10995:11007   */\n      mload\n        /* \"#utility.yul\":10985:11007   */\n      swap1\n      pop\n        /* \"#utility.yul\":10900:11014   */\n      swap2\n      swap1\n      pop\n      jump\t// out\n        /* \"#utility.yul\":11020:11204   */\n    tag_434:\n        /* \"#utility.yul\":11119:11130   */\n      0x00\n        /* \"#utility.yul\":11153:11159   */\n      dup3\n        /* \"#utility.yul\":11148:11151   */\n      dup3\n        /* \"#utility.yul\":11141:11160   */\n      mstore\n        /* \"#utility.yul\":11193:11197   */\n      0x20\n        /* \"#utility.yul\":11188:11191   */\n      dup3\n        /* \"#utility.yul\":11184:11198   */\n      add\n        /* \"#utility.yul\":11169:11198   */\n      swap1\n      pop\n        /* \"#utility.yul\":11020:11204   */\n      swap3\n      swap2\n      pop\n      pop\n      jump\t// out\n        /* \"#utility.yul\":11210:11342   */\n    tag_435:\n        /* \"#utility.yul\":11277:11281   */\n      0x00\n        /* \"#utility.yul\":11300:11303   */\n      dup2\n        /* \"#utility.yul\":11292:11303   */\n      swap1\n      pop\n        /* \"#utility.yul\":11330:11334   */\n      0x20\n        /* \"#utility.yul\":11325:11328   */\n      dup3\n        /* \"#utility.yul\":11321:11335   */\n      add\n        /* \"#utility.yul\":11313:11335   */\n      swap1\n      pop\n        /* \"#utility.yul\":11210:11342   */\n      swap2\n      swap1\n      pop\n      jump\t// out\n        /* \"#utility.yul\":11348:11456   */\n    tag_436:\n        /* \"#utility.yul\":11425:11449   */\n      tag_610\n        /* \"#utility.yul\":11443:11448   */\n      dup2\n        /* \"#utility.yul\":11425:11449   */\n      tag_409\n      jump\t// in\n    tag_610:\n        /* \"#utility.yul\":11420:11423   */\n      dup3\n        /* \"#utility.yul\":11413:11450   */\n      mstore\n        /* \"#utility.yul\":11348:11456   */\n      pop\n      pop\n      jump\t// out\n        /* \"#utility.yul\":11462:11641   */\n    tag_437:\n        /* \"#utility.yul\":11531:11541   */\n      0x00\n        /* \"#utility.yul\":11552:11598   */\n      tag_612\n        /* \"#utility.yul\":11594:11597   */\n      dup4\n        /* \"#utility.yul\":11586:11592   */\n      dup4\n        /* \"#utility.yul\":11552:11598   */\n      tag_436\n      jump\t// in\n    tag_612:\n        /* \"#utility.yul\":11630:11634   */\n      0x20\n        /* \"#utility.yul\":11625:11628   */\n      dup4\n        /* \"#utility.yul\":11621:11635   */\n      add\n        /* \"#utility.yul\":11607:11635   */\n      swap1\n      pop\n        /* \"#utility.yul\":11462:11641   */\n      swap3\n      swap2\n      pop\n      pop\n      jump\t// out\n        /* \"#utility.yul\":11647:11760   */\n    tag_438:\n        /* \"#utility.yul\":11717:11721   */\n      0x00\n        /* \"#utility.yul\":11749:11753   */\n      0x20\n        /* \"#utility.yul\":11744:11747   */\n      dup3\n        /* \"#utility.yul\":11740:11754   */\n      add\n        /* \"#utility.yul\":11732:11754   */\n      swap1\n      pop\n        /* \"#utility.yul\":11647:11760   */\n      swap2\n      swap1\n      pop\n      jump\t// out\n        /* \"#utility.yul\":11796:12528   */\n    tag_439:\n        /* \"#utility.yul\":11915:11918   */\n      0x00\n        /* \"#utility.yul\":11944:11998   */\n      tag_615\n        /* \"#utility.yul\":11992:11997   */\n      dup3\n        /* \"#utility.yul\":11944:11998   */\n      tag_433\n      jump\t// in\n    tag_615:\n        /* \"#utility.yul\":12014:12100   */\n      tag_616\n        /* \"#utility.yul\":12093:12099   */\n      dup2\n        /* \"#utility.yul\":12088:12091   */\n      dup6\n        /* \"#utility.yul\":12014:12100   */\n      tag_434\n      jump\t// in\n    tag_616:\n        /* \"#utility.yul\":12007:12100   */\n      swap4\n      pop\n        /* \"#utility.yul\":12124:12180   */\n      tag_617\n        /* \"#utility.yul\":12174:12179   */\n      dup4\n        /* \"#utility.yul\":12124:12180   */\n      tag_435\n      jump\t// in\n    tag_617:\n        /* \"#utility.yul\":12203:12210   */\n      dup1\n        /* \"#utility.yul\":12234:12235   */\n      0x00\n        /* \"#utility.yul\":12219:12503   */\n    tag_618:\n        /* \"#utility.yul\":12244:12250   */\n      dup4\n        /* \"#utility.yul\":12241:12242   */\n      dup2\n        /* \"#utility.yul\":12238:12251   */\n      lt\n        /* \"#utility.yul\":12219:12503   */\n      iszero\n      tag_620\n      jumpi\n        /* \"#utility.yul\":12320:12326   */\n      dup2\n        /* \"#utility.yul\":12314:12327   */\n      mload\n        /* \"#utility.yul\":12347:12410   */\n      tag_621\n        /* \"#utility.yul\":12406:12409   */\n      dup9\n        /* \"#utility.yul\":12391:12404   */\n      dup3\n        /* \"#utility.yul\":12347:12410   */\n      tag_437\n      jump\t// in\n    tag_621:\n        /* \"#utility.yul\":12340:12410   */\n      swap8\n      pop\n        /* \"#utility.yul\":12433:12493   */\n      tag_622\n        /* \"#utility.yul\":12486:12492   */\n      dup4\n        /* \"#utility.yul\":12433:12493   */\n      tag_438\n      jump\t// in\n    tag_622:\n        /* \"#utility.yul\":12423:12493   */\n      swap3\n      pop\n        /* \"#utility.yul\":12279:12503   */\n      pop\n        /* \"#utility.yul\":12266:12267   */\n      0x01\n        /* \"#utility.yul\":12263:12264   */\n      dup2\n        /* \"#utility.yul\":12259:12268   */\n      add\n        /* \"#utility.yul\":12254:12268   */\n      swap1\n      pop\n        /* \"#utility.yul\":12219:12503   */\n      jump(tag_618)\n    tag_620:\n        /* \"#utility.yul\":12223:12237   */\n      pop\n        /* \"#utility.yul\":12519:12522   */\n      dup6\n        /* \"#utility.yul\":12512:12522   */\n      swap4\n      pop\n        /* \"#utility.yul\":11920:12528   */\n      pop\n      pop\n      pop\n        /* \"#utility.yul\":11796:12528   */\n      swap3\n      swap2\n      pop\n      pop\n      jump\t// out\n        /* \"#utility.yul\":12534:12907   */\n    tag_79:\n        /* \"#utility.yul\":12677:12681   */\n      0x00\n        /* \"#utility.yul\":12715:12717   */\n      0x20\n        /* \"#utility.yul\":12704:12713   */\n      dup3\n        /* \"#utility.yul\":12700:12718   */\n      add\n        /* \"#utility.yul\":12692:12718   */\n      swap1\n      pop\n        /* \"#utility.yul\":12764:12773   */\n      dup2\n        /* \"#utility.yul\":12758:12762   */\n      dup2\n        /* \"#utility.yul\":12754:12774   */\n      sub\n        /* \"#utility.yul\":12750:12751   */\n      0x00\n        /* \"#utility.yul\":12739:12748   */\n      dup4\n        /* \"#utility.yul\":12735:12752   */\n      add\n        /* \"#utility.yul\":12728:12775   */\n      mstore\n        /* \"#utility.yul\":12792:12900   */\n      tag_624\n        /* \"#utility.yul\":12895:12899   */\n      dup2\n        /* \"#utility.yul\":12886:12892   */\n      dup5\n        /* \"#utility.yul\":12792:12900   */\n      tag_439\n      jump\t// in\n    tag_624:\n        /* \"#utility.yul\":12784:12900   */\n      swap1\n      pop\n        /* \"#utility.yul\":12534:12907   */\n      swap3\n      swap2\n      pop\n      pop\n      jump\t// out\n        /* \"#utility.yul\":12913:13387   */\n    tag_99:\n        /* \"#utility.yul\":12981:12987   */\n      0x00\n        /* \"#utility.yul\":12989:12995   */\n      dup1\n        /* \"#utility.yul\":13038:13040   */\n      0x40\n        /* \"#utility.yul\":13026:13035   */\n      dup4\n        /* \"#utility.yul\":13017:13024   */\n      dup6\n        /* \"#utility.yul\":13013:13036   */\n      sub\n        /* \"#utility.yul\":13009:13041   */\n      slt\n        /* \"#utility.yul\":13006:13125   */\n      iszero\n      tag_626\n      jumpi\n        /* \"#utility.yul\":13044:13123   */\n      tag_627\n      tag_406\n      jump\t// in\n    tag_627:\n        /* \"#utility.yul\":13006:13125   */\n    tag_626:\n        /* \"#utility.yul\":13164:13165   */\n      0x00\n        /* \"#utility.yul\":13189:13242   */\n      tag_628\n        /* \"#utility.yul\":13234:13241   */\n      dup6\n        /* \"#utility.yul\":13225:13231   */\n      dup3\n        /* \"#utility.yul\":13214:13223   */\n      dup7\n        /* \"#utility.yul\":13210:13232   */\n      add\n        /* \"#utility.yul\":13189:13242   */\n      tag_411\n      jump\t// in\n    tag_628:\n        /* \"#utility.yul\":13179:13242   */\n      swap3\n      pop\n        /* \"#utility.yul\":13135:13252   */\n      pop\n        /* \"#utility.yul\":13291:13293   */\n      0x20\n        /* \"#utility.yul\":13317:13370   */\n      tag_629\n        /* \"#utility.yul\":13362:13369   */\n      dup6\n        /* \"#utility.yul\":13353:13359   */\n      dup3\n        /* \"#utility.yul\":13342:13351   */\n      dup7\n        /* \"#utility.yul\":13338:13360   */\n      add\n        /* \"#utility.yul\":13317:13370   */\n      tag_411\n      jump\t// in\n    tag_629:\n        /* \"#utility.yul\":13307:13370   */\n      swap2\n      pop\n        /* \"#utility.yul\":13262:13380   */\n      pop\n        /* \"#utility.yul\":12913:13387   */\n      swap3\n      pop\n      swap3\n      swap1\n      pop\n      jump\t// out\n        /* \"#utility.yul\":13393:13511   */\n    tag_440:\n        /* \"#utility.yul\":13480:13504   */\n      tag_631\n        /* \"#utility.yul\":13498:13503   */\n      dup2\n        /* \"#utility.yul\":13480:13504   */\n      tag_409\n      jump\t// in\n    tag_631:\n        /* \"#utility.yul\":13475:13478   */\n      dup3\n        /* \"#utility.yul\":13468:13505   */\n      mstore\n        /* \"#utility.yul\":13393:13511   */\n      pop\n      pop\n      jump\t// out\n        /* \"#utility.yul\":13517:13739   */\n    tag_109:\n        /* \"#utility.yul\":13610:13614   */\n      0x00\n        /* \"#utility.yul\":13648:13650   */\n      0x20\n        /* \"#utility.yul\":13637:13646   */\n      dup3\n        /* \"#utility.yul\":13633:13651   */\n      add\n        /* \"#utility.yul\":13625:13651   */\n      swap1\n      pop\n        /* \"#utility.yul\":13661:13732   */\n      tag_633\n        /* \"#utility.yul\":13729:13730   */\n      0x00\n        /* \"#utility.yul\":13718:13727   */\n      dup4\n        /* \"#utility.yul\":13714:13731   */\n      add\n        /* \"#utility.yul\":13705:13711   */\n      dup5\n        /* \"#utility.yul\":13661:13732   */\n      tag_440\n      jump\t// in\n    tag_633:\n        /* \"#utility.yul\":13517:13739   */\n      swap3\n      swap2\n      pop\n      pop\n      jump\t// out\n        /* \"#utility.yul\":13745:13925   */\n    tag_441:\n        /* \"#utility.yul\":13793:13870   */\n      0x4e487b7100000000000000000000000000000000000000000000000000000000\n        /* \"#utility.yul\":13790:13791   */\n      0x00\n        /* \"#utility.yul\":13783:13871   */\n      mstore\n        /* \"#utility.yul\":13890:13894   */\n      0x22\n        /* \"#utility.yul\":13887:13888   */\n      0x04\n        /* \"#utility.yul\":13880:13895   */\n      mstore\n        /* \"#utility.yul\":13914:13918   */\n      0x24\n        /* \"#utility.yul\":13911:13912   */\n      0x00\n        /* \"#utility.yul\":13904:13919   */\n      revert\n        /* \"#utility.yul\":13931:14251   */\n    tag_112:\n        /* \"#utility.yul\":13975:13981   */\n      0x00\n        /* \"#utility.yul\":14012:14013   */\n      0x02\n        /* \"#utility.yul\":14006:14010   */\n      dup3\n        /* \"#utility.yul\":14002:14014   */\n      div\n        /* \"#utility.yul\":13992:14014   */\n      swap1\n      pop\n        /* \"#utility.yul\":14059:14060   */\n      0x01\n        /* \"#utility.yul\":14053:14057   */\n      dup3\n        /* \"#utility.yul\":14049:14061   */\n      and\n        /* \"#utility.yul\":14080:14098   */\n      dup1\n        /* \"#utility.yul\":14070:14151   */\n      tag_636\n      jumpi\n        /* \"#utility.yul\":14136:14140   */\n      0x7f\n        /* \"#utility.yul\":14128:14134   */\n      dup3\n        /* \"#utility.yul\":14124:14141   */\n      and\n        /* \"#utility.yul\":14114:14141   */\n      swap2\n      pop\n        /* \"#utility.yul\":14070:14151   */\n    tag_636:\n        /* \"#utility.yul\":14198:14200   */\n      0x20\n        /* \"#utility.yul\":14190:14196   */\n      dup3\n        /* \"#utility.yul\":14187:14201   */\n      lt\n        /* \"#utility.yul\":14167:14185   */\n      dup2\n        /* \"#utility.yul\":14164:14202   */\n      sub\n        /* \"#utility.yul\":14161:14245   */\n      tag_637\n      jumpi\n        /* \"#utility.yul\":14217:14235   */\n      tag_638\n      tag_441\n      jump\t// in\n    tag_638:\n        /* \"#utility.yul\":14161:14245   */\n    tag_637:\n        /* \"#utility.yul\":13982:14251   */\n      pop\n        /* \"#utility.yul\":13931:14251   */\n      swap2\n      swap1\n      pop\n      jump\t// out\n        /* \"#utility.yul\":14257:14437   */\n    tag_442:\n        /* \"#utility.yul\":14305:14382   */\n      0x4e487b7100000000000000000000000000000000000000000000000000000000\n        /* \"#utility.yul\":14302:14303   */\n      0x00\n        /* \"#utility.yul\":14295:14383   */\n      mstore\n        /* \"#utility.yul\":14402:14406   */\n      0x11\n        /* \"#utility.yul\":14399:14400   */\n      0x04\n        /* \"#utility.yul\":14392:14407   */\n      mstore\n        /* \"#utility.yul\":14426:14430   */\n      0x24\n        /* \"#utility.yul\":14423:14424   */\n      0x00\n        /* \"#utility.yul\":14416:14431   */\n      revert\n        /* \"#utility.yul\":14443:14634   */\n    tag_139:\n        /* \"#utility.yul\":14483:14486   */\n      0x00\n        /* \"#utility.yul\":14502:14522   */\n      tag_641\n        /* \"#utility.yul\":14520:14521   */\n      dup3\n        /* \"#utility.yul\":14502:14522   */\n      tag_412\n      jump\t// in\n    tag_641:\n        /* \"#utility.yul\":14497:14522   */\n      swap2\n      pop\n        /* \"#utility.yul\":14536:14556   */\n      tag_642\n        /* \"#utility.yul\":14554:14555   */\n      dup4\n        /* \"#utility.yul\":14536:14556   */\n      tag_412\n      jump\t// in\n    tag_642:\n        /* \"#utility.yul\":14531:14556   */\n      swap3\n      pop\n        /* \"#utility.yul\":14579:14580   */\n      dup3\n        /* \"#utility.yul\":14576:14577   */\n      dup3\n        /* \"#utility.yul\":14572:14581   */\n      add\n        /* \"#utility.yul\":14565:14581   */\n      swap1\n      pop\n        /* \"#utility.yul\":14600:14603   */\n      dup1\n        /* \"#utility.yul\":14597:14598   */\n      dup3\n        /* \"#utility.yul\":14594:14604   */\n      gt\n        /* \"#utility.yul\":14591:14627   */\n      iszero\n      tag_643\n      jumpi\n        /* \"#utility.yul\":14607:14625   */\n      tag_644\n      tag_442\n      jump\t// in\n    tag_644:\n        /* \"#utility.yul\":14591:14627   */\n    tag_643:\n        /* \"#utility.yul\":14443:14634   */\n      swap3\n      swap2\n      pop\n      pop\n      jump\t// out\n        /* \"#utility.yul\":14640:14799   */\n    tag_443:\n        /* \"#utility.yul\":14780:14791   */\n      0x6e6f74206f6e7765720000000000000000000000000000000000000000000000\n        /* \"#utility.yul\":14776:14777   */\n      0x00\n        /* \"#utility.yul\":14768:14774   */\n      dup3\n        /* \"#utility.yul\":14764:14778   */\n      add\n        /* \"#utility.yul\":14757:14792   */\n      mstore\n        /* \"#utility.yul\":14640:14799   */\n      pop\n      jump\t// out\n        /* \"#utility.yul\":14805:15170   */\n    tag_444:\n        /* \"#utility.yul\":14947:14950   */\n      0x00\n        /* \"#utility.yul\":14968:15034   */\n      tag_647\n        /* \"#utility.yul\":15032:15033   */\n      0x09\n        /* \"#utility.yul\":15027:15030   */\n      dup4\n        /* \"#utility.yul\":14968:15034   */\n      tag_401\n      jump\t// in\n    tag_647:\n        /* \"#utility.yul\":14961:15034   */\n      swap2\n      pop\n        /* \"#utility.yul\":15043:15136   */\n      tag_648\n        /* \"#utility.yul\":15132:15135   */\n      dup3\n        /* \"#utility.yul\":15043:15136   */\n      tag_443\n      jump\t// in\n    tag_648:\n        /* \"#utility.yul\":15161:15163   */\n      0x20\n        /* \"#utility.yul\":15156:15159   */\n      dup3\n        /* \"#utility.yul\":15152:15164   */\n      add\n        /* \"#utility.yul\":15145:15164   */\n      swap1\n      pop\n        /* \"#utility.yul\":14805:15170   */\n      swap2\n      swap1\n      pop\n      jump\t// out\n        /* \"#utility.yul\":15176:15595   */\n    tag_143:\n        /* \"#utility.yul\":15342:15346   */\n      0x00\n        /* \"#utility.yul\":15380:15382   */\n      0x20\n        /* \"#utility.yul\":15369:15378   */\n      dup3\n        /* \"#utility.yul\":15365:15383   */\n      add\n        /* \"#utility.yul\":15357:15383   */\n      swap1\n      pop\n        /* \"#utility.yul\":15429:15438   */\n      dup2\n        /* \"#utility.yul\":15423:15427   */\n      dup2\n        /* \"#utility.yul\":15419:15439   */\n      sub\n        /* \"#utility.yul\":15415:15416   */\n      0x00\n        /* \"#utility.yul\":15404:15413   */\n      dup4\n        /* \"#utility.yul\":15400:15417   */\n      add\n        /* \"#utility.yul\":15393:15440   */\n      mstore\n        /* \"#utility.yul\":15457:15588   */\n      tag_650\n        /* \"#utility.yul\":15583:15587   */\n      dup2\n        /* \"#utility.yul\":15457:15588   */\n      tag_444\n      jump\t// in\n    tag_650:\n        /* \"#utility.yul\":15449:15588   */\n      swap1\n      pop\n        /* \"#utility.yul\":15176:15595   */\n      swap2\n      swap1\n      pop\n      jump\t// out\n        /* \"#utility.yul\":15601:15766   */\n    tag_445:\n        /* \"#utility.yul\":15741:15758   */\n      0x737461727454696d652065786973740000000000000000000000000000000000\n        /* \"#utility.yul\":15737:15738   */\n      0x00\n        /* \"#utility.yul\":15729:15735   */\n      dup3\n        /* \"#utility.yul\":15725:15739   */\n      add\n        /* \"#utility.yul\":15718:15759   */\n      mstore\n        /* \"#utility.yul\":15601:15766   */\n      pop\n      jump\t// out\n        /* \"#utility.yul\":15772:16138   */\n    tag_446:\n        /* \"#utility.yul\":15914:15917   */\n      0x00\n        /* \"#utility.yul\":15935:16002   */\n      tag_653\n        /* \"#utility.yul\":15999:16001   */\n      0x0f\n        /* \"#utility.yul\":15994:15997   */\n      dup4\n        /* \"#utility.yul\":15935:16002   */\n      tag_401\n      jump\t// in\n    tag_653:\n        /* \"#utility.yul\":15928:16002   */\n      swap2\n      pop\n        /* \"#utility.yul\":16011:16104   */\n      tag_654\n        /* \"#utility.yul\":16100:16103   */\n      dup3\n        /* \"#utility.yul\":16011:16104   */\n      tag_445\n      jump\t// in\n    tag_654:\n        /* \"#utility.yul\":16129:16131   */\n      0x20\n        /* \"#utility.yul\":16124:16127   */\n      dup3\n        /* \"#utility.yul\":16120:16132   */\n      add\n        /* \"#utility.yul\":16113:16132   */\n      swap1\n      pop\n        /* \"#utility.yul\":15772:16138   */\n      swap2\n      swap1\n      pop\n      jump\t// out\n        /* \"#utility.yul\":16144:16563   */\n    tag_147:\n        /* \"#utility.yul\":16310:16314   */\n      0x00\n        /* \"#utility.yul\":16348:16350   */\n      0x20\n        /* \"#utility.yul\":16337:16346   */\n      dup3\n        /* \"#utility.yul\":16333:16351   */\n      add\n        /* \"#utility.yul\":16325:16351   */\n      swap1\n      pop\n        /* \"#utility.yul\":16397:16406   */\n      dup2\n        /* \"#utility.yul\":16391:16395   */\n      dup2\n        /* \"#utility.yul\":16387:16407   */\n      sub\n        /* \"#utility.yul\":16383:16384   */\n      0x00\n        /* \"#utility.yul\":16372:16381   */\n      dup4\n        /* \"#utility.yul\":16368:16385   */\n      add\n        /* \"#utility.yul\":16361:16408   */\n      mstore\n        /* \"#utility.yul\":16425:16556   */\n      tag_656\n        /* \"#utility.yul\":16551:16555   */\n      dup2\n        /* \"#utility.yul\":16425:16556   */\n      tag_446\n      jump\t// in\n    tag_656:\n        /* \"#utility.yul\":16417:16556   */\n      swap1\n      pop\n        /* \"#utility.yul\":16144:16563   */\n      swap2\n      swap1\n      pop\n      jump\t// out\n        /* \"#utility.yul\":16569:16729   */\n    tag_447:\n        /* \"#utility.yul\":16709:16721   */\n      0x74696d65206572726f7200000000000000000000000000000000000000000000\n        /* \"#utility.yul\":16705:16706   */\n      0x00\n        /* \"#utility.yul\":16697:16703   */\n      dup3\n        /* \"#utility.yul\":16693:16707   */\n      add\n        /* \"#utility.yul\":16686:16722   */\n      mstore\n        /* \"#utility.yul\":16569:16729   */\n      pop\n      jump\t// out\n        /* \"#utility.yul\":16735:17101   */\n    tag_448:\n        /* \"#utility.yul\":16877:16880   */\n      0x00\n        /* \"#utility.yul\":16898:16965   */\n      tag_659\n        /* \"#utility.yul\":16962:16964   */\n      0x0a\n        /* \"#utility.yul\":16957:16960   */\n      dup4\n        /* \"#utility.yul\":16898:16965   */\n      tag_401\n      jump\t// in\n    tag_659:\n        /* \"#utility.yul\":16891:16965   */\n      swap2\n      pop\n        /* \"#utility.yul\":16974:17067   */\n      tag_660\n        /* \"#utility.yul\":17063:17066   */\n      dup3\n        /* \"#utility.yul\":16974:17067   */\n      tag_447\n      jump\t// in\n    tag_660:\n        /* \"#utility.yul\":17092:17094   */\n      0x20\n        /* \"#utility.yul\":17087:17090   */\n      dup3\n        /* \"#utility.yul\":17083:17095   */\n      add\n        /* \"#utility.yul\":17076:17095   */\n      swap1\n      pop\n        /* \"#utility.yul\":16735:17101   */\n      swap2\n      swap1\n      pop\n      jump\t// out\n        /* \"#utility.yul\":17107:17526   */\n    tag_150:\n        /* \"#utility.yul\":17273:17277   */\n      0x00\n        /* \"#utility.yul\":17311:17313   */\n      0x20\n        /* \"#utility.yul\":17300:17309   */\n      dup3\n        /* \"#utility.yul\":17296:17314   */\n      add\n        /* \"#utility.yul\":17288:17314   */\n      swap1\n      pop\n        /* \"#utility.yul\":17360:17369   */\n      dup2\n        /* \"#utility.yul\":17354:17358   */\n      dup2\n        /* \"#utility.yul\":17350:17370   */\n      sub\n        /* \"#utility.yul\":17346:17347   */\n      0x00\n        /* \"#utility.yul\":17335:17344   */\n      dup4\n        /* \"#utility.yul\":17331:17348   */\n      add\n        /* \"#utility.yul\":17324:17371   */\n      mstore\n        /* \"#utility.yul\":17388:17519   */\n      tag_662\n        /* \"#utility.yul\":17514:17518   */\n      dup2\n        /* \"#utility.yul\":17388:17519   */\n      tag_448\n      jump\t// in\n    tag_662:\n        /* \"#utility.yul\":17380:17519   */\n      swap1\n      pop\n        /* \"#utility.yul\":17107:17526   */\n      swap2\n      swap1\n      pop\n      jump\t// out\n        /* \"#utility.yul\":17532:17712   */\n    tag_157:\n        /* \"#utility.yul\":17580:17657   */\n      0x4e487b7100000000000000000000000000000000000000000000000000000000\n        /* \"#utility.yul\":17577:17578   */\n      0x00\n        /* \"#utility.yul\":17570:17658   */\n      mstore\n        /* \"#utility.yul\":17677:17681   */\n      0x32\n        /* \"#utility.yul\":17674:17675   */\n      0x04\n        /* \"#utility.yul\":17667:17682   */\n      mstore\n        /* \"#utility.yul\":17701:17705   */\n      0x24\n        /* \"#utility.yul\":17698:17699   */\n      0x00\n        /* \"#utility.yul\":17691:17706   */\n      revert\n        /* \"#utility.yul\":17718:17906   */\n    tag_161:\n        /* \"#utility.yul\":17756:17759   */\n      0x00\n        /* \"#utility.yul\":17775:17793   */\n      tag_665\n        /* \"#utility.yul\":17791:17792   */\n      dup3\n        /* \"#utility.yul\":17775:17793   */\n      tag_418\n      jump\t// in\n    tag_665:\n        /* \"#utility.yul\":17770:17793   */\n      swap2\n      pop\n        /* \"#utility.yul\":17807:17825   */\n      tag_666\n        /* \"#utility.yul\":17823:17824   */\n      dup4\n        /* \"#utility.yul\":17807:17825   */\n      tag_418\n      jump\t// in\n    tag_666:\n        /* \"#utility.yul\":17802:17825   */\n      swap3\n      pop\n        /* \"#utility.yul\":17848:17849   */\n      dup3\n        /* \"#utility.yul\":17845:17846   */\n      dup3\n        /* \"#utility.yul\":17841:17850   */\n      add\n        /* \"#utility.yul\":17834:17850   */\n      swap1\n      pop\n        /* \"#utility.yul\":17871:17875   */\n      0xff\n        /* \"#utility.yul\":17866:17869   */\n      dup2\n        /* \"#utility.yul\":17863:17876   */\n      gt\n        /* \"#utility.yul\":17860:17899   */\n      iszero\n      tag_667\n      jumpi\n        /* \"#utility.yul\":17879:17897   */\n      tag_668\n      tag_442\n      jump\t// in\n    tag_668:\n        /* \"#utility.yul\":17860:17899   */\n    tag_667:\n        /* \"#utility.yul\":17718:17906   */\n      swap3\n      swap2\n      pop\n      pop\n      jump\t// out\n        /* \"#utility.yul\":17912:18079   */\n    tag_175:\n        /* \"#utility.yul\":17949:17952   */\n      0x00\n        /* \"#utility.yul\":17972:17994   */\n      tag_670\n        /* \"#utility.yul\":17988:17993   */\n      dup3\n        /* \"#utility.yul\":17972:17994   */\n      tag_418\n      jump\t// in\n    tag_670:\n        /* \"#utility.yul\":17963:17994   */\n      swap2\n      pop\n        /* \"#utility.yul\":18016:18020   */\n      0xff\n        /* \"#utility.yul\":18009:18014   */\n      dup3\n        /* \"#utility.yul\":18006:18021   */\n      sub\n        /* \"#utility.yul\":18003:18044   */\n      tag_671\n      jumpi\n        /* \"#utility.yul\":18024:18042   */\n      tag_672\n      tag_442\n      jump\t// in\n    tag_672:\n        /* \"#utility.yul\":18003:18044   */\n    tag_671:\n        /* \"#utility.yul\":18071:18072   */\n      0x01\n        /* \"#utility.yul\":18064:18069   */\n      dup3\n        /* \"#utility.yul\":18060:18073   */\n      add\n        /* \"#utility.yul\":18053:18073   */\n      swap1\n      pop\n        /* \"#utility.yul\":17912:18079   */\n      swap2\n      swap1\n      pop\n      jump\t// out\n        /* \"#utility.yul\":18085:18248   */\n    tag_449:\n        /* \"#utility.yul\":18225:18240   */\n      0x6f72676964206973207a65726f00000000000000000000000000000000000000\n        /* \"#utility.yul\":18221:18222   */\n      0x00\n        /* \"#utility.yul\":18213:18219   */\n      dup3\n        /* \"#utility.yul\":18209:18223   */\n      add\n        /* \"#utility.yul\":18202:18241   */\n      mstore\n        /* \"#utility.yul\":18085:18248   */\n      pop\n      jump\t// out\n        /* \"#utility.yul\":18254:18620   */\n    tag_450:\n        /* \"#utility.yul\":18396:18399   */\n      0x00\n        /* \"#utility.yul\":18417:18484   */\n      tag_675\n        /* \"#utility.yul\":18481:18483   */\n      0x0d\n        /* \"#utility.yul\":18476:18479   */\n      dup4\n        /* \"#utility.yul\":18417:18484   */\n      tag_401\n      jump\t// in\n    tag_675:\n        /* \"#utility.yul\":18410:18484   */\n      swap2\n      pop\n        /* \"#utility.yul\":18493:18586   */\n      tag_676\n        /* \"#utility.yul\":18582:18585   */\n      dup3\n        /* \"#utility.yul\":18493:18586   */\n      tag_449\n      jump\t// in\n    tag_676:\n        /* \"#utility.yul\":18611:18613   */\n      0x20\n        /* \"#utility.yul\":18606:18609   */\n      dup3\n        /* \"#utility.yul\":18602:18614   */\n      add\n        /* \"#utility.yul\":18595:18614   */\n      swap1\n      pop\n        /* \"#utility.yul\":18254:18620   */\n      swap2\n      swap1\n      pop\n      jump\t// out\n        /* \"#utility.yul\":18626:19045   */\n    tag_183:\n        /* \"#utility.yul\":18792:18796   */\n      0x00\n        /* \"#utility.yul\":18830:18832   */\n      0x20\n        /* \"#utility.yul\":18819:18828   */\n      dup3\n        /* \"#utility.yul\":18815:18833   */\n      add\n        /* \"#utility.yul\":18807:18833   */\n      swap1\n      pop\n        /* \"#utility.yul\":18879:18888   */\n      dup2\n        /* \"#utility.yul\":18873:18877   */\n      dup2\n        /* \"#utility.yul\":18869:18889   */\n      sub\n        /* \"#utility.yul\":18865:18866   */\n      0x00\n        /* \"#utility.yul\":18854:18863   */\n      dup4\n        /* \"#utility.yul\":18850:18867   */\n      add\n        /* \"#utility.yul\":18843:18890   */\n      mstore\n        /* \"#utility.yul\":18907:19038   */\n      tag_678\n        /* \"#utility.yul\":19033:19037   */\n      dup2\n        /* \"#utility.yul\":18907:19038   */\n      tag_450\n      jump\t// in\n    tag_678:\n        /* \"#utility.yul\":18899:19038   */\n      swap1\n      pop\n        /* \"#utility.yul\":18626:19045   */\n      swap2\n      swap1\n      pop\n      jump\t// out\n        /* \"#utility.yul\":19051:19213   */\n    tag_451:\n        /* \"#utility.yul\":19191:19205   */\n      0x6c656e677468206572726f720000000000000000000000000000000000000000\n        /* \"#utility.yul\":19187:19188   */\n      0x00\n        /* \"#utility.yul\":19179:19185   */\n      dup3\n        /* \"#utility.yul\":19175:19189   */\n      add\n        /* \"#utility.yul\":19168:19206   */\n      mstore\n        /* \"#utility.yul\":19051:19213   */\n      pop\n      jump\t// out\n        /* \"#utility.yul\":19219:19585   */\n    tag_452:\n        /* \"#utility.yul\":19361:19364   */\n      0x00\n        /* \"#utility.yul\":19382:19449   */\n      tag_681\n        /* \"#utility.yul\":19446:19448   */\n      0x0c\n        /* \"#utility.yul\":19441:19444   */\n      dup4\n        /* \"#utility.yul\":19382:19449   */\n      tag_401\n      jump\t// in\n    tag_681:\n        /* \"#utility.yul\":19375:19449   */\n      swap2\n      pop\n        /* \"#utility.yul\":19458:19551   */\n      tag_682\n        /* \"#utility.yul\":19547:19550   */\n      dup3\n        /* \"#utility.yul\":19458:19551   */\n      tag_451\n      jump\t// in\n    tag_682:\n        /* \"#utility.yul\":19576:19578   */\n      0x20\n        /* \"#utility.yul\":19571:19574   */\n      dup3\n        /* \"#utility.yul\":19567:19579   */\n      add\n        /* \"#utility.yul\":19560:19579   */\n      swap1\n      pop\n        /* \"#utility.yul\":19219:19585   */\n      swap2\n      swap1\n      pop\n      jump\t// out\n        /* \"#utility.yul\":19591:20010   */\n    tag_186:\n        /* \"#utility.yul\":19757:19761   */\n      0x00\n        /* \"#utility.yul\":19795:19797   */\n      0x20\n        /* \"#utility.yul\":19784:19793   */\n      dup3\n        /* \"#utility.yul\":19780:19798   */\n      add\n        /* \"#utility.yul\":19772:19798   */\n      swap1\n      pop\n        /* \"#utility.yul\":19844:19853   */\n      dup2\n        /* \"#utility.yul\":19838:19842   */\n      dup2\n        /* \"#utility.yul\":19834:19854   */\n      sub\n        /* \"#utility.yul\":19830:19831   */\n      0x00\n        /* \"#utility.yul\":19819:19828   */\n      dup4\n        /* \"#utility.yul\":19815:19832   */\n      add\n        /* \"#utility.yul\":19808:19855   */\n      mstore\n        /* \"#utility.yul\":19872:20003   */\n      tag_684\n        /* \"#utility.yul\":19998:20002   */\n      dup2\n        /* \"#utility.yul\":19872:20003   */\n      tag_452\n      jump\t// in\n    tag_684:\n        /* \"#utility.yul\":19864:20003   */\n      swap1\n      pop\n        /* \"#utility.yul\":19591:20010   */\n      swap2\n      swap1\n      pop\n      jump\t// out\n        /* \"#utility.yul\":20016:20207   */\n    tag_188:\n        /* \"#utility.yul\":20054:20058   */\n      0x00\n        /* \"#utility.yul\":20074:20092   */\n      tag_686\n        /* \"#utility.yul\":20090:20091   */\n      dup3\n        /* \"#utility.yul\":20074:20092   */\n      tag_418\n      jump\t// in\n    tag_686:\n        /* \"#utility.yul\":20069:20092   */\n      swap2\n      pop\n        /* \"#utility.yul\":20106:20124   */\n      tag_687\n        /* \"#utility.yul\":20122:20123   */\n      dup4\n        /* \"#utility.yul\":20106:20124   */\n      tag_418\n      jump\t// in\n    tag_687:\n        /* \"#utility.yul\":20101:20124   */\n      swap3\n      pop\n        /* \"#utility.yul\":20148:20149   */\n      dup3\n        /* \"#utility.yul\":20145:20146   */\n      dup3\n        /* \"#utility.yul\":20141:20150   */\n      sub\n        /* \"#utility.yul\":20133:20150   */\n      swap1\n      pop\n        /* \"#utility.yul\":20172:20176   */\n      0xff\n        /* \"#utility.yul\":20166:20170   */\n      dup2\n        /* \"#utility.yul\":20163:20177   */\n      gt\n        /* \"#utility.yul\":20160:20200   */\n      iszero\n      tag_688\n      jumpi\n        /* \"#utility.yul\":20180:20198   */\n      tag_689\n      tag_442\n      jump\t// in\n    tag_689:\n        /* \"#utility.yul\":20160:20200   */\n    tag_688:\n        /* \"#utility.yul\":20016:20207   */\n      swap3\n      swap2\n      pop\n      pop\n      jump\t// out\n        /* \"#utility.yul\":20213:20446   */\n    tag_196:\n        /* \"#utility.yul\":20252:20255   */\n      0x00\n        /* \"#utility.yul\":20275:20299   */\n      tag_691\n        /* \"#utility.yul\":20293:20298   */\n      dup3\n        /* \"#utility.yul\":20275:20299   */\n      tag_412\n      jump\t// in\n    tag_691:\n        /* \"#utility.yul\":20266:20299   */\n      swap2\n      pop\n        /* \"#utility.yul\":20321:20387   */\n      0xffffffffffffffffffffffffffffffffffffffffffffffffffffffffffffffff\n        /* \"#utility.yul\":20314:20319   */\n      dup3\n        /* \"#utility.yul\":20311:20388   */\n      sub\n        /* \"#utility.yul\":20308:20411   */\n      tag_692\n      jumpi\n        /* \"#utility.yul\":20391:20409   */\n      tag_693\n      tag_442\n      jump\t// in\n    tag_693:\n        /* \"#utility.yul\":20308:20411   */\n    tag_692:\n        /* \"#utility.yul\":20438:20439   */\n      0x01\n        /* \"#utility.yul\":20431:20436   */\n      dup3\n        /* \"#utility.yul\":20427:20440   */\n      add\n        /* \"#utility.yul\":20420:20440   */\n      swap1\n      pop\n        /* \"#utility.yul\":20213:20446   */\n      swap2\n      swap1\n      pop\n      jump\t// out\n        /* \"#utility.yul\":20452:20613   */\n    tag_453:\n        /* \"#utility.yul\":20592:20605   */\n      0x746f74616c206572726f72000000000000000000000000000000000000000000\n        /* \"#utility.yul\":20588:20589   */\n      0x00\n        /* \"#utility.yul\":20580:20586   */\n      dup3\n        /* \"#utility.yul\":20576:20590   */\n      add\n        /* \"#utility.yul\":20569:20606   */\n      mstore\n        /* \"#utility.yul\":20452:20613   */\n      pop\n      jump\t// out\n        /* \"#utility.yul\":20619:20985   */\n    tag_454:\n        /* \"#utility.yul\":20761:20764   */\n      0x00\n        /* \"#utility.yul\":20782:20849   */\n      tag_696\n        /* \"#utility.yul\":20846:20848   */\n      0x0b\n        /* \"#utility.yul\":20841:20844   */\n      dup4\n        /* \"#utility.yul\":20782:20849   */\n      tag_401\n      jump\t// in\n    tag_696:\n        /* \"#utility.yul\":20775:20849   */\n      swap2\n      pop\n        /* \"#utility.yul\":20858:20951   */\n      tag_697\n        /* \"#utility.yul\":20947:20950   */\n      dup3\n        /* \"#utility.yul\":20858:20951   */\n      tag_453\n      jump\t// in\n    tag_697:\n        /* \"#utility.yul\":20976:20978   */\n      0x20\n        /* \"#utility.yul\":20971:20974   */\n      dup3\n        /* \"#utility.yul\":20967:20979   */\n      add\n        /* \"#utility.yul\":20960:20979   */\n      swap1\n      pop\n        /* \"#utility.yul\":20619:20985   */\n      swap2\n      swap1\n      pop\n      jump\t// out\n        /* \"#utility.yul\":20991:21410   */\n    tag_199:\n        /* \"#utility.yul\":21157:21161   */\n      0x00\n        /* \"#utility.yul\":21195:21197   */\n      0x20\n        /* \"#utility.yul\":21184:21193   */\n      dup3\n        /* \"#utility.yul\":21180:21198   */\n      add\n        /* \"#utility.yul\":21172:21198   */\n      swap1\n      pop\n        /* \"#utility.yul\":21244:21253   */\n      dup2\n        /* \"#utility.yul\":21238:21242   */\n      dup2\n        /* \"#utility.yul\":21234:21254   */\n      sub\n        /* \"#utility.yul\":21230:21231   */\n      0x00\n        /* \"#utility.yul\":21219:21228   */\n      dup4\n        /* \"#utility.yul\":21215:21232   */\n      add\n        /* \"#utility.yul\":21208:21255   */\n      mstore\n        /* \"#utility.yul\":21272:21403   */\n      tag_699\n        /* \"#utility.yul\":21398:21402   */\n      dup2\n        /* \"#utility.yul\":21272:21403   */\n      tag_454\n      jump\t// in\n    tag_699:\n        /* \"#utility.yul\":21264:21403   */\n      swap1\n      pop\n        /* \"#utility.yul\":20991:21410   */\n      swap2\n      swap1\n      pop\n      jump\t// out\n        /* \"#utility.yul\":21416:21610   */\n    tag_201:\n        /* \"#utility.yul\":21456:21460   */\n      0x00\n        /* \"#utility.yul\":21476:21496   */\n      tag_701\n        /* \"#utility.yul\":21494:21495   */\n      dup3\n        /* \"#utility.yul\":21476:21496   */\n      tag_412\n      jump\t// in\n    tag_701:\n        /* \"#utility.yul\":21471:21496   */\n      swap2\n      pop\n        /* \"#utility.yul\":21510:21530   */\n      tag_702\n        /* \"#utility.yul\":21528:21529   */\n      dup4\n        /* \"#utility.yul\":21510:21530   */\n      tag_412\n      jump\t// in\n    tag_702:\n        /* \"#utility.yul\":21505:21530   */\n      swap3\n      pop\n        /* \"#utility.yul\":21554:21555   */\n      dup3\n        /* \"#utility.yul\":21551:21552   */\n      dup3\n        /* \"#utility.yul\":21547:21556   */\n      sub\n        /* \"#utility.yul\":21539:21556   */\n      swap1\n      pop\n        /* \"#utility.yul\":21578:21579   */\n      dup2\n        /* \"#utility.yul\":21572:21576   */\n      dup2\n        /* \"#utility.yul\":21569:21580   */\n      gt\n        /* \"#utility.yul\":21566:21603   */\n      iszero\n      tag_703\n      jumpi\n        /* \"#utility.yul\":21583:21601   */\n      tag_704\n      tag_442\n      jump\t// in\n    tag_704:\n        /* \"#utility.yul\":21566:21603   */\n    tag_703:\n        /* \"#utility.yul\":21416:21610   */\n      swap3\n      swap2\n      pop\n      pop\n      jump\t// out\n        /* \"#utility.yul\":21616:21840   */\n    tag_455:\n        /* \"#utility.yul\":21756:21790   */\n      0x45524332303a2064656372656173656420616c6c6f77616e63652062656c6f77\n        /* \"#utility.yul\":21752:21753   */\n      0x00\n        /* \"#utility.yul\":21744:21750   */\n      dup3\n        /* \"#utility.yul\":21740:21754   */\n      add\n        /* \"#utility.yul\":21733:21791   */\n      mstore\n        /* \"#utility.yul\":21825:21832   */\n      0x207a65726f000000000000000000000000000000000000000000000000000000\n        /* \"#utility.yul\":21820:21822   */\n      0x20\n        /* \"#utility.yul\":21812:21818   */\n      dup3\n        /* \"#utility.yul\":21808:21823   */\n      add\n        /* \"#utility.yul\":21801:21833   */\n      mstore\n        /* \"#utility.yul\":21616:21840   */\n      pop\n      jump\t// out\n        /* \"#utility.yul\":21846:22212   */\n    tag_456:\n        /* \"#utility.yul\":21988:21991   */\n      0x00\n        /* \"#utility.yul\":22009:22076   */\n      tag_707\n        /* \"#utility.yul\":22073:22075   */\n      0x25\n        /* \"#utility.yul\":22068:22071   */\n      dup4\n        /* \"#utility.yul\":22009:22076   */\n      tag_401\n      jump\t// in\n    tag_707:\n        /* \"#utility.yul\":22002:22076   */\n      swap2\n      pop\n        /* \"#utility.yul\":22085:22178   */\n      tag_708\n        /* \"#utility.yul\":22174:22177   */\n      dup3\n        /* \"#utility.yul\":22085:22178   */\n      tag_455\n      jump\t// in\n    tag_708:\n        /* \"#utility.yul\":22203:22205   */\n      0x40\n        /* \"#utility.yul\":22198:22201   */\n      dup3\n        /* \"#utility.yul\":22194:22206   */\n      add\n        /* \"#utility.yul\":22187:22206   */\n      swap1\n      pop\n        /* \"#utility.yul\":21846:22212   */\n      swap2\n      swap1\n      pop\n      jump\t// out\n        /* \"#utility.yul\":22218:22637   */\n    tag_243:\n        /* \"#utility.yul\":22384:22388   */\n      0x00\n        /* \"#utility.yul\":22422:22424   */\n      0x20\n        /* \"#utility.yul\":22411:22420   */\n      dup3\n        /* \"#utility.yul\":22407:22425   */\n      add\n        /* \"#utility.yul\":22399:22425   */\n      swap1\n      pop\n        /* \"#utility.yul\":22471:22480   */\n      dup2\n        /* \"#utility.yul\":22465:22469   */\n      dup2\n        /* \"#utility.yul\":22461:22481   */\n      sub\n        /* \"#utility.yul\":22457:22458   */\n      0x00\n        /* \"#utility.yul\":22446:22455   */\n      dup4\n        /* \"#utility.yul\":22442:22459   */\n      add\n        /* \"#utility.yul\":22435:22482   */\n      mstore\n        /* \"#utility.yul\":22499:22630   */\n      tag_710\n        /* \"#utility.yul\":22625:22629   */\n      dup2\n        /* \"#utility.yul\":22499:22630   */\n      tag_456\n      jump\t// in\n    tag_710:\n        /* \"#utility.yul\":22491:22630   */\n      swap1\n      pop\n        /* \"#utility.yul\":22218:22637   */\n      swap2\n      swap1\n      pop\n      jump\t// out\n        /* \"#utility.yul\":22643:22866   */\n    tag_457:\n        /* \"#utility.yul\":22783:22817   */\n      0x45524332303a20617070726f76652066726f6d20746865207a65726f20616464\n        /* \"#utility.yul\":22779:22780   */\n      0x00\n        /* \"#utility.yul\":22771:22777   */\n      dup3\n        /* \"#utility.yul\":22767:22781   */\n      add\n        /* \"#utility.yul\":22760:22818   */\n      mstore\n        /* \"#utility.yul\":22852:22858   */\n      0x7265737300000000000000000000000000000000000000000000000000000000\n        /* \"#utility.yul\":22847:22849   */\n      0x20\n        /* \"#utility.yul\":22839:22845   */\n      dup3\n        /* \"#utility.yul\":22835:22850   */\n      add\n        /* \"#utility.yul\":22828:22859   */\n      mstore\n        /* \"#utility.yul\":22643:22866   */\n      pop\n      jump\t// out\n        /* \"#utility.yul\":22872:23238   */\n    tag_458:\n        /* \"#utility.yul\":23014:23017   */\n      0x00\n        /* \"#utility.yul\":23035:23102   */\n      tag_713\n        /* \"#utility.yul\":23099:23101   */\n      0x24\n        /* \"#utility.yul\":23094:23097   */\n      dup4\n        /* \"#utility.yul\":23035:23102   */\n      tag_401\n      jump\t// in\n    tag_713:\n        /* \"#utility.yul\":23028:23102   */\n      swap2\n      pop\n        /* \"#utility.yul\":23111:23204   */\n      tag_714\n        /* \"#utility.yul\":23200:23203   */\n      dup3\n        /* \"#utility.yul\":23111:23204   */\n      tag_457\n      jump\t// in\n    tag_714:\n        /* \"#utility.yul\":23229:23231   */\n      0x40\n        /* \"#utility.yul\":23224:23227   */\n      dup3\n        /* \"#utility.yul\":23220:23232   */\n      add\n        /* \"#utility.yul\":23213:23232   */\n      swap1\n      pop\n        /* \"#utility.yul\":22872:23238   */\n      swap2\n      swap1\n      pop\n      jump\t// out\n        /* \"#utility.yul\":23244:23663   */\n    tag_260:\n        /* \"#utility.yul\":23410:23414   */\n      0x00\n        /* \"#utility.yul\":23448:23450   */\n      0x20\n        /* \"#utility.yul\":23437:23446   */\n      dup3\n        /* \"#utility.yul\":23433:23451   */\n      add\n        /* \"#utility.yul\":23425:23451   */\n      swap1\n      pop\n        /* \"#utility.yul\":23497:23506   */\n      dup2\n        /* \"#utility.yul\":23491:23495   */\n      dup2\n        /* \"#utility.yul\":23487:23507   */\n      sub\n        /* \"#utility.yul\":23483:23484   */\n      0x00\n        /* \"#utility.yul\":23472:23481   */\n      dup4\n        /* \"#utility.yul\":23468:23485   */\n      add\n        /* \"#utility.yul\":23461:23508   */\n      mstore\n        /* \"#utility.yul\":23525:23656   */\n      tag_716\n        /* \"#utility.yul\":23651:23655   */\n      dup2\n        /* \"#utility.yul\":23525:23656   */\n      tag_458\n      jump\t// in\n    tag_716:\n        /* \"#utility.yul\":23517:23656   */\n      swap1\n      pop\n        /* \"#utility.yul\":23244:23663   */\n      swap2\n      swap1\n      pop\n      jump\t// out\n        /* \"#utility.yul\":23669:23890   */\n    tag_459:\n        /* \"#utility.yul\":23809:23843   */\n      0x45524332303a20617070726f766520746f20746865207a65726f206164647265\n        /* \"#utility.yul\":23805:23806   */\n      0x00\n        /* \"#utility.yul\":23797:23803   */\n      dup3\n        /* \"#utility.yul\":23793:23807   */\n      add\n        /* \"#utility.yul\":23786:23844   */\n      mstore\n        /* \"#utility.yul\":23878:23882   */\n      0x7373000000000000000000000000000000000000000000000000000000000000\n        /* \"#utility.yul\":23873:23875   */\n      0x20\n        /* \"#utility.yul\":23865:23871   */\n      dup3\n        /* \"#utility.yul\":23861:23876   */\n      add\n        /* \"#utility.yul\":23854:23883   */\n      mstore\n        /* \"#utility.yul\":23669:23890   */\n      pop\n      jump\t// out\n        /* \"#utility.yul\":23896:24262   */\n    tag_460:\n        /* \"#utility.yul\":24038:24041   */\n      0x00\n        /* \"#utility.yul\":24059:24126   */\n      tag_719\n        /* \"#utility.yul\":24123:24125   */\n      0x22\n        /* \"#utility.yul\":24118:24121   */\n      dup4\n        /* \"#utility.yul\":24059:24126   */\n      tag_401\n      jump\t// in\n    tag_719:\n        /* \"#utility.yul\":24052:24126   */\n      swap2\n      pop\n        /* \"#utility.yul\":24135:24228   */\n      tag_720\n        /* \"#utility.yul\":24224:24227   */\n      dup3\n        /* \"#utility.yul\":24135:24228   */\n      tag_459\n      jump\t// in\n    tag_720:\n        /* \"#utility.yul\":24253:24255   */\n      0x40\n        /* \"#utility.yul\":24248:24251   */\n      dup3\n        /* \"#utility.yul\":24244:24256   */\n      add\n        /* \"#utility.yul\":24237:24256   */\n      swap1\n      pop\n        /* \"#utility.yul\":23896:24262   */\n      swap2\n      swap1\n      pop\n      jump\t// out\n        /* \"#utility.yul\":24268:24687   */\n    tag_263:\n        /* \"#utility.yul\":24434:24438   */\n      0x00\n        /* \"#utility.yul\":24472:24474   */\n      0x20\n        /* \"#utility.yul\":24461:24470   */\n      dup3\n        /* \"#utility.yul\":24457:24475   */\n      add\n        /* \"#utility.yul\":24449:24475   */\n      swap1\n      pop\n        /* \"#utility.yul\":24521:24530   */\n      dup2\n        /* \"#utility.yul\":24515:24519   */\n      dup2\n        /* \"#utility.yul\":24511:24531   */\n      sub\n        /* \"#utility.yul\":24507:24508   */\n      0x00\n        /* \"#utility.yul\":24496:24505   */\n      dup4\n        /* \"#utility.yul\":24492:24509   */\n      add\n        /* \"#utility.yul\":24485:24532   */\n      mstore\n        /* \"#utility.yul\":24549:24680   */\n      tag_722\n        /* \"#utility.yul\":24675:24679   */\n      dup2\n        /* \"#utility.yul\":24549:24680   */\n      tag_460\n      jump\t// in\n    tag_722:\n        /* \"#utility.yul\":24541:24680   */\n      swap1\n      pop\n        /* \"#utility.yul\":24268:24687   */\n      swap2\n      swap1\n      pop\n      jump\t// out\n        /* \"#utility.yul\":24693:24872   */\n    tag_461:\n        /* \"#utility.yul\":24833:24864   */\n      0x45524332303a20696e73756666696369656e7420616c6c6f77616e6365000000\n        /* \"#utility.yul\":24829:24830   */\n      0x00\n        /* \"#utility.yul\":24821:24827   */\n      dup3\n        /* \"#utility.yul\":24817:24831   */\n      add\n        /* \"#utility.yul\":24810:24865   */\n      mstore\n        /* \"#utility.yul\":24693:24872   */\n      pop\n      jump\t// out\n        /* \"#utility.yul\":24878:25244   */\n    tag_462:\n        /* \"#utility.yul\":25020:25023   */\n      0x00\n        /* \"#utility.yul\":25041:25108   */\n      tag_725\n        /* \"#utility.yul\":25105:25107   */\n      0x1d\n        /* \"#utility.yul\":25100:25103   */\n      dup4\n        /* \"#utility.yul\":25041:25108   */\n      tag_401\n      jump\t// in\n    tag_725:\n        /* \"#utility.yul\":25034:25108   */\n      swap2\n      pop\n        /* \"#utility.yul\":25117:25210   */\n      tag_726\n        /* \"#utility.yul\":25206:25209   */\n      dup3\n        /* \"#utility.yul\":25117:25210   */\n      tag_461\n      jump\t// in\n    tag_726:\n        /* \"#utility.yul\":25235:25237   */\n      0x20\n        /* \"#utility.yul\":25230:25233   */\n      dup3\n        /* \"#utility.yul\":25226:25238   */\n      add\n        /* \"#utility.yul\":25219:25238   */\n      swap1\n      pop\n        /* \"#utility.yul\":24878:25244   */\n      swap2\n      swap1\n      pop\n      jump\t// out\n        /* \"#utility.yul\":25250:25669   */\n    tag_279:\n        /* \"#utility.yul\":25416:25420   */\n      0x00\n        /* \"#utility.yul\":25454:25456   */\n      0x20\n        /* \"#utility.yul\":25443:25452   */\n      dup3\n        /* \"#utility.yul\":25439:25457   */\n      add\n        /* \"#utility.yul\":25431:25457   */\n      swap1\n      pop\n        /* \"#utility.yul\":25503:25512   */\n      dup2\n        /* \"#utility.yul\":25497:25501   */\n      dup2\n        /* \"#utility.yul\":25493:25513   */\n      sub\n        /* \"#utility.yul\":25489:25490   */\n      0x00\n        /* \"#utility.yul\":25478:25487   */\n      dup4\n        /* \"#utility.yul\":25474:25491   */\n      add\n        /* \"#utility.yul\":25467:25514   */\n      mstore\n        /* \"#utility.yul\":25531:25662   */\n      tag_728\n        /* \"#utility.yul\":25657:25661   */\n      dup2\n        /* \"#utility.yul\":25531:25662   */\n      tag_462\n      jump\t// in\n    tag_728:\n        /* \"#utility.yul\":25523:25662   */\n      swap1\n      pop\n        /* \"#utility.yul\":25250:25669   */\n      swap2\n      swap1\n      pop\n      jump\t// out\n        /* \"#utility.yul\":25675:25899   */\n    tag_463:\n        /* \"#utility.yul\":25815:25849   */\n      0x45524332303a207472616e736665722066726f6d20746865207a65726f206164\n        /* \"#utility.yul\":25811:25812   */\n      0x00\n        /* \"#utility.yul\":25803:25809   */\n      dup3\n        /* \"#utility.yul\":25799:25813   */\n      add\n        /* \"#utility.yul\":25792:25850   */\n      mstore\n        /* \"#utility.yul\":25884:25891   */\n      0x6472657373000000000000000000000000000000000000000000000000000000\n        /* \"#utility.yul\":25879:25881   */\n      0x20\n        /* \"#utility.yul\":25871:25877   */\n      dup3\n        /* \"#utility.yul\":25867:25882   */\n      add\n        /* \"#utility.yul\":25860:25892   */\n      mstore\n        /* \"#utility.yul\":25675:25899   */\n      pop\n      jump\t// out\n        /* \"#utility.yul\":25905:26271   */\n    tag_464:\n        /* \"#utility.yul\":26047:26050   */\n      0x00\n        /* \"#utility.yul\":26068:26135   */\n      tag_731\n        /* \"#utility.yul\":26132:26134   */\n      0x25\n        /* \"#utility.yul\":26127:26130   */\n      dup4\n        /* \"#utility.yul\":26068:26135   */\n      tag_401\n      jump\t// in\n    tag_731:\n        /* \"#utility.yul\":26061:26135   */\n      swap2\n      pop\n        /* \"#utility.yul\":26144:26237   */\n      tag_732\n        /* \"#utility.yul\":26233:26236   */\n      dup3\n        /* \"#utility.yul\":26144:26237   */\n      tag_463\n      jump\t// in\n    tag_732:\n        /* \"#utility.yul\":26262:26264   */\n      0x40\n        /* \"#utility.yul\":26257:26260   */\n      dup3\n        /* \"#utility.yul\":26253:26265   */\n      add\n        /* \"#utility.yul\":26246:26265   */\n      swap1\n      pop\n        /* \"#utility.yul\":25905:26271   */\n      swap2\n      swap1\n      pop\n      jump\t// out\n        /* \"#utility.yul\":26277:26696   */\n    tag_284:\n        /* \"#utility.yul\":26443:26447   */\n      0x00\n        /* \"#utility.yul\":26481:26483   */\n      0x20\n        /* \"#utility.yul\":26470:26479   */\n      dup3\n        /* \"#utility.yul\":26466:26484   */\n      add\n        /* \"#utility.yul\":26458:26484   */\n      swap1\n      pop\n        /* \"#utility.yul\":26530:26539   */\n      dup2\n        /* \"#utility.yul\":26524:26528   */\n      dup2\n        /* \"#utility.yul\":26520:26540   */\n      sub\n        /* \"#utility.yul\":26516:26517   */\n      0x00\n        /* \"#utility.yul\":26505:26514   */\n      dup4\n        /* \"#utility.yul\":26501:26518   */\n      add\n        /* \"#utility.yul\":26494:26541   */\n      mstore\n        /* \"#utility.yul\":26558:26689   */\n      tag_734\n        /* \"#utility.yul\":26684:26688   */\n      dup2\n        /* \"#utility.yul\":26558:26689   */\n      tag_464\n      jump\t// in\n    tag_734:\n        /* \"#utility.yul\":26550:26689   */\n      swap1\n      pop\n        /* \"#utility.yul\":26277:26696   */\n      swap2\n      swap1\n      pop\n      jump\t// out\n        /* \"#utility.yul\":26702:26924   */\n    tag_465:\n        /* \"#utility.yul\":26842:26876   */\n      0x45524332303a207472616e7366657220746f20746865207a65726f2061646472\n        /* \"#utility.yul\":26838:26839   */\n      0x00\n        /* \"#utility.yul\":26830:26836   */\n      dup3\n        /* \"#utility.yul\":26826:26840   */\n      add\n        /* \"#utility.yul\":26819:26877   */\n      mstore\n        /* \"#utility.yul\":26911:26916   */\n      0x6573730000000000000000000000000000000000000000000000000000000000\n        /* \"#utility.yul\":26906:26908   */\n      0x20\n        /* \"#utility.yul\":26898:26904   */\n      dup3\n        /* \"#utility.yul\":26894:26909   */\n      add\n        /* \"#utility.yul\":26887:26917   */\n      mstore\n        /* \"#utility.yul\":26702:26924   */\n      pop\n      jump\t// out\n        /* \"#utility.yul\":26930:27296   */\n    tag_466:\n        /* \"#utility.yul\":27072:27075   */\n      0x00\n        /* \"#utility.yul\":27093:27160   */\n      tag_737\n        /* \"#utility.yul\":27157:27159   */\n      0x23\n        /* \"#utility.yul\":27152:27155   */\n      dup4\n        /* \"#utility.yul\":27093:27160   */\n      tag_401\n      jump\t// in\n    tag_737:\n        /* \"#utility.yul\":27086:27160   */\n      swap2\n      pop\n        /* \"#utility.yul\":27169:27262   */\n      tag_738\n        /* \"#utility.yul\":27258:27261   */\n      dup3\n        /* \"#utility.yul\":27169:27262   */\n      tag_465\n      jump\t// in\n    tag_738:\n        /* \"#utility.yul\":27287:27289   */\n      0x40\n        /* \"#utility.yul\":27282:27285   */\n      dup3\n        /* \"#utility.yul\":27278:27290   */\n      add\n        /* \"#utility.yul\":27271:27290   */\n      swap1\n      pop\n        /* \"#utility.yul\":26930:27296   */\n      swap2\n      swap1\n      pop\n      jump\t// out\n        /* \"#utility.yul\":27302:27721   */\n    tag_287:\n        /* \"#utility.yul\":27468:27472   */\n      0x00\n        /* \"#utility.yul\":27506:27508   */\n      0x20\n        /* \"#utility.yul\":27495:27504   */\n      dup3\n        /* \"#utility.yul\":27491:27509   */\n      add\n        /* \"#utility.yul\":27483:27509   */\n      swap1\n      pop\n        /* \"#utility.yul\":27555:27564   */\n      dup2\n        /* \"#utility.yul\":27549:27553   */\n      dup2\n        /* \"#utility.yul\":27545:27565   */\n      sub\n        /* \"#utility.yul\":27541:27542   */\n      0x00\n        /* \"#utility.yul\":27530:27539   */\n      dup4\n        /* \"#utility.yul\":27526:27543   */\n      add\n        /* \"#utility.yul\":27519:27566   */\n      mstore\n        /* \"#utility.yul\":27583:27714   */\n      tag_740\n        /* \"#utility.yul\":27709:27713   */\n      dup2\n        /* \"#utility.yul\":27583:27714   */\n      tag_466\n      jump\t// in\n    tag_740:\n        /* \"#utility.yul\":27575:27714   */\n      swap1\n      pop\n        /* \"#utility.yul\":27302:27721   */\n      swap2\n      swap1\n      pop\n      jump\t// out\n        /* \"#utility.yul\":27727:27887   */\n    tag_467:\n        /* \"#utility.yul\":27867:27879   */\n      0x63616e206e6f7420747800000000000000000000000000000000000000000000\n        /* \"#utility.yul\":27863:27864   */\n      0x00\n        /* \"#utility.yul\":27855:27861   */\n      dup3\n        /* \"#utility.yul\":27851:27865   */\n      add\n        /* \"#utility.yul\":27844:27880   */\n      mstore\n        /* \"#utility.yul\":27727:27887   */\n      pop\n      jump\t// out\n        /* \"#utility.yul\":27893:28259   */\n    tag_468:\n        /* \"#utility.yul\":28035:28038   */\n      0x00\n        /* \"#utility.yul\":28056:28123   */\n      tag_743\n        /* \"#utility.yul\":28120:28122   */\n      0x0a\n        /* \"#utility.yul\":28115:28118   */\n      dup4\n        /* \"#utility.yul\":28056:28123   */\n      tag_401\n      jump\t// in\n    tag_743:\n        /* \"#utility.yul\":28049:28123   */\n      swap2\n      pop\n        /* \"#utility.yul\":28132:28225   */\n      tag_744\n        /* \"#utility.yul\":28221:28224   */\n      dup3\n        /* \"#utility.yul\":28132:28225   */\n      tag_467\n      jump\t// in\n    tag_744:\n        /* \"#utility.yul\":28250:28252   */\n      0x20\n        /* \"#utility.yul\":28245:28248   */\n      dup3\n        /* \"#utility.yul\":28241:28253   */\n      add\n        /* \"#utility.yul\":28234:28253   */\n      swap1\n      pop\n        /* \"#utility.yul\":27893:28259   */\n      swap2\n      swap1\n      pop\n      jump\t// out\n        /* \"#utility.yul\":28265:28684   */\n    tag_292:\n        /* \"#utility.yul\":28431:28435   */\n      0x00\n        /* \"#utility.yul\":28469:28471   */\n      0x20\n        /* \"#utility.yul\":28458:28467   */\n      dup3\n        /* \"#utility.yul\":28454:28472   */\n      add\n        /* \"#utility.yul\":28446:28472   */\n      swap1\n      pop\n        /* \"#utility.yul\":28518:28527   */\n      dup2\n        /* \"#utility.yul\":28512:28516   */\n      dup2\n        /* \"#utility.yul\":28508:28528   */\n      sub\n        /* \"#utility.yul\":28504:28505   */\n      0x00\n        /* \"#utility.yul\":28493:28502   */\n      dup4\n        /* \"#utility.yul\":28489:28506   */\n      add\n        /* \"#utility.yul\":28482:28529   */\n      mstore\n        /* \"#utility.yul\":28546:28677   */\n      tag_746\n        /* \"#utility.yul\":28672:28676   */\n      dup2\n        /* \"#utility.yul\":28546:28677   */\n      tag_468\n      jump\t// in\n    tag_746:\n        /* \"#utility.yul\":28538:28677   */\n      swap1\n      pop\n        /* \"#utility.yul\":28265:28684   */\n      swap2\n      swap1\n      pop\n      jump\t// out\n        /* \"#utility.yul\":28690:28850   */\n    tag_469:\n        /* \"#utility.yul\":28830:28842   */\n      0x6e6f7420656e6f75676800000000000000000000000000000000000000000000\n        /* \"#utility.yul\":28826:28827   */\n      0x00\n        /* \"#utility.yul\":28818:28824   */\n      dup3\n        /* \"#utility.yul\":28814:28828   */\n      add\n        /* \"#utility.yul\":28807:28843   */\n      mstore\n        /* \"#utility.yul\":28690:28850   */\n      pop\n      jump\t// out\n        /* \"#utility.yul\":28856:29222   */\n    tag_470:\n        /* \"#utility.yul\":28998:29001   */\n      0x00\n        /* \"#utility.yul\":29019:29086   */\n      tag_749\n        /* \"#utility.yul\":29083:29085   */\n      0x0a\n        /* \"#utility.yul\":29078:29081   */\n      dup4\n        /* \"#utility.yul\":29019:29086   */\n      tag_401\n      jump\t// in\n    tag_749:\n        /* \"#utility.yul\":29012:29086   */\n      swap2\n      pop\n        /* \"#utility.yul\":29095:29188   */\n      tag_750\n        /* \"#utility.yul\":29184:29187   */\n      dup3\n        /* \"#utility.yul\":29095:29188   */\n      tag_469\n      jump\t// in\n    tag_750:\n        /* \"#utility.yul\":29213:29215   */\n      0x20\n        /* \"#utility.yul\":29208:29211   */\n      dup3\n        /* \"#utility.yul\":29204:29216   */\n      add\n        /* \"#utility.yul\":29197:29216   */\n      swap1\n      pop\n        /* \"#utility.yul\":28856:29222   */\n      swap2\n      swap1\n      pop\n      jump\t// out\n        /* \"#utility.yul\":29228:29647   */\n    tag_297:\n        /* \"#utility.yul\":29394:29398   */\n      0x00\n        /* \"#utility.yul\":29432:29434   */\n      0x20\n        /* \"#utility.yul\":29421:29430   */\n      dup3\n        /* \"#utility.yul\":29417:29435   */\n      add\n        /* \"#utility.yul\":29409:29435   */\n      swap1\n      pop\n        /* \"#utility.yul\":29481:29490   */\n      dup2\n        /* \"#utility.yul\":29475:29479   */\n      dup2\n        /* \"#utility.yul\":29471:29491   */\n      sub\n        /* \"#utility.yul\":29467:29468   */\n      0x00\n        /* \"#utility.yul\":29456:29465   */\n      dup4\n        /* \"#utility.yul\":29452:29469   */\n      add\n        /* \"#utility.yul\":29445:29492   */\n      mstore\n        /* \"#utility.yul\":29509:29640   */\n      tag_752\n        /* \"#utility.yul\":29635:29639   */\n      dup2\n        /* \"#utility.yul\":29509:29640   */\n      tag_470\n      jump\t// in\n    tag_752:\n        /* \"#utility.yul\":29501:29640   */\n      swap1\n      pop\n        /* \"#utility.yul\":29228:29647   */\n      swap2\n      swap1\n      pop\n      jump\t// out\n        /* \"#utility.yul\":29653:29878   */\n    tag_471:\n        /* \"#utility.yul\":29793:29827   */\n      0x45524332303a207472616e7366657220616d6f756e7420657863656564732062\n        /* \"#utility.yul\":29789:29790   */\n      0x00\n        /* \"#utility.yul\":29781:29787   */\n      dup3\n        /* \"#utility.yul\":29777:29791   */\n      add\n        /* \"#utility.yul\":29770:29828   */\n      mstore\n        /* \"#utility.yul\":29862:29870   */\n      0x616c616e63650000000000000000000000000000000000000000000000000000\n        /* \"#utility.yul\":29857:29859   */\n      0x20\n        /* \"#utility.yul\":29849:29855   */\n      dup3\n        /* \"#utility.yul\":29845:29860   */\n      add\n        /* \"#utility.yul\":29838:29871   */\n      mstore\n        /* \"#utility.yul\":29653:29878   */\n      pop\n      jump\t// out\n        /* \"#utility.yul\":29884:30250   */\n    tag_472:\n        /* \"#utility.yul\":30026:30029   */\n      0x00\n        /* \"#utility.yul\":30047:30114   */\n      tag_755\n        /* \"#utility.yul\":30111:30113   */\n      0x26\n        /* \"#utility.yul\":30106:30109   */\n      dup4\n        /* \"#utility.yul\":30047:30114   */\n      tag_401\n      jump\t// in\n    tag_755:\n        /* \"#utility.yul\":30040:30114   */\n      swap2\n      pop\n        /* \"#utility.yul\":30123:30216   */\n      tag_756\n        /* \"#utility.yul\":30212:30215   */\n      dup3\n        /* \"#utility.yul\":30123:30216   */\n      tag_471\n      jump\t// in\n    tag_756:\n        /* \"#utility.yul\":30241:30243   */\n      0x40\n        /* \"#utility.yul\":30236:30239   */\n      dup3\n        /* \"#utility.yul\":30232:30244   */\n      add\n        /* \"#utility.yul\":30225:30244   */\n      swap1\n      pop\n        /* \"#utility.yul\":29884:30250   */\n      swap2\n      swap1\n      pop\n      jump\t// out\n        /* \"#utility.yul\":30256:30675   */\n    tag_302:\n        /* \"#utility.yul\":30422:30426   */\n      0x00\n        /* \"#utility.yul\":30460:30462   */\n      0x20\n        /* \"#utility.yul\":30449:30458   */\n      dup3\n        /* \"#utility.yul\":30445:30463   */\n      add\n        /* \"#utility.yul\":30437:30463   */\n      swap1\n      pop\n        /* \"#utility.yul\":30509:30518   */\n      dup2\n        /* \"#utility.yul\":30503:30507   */\n      dup2\n        /* \"#utility.yul\":30499:30519   */\n      sub\n        /* \"#utility.yul\":30495:30496   */\n      0x00\n        /* \"#utility.yul\":30484:30493   */\n      dup4\n        /* \"#utility.yul\":30480:30497   */\n      add\n        /* \"#utility.yul\":30473:30520   */\n      mstore\n        /* \"#utility.yul\":30537:30668   */\n      tag_758\n        /* \"#utility.yul\":30663:30667   */\n      dup2\n        /* \"#utility.yul\":30537:30668   */\n      tag_472\n      jump\t// in\n    tag_758:\n        /* \"#utility.yul\":30529:30668   */\n      swap1\n      pop\n        /* \"#utility.yul\":30256:30675   */\n      swap2\n      swap1\n      pop\n      jump\t// out\n        /* \"#utility.yul\":30681:30844   */\n    tag_473:\n        /* \"#utility.yul\":30821:30836   */\n      0x6e6f2073746172742074696d6500000000000000000000000000000000000000\n        /* \"#utility.yul\":30817:30818   */\n      0x00\n        /* \"#utility.yul\":30809:30815   */\n      dup3\n        /* \"#utility.yul\":30805:30819   */\n      add\n        /* \"#utility.yul\":30798:30837   */\n      mstore\n        /* \"#utility.yul\":30681:30844   */\n      pop\n      jump\t// out\n        /* \"#utility.yul\":30850:31216   */\n    tag_474:\n        /* \"#utility.yul\":30992:30995   */\n      0x00\n        /* \"#utility.yul\":31013:31080   */\n      tag_761\n        /* \"#utility.yul\":31077:31079   */\n      0x0d\n        /* \"#utility.yul\":31072:31075   */\n      dup4\n        /* \"#utility.yul\":31013:31080   */\n      tag_401\n      jump\t// in\n    tag_761:\n        /* \"#utility.yul\":31006:31080   */\n      swap2\n      pop\n        /* \"#utility.yul\":31089:31182   */\n      tag_762\n        /* \"#utility.yul\":31178:31181   */\n      dup3\n        /* \"#utility.yul\":31089:31182   */\n      tag_473\n      jump\t// in\n    tag_762:\n        /* \"#utility.yul\":31207:31209   */\n      0x20\n        /* \"#utility.yul\":31202:31205   */\n      dup3\n        /* \"#utility.yul\":31198:31210   */\n      add\n        /* \"#utility.yul\":31191:31210   */\n      swap1\n      pop\n        /* \"#utility.yul\":30850:31216   */\n      swap2\n      swap1\n      pop\n      jump\t// out\n        /* \"#utility.yul\":31222:31641   */\n    tag_343:\n        /* \"#utility.yul\":31388:31392   */\n      0x00\n        /* \"#utility.yul\":31426:31428   */\n      0x20\n        /* \"#utility.yul\":31415:31424   */\n      dup3\n        /* \"#utility.yul\":31411:31429   */\n      add\n        /* \"#utility.yul\":31403:31429   */\n      swap1\n      pop\n        /* \"#utility.yul\":31475:31484   */\n      dup2\n        /* \"#utility.yul\":31469:31473   */\n      dup2\n        /* \"#utility.yul\":31465:31485   */\n      sub\n        /* \"#utility.yul\":31461:31462   */\n      0x00\n        /* \"#utility.yul\":31450:31459   */\n      dup4\n        /* \"#utility.yul\":31446:31463   */\n      add\n        /* \"#utility.yul\":31439:31486   */\n      mstore\n        /* \"#utility.yul\":31503:31634   */\n      tag_764\n        /* \"#utility.yul\":31629:31633   */\n      dup2\n        /* \"#utility.yul\":31503:31634   */\n      tag_474\n      jump\t// in\n    tag_764:\n        /* \"#utility.yul\":31495:31634   */\n      swap1\n      pop\n        /* \"#utility.yul\":31222:31641   */\n      swap2\n      swap1\n      pop\n      jump\t// out\n        /* \"#utility.yul\":31647:31813   */\n    tag_475:\n        /* \"#utility.yul\":31787:31805   */\n      0x6e6f7420696e697469616c2074696d6500000000000000000000000000000000\n        /* \"#utility.yul\":31783:31784   */\n      0x00\n        /* \"#utility.yul\":31775:31781   */\n      dup3\n        /* \"#utility.yul\":31771:31785   */\n      add\n        /* \"#utility.yul\":31764:31806   */\n      mstore\n        /* \"#utility.yul\":31647:31813   */\n      pop\n      jump\t// out\n        /* \"#utility.yul\":31819:32185   */\n    tag_476:\n        /* \"#utility.yul\":31961:31964   */\n      0x00\n        /* \"#utility.yul\":31982:32049   */\n      tag_767\n        /* \"#utility.yul\":32046:32048   */\n      0x10\n        /* \"#utility.yul\":32041:32044   */\n      dup4\n        /* \"#utility.yul\":31982:32049   */\n      tag_401\n      jump\t// in\n    tag_767:\n        /* \"#utility.yul\":31975:32049   */\n      swap2\n      pop\n        /* \"#utility.yul\":32058:32151   */\n      tag_768\n        /* \"#utility.yul\":32147:32150   */\n      dup3\n        /* \"#utility.yul\":32058:32151   */\n      tag_475\n      jump\t// in\n    tag_768:\n        /* \"#utility.yul\":32176:32178   */\n      0x20\n        /* \"#utility.yul\":32171:32174   */\n      dup3\n        /* \"#utility.yul\":32167:32179   */\n      add\n        /* \"#utility.yul\":32160:32179   */\n      swap1\n      pop\n        /* \"#utility.yul\":31819:32185   */\n      swap2\n      swap1\n      pop\n      jump\t// out\n        /* \"#utility.yul\":32191:32610   */\n    tag_347:\n        /* \"#utility.yul\":32357:32361   */\n      0x00\n        /* \"#utility.yul\":32395:32397   */\n      0x20\n        /* \"#utility.yul\":32384:32393   */\n      dup3\n        /* \"#utility.yul\":32380:32398   */\n      add\n        /* \"#utility.yul\":32372:32398   */\n      swap1\n      pop\n        /* \"#utility.yul\":32444:32453   */\n      dup2\n        /* \"#utility.yul\":32438:32442   */\n      dup2\n        /* \"#utility.yul\":32434:32454   */\n      sub\n        /* \"#utility.yul\":32430:32431   */\n      0x00\n        /* \"#utility.yul\":32419:32428   */\n      dup4\n        /* \"#utility.yul\":32415:32432   */\n      add\n        /* \"#utility.yul\":32408:32455   */\n      mstore\n        /* \"#utility.yul\":32472:32603   */\n      tag_770\n        /* \"#utility.yul\":32598:32602   */\n      dup2\n        /* \"#utility.yul\":32472:32603   */\n      tag_476\n      jump\t// in\n    tag_770:\n        /* \"#utility.yul\":32464:32603   */\n      swap1\n      pop\n        /* \"#utility.yul\":32191:32610   */\n      swap2\n      swap1\n      pop\n      jump\t// out\n        /* \"#utility.yul\":32616:32778   */\n    tag_477:\n        /* \"#utility.yul\":32756:32770   */\n      0x616c6c2072656c65617365640000000000000000000000000000000000000000\n        /* \"#utility.yul\":32752:32753   */\n      0x00\n        /* \"#utility.yul\":32744:32750   */\n      dup3\n        /* \"#utility.yul\":32740:32754   */\n      add\n        /* \"#utility.yul\":32733:32771   */\n      mstore\n        /* \"#utility.yul\":32616:32778   */\n      pop\n      jump\t// out\n        /* \"#utility.yul\":32784:33150   */\n    tag_478:\n        /* \"#utility.yul\":32926:32929   */\n      0x00\n        /* \"#utility.yul\":32947:33014   */\n      tag_773\n        /* \"#utility.yul\":33011:33013   */\n      0x0c\n        /* \"#utility.yul\":33006:33009   */\n      dup4\n        /* \"#utility.yul\":32947:33014   */\n      tag_401\n      jump\t// in\n    tag_773:\n        /* \"#utility.yul\":32940:33014   */\n      swap2\n      pop\n        /* \"#utility.yul\":33023:33116   */\n      tag_774\n        /* \"#utility.yul\":33112:33115   */\n      dup3\n        /* \"#utility.yul\":33023:33116   */\n      tag_477\n      jump\t// in\n    tag_774:\n        /* \"#utility.yul\":33141:33143   */\n      0x20\n        /* \"#utility.yul\":33136:33139   */\n      dup3\n        /* \"#utility.yul\":33132:33144   */\n      add\n        /* \"#utility.yul\":33125:33144   */\n      swap1\n      pop\n        /* \"#utility.yul\":32784:33150   */\n      swap2\n      swap1\n      pop\n      jump\t// out\n        /* \"#utility.yul\":33156:33575   */\n    tag_350:\n        /* \"#utility.yul\":33322:33326   */\n      0x00\n        /* \"#utility.yul\":33360:33362   */\n      0x20\n        /* \"#utility.yul\":33349:33358   */\n      dup3\n        /* \"#utility.yul\":33345:33363   */\n      add\n        /* \"#utility.yul\":33337:33363   */\n      swap1\n      pop\n        /* \"#utility.yul\":33409:33418   */\n      dup2\n        /* \"#utility.yul\":33403:33407   */\n      dup2\n        /* \"#utility.yul\":33399:33419   */\n      sub\n        /* \"#utility.yul\":33395:33396   */\n      0x00\n        /* \"#utility.yul\":33384:33393   */\n      dup4\n        /* \"#utility.yul\":33380:33397   */\n      add\n        /* \"#utility.yul\":33373:33420   */\n      mstore\n        /* \"#utility.yul\":33437:33568   */\n      tag_776\n        /* \"#utility.yul\":33563:33567   */\n      dup2\n        /* \"#utility.yul\":33437:33568   */\n      tag_478\n      jump\t// in\n    tag_776:\n        /* \"#utility.yul\":33429:33568   */\n      swap1\n      pop\n        /* \"#utility.yul\":33156:33575   */\n      swap2\n      swap1\n      pop\n      jump\t// out\n        /* \"#utility.yul\":33581:33991   */\n    tag_389:\n        /* \"#utility.yul\":33621:33628   */\n      0x00\n        /* \"#utility.yul\":33644:33664   */\n      tag_778\n        /* \"#utility.yul\":33662:33663   */\n      dup3\n        /* \"#utility.yul\":33644:33664   */\n      tag_412\n      jump\t// in\n    tag_778:\n        /* \"#utility.yul\":33639:33664   */\n      swap2\n      pop\n        /* \"#utility.yul\":33678:33698   */\n      tag_779\n        /* \"#utility.yul\":33696:33697   */\n      dup4\n        /* \"#utility.yul\":33678:33698   */\n      tag_412\n      jump\t// in\n    tag_779:\n        /* \"#utility.yul\":33673:33698   */\n      swap3\n      pop\n        /* \"#utility.yul\":33733:33734   */\n      dup3\n        /* \"#utility.yul\":33730:33731   */\n      dup3\n        /* \"#utility.yul\":33726:33735   */\n      mul\n        /* \"#utility.yul\":33755:33785   */\n      tag_780\n        /* \"#utility.yul\":33773:33784   */\n      dup2\n        /* \"#utility.yul\":33755:33785   */\n      tag_412\n      jump\t// in\n    tag_780:\n        /* \"#utility.yul\":33744:33785   */\n      swap2\n      pop\n        /* \"#utility.yul\":33934:33935   */\n      dup3\n        /* \"#utility.yul\":33925:33932   */\n      dup3\n        /* \"#utility.yul\":33921:33936   */\n      div\n        /* \"#utility.yul\":33918:33919   */\n      dup5\n        /* \"#utility.yul\":33915:33937   */\n      eq\n        /* \"#utility.yul\":33895:33896   */\n      dup4\n        /* \"#utility.yul\":33888:33897   */\n      iszero\n        /* \"#utility.yul\":33868:33951   */\n      or\n        /* \"#utility.yul\":33845:33984   */\n      tag_781\n      jumpi\n        /* \"#utility.yul\":33964:33982   */\n      tag_782\n      tag_442\n      jump\t// in\n    tag_782:\n        /* \"#utility.yul\":33845:33984   */\n    tag_781:\n        /* \"#utility.yul\":33629:33991   */\n      pop\n        /* \"#utility.yul\":33581:33991   */\n      swap3\n      swap2\n      pop\n      pop\n      jump\t// out\n        /* \"#utility.yul\":33997:34177   */\n    tag_479:\n        /* \"#utility.yul\":34045:34122   */\n      0x4e487b7100000000000000000000000000000000000000000000000000000000\n        /* \"#utility.yul\":34042:34043   */\n      0x00\n        /* \"#utility.yul\":34035:34123   */\n      mstore\n        /* \"#utility.yul\":34142:34146   */\n      0x12\n        /* \"#utility.yul\":34139:34140   */\n      0x04\n        /* \"#utility.yul\":34132:34147   */\n      mstore\n        /* \"#utility.yul\":34166:34170   */\n      0x24\n        /* \"#utility.yul\":34163:34164   */\n      0x00\n        /* \"#utility.yul\":34156:34171   */\n      revert\n        /* \"#utility.yul\":34183:34359   */\n    tag_394:\n        /* \"#utility.yul\":34215:34216   */\n      0x00\n        /* \"#utility.yul\":34232:34252   */\n      tag_785\n        /* \"#utility.yul\":34250:34251   */\n      dup3\n        /* \"#utility.yul\":34232:34252   */\n      tag_412\n      jump\t// in\n    tag_785:\n        /* \"#utility.yul\":34227:34252   */\n      swap2\n      pop\n        /* \"#utility.yul\":34266:34286   */\n      tag_786\n        /* \"#utility.yul\":34284:34285   */\n      dup4\n        /* \"#utility.yul\":34266:34286   */\n      tag_412\n      jump\t// in\n    tag_786:\n        /* \"#utility.yul\":34261:34286   */\n      swap3\n      pop\n        /* \"#utility.yul\":34305:34306   */\n      dup3\n        /* \"#utility.yul\":34295:34330   */\n      tag_787\n      jumpi\n        /* \"#utility.yul\":34310:34328   */\n      tag_788\n      tag_479\n      jump\t// in\n    tag_788:\n        /* \"#utility.yul\":34295:34330   */\n    tag_787:\n        /* \"#utility.yul\":34351:34352   */\n      dup3\n        /* \"#utility.yul\":34348:34349   */\n      dup3\n        /* \"#utility.yul\":34344:34353   */\n      mod\n        /* \"#utility.yul\":34339:34353   */\n      swap1\n      pop\n        /* \"#utility.yul\":34183:34359   */\n      swap3\n      swap2\n      pop\n      pop\n      jump\t// out\n        /* \"#utility.yul\":34365:34550   */\n    tag_397:\n        /* \"#utility.yul\":34405:34406   */\n      0x00\n        /* \"#utility.yul\":34422:34442   */\n      tag_790\n        /* \"#utility.yul\":34440:34441   */\n      dup3\n        /* \"#utility.yul\":34422:34442   */\n      tag_412\n      jump\t// in\n    tag_790:\n        /* \"#utility.yul\":34417:34442   */\n      swap2\n      pop\n        /* \"#utility.yul\":34456:34476   */\n      tag_791\n        /* \"#utility.yul\":34474:34475   */\n      dup4\n        /* \"#utility.yul\":34456:34476   */\n      tag_412\n      jump\t// in\n    tag_791:\n        /* \"#utility.yul\":34451:34476   */\n      swap3\n      pop\n        /* \"#utility.yul\":34495:34496   */\n      dup3\n        /* \"#utility.yul\":34485:34520   */\n      tag_792\n      jumpi\n        /* \"#utility.yul\":34500:34518   */\n      tag_793\n      tag_479\n      jump\t// in\n    tag_793:\n        /* \"#utility.yul\":34485:34520   */\n    tag_792:\n        /* \"#utility.yul\":34542:34543   */\n      dup3\n        /* \"#utility.yul\":34539:34540   */\n      dup3\n        /* \"#utility.yul\":34535:34544   */\n      div\n        /* \"#utility.yul\":34530:34544   */\n      swap1\n      pop\n        /* \"#utility.yul\":34365:34550   */\n      swap3\n      swap2\n      pop\n      pop\n      jump\t// out\n\n    auxdata: 0xa2646970667358221220a6061bf3a4ced8e48faf8f1a900346a79b4dfd8a80d3f801ded05e8830f5d61c64736f6c63430008120033\n}\n",
				"bytecode": {
					"linkReferences": {},
					"object": "60a0604052620151806080908152506040518060a001604052806aa56fa5b99019a5c80000006affffffffffffffffffffff16815260200160006affffffffffffffffffffff168152602001601e6affffffffffffffffffffff168152602001601e6affffffffffffffffffffff16815260200160646affffffffffffffffffffff16815250600a906005620000979291906200075e565b506040518060a001604052806a7c13bc4b2c133c560000006affffffffffffffffffffff16815260200160646affffffffffffffffffffff16815260200160b46affffffffffffffffffffff168152602001605a6affffffffffffffffffffff16815260200160fa6affffffffffffffffffffff16815250600f906005620001219291906200075e565b506040518060a001604052806a52b7d2dcc80cd2e40000006affffffffffffffffffffff16815260200160006affffffffffffffffffffff16815260200160006affffffffffffffffffffff168152602001605a6affffffffffffffffffffff16815260200160fa6affffffffffffffffffffff168152506014906005620001ab9291906200075e565b506040518060a001604052806a52b7d2dcc80cd2e40000006affffffffffffffffffffff16815260200160006affffffffffffffffffffff1681526020016101686affffffffffffffffffffff168152602001605a6affffffffffffffffffffff168152602001607d6affffffffffffffffffffff168152506019906005620002369291906200075e565b506040518060a001604052806a295be96e640669720000006affffffffffffffffffffff16815260200160006affffffffffffffffffffff1681526020016101686affffffffffffffffffffff168152602001605a6affffffffffffffffffffff168152602001607d6affffffffffffffffffffff16815250601e906005620002c19291906200075e565b506040518060a001604052806aa56fa5b99019a5c80000006affffffffffffffffffffff1681526020016103e86affffffffffffffffffffff16815260200160006affffffffffffffffffffff16815260200160006affffffffffffffffffffff16815260200160006affffffffffffffffffffff1681525060239060056200034c9291906200075e565b506040518060a001604052806aa56fa5b99019a5c80000006affffffffffffffffffffff1681526020016103e86affffffffffffffffffffff16815260200160006affffffffffffffffffffff16815260200160006affffffffffffffffffffff16815260200160006affffffffffffffffffffff168152506028906005620003d79291906200075e565b506040518060e00160405280600a6005806020026040519081016040528092919082600580156200041e576020028201915b81548152602001906001019080831162000409575b50505050508152602001600f60058060200260405190810160405280929190826005801562000463576020028201915b8154815260200190600101908083116200044e575b505050505081526020016014600580602002604051908101604052809291908260058015620004a8576020028201915b81548152602001906001019080831162000493575b505050505081526020016019600580602002604051908101604052809291908260058015620004ed576020028201915b815481526020019060010190808311620004d8575b50505050508152602001601e60058060200260405190810160405280929190826005801562000532576020028201915b8154815260200190600101908083116200051d575b50505050508152602001602360058060200260405190810160405280929190826005801562000577576020028201915b81548152602001906001019080831162000562575b505050505081526020016028600580602002604051908101604052809291908260058015620005bc576020028201915b815481526020019060010190808311620005a7575b5050505050815250602d906007620005d6929190620007b2565b50348015620005e457600080fd5b50604051620042733803806200427383398181016040528101906200060a919062000a4c565b81600390816200061b919062000d1c565b5080600490816200062d919062000d1c565b5033600560006101000a81548173ffffffffffffffffffffffffffffffffffffffff021916908373ffffffffffffffffffffffffffffffffffffffff16021790555060005b60078160ff1610156200075557600060018262000690919062000e3f565b9050602d8260ff1660078110620006ac57620006ab62000e7b565b5b60050201600060058110620006c657620006c562000e7b565b5b0154600760008360ff1660ff16815260200190815260200160002060000181905550602d8260ff166007811062000702576200070162000e7b565b5b600502016000600581106200071c576200071b62000e7b565b5b0154600760008360ff1660ff168152602001908152602001600020600101819055505080806200074c9062000eaa565b91505062000672565b50505062000ed8565b82600581019282156200079f579160200282015b828111156200079e57825182906affffffffffffffffffffff1690559160200191906001019062000772565b5b509050620007ae91906200080a565b5090565b8260076005028101928215620007f7579160200282015b82811115620007f657825182906005620007e592919062000829565b5091602001919060050190620007c9565b5b5090506200080691906200086e565b5090565b5b80821115620008255760008160009055506001016200080b565b5090565b82600581019282156200085b579160200282015b828111156200085a5782518255916020019190600101906200083d565b5b5090506200086a91906200080a565b5090565b5b8082111562000892576000818162000888919062000896565b506005016200086f565b5090565b506000815560010160008155600101600081556001016000815560010160009055565b6000604051905090565b600080fd5b600080fd5b600080fd5b600080fd5b6000601f19601f8301169050919050565b7f4e487b7100000000000000000000000000000000000000000000000000000000600052604160045260246000fd5b6200092282620008d7565b810181811067ffffffffffffffff82111715620009445762000943620008e8565b5b80604052505050565b600062000959620008b9565b905062000967828262000917565b919050565b600067ffffffffffffffff8211156200098a5762000989620008e8565b5b6200099582620008d7565b9050602081019050919050565b60005b83811015620009c2578082015181840152602081019050620009a5565b60008484015250505050565b6000620009e5620009df846200096c565b6200094d565b90508281526020810184848401111562000a045762000a03620008d2565b5b62000a11848285620009a2565b509392505050565b600082601f83011262000a315762000a30620008cd565b5b815162000a43848260208601620009ce565b91505092915050565b6000806040838503121562000a665762000a65620008c3565b5b600083015167ffffffffffffffff81111562000a875762000a86620008c8565b5b62000a958582860162000a19565b925050602083015167ffffffffffffffff81111562000ab95762000ab8620008c8565b5b62000ac78582860162000a19565b9150509250929050565b600081519050919050565b7f4e487b7100000000000000000000000000000000000000000000000000000000600052602260045260246000fd5b6000600282049050600182168062000b2457607f821691505b60208210810362000b3a5762000b3962000adc565b5b50919050565b60008190508160005260206000209050919050565b60006020601f8301049050919050565b600082821b905092915050565b60006008830262000ba47fffffffffffffffffffffffffffffffffffffffffffffffffffffffffffffffff8262000b65565b62000bb0868362000b65565b95508019841693508086168417925050509392505050565b6000819050919050565b6000819050919050565b600062000bfd62000bf762000bf18462000bc8565b62000bd2565b62000bc8565b9050919050565b6000819050919050565b62000c198362000bdc565b62000c3162000c288262000c04565b84845462000b72565b825550505050565b600090565b62000c4862000c39565b62000c5581848462000c0e565b505050565b5b8181101562000c7d5762000c7160008262000c3e565b60018101905062000c5b565b5050565b601f82111562000ccc5762000c968162000b40565b62000ca18462000b55565b8101602085101562000cb1578190505b62000cc962000cc08562000b55565b83018262000c5a565b50505b505050565b600082821c905092915050565b600062000cf16000198460080262000cd1565b1980831691505092915050565b600062000d0c838362000cde565b9150826002028217905092915050565b62000d278262000ad1565b67ffffffffffffffff81111562000d435762000d42620008e8565b5b62000d4f825462000b0b565b62000d5c82828562000c81565b600060209050601f83116001811462000d94576000841562000d7f578287015190505b62000d8b858262000cfe565b86555062000dfb565b601f19841662000da48662000b40565b60005b8281101562000dce5784890151825560018201915060208501945060208101905062000da7565b8683101562000dee578489015162000dea601f89168262000cde565b8355505b6001600288020188555050505b505050505050565b600060ff82169050919050565b7f4e487b7100000000000000000000000000000000000000000000000000000000600052601160045260246000fd5b600062000e4c8262000e03565b915062000e598362000e03565b9250828201905060ff81111562000e755762000e7462000e10565b5b92915050565b7f4e487b7100000000000000000000000000000000000000000000000000000000600052603260045260246000fd5b600062000eb78262000e03565b915060ff820362000ecd5762000ecc62000e10565b5b600182019050919050565b60805161337862000efb60003960008181611a710152611abd01526133786000f3fe608060405234801561001057600080fd5b506004361061012c5760003560e01c806370a08231116100ad578063a6fe01b311610071578063a6fe01b31461037d578063a9059cbb1461039b578063dd62ed3e146103cb578063ee579c12146103fb578063f9c3ae831461042b5761012c565b806370a08231146102b3578063733f28a8146102e357806395d89b4114610313578063a457c2d714610331578063a6f9dae1146103615761012c565b80632ae122bf116100f45780632ae122bf146101fd578063313ce5671461022d578063395093511461024b5780633e0a322d1461027b5780634b8c7daf146102975761012c565b806306fdde0314610131578063095ea7b31461014f57806316b818891461017f57806318160ddd146101af57806323b872dd146101cd575b600080fd5b610139610449565b604051610146919061216b565b60405180910390f35b61016960048036038101906101649190612235565b6104db565b6040516101769190612290565b60405180910390f35b610199600480360381019061019491906122ab565b6104fe565b6040516101a691906122e7565b60405180910390f35b6101b7610515565b6040516101c491906122e7565b60405180910390f35b6101e760048036038101906101e29190612302565b61051f565b6040516101f49190612290565b60405180910390f35b610217600480360381019061021291906122ab565b61054e565b6040516102249190612371565b60405180910390f35b6102356105a7565b6040516102429190612371565b60405180910390f35b61026560048036038101906102609190612235565b6105b0565b6040516102729190612290565b60405180910390f35b6102956004803603810190610290919061238c565b6105e7565b005b6102b160048036038101906102ac91906125f0565b6108d7565b005b6102cd60048036038101906102c891906122ab565b610da9565b6040516102da91906122e7565b60405180910390f35b6102fd60048036038101906102f8919061267b565b610df1565b60405161030a9190612766565b60405180910390f35b61031b610f28565b604051610328919061216b565b60405180910390f35b61034b60048036038101906103469190612235565b610fba565b6040516103589190612290565b60405180910390f35b61037b600480360381019061037691906122ab565b611031565b005b610385611181565b60405161039291906122e7565b60405180910390f35b6103b560048036038101906103b09190612235565b61118b565b6040516103c29190612290565b60405180910390f35b6103e560048036038101906103e09190612788565b6111ae565b6040516103f291906122e7565b60405180910390f35b610415600480360381019061041091906122ab565b611235565b60405161042291906122e7565b60405180910390f35b610433611281565b60405161044091906127d7565b60405180910390f35b60606003805461045890612821565b80601f016020809104026020016040519081016040528092919081815260200182805461048490612821565b80156104d15780601f106104a6576101008083540402835291602001916104d1565b820191906000526020600020905b8154815290600101906020018083116104b457829003601f168201915b5050505050905090565b6000806104e66112ab565b90506104f38185856112b3565b600191505092915050565b60008061050a8361147c565b905080915050919050565b6000600254905090565b60008061052a6112ab565b9050610537858285611563565b6105428585856115ef565b60019150509392505050565b6000600960008373ffffffffffffffffffffffffffffffffffffffff1673ffffffffffffffffffffffffffffffffffffffff16815260200190815260200160002060020160009054906101000a900460ff169050919050565b60006012905090565b6000806105bb6112ab565b90506105dc8185856105cd85896111ae565b6105d79190612881565b6112b3565b600191505092915050565b600560009054906101000a900473ffffffffffffffffffffffffffffffffffffffff1673ffffffffffffffffffffffffffffffffffffffff163373ffffffffffffffffffffffffffffffffffffffff1614610677576040517f08c379a000000000000000000000000000000000000000000000000000000000815260040161066e90612901565b60405180910390fd5b6000600654146106bc576040517f08c379a00000000000000000000000000000000000000000000000000000000081526004016106b39061296d565b60405180910390fd5b428110156106ff576040517f08c379a00000000000000000000000000000000000000000000000000000000081526004016106f6906129d9565b60405180910390fd5b8060068190555060005b60058160ff1610156108d357600061073a602d8360ff1660078110610731576107306129f9565b5b60050201611a49565b909192509091509050508091505060006001836107579190612a28565b905060005b600860008360ff1660ff168152602001908152602001600020805490508160ff1610156108bd576000600860008460ff1660ff16815260200190815260200160002080549050146108aa578260096000600860008660ff1660ff1681526020019081526020016000208460ff16815481106107da576107d96129f9565b5b9060005260206000200160009054906101000a900473ffffffffffffffffffffffffffffffffffffffff1673ffffffffffffffffffffffffffffffffffffffff1673ffffffffffffffffffffffffffffffffffffffff168152602001908152602001600020600801819055506108a9600860008460ff1660ff1681526020019081526020016000208260ff1681548110610877576108766129f9565b5b9060005260206000200160009054906101000a900473ffffffffffffffffffffffffffffffffffffffff166001611bf5565b5b80806108b590612a5d565b91505061075c565b50505080806108cb90612a5d565b915050610709565b5050565b600560009054906101000a900473ffffffffffffffffffffffffffffffffffffffff1673ffffffffffffffffffffffffffffffffffffffff163373ffffffffffffffffffffffffffffffffffffffff1614610967576040517f08c379a000000000000000000000000000000000000000000000000000000000815260040161095e90612901565b60405180910390fd5b60008360ff16036109ad576040517f08c379a00000000000000000000000000000000000000000000000000000000081526004016109a490612ad2565b60405180910390fd5b80518251146109f1576040517f08c379a00000000000000000000000000000000000000000000000000000000081526004016109e890612b3e565b60405180910390fd5b6000600184610a009190612b5e565b9050600080600760008760ff1660ff168152602001908152602001600020905060005b8451811015610a6757848181518110610a3f57610a3e6129f9565b5b602002602001015183610a529190612881565b92508080610a5f90612b93565b915050610a23565b508181600101541015610aaf576040517f08c379a0000000000000000000000000000000000000000000000000000000008152600401610aa690612c27565b60405180910390fd5b818160010154610abf9190612c47565b81600101819055506000806000806000610af2602d8960ff1660078110610ae957610ae86129f9565b5b60050201611a49565b809550819650829750839850849950505050505060005b8a51811015610d6057600860008d60ff1660ff1681526020019081526020016000208b8281518110610b3e57610b3d6129f9565b5b60200260200101519080600181540180825580915050600190039060005260206000200160009091909190916101000a81548173ffffffffffffffffffffffffffffffffffffffff021916908373ffffffffffffffffffffffffffffffffffffffff1602179055506040518061012001604052808b8381518110610bc557610bc46129f9565b5b602002602001015181526020018b8381518110610be557610be46129f9565b5b602002602001015181526020018d60ff1681526020018481526020018681526020018581526020018381526020016000815260200187815250600960008d8481518110610c3557610c346129f9565b5b602002602001015173ffffffffffffffffffffffffffffffffffffffff1673ffffffffffffffffffffffffffffffffffffffff168152602001908152602001600020600082015181600001556020820151816001015560408201518160020160006101000a81548160ff021916908360ff160217905550606082015181600301556080820151816004015560a0820151816005015560c0820151816006015560e082015181600701556101008201518160080155905050610d4d600560009054906101000a900473ffffffffffffffffffffffffffffffffffffffff168c8381518110610d2557610d246129f9565b5b60200260200101518c8481518110610d4057610d3f6129f9565b5b60200260200101516115ef565b8080610d5890612b93565b915050610b09565b508a60ff167fd3356a0b92566db109e603a7da2c30cb2e62fd20493200be85a409eeb009b36b86604051610d9491906122e7565b60405180910390a25050505050505050505050565b60008060008373ffffffffffffffffffffffffffffffffffffffff1673ffffffffffffffffffffffffffffffffffffffff168152602001908152602001600020549050919050565b6060600560009054906101000a900473ffffffffffffffffffffffffffffffffffffffff1673ffffffffffffffffffffffffffffffffffffffff163373ffffffffffffffffffffffffffffffffffffffff1614610e83576040517f08c379a0000000000000000000000000000000000000000000000000000000008152600401610e7a90612901565b60405180910390fd5b600860008360ff1660ff168152602001908152602001600020805480602002602001604051908101604052809291908181526020018280548015610f1c57602002820191906000526020600020905b8160009054906101000a900473ffffffffffffffffffffffffffffffffffffffff1673ffffffffffffffffffffffffffffffffffffffff1681526020019060010190808311610ed2575b50505050509050919050565b606060048054610f3790612821565b80601f0160208091040260200160405190810160405280929190818152602001828054610f6390612821565b8015610fb05780601f10610f8557610100808354040283529160200191610fb0565b820191906000526020600020905b815481529060010190602001808311610f9357829003601f168201915b5050505050905090565b600080610fc56112ab565b90506000610fd382866111ae565b905083811015611018576040517f08c379a000000000000000000000000000000000000000000000000000000000815260040161100f90612ced565b60405180910390fd5b61102582868684036112b3565b60019250505092915050565b600560009054906101000a900473ffffffffffffffffffffffffffffffffffffffff1673ffffffffffffffffffffffffffffffffffffffff163373ffffffffffffffffffffffffffffffffffffffff16146110c1576040517f08c379a00000000000000000000000000000000000000000000000000000000081526004016110b890612901565b60405180910390fd5b8073ffffffffffffffffffffffffffffffffffffffff16600560009054906101000a900473ffffffffffffffffffffffffffffffffffffffff1673ffffffffffffffffffffffffffffffffffffffff167f9aecf86140d81442289f667eb72e1202a8fbb3478a686659952e145e8531965660405160405180910390a380600560006101000a81548173ffffffffffffffffffffffffffffffffffffffff021916908373ffffffffffffffffffffffffffffffffffffffff16021790555050565b6000600654905090565b6000806111966112ab565b90506111a38185856115ef565b600191505092915050565b6000600160008473ffffffffffffffffffffffffffffffffffffffff1673ffffffffffffffffffffffffffffffffffffffff16815260200190815260200160002060008373ffffffffffffffffffffffffffffffffffffffff1673ffffffffffffffffffffffffffffffffffffffff16815260200190815260200160002054905092915050565b6000600960008373ffffffffffffffffffffffffffffffffffffffff1673ffffffffffffffffffffffffffffffffffffffff168152602001908152602001600020600001549050919050565b6000600560009054906101000a900473ffffffffffffffffffffffffffffffffffffffff16905090565b600033905090565b600073ffffffffffffffffffffffffffffffffffffffff168373ffffffffffffffffffffffffffffffffffffffff1603611322576040517f08c379a000000000000000000000000000000000000000000000000000000000815260040161131990612d7f565b60405180910390fd5b600073ffffffffffffffffffffffffffffffffffffffff168273ffffffffffffffffffffffffffffffffffffffff1603611391576040517f08c379a000000000000000000000000000000000000000000000000000000000815260040161138890612e11565b60405180910390fd5b80600160008573ffffffffffffffffffffffffffffffffffffffff1673ffffffffffffffffffffffffffffffffffffffff16815260200190815260200160002060008473ffffffffffffffffffffffffffffffffffffffff1673ffffffffffffffffffffffffffffffffffffffff168152602001908152602001600020819055508173ffffffffffffffffffffffffffffffffffffffff168373ffffffffffffffffffffffffffffffffffffffff167f8c5be1e5ebec7d5bd14f71427d1e84f3dd0314c0f7b2291e5b200ac8c7c3b9258360405161146f91906122e7565b60405180910390a3505050565b600080600960008473ffffffffffffffffffffffffffffffffffffffff1673ffffffffffffffffffffffffffffffffffffffff168152602001908152602001600020905060008160020160009054906101000a900460ff16905060008160ff1614806114ec575060008260010154145b156114fc5760009250505061155e565b600042905060008360000154905060068360ff1614158015611522575060078360ff1614155b801561153c57506000600654148061153b575060065482105b5b1561154d578094505050505061155e565b6115578483611de8565b9450505050505b919050565b600061156f84846111ae565b90507fffffffffffffffffffffffffffffffffffffffffffffffffffffffffffffffff81146115e957818110156115db576040517f08c379a00000000000000000000000000000000000000000000000000000000081526004016115d290612e7d565b60405180910390fd5b6115e884848484036112b3565b5b50505050565b600073ffffffffffffffffffffffffffffffffffffffff168373ffffffffffffffffffffffffffffffffffffffff160361165e576040517f08c379a000000000000000000000000000000000000000000000000000000000815260040161165590612f0f565b60405180910390fd5b600073ffffffffffffffffffffffffffffffffffffffff168273ffffffffffffffffffffffffffffffffffffffff16036116cd576040517f08c379a00000000000000000000000000000000000000000000000000000000081526004016116c490612fa1565b60405180910390fd5b600560009054906101000a900473ffffffffffffffffffffffffffffffffffffffff1673ffffffffffffffffffffffffffffffffffffffff168373ffffffffffffffffffffffffffffffffffffffff1603611807576000600960008473ffffffffffffffffffffffffffffffffffffffff1673ffffffffffffffffffffffffffffffffffffffff16815260200190815260200160002060020160009054906101000a900460ff1660ff16141580156117c757506000600960008473ffffffffffffffffffffffffffffffffffffffff1673ffffffffffffffffffffffffffffffffffffffff16815260200190815260200160002060070154145b611806576040517f08c379a00000000000000000000000000000000000000000000000000000000081526004016117fd9061300d565b60405180910390fd5b5b611812836000611bf5565b60008060008573ffffffffffffffffffffffffffffffffffffffff1673ffffffffffffffffffffffffffffffffffffffff1681526020019081526020016000205490506000600960008673ffffffffffffffffffffffffffffffffffffffff1673ffffffffffffffffffffffffffffffffffffffff1681526020019081526020016000206001015490508281836118a99190612c47565b10156118ea576040517f08c379a00000000000000000000000000000000000000000000000000000000081526004016118e190613079565b60405180910390fd5b6118f5858585612063565b82821015611938576040517f08c379a000000000000000000000000000000000000000000000000000000000815260040161192f9061310b565b60405180910390fd5b8282036000808773ffffffffffffffffffffffffffffffffffffffff1673ffffffffffffffffffffffffffffffffffffffff16815260200190815260200160002081905550826000808673ffffffffffffffffffffffffffffffffffffffff1673ffffffffffffffffffffffffffffffffffffffff16815260200190815260200160002060008282546119cb9190612881565b925050819055508373ffffffffffffffffffffffffffffffffffffffff168573ffffffffffffffffffffffffffffffffffffffff167fddf252ad1be2c89b69c2b068fc378daa952ba7f163c4a11628f55a4df523b3ef85604051611a2f91906122e7565b60405180910390a3611a42858585612068565b5050505050565b60008060008060008086600160058110611a6657611a656129f9565b5b015490506000611ab47f000000000000000000000000000000000000000000000000000000000000000089600260058110611aa457611aa36129f9565b5b015461206d90919063ffffffff16565b90506000611b007f00000000000000000000000000000000000000000000000000000000000000008a600360058110611af057611aef6129f9565b5b015461206d90919063ffffffff16565b9050600089600460058110611b1857611b176129f9565b5b0154905060008103611b3e57600654838386849850985098509850985050505050611bec565b60006103e890506000611b5a868361208390919063ffffffff16565b90506000611b9584611b87611b78878661209990919063ffffffff16565b8561208390919063ffffffff16565b6120af90919063ffffffff16565b90506000611bd2611baf878461206d90919063ffffffff16565b611bc4896006546120c590919063ffffffff16565b6120c590919063ffffffff16565b90508087878a889c509c509c509c509c5050505050505050505b91939590929450565b6000600960008473ffffffffffffffffffffffffffffffffffffffff1673ffffffffffffffffffffffffffffffffffffffff168152602001908152602001600020905060008160020160009054906101000a900460ff16905060008160ff161480611ca257506000600960008673ffffffffffffffffffffffffffffffffffffffff1673ffffffffffffffffffffffffffffffffffffffff16815260200190815260200160002060010154145b15611cae575050611de4565b600042905060068260ff1614158015611ccb575060078260ff1614155b8015611cdb575060008260ff1614155b15611d7857600060065403611d25576040517f08c379a0000000000000000000000000000000000000000000000000000000008152600401611d1c90613177565b60405180910390fd5b8315611d77576006548110611d6f576040517f08c379a0000000000000000000000000000000000000000000000000000000008152600401611d66906131e3565b60405180910390fd5b505050611de4565b5b6000836001015403611dbf576040517f08c379a0000000000000000000000000000000000000000000000000000000008152600401611db69061324f565b60405180910390fd5b6000611dcb8483611de8565b9050808460010181905550818460070181905550505050505b5050565b600080600080856007015403611f7a5783611e1260065487600401546120c590919063ffffffff16565b1115611e6657611e5d611e4a6103e8611e3c8860030154896000015461206d90919063ffffffff16565b6120af90919063ffffffff16565b866001015461208390919063ffffffff16565b9250505061205d565b8460080154841115611e7d5760009250505061205d565b611e9685600401546006546120c590919063ffffffff16565b9150611eab828561208390919063ffffffff16565b90506000611f016001611ef38860050154611ee5611ed68b600501548861209990919063ffffffff16565b8761208390919063ffffffff16565b6120af90919063ffffffff16565b6120c590919063ffffffff16565b9050611f70611f5d6103e8611f4f611f3c611f298b600601548761206d90919063ffffffff16565b8b600301546120c590919063ffffffff16565b8a6000015461206d90919063ffffffff16565b6120af90919063ffffffff16565b876001015461208390919063ffffffff16565b935050505061205d565b8460080154841115611f915760009250505061205d565b611fa885600701548561208390919063ffffffff16565b90506000611ffe6001611ff08860050154611fe2611fd38b600501548861209990919063ffffffff16565b8761208390919063ffffffff16565b6120af90919063ffffffff16565b6120c590919063ffffffff16565b90506120576120446120356103e86120278a600601548b6000015461206d90919063ffffffff16565b6120af90919063ffffffff16565b8361206d90919063ffffffff16565b876001015461208390919063ffffffff16565b93505050505b92915050565b505050565b505050565b6000818361207b919061326f565b905092915050565b600081836120919190612c47565b905092915050565b600081836120a791906132e0565b905092915050565b600081836120bd9190613311565b905092915050565b600081836120d39190612881565b905092915050565b600081519050919050565b600082825260208201905092915050565b60005b838110156121155780820151818401526020810190506120fa565b60008484015250505050565b6000601f19601f8301169050919050565b600061213d826120db565b61214781856120e6565b93506121578185602086016120f7565b61216081612121565b840191505092915050565b600060208201905081810360008301526121858184612132565b905092915050565b6000604051905090565b600080fd5b600080fd5b600073ffffffffffffffffffffffffffffffffffffffff82169050919050565b60006121cc826121a1565b9050919050565b6121dc816121c1565b81146121e757600080fd5b50565b6000813590506121f9816121d3565b92915050565b6000819050919050565b612212816121ff565b811461221d57600080fd5b50565b60008135905061222f81612209565b92915050565b6000806040838503121561224c5761224b612197565b5b600061225a858286016121ea565b925050602061226b85828601612220565b9150509250929050565b60008115159050919050565b61228a81612275565b82525050565b60006020820190506122a56000830184612281565b92915050565b6000602082840312156122c1576122c0612197565b5b60006122cf848285016121ea565b91505092915050565b6122e1816121ff565b82525050565b60006020820190506122fc60008301846122d8565b92915050565b60008060006060848603121561231b5761231a612197565b5b6000612329868287016121ea565b935050602061233a868287016121ea565b925050604061234b86828701612220565b9150509250925092565b600060ff82169050919050565b61236b81612355565b82525050565b60006020820190506123866000830184612362565b92915050565b6000602082840312156123a2576123a1612197565b5b60006123b084828501612220565b91505092915050565b6123c281612355565b81146123cd57600080fd5b50565b6000813590506123df816123b9565b92915050565b600080fd5b7f4e487b7100000000000000000000000000000000000000000000000000000000600052604160045260246000fd5b61242282612121565b810181811067ffffffffffffffff82111715612441576124406123ea565b5b80604052505050565b600061245461218d565b90506124608282612419565b919050565b600067ffffffffffffffff8211156124805761247f6123ea565b5b602082029050602081019050919050565b600080fd5b60006124a96124a484612465565b61244a565b905080838252602082019050602084028301858111156124cc576124cb612491565b5b835b818110156124f557806124e188826121ea565b8452602084019350506020810190506124ce565b5050509392505050565b600082601f830112612514576125136123e5565b5b8135612524848260208601612496565b91505092915050565b600067ffffffffffffffff821115612548576125476123ea565b5b602082029050602081019050919050565b600061256c6125678461252d565b61244a565b9050808382526020820190506020840283018581111561258f5761258e612491565b5b835b818110156125b857806125a48882612220565b845260208401935050602081019050612591565b5050509392505050565b600082601f8301126125d7576125d66123e5565b5b81356125e7848260208601612559565b91505092915050565b60008060006060848603121561260957612608612197565b5b6000612617868287016123d0565b935050602084013567ffffffffffffffff8111156126385761263761219c565b5b612644868287016124ff565b925050604084013567ffffffffffffffff8111156126655761266461219c565b5b612671868287016125c2565b9150509250925092565b60006020828403121561269157612690612197565b5b600061269f848285016123d0565b91505092915050565b600081519050919050565b600082825260208201905092915050565b6000819050602082019050919050565b6126dd816121c1565b82525050565b60006126ef83836126d4565b60208301905092915050565b6000602082019050919050565b6000612713826126a8565b61271d81856126b3565b9350612728836126c4565b8060005b8381101561275957815161274088826126e3565b975061274b836126fb565b92505060018101905061272c565b5085935050505092915050565b600060208201905081810360008301526127808184612708565b905092915050565b6000806040838503121561279f5761279e612197565b5b60006127ad858286016121ea565b92505060206127be858286016121ea565b9150509250929050565b6127d1816121c1565b82525050565b60006020820190506127ec60008301846127c8565b92915050565b7f4e487b7100000000000000000000000000000000000000000000000000000000600052602260045260246000fd5b6000600282049050600182168061283957607f821691505b60208210810361284c5761284b6127f2565b5b50919050565b7f4e487b7100000000000000000000000000000000000000000000000000000000600052601160045260246000fd5b600061288c826121ff565b9150612897836121ff565b92508282019050808211156128af576128ae612852565b5b92915050565b7f6e6f74206f6e7765720000000000000000000000000000000000000000000000600082015250565b60006128eb6009836120e6565b91506128f6826128b5565b602082019050919050565b6000602082019050818103600083015261291a816128de565b9050919050565b7f737461727454696d652065786973740000000000000000000000000000000000600082015250565b6000612957600f836120e6565b915061296282612921565b602082019050919050565b600060208201905081810360008301526129868161294a565b9050919050565b7f74696d65206572726f7200000000000000000000000000000000000000000000600082015250565b60006129c3600a836120e6565b91506129ce8261298d565b602082019050919050565b600060208201905081810360008301526129f2816129b6565b9050919050565b7f4e487b7100000000000000000000000000000000000000000000000000000000600052603260045260246000fd5b6000612a3382612355565b9150612a3e83612355565b9250828201905060ff811115612a5757612a56612852565b5b92915050565b6000612a6882612355565b915060ff8203612a7b57612a7a612852565b5b600182019050919050565b7f6f72676964206973207a65726f00000000000000000000000000000000000000600082015250565b6000612abc600d836120e6565b9150612ac782612a86565b602082019050919050565b60006020820190508181036000830152612aeb81612aaf565b9050919050565b7f6c656e677468206572726f720000000000000000000000000000000000000000600082015250565b6000612b28600c836120e6565b9150612b3382612af2565b602082019050919050565b60006020820190508181036000830152612b5781612b1b565b9050919050565b6000612b6982612355565b9150612b7483612355565b9250828203905060ff811115612b8d57612b8c612852565b5b92915050565b6000612b9e826121ff565b91507fffffffffffffffffffffffffffffffffffffffffffffffffffffffffffffffff8203612bd057612bcf612852565b5b600182019050919050565b7f746f74616c206572726f72000000000000000000000000000000000000000000600082015250565b6000612c11600b836120e6565b9150612c1c82612bdb565b602082019050919050565b60006020820190508181036000830152612c4081612c04565b9050919050565b6000612c52826121ff565b9150612c5d836121ff565b9250828203905081811115612c7557612c74612852565b5b92915050565b7f45524332303a2064656372656173656420616c6c6f77616e63652062656c6f7760008201527f207a65726f000000000000000000000000000000000000000000000000000000602082015250565b6000612cd76025836120e6565b9150612ce282612c7b565b604082019050919050565b60006020820190508181036000830152612d0681612cca565b9050919050565b7f45524332303a20617070726f76652066726f6d20746865207a65726f2061646460008201527f7265737300000000000000000000000000000000000000000000000000000000602082015250565b6000612d696024836120e6565b9150612d7482612d0d565b604082019050919050565b60006020820190508181036000830152612d9881612d5c565b9050919050565b7f45524332303a20617070726f766520746f20746865207a65726f20616464726560008201527f7373000000000000000000000000000000000000000000000000000000000000602082015250565b6000612dfb6022836120e6565b9150612e0682612d9f565b604082019050919050565b60006020820190508181036000830152612e2a81612dee565b9050919050565b7f45524332303a20696e73756666696369656e7420616c6c6f77616e6365000000600082015250565b6000612e67601d836120e6565b9150612e7282612e31565b602082019050919050565b60006020820190508181036000830152612e9681612e5a565b9050919050565b7f45524332303a207472616e736665722066726f6d20746865207a65726f20616460008201527f6472657373000000000000000000000000000000000000000000000000000000602082015250565b6000612ef96025836120e6565b9150612f0482612e9d565b604082019050919050565b60006020820190508181036000830152612f2881612eec565b9050919050565b7f45524332303a207472616e7366657220746f20746865207a65726f206164647260008201527f6573730000000000000000000000000000000000000000000000000000000000602082015250565b6000612f8b6023836120e6565b9150612f9682612f2f565b604082019050919050565b60006020820190508181036000830152612fba81612f7e565b9050919050565b7f63616e206e6f7420747800000000000000000000000000000000000000000000600082015250565b6000612ff7600a836120e6565b915061300282612fc1565b602082019050919050565b6000602082019050818103600083015261302681612fea565b9050919050565b7f6e6f7420656e6f75676800000000000000000000000000000000000000000000600082015250565b6000613063600a836120e6565b915061306e8261302d565b602082019050919050565b6000602082019050818103600083015261309281613056565b9050919050565b7f45524332303a207472616e7366657220616d6f756e742065786365656473206260008201527f616c616e63650000000000000000000000000000000000000000000000000000602082015250565b60006130f56026836120e6565b915061310082613099565b604082019050919050565b60006020820190508181036000830152613124816130e8565b9050919050565b7f6e6f2073746172742074696d6500000000000000000000000000000000000000600082015250565b6000613161600d836120e6565b915061316c8261312b565b602082019050919050565b6000602082019050818103600083015261319081613154565b9050919050565b7f6e6f7420696e697469616c2074696d6500000000000000000000000000000000600082015250565b60006131cd6010836120e6565b91506131d882613197565b602082019050919050565b600060208201905081810360008301526131fc816131c0565b9050919050565b7f616c6c2072656c65617365640000000000000000000000000000000000000000600082015250565b6000613239600c836120e6565b915061324482613203565b602082019050919050565b600060208201905081810360008301526132688161322c565b9050919050565b600061327a826121ff565b9150613285836121ff565b9250828202613293816121ff565b915082820484148315176132aa576132a9612852565b5b5092915050565b7f4e487b7100000000000000000000000000000000000000000000000000000000600052601260045260246000fd5b60006132eb826121ff565b91506132f6836121ff565b925082613306576133056132b1565b5b828206905092915050565b600061331c826121ff565b9150613327836121ff565b925082613337576133366132b1565b5b82820490509291505056fea2646970667358221220a6061bf3a4ced8e48faf8f1a900346a79b4dfd8a80d3f801ded05e8830f5d61c64736f6c63430008120033",
					"opcodes": "PUSH1 0xA0 PUSH1 0x40 MSTORE PUSH3 0x15180 PUSH1 0x80 SWAP1 DUP2 MSTORE POP PUSH1 0x40 MLOAD DUP1 PUSH1 0xA0 ADD PUSH1 0x40 MSTORE DUP1 PUSH11 0xA56FA5B99019A5C8000000 PUSH11 0xFFFFFFFFFFFFFFFFFFFFFF AND DUP2 MSTORE PUSH1 0x20 ADD PUSH1 0x0 PUSH11 0xFFFFFFFFFFFFFFFFFFFFFF AND DUP2 MSTORE PUSH1 0x20 ADD PUSH1 0x1E PUSH11 0xFFFFFFFFFFFFFFFFFFFFFF AND DUP2 MSTORE PUSH1 0x20 ADD PUSH1 0x1E PUSH11 0xFFFFFFFFFFFFFFFFFFFFFF AND DUP2 MSTORE PUSH1 0x20 ADD PUSH1 0x64 PUSH11 0xFFFFFFFFFFFFFFFFFFFFFF AND DUP2 MSTORE POP PUSH1 0xA SWAP1 PUSH1 0x5 PUSH3 0x97 SWAP3 SWAP2 SWAP1 PUSH3 0x75E JUMP JUMPDEST POP PUSH1 0x40 MLOAD DUP1 PUSH1 0xA0 ADD PUSH1 0x40 MSTORE DUP1 PUSH11 0x7C13BC4B2C133C56000000 PUSH11 0xFFFFFFFFFFFFFFFFFFFFFF AND DUP2 MSTORE PUSH1 0x20 ADD PUSH1 0x64 PUSH11 0xFFFFFFFFFFFFFFFFFFFFFF AND DUP2 MSTORE PUSH1 0x20 ADD PUSH1 0xB4 PUSH11 0xFFFFFFFFFFFFFFFFFFFFFF AND DUP2 MSTORE PUSH1 0x20 ADD PUSH1 0x5A PUSH11 0xFFFFFFFFFFFFFFFFFFFFFF AND DUP2 MSTORE PUSH1 0x20 ADD PUSH1 0xFA PUSH11 0xFFFFFFFFFFFFFFFFFFFFFF AND DUP2 MSTORE POP PUSH1 0xF SWAP1 PUSH1 0x5 PUSH3 0x121 SWAP3 SWAP2 SWAP1 PUSH3 0x75E JUMP JUMPDEST POP PUSH1 0x40 MLOAD DUP1 PUSH1 0xA0 ADD PUSH1 0x40 MSTORE DUP1 PUSH11 0x52B7D2DCC80CD2E4000000 PUSH11 0xFFFFFFFFFFFFFFFFFFFFFF AND DUP2 MSTORE PUSH1 0x20 ADD PUSH1 0x0 PUSH11 0xFFFFFFFFFFFFFFFFFFFFFF AND DUP2 MSTORE PUSH1 0x20 ADD PUSH1 0x0 PUSH11 0xFFFFFFFFFFFFFFFFFFFFFF AND DUP2 MSTORE PUSH1 0x20 ADD PUSH1 0x5A PUSH11 0xFFFFFFFFFFFFFFFFFFFFFF AND DUP2 MSTORE PUSH1 0x20 ADD PUSH1 0xFA PUSH11 0xFFFFFFFFFFFFFFFFFFFFFF AND DUP2 MSTORE POP PUSH1 0x14 SWAP1 PUSH1 0x5 PUSH3 0x1AB SWAP3 SWAP2 SWAP1 PUSH3 0x75E JUMP JUMPDEST POP PUSH1 0x40 MLOAD DUP1 PUSH1 0xA0 ADD PUSH1 0x40 MSTORE DUP1 PUSH11 0x52B7D2DCC80CD2E4000000 PUSH11 0xFFFFFFFFFFFFFFFFFFFFFF AND DUP2 MSTORE PUSH1 0x20 ADD PUSH1 0x0 PUSH11 0xFFFFFFFFFFFFFFFFFFFFFF AND DUP2 MSTORE PUSH1 0x20 ADD PUSH2 0x168 PUSH11 0xFFFFFFFFFFFFFFFFFFFFFF AND DUP2 MSTORE PUSH1 0x20 ADD PUSH1 0x5A PUSH11 0xFFFFFFFFFFFFFFFFFFFFFF AND DUP2 MSTORE PUSH1 0x20 ADD PUSH1 0x7D PUSH11 0xFFFFFFFFFFFFFFFFFFFFFF AND DUP2 MSTORE POP PUSH1 0x19 SWAP1 PUSH1 0x5 PUSH3 0x236 SWAP3 SWAP2 SWAP1 PUSH3 0x75E JUMP JUMPDEST POP PUSH1 0x40 MLOAD DUP1 PUSH1 0xA0 ADD PUSH1 0x40 MSTORE DUP1 PUSH11 0x295BE96E64066972000000 PUSH11 0xFFFFFFFFFFFFFFFFFFFFFF AND DUP2 MSTORE PUSH1 0x20 ADD PUSH1 0x0 PUSH11 0xFFFFFFFFFFFFFFFFFFFFFF AND DUP2 MSTORE PUSH1 0x20 ADD PUSH2 0x168 PUSH11 0xFFFFFFFFFFFFFFFFFFFFFF AND DUP2 MSTORE PUSH1 0x20 ADD PUSH1 0x5A PUSH11 0xFFFFFFFFFFFFFFFFFFFFFF AND DUP2 MSTORE PUSH1 0x20 ADD PUSH1 0x7D PUSH11 0xFFFFFFFFFFFFFFFFFFFFFF AND DUP2 MSTORE POP PUSH1 0x1E SWAP1 PUSH1 0x5 PUSH3 0x2C1 SWAP3 SWAP2 SWAP1 PUSH3 0x75E JUMP JUMPDEST POP PUSH1 0x40 MLOAD DUP1 PUSH1 0xA0 ADD PUSH1 0x40 MSTORE DUP1 PUSH11 0xA56FA5B99019A5C8000000 PUSH11 0xFFFFFFFFFFFFFFFFFFFFFF AND DUP2 MSTORE PUSH1 0x20 ADD PUSH2 0x3E8 PUSH11 0xFFFFFFFFFFFFFFFFFFFFFF AND DUP2 MSTORE PUSH1 0x20 ADD PUSH1 0x0 PUSH11 0xFFFFFFFFFFFFFFFFFFFFFF AND DUP2 MSTORE PUSH1 0x20 ADD PUSH1 0x0 PUSH11 0xFFFFFFFFFFFFFFFFFFFFFF AND DUP2 MSTORE PUSH1 0x20 ADD PUSH1 0x0 PUSH11 0xFFFFFFFFFFFFFFFFFFFFFF AND DUP2 MSTORE POP PUSH1 0x23 SWAP1 PUSH1 0x5 PUSH3 0x34C SWAP3 SWAP2 SWAP1 PUSH3 0x75E JUMP JUMPDEST POP PUSH1 0x40 MLOAD DUP1 PUSH1 0xA0 ADD PUSH1 0x40 MSTORE DUP1 PUSH11 0xA56FA5B99019A5C8000000 PUSH11 0xFFFFFFFFFFFFFFFFFFFFFF AND DUP2 MSTORE PUSH1 0x20 ADD PUSH2 0x3E8 PUSH11 0xFFFFFFFFFFFFFFFFFFFFFF AND DUP2 MSTORE PUSH1 0x20 ADD PUSH1 0x0 PUSH11 0xFFFFFFFFFFFFFFFFFFFFFF AND DUP2 MSTORE PUSH1 0x20 ADD PUSH1 0x0 PUSH11 0xFFFFFFFFFFFFFFFFFFFFFF AND DUP2 MSTORE PUSH1 0x20 ADD PUSH1 0x0 PUSH11 0xFFFFFFFFFFFFFFFFFFFFFF AND DUP2 MSTORE POP PUSH1 0x28 SWAP1 PUSH1 0x5 PUSH3 0x3D7 SWAP3 SWAP2 SWAP1 PUSH3 0x75E JUMP JUMPDEST POP PUSH1 0x40 MLOAD DUP1 PUSH1 0xE0 ADD PUSH1 0x40 MSTORE DUP1 PUSH1 0xA PUSH1 0x5 DUP1 PUSH1 0x20 MUL PUSH1 0x40 MLOAD SWAP1 DUP2 ADD PUSH1 0x40 MSTORE DUP1 SWAP3 SWAP2 SWAP1 DUP3 PUSH1 0x5 DUP1 ISZERO PUSH3 0x41E JUMPI PUSH1 0x20 MUL DUP3 ADD SWAP2 JUMPDEST DUP2 SLOAD DUP2 MSTORE PUSH1 0x20 ADD SWAP1 PUSH1 0x1 ADD SWAP1 DUP1 DUP4 GT PUSH3 0x409 JUMPI JUMPDEST POP POP POP POP POP DUP2 MSTORE PUSH1 0x20 ADD PUSH1 0xF PUSH1 0x5 DUP1 PUSH1 0x20 MUL PUSH1 0x40 MLOAD SWAP1 DUP2 ADD PUSH1 0x40 MSTORE DUP1 SWAP3 SWAP2 SWAP1 DUP3 PUSH1 0x5 DUP1 ISZERO PUSH3 0x463 JUMPI PUSH1 0x20 MUL DUP3 ADD SWAP2 JUMPDEST DUP2 SLOAD DUP2 MSTORE PUSH1 0x20 ADD SWAP1 PUSH1 0x1 ADD SWAP1 DUP1 DUP4 GT PUSH3 0x44E JUMPI JUMPDEST POP POP POP POP POP DUP2 MSTORE PUSH1 0x20 ADD PUSH1 0x14 PUSH1 0x5 DUP1 PUSH1 0x20 MUL PUSH1 0x40 MLOAD SWAP1 DUP2 ADD PUSH1 0x40 MSTORE DUP1 SWAP3 SWAP2 SWAP1 DUP3 PUSH1 0x5 DUP1 ISZERO PUSH3 0x4A8 JUMPI PUSH1 0x20 MUL DUP3 ADD SWAP2 JUMPDEST DUP2 SLOAD DUP2 MSTORE PUSH1 0x20 ADD SWAP1 PUSH1 0x1 ADD SWAP1 DUP1 DUP4 GT PUSH3 0x493 JUMPI JUMPDEST POP POP POP POP POP DUP2 MSTORE PUSH1 0x20 ADD PUSH1 0x19 PUSH1 0x5 DUP1 PUSH1 0x20 MUL PUSH1 0x40 MLOAD SWAP1 DUP2 ADD PUSH1 0x40 MSTORE DUP1 SWAP3 SWAP2 SWAP1 DUP3 PUSH1 0x5 DUP1 ISZERO PUSH3 0x4ED JUMPI PUSH1 0x20 MUL DUP3 ADD SWAP2 JUMPDEST DUP2 SLOAD DUP2 MSTORE PUSH1 0x20 ADD SWAP1 PUSH1 0x1 ADD SWAP1 DUP1 DUP4 GT PUSH3 0x4D8 JUMPI JUMPDEST POP POP POP POP POP DUP2 MSTORE PUSH1 0x20 ADD PUSH1 0x1E PUSH1 0x5 DUP1 PUSH1 0x20 MUL PUSH1 0x40 MLOAD SWAP1 DUP2 ADD PUSH1 0x40 MSTORE DUP1 SWAP3 SWAP2 SWAP1 DUP3 PUSH1 0x5 DUP1 ISZERO PUSH3 0x532 JUMPI PUSH1 0x20 MUL DUP3 ADD SWAP2 JUMPDEST DUP2 SLOAD DUP2 MSTORE PUSH1 0x20 ADD SWAP1 PUSH1 0x1 ADD SWAP1 DUP1 DUP4 GT PUSH3 0x51D JUMPI JUMPDEST POP POP POP POP POP DUP2 MSTORE PUSH1 0x20 ADD PUSH1 0x23 PUSH1 0x5 DUP1 PUSH1 0x20 MUL PUSH1 0x40 MLOAD SWAP1 DUP2 ADD PUSH1 0x40 MSTORE DUP1 SWAP3 SWAP2 SWAP1 DUP3 PUSH1 0x5 DUP1 ISZERO PUSH3 0x577 JUMPI PUSH1 0x20 MUL DUP3 ADD SWAP2 JUMPDEST DUP2 SLOAD DUP2 MSTORE PUSH1 0x20 ADD SWAP1 PUSH1 0x1 ADD SWAP1 DUP1 DUP4 GT PUSH3 0x562 JUMPI JUMPDEST POP POP POP POP POP DUP2 MSTORE PUSH1 0x20 ADD PUSH1 0x28 PUSH1 0x5 DUP1 PUSH1 0x20 MUL PUSH1 0x40 MLOAD SWAP1 DUP2 ADD PUSH1 0x40 MSTORE DUP1 SWAP3 SWAP2 SWAP1 DUP3 PUSH1 0x5 DUP1 ISZERO PUSH3 0x5BC JUMPI PUSH1 0x20 MUL DUP3 ADD SWAP2 JUMPDEST DUP2 SLOAD DUP2 MSTORE PUSH1 0x20 ADD SWAP1 PUSH1 0x1 ADD SWAP1 DUP1 DUP4 GT PUSH3 0x5A7 JUMPI JUMPDEST POP POP POP POP POP DUP2 MSTORE POP PUSH1 0x2D SWAP1 PUSH1 0x7 PUSH3 0x5D6 SWAP3 SWAP2 SWAP1 PUSH3 0x7B2 JUMP JUMPDEST POP CALLVALUE DUP1 ISZERO PUSH3 0x5E4 JUMPI PUSH1 0x0 DUP1 REVERT JUMPDEST POP PUSH1 0x40 MLOAD PUSH3 0x4273 CODESIZE SUB DUP1 PUSH3 0x4273 DUP4 CODECOPY DUP2 DUP2 ADD PUSH1 0x40 MSTORE DUP2 ADD SWAP1 PUSH3 0x60A SWAP2 SWAP1 PUSH3 0xA4C JUMP JUMPDEST DUP2 PUSH1 0x3 SWAP1 DUP2 PUSH3 0x61B SWAP2 SWAP1 PUSH3 0xD1C JUMP JUMPDEST POP DUP1 PUSH1 0x4 SWAP1 DUP2 PUSH3 0x62D SWAP2 SWAP1 PUSH3 0xD1C JUMP JUMPDEST POP CALLER PUSH1 0x5 PUSH1 0x0 PUSH2 0x100 EXP DUP2 SLOAD DUP2 PUSH20 0xFFFFFFFFFFFFFFFFFFFFFFFFFFFFFFFFFFFFFFFF MUL NOT AND SWAP1 DUP4 PUSH20 0xFFFFFFFFFFFFFFFFFFFFFFFFFFFFFFFFFFFFFFFF AND MUL OR SWAP1 SSTORE POP PUSH1 0x0 JUMPDEST PUSH1 0x7 DUP2 PUSH1 0xFF AND LT ISZERO PUSH3 0x755 JUMPI PUSH1 0x0 PUSH1 0x1 DUP3 PUSH3 0x690 SWAP2 SWAP1 PUSH3 0xE3F JUMP JUMPDEST SWAP1 POP PUSH1 0x2D DUP3 PUSH1 0xFF AND PUSH1 0x7 DUP2 LT PUSH3 0x6AC JUMPI PUSH3 0x6AB PUSH3 0xE7B JUMP JUMPDEST JUMPDEST PUSH1 0x5 MUL ADD PUSH1 0x0 PUSH1 0x5 DUP2 LT PUSH3 0x6C6 JUMPI PUSH3 0x6C5 PUSH3 0xE7B JUMP JUMPDEST JUMPDEST ADD SLOAD PUSH1 0x7 PUSH1 0x0 DUP4 PUSH1 0xFF AND PUSH1 0xFF AND DUP2 MSTORE PUSH1 0x20 ADD SWAP1 DUP2 MSTORE PUSH1 0x20 ADD PUSH1 0x0 KECCAK256 PUSH1 0x0 ADD DUP2 SWAP1 SSTORE POP PUSH1 0x2D DUP3 PUSH1 0xFF AND PUSH1 0x7 DUP2 LT PUSH3 0x702 JUMPI PUSH3 0x701 PUSH3 0xE7B JUMP JUMPDEST JUMPDEST PUSH1 0x5 MUL ADD PUSH1 0x0 PUSH1 0x5 DUP2 LT PUSH3 0x71C JUMPI PUSH3 0x71B PUSH3 0xE7B JUMP JUMPDEST JUMPDEST ADD SLOAD PUSH1 0x7 PUSH1 0x0 DUP4 PUSH1 0xFF AND PUSH1 0xFF AND DUP2 MSTORE PUSH1 0x20 ADD SWAP1 DUP2 MSTORE PUSH1 0x20 ADD PUSH1 0x0 KECCAK256 PUSH1 0x1 ADD DUP2 SWAP1 SSTORE POP POP DUP1 DUP1 PUSH3 0x74C SWAP1 PUSH3 0xEAA JUMP JUMPDEST SWAP2 POP POP PUSH3 0x672 JUMP JUMPDEST POP POP POP PUSH3 0xED8 JUMP JUMPDEST DUP3 PUSH1 0x5 DUP2 ADD SWAP3 DUP3 ISZERO PUSH3 0x79F JUMPI SWAP2 PUSH1 0x20 MUL DUP3 ADD JUMPDEST DUP3 DUP2 GT ISZERO PUSH3 0x79E JUMPI DUP3 MLOAD DUP3 SWAP1 PUSH11 0xFFFFFFFFFFFFFFFFFFFFFF AND SWAP1 SSTORE SWAP2 PUSH1 0x20 ADD SWAP2 SWAP1 PUSH1 0x1 ADD SWAP1 PUSH3 0x772 JUMP JUMPDEST JUMPDEST POP SWAP1 POP PUSH3 0x7AE SWAP2 SWAP1 PUSH3 0x80A JUMP JUMPDEST POP SWAP1 JUMP JUMPDEST DUP3 PUSH1 0x7 PUSH1 0x5 MUL DUP2 ADD SWAP3 DUP3 ISZERO PUSH3 0x7F7 JUMPI SWAP2 PUSH1 0x20 MUL DUP3 ADD JUMPDEST DUP3 DUP2 GT ISZERO PUSH3 0x7F6 JUMPI DUP3 MLOAD DUP3 SWAP1 PUSH1 0x5 PUSH3 0x7E5 SWAP3 SWAP2 SWAP1 PUSH3 0x829 JUMP JUMPDEST POP SWAP2 PUSH1 0x20 ADD SWAP2 SWAP1 PUSH1 0x5 ADD SWAP1 PUSH3 0x7C9 JUMP JUMPDEST JUMPDEST POP SWAP1 POP PUSH3 0x806 SWAP2 SWAP1 PUSH3 0x86E JUMP JUMPDEST POP SWAP1 JUMP JUMPDEST JUMPDEST DUP1 DUP3 GT ISZERO PUSH3 0x825 JUMPI PUSH1 0x0 DUP2 PUSH1 0x0 SWAP1 SSTORE POP PUSH1 0x1 ADD PUSH3 0x80B JUMP JUMPDEST POP SWAP1 JUMP JUMPDEST DUP3 PUSH1 0x5 DUP2 ADD SWAP3 DUP3 ISZERO PUSH3 0x85B JUMPI SWAP2 PUSH1 0x20 MUL DUP3 ADD JUMPDEST DUP3 DUP2 GT ISZERO PUSH3 0x85A JUMPI DUP3 MLOAD DUP3 SSTORE SWAP2 PUSH1 0x20 ADD SWAP2 SWAP1 PUSH1 0x1 ADD SWAP1 PUSH3 0x83D JUMP JUMPDEST JUMPDEST POP SWAP1 POP PUSH3 0x86A SWAP2 SWAP1 PUSH3 0x80A JUMP JUMPDEST POP SWAP1 JUMP JUMPDEST JUMPDEST DUP1 DUP3 GT ISZERO PUSH3 0x892 JUMPI PUSH1 0x0 DUP2 DUP2 PUSH3 0x888 SWAP2 SWAP1 PUSH3 0x896 JUMP JUMPDEST POP PUSH1 0x5 ADD PUSH3 0x86F JUMP JUMPDEST POP SWAP1 JUMP JUMPDEST POP PUSH1 0x0 DUP2 SSTORE PUSH1 0x1 ADD PUSH1 0x0 DUP2 SSTORE PUSH1 0x1 ADD PUSH1 0x0 DUP2 SSTORE PUSH1 0x1 ADD PUSH1 0x0 DUP2 SSTORE PUSH1 0x1 ADD PUSH1 0x0 SWAP1 SSTORE JUMP JUMPDEST PUSH1 0x0 PUSH1 0x40 MLOAD SWAP1 POP SWAP1 JUMP JUMPDEST PUSH1 0x0 DUP1 REVERT JUMPDEST PUSH1 0x0 DUP1 REVERT JUMPDEST PUSH1 0x0 DUP1 REVERT JUMPDEST PUSH1 0x0 DUP1 REVERT JUMPDEST PUSH1 0x0 PUSH1 0x1F NOT PUSH1 0x1F DUP4 ADD AND SWAP1 POP SWAP2 SWAP1 POP JUMP JUMPDEST PUSH32 0x4E487B7100000000000000000000000000000000000000000000000000000000 PUSH1 0x0 MSTORE PUSH1 0x41 PUSH1 0x4 MSTORE PUSH1 0x24 PUSH1 0x0 REVERT JUMPDEST PUSH3 0x922 DUP3 PUSH3 0x8D7 JUMP JUMPDEST DUP2 ADD DUP2 DUP2 LT PUSH8 0xFFFFFFFFFFFFFFFF DUP3 GT OR ISZERO PUSH3 0x944 JUMPI PUSH3 0x943 PUSH3 0x8E8 JUMP JUMPDEST JUMPDEST DUP1 PUSH1 0x40 MSTORE POP POP POP JUMP JUMPDEST PUSH1 0x0 PUSH3 0x959 PUSH3 0x8B9 JUMP JUMPDEST SWAP1 POP PUSH3 0x967 DUP3 DUP3 PUSH3 0x917 JUMP JUMPDEST SWAP2 SWAP1 POP JUMP JUMPDEST PUSH1 0x0 PUSH8 0xFFFFFFFFFFFFFFFF DUP3 GT ISZERO PUSH3 0x98A JUMPI PUSH3 0x989 PUSH3 0x8E8 JUMP JUMPDEST JUMPDEST PUSH3 0x995 DUP3 PUSH3 0x8D7 JUMP JUMPDEST SWAP1 POP PUSH1 0x20 DUP2 ADD SWAP1 POP SWAP2 SWAP1 POP JUMP JUMPDEST PUSH1 0x0 JUMPDEST DUP4 DUP2 LT ISZERO PUSH3 0x9C2 JUMPI DUP1 DUP3 ADD MLOAD DUP2 DUP5 ADD MSTORE PUSH1 0x20 DUP2 ADD SWAP1 POP PUSH3 0x9A5 JUMP JUMPDEST PUSH1 0x0 DUP5 DUP5 ADD MSTORE POP POP POP POP JUMP JUMPDEST PUSH1 0x0 PUSH3 0x9E5 PUSH3 0x9DF DUP5 PUSH3 0x96C JUMP JUMPDEST PUSH3 0x94D JUMP JUMPDEST SWAP1 POP DUP3 DUP2 MSTORE PUSH1 0x20 DUP2 ADD DUP5 DUP5 DUP5 ADD GT ISZERO PUSH3 0xA04 JUMPI PUSH3 0xA03 PUSH3 0x8D2 JUMP JUMPDEST JUMPDEST PUSH3 0xA11 DUP5 DUP3 DUP6 PUSH3 0x9A2 JUMP JUMPDEST POP SWAP4 SWAP3 POP POP POP JUMP JUMPDEST PUSH1 0x0 DUP3 PUSH1 0x1F DUP4 ADD SLT PUSH3 0xA31 JUMPI PUSH3 0xA30 PUSH3 0x8CD JUMP JUMPDEST JUMPDEST DUP2 MLOAD PUSH3 0xA43 DUP5 DUP3 PUSH1 0x20 DUP7 ADD PUSH3 0x9CE JUMP JUMPDEST SWAP2 POP POP SWAP3 SWAP2 POP POP JUMP JUMPDEST PUSH1 0x0 DUP1 PUSH1 0x40 DUP4 DUP6 SUB SLT ISZERO PUSH3 0xA66 JUMPI PUSH3 0xA65 PUSH3 0x8C3 JUMP JUMPDEST JUMPDEST PUSH1 0x0 DUP4 ADD MLOAD PUSH8 0xFFFFFFFFFFFFFFFF DUP2 GT ISZERO PUSH3 0xA87 JUMPI PUSH3 0xA86 PUSH3 0x8C8 JUMP JUMPDEST JUMPDEST PUSH3 0xA95 DUP6 DUP3 DUP7 ADD PUSH3 0xA19 JUMP JUMPDEST SWAP3 POP POP PUSH1 0x20 DUP4 ADD MLOAD PUSH8 0xFFFFFFFFFFFFFFFF DUP2 GT ISZERO PUSH3 0xAB9 JUMPI PUSH3 0xAB8 PUSH3 0x8C8 JUMP JUMPDEST JUMPDEST PUSH3 0xAC7 DUP6 DUP3 DUP7 ADD PUSH3 0xA19 JUMP JUMPDEST SWAP2 POP POP SWAP3 POP SWAP3 SWAP1 POP JUMP JUMPDEST PUSH1 0x0 DUP2 MLOAD SWAP1 POP SWAP2 SWAP1 POP JUMP JUMPDEST PUSH32 0x4E487B7100000000000000000000000000000000000000000000000000000000 PUSH1 0x0 MSTORE PUSH1 0x22 PUSH1 0x4 MSTORE PUSH1 0x24 PUSH1 0x0 REVERT JUMPDEST PUSH1 0x0 PUSH1 0x2 DUP3 DIV SWAP1 POP PUSH1 0x1 DUP3 AND DUP1 PUSH3 0xB24 JUMPI PUSH1 0x7F DUP3 AND SWAP2 POP JUMPDEST PUSH1 0x20 DUP3 LT DUP2 SUB PUSH3 0xB3A JUMPI PUSH3 0xB39 PUSH3 0xADC JUMP JUMPDEST JUMPDEST POP SWAP2 SWAP1 POP JUMP JUMPDEST PUSH1 0x0 DUP2 SWAP1 POP DUP2 PUSH1 0x0 MSTORE PUSH1 0x20 PUSH1 0x0 KECCAK256 SWAP1 POP SWAP2 SWAP1 POP JUMP JUMPDEST PUSH1 0x0 PUSH1 0x20 PUSH1 0x1F DUP4 ADD DIV SWAP1 POP SWAP2 SWAP1 POP JUMP JUMPDEST PUSH1 0x0 DUP3 DUP3 SHL SWAP1 POP SWAP3 SWAP2 POP POP JUMP JUMPDEST PUSH1 0x0 PUSH1 0x8 DUP4 MUL PUSH3 0xBA4 PUSH32 0xFFFFFFFFFFFFFFFFFFFFFFFFFFFFFFFFFFFFFFFFFFFFFFFFFFFFFFFFFFFFFFFF DUP3 PUSH3 0xB65 JUMP JUMPDEST PUSH3 0xBB0 DUP7 DUP4 PUSH3 0xB65 JUMP JUMPDEST SWAP6 POP DUP1 NOT DUP5 AND SWAP4 POP DUP1 DUP7 AND DUP5 OR SWAP3 POP POP POP SWAP4 SWAP3 POP POP POP JUMP JUMPDEST PUSH1 0x0 DUP2 SWAP1 POP SWAP2 SWAP1 POP JUMP JUMPDEST PUSH1 0x0 DUP2 SWAP1 POP SWAP2 SWAP1 POP JUMP JUMPDEST PUSH1 0x0 PUSH3 0xBFD PUSH3 0xBF7 PUSH3 0xBF1 DUP5 PUSH3 0xBC8 JUMP JUMPDEST PUSH3 0xBD2 JUMP JUMPDEST PUSH3 0xBC8 JUMP JUMPDEST SWAP1 POP SWAP2 SWAP1 POP JUMP JUMPDEST PUSH1 0x0 DUP2 SWAP1 POP SWAP2 SWAP1 POP JUMP JUMPDEST PUSH3 0xC19 DUP4 PUSH3 0xBDC JUMP JUMPDEST PUSH3 0xC31 PUSH3 0xC28 DUP3 PUSH3 0xC04 JUMP JUMPDEST DUP5 DUP5 SLOAD PUSH3 0xB72 JUMP JUMPDEST DUP3 SSTORE POP POP POP POP JUMP JUMPDEST PUSH1 0x0 SWAP1 JUMP JUMPDEST PUSH3 0xC48 PUSH3 0xC39 JUMP JUMPDEST PUSH3 0xC55 DUP2 DUP5 DUP5 PUSH3 0xC0E JUMP JUMPDEST POP POP POP JUMP JUMPDEST JUMPDEST DUP2 DUP2 LT ISZERO PUSH3 0xC7D JUMPI PUSH3 0xC71 PUSH1 0x0 DUP3 PUSH3 0xC3E JUMP JUMPDEST PUSH1 0x1 DUP2 ADD SWAP1 POP PUSH3 0xC5B JUMP JUMPDEST POP POP JUMP JUMPDEST PUSH1 0x1F DUP3 GT ISZERO PUSH3 0xCCC JUMPI PUSH3 0xC96 DUP2 PUSH3 0xB40 JUMP JUMPDEST PUSH3 0xCA1 DUP5 PUSH3 0xB55 JUMP JUMPDEST DUP2 ADD PUSH1 0x20 DUP6 LT ISZERO PUSH3 0xCB1 JUMPI DUP2 SWAP1 POP JUMPDEST PUSH3 0xCC9 PUSH3 0xCC0 DUP6 PUSH3 0xB55 JUMP JUMPDEST DUP4 ADD DUP3 PUSH3 0xC5A JUMP JUMPDEST POP POP JUMPDEST POP POP POP JUMP JUMPDEST PUSH1 0x0 DUP3 DUP3 SHR SWAP1 POP SWAP3 SWAP2 POP POP JUMP JUMPDEST PUSH1 0x0 PUSH3 0xCF1 PUSH1 0x0 NOT DUP5 PUSH1 0x8 MUL PUSH3 0xCD1 JUMP JUMPDEST NOT DUP1 DUP4 AND SWAP2 POP POP SWAP3 SWAP2 POP POP JUMP JUMPDEST PUSH1 0x0 PUSH3 0xD0C DUP4 DUP4 PUSH3 0xCDE JUMP JUMPDEST SWAP2 POP DUP3 PUSH1 0x2 MUL DUP3 OR SWAP1 POP SWAP3 SWAP2 POP POP JUMP JUMPDEST PUSH3 0xD27 DUP3 PUSH3 0xAD1 JUMP JUMPDEST PUSH8 0xFFFFFFFFFFFFFFFF DUP2 GT ISZERO PUSH3 0xD43 JUMPI PUSH3 0xD42 PUSH3 0x8E8 JUMP JUMPDEST JUMPDEST PUSH3 0xD4F DUP3 SLOAD PUSH3 0xB0B JUMP JUMPDEST PUSH3 0xD5C DUP3 DUP3 DUP6 PUSH3 0xC81 JUMP JUMPDEST PUSH1 0x0 PUSH1 0x20 SWAP1 POP PUSH1 0x1F DUP4 GT PUSH1 0x1 DUP2 EQ PUSH3 0xD94 JUMPI PUSH1 0x0 DUP5 ISZERO PUSH3 0xD7F JUMPI DUP3 DUP8 ADD MLOAD SWAP1 POP JUMPDEST PUSH3 0xD8B DUP6 DUP3 PUSH3 0xCFE JUMP JUMPDEST DUP7 SSTORE POP PUSH3 0xDFB JUMP JUMPDEST PUSH1 0x1F NOT DUP5 AND PUSH3 0xDA4 DUP7 PUSH3 0xB40 JUMP JUMPDEST PUSH1 0x0 JUMPDEST DUP3 DUP2 LT ISZERO PUSH3 0xDCE JUMPI DUP5 DUP10 ADD MLOAD DUP3 SSTORE PUSH1 0x1 DUP3 ADD SWAP2 POP PUSH1 0x20 DUP6 ADD SWAP5 POP PUSH1 0x20 DUP2 ADD SWAP1 POP PUSH3 0xDA7 JUMP JUMPDEST DUP7 DUP4 LT ISZERO PUSH3 0xDEE JUMPI DUP5 DUP10 ADD MLOAD PUSH3 0xDEA PUSH1 0x1F DUP10 AND DUP3 PUSH3 0xCDE JUMP JUMPDEST DUP4 SSTORE POP JUMPDEST PUSH1 0x1 PUSH1 0x2 DUP9 MUL ADD DUP9 SSTORE POP POP POP JUMPDEST POP POP POP POP POP POP JUMP JUMPDEST PUSH1 0x0 PUSH1 0xFF DUP3 AND SWAP1 POP SWAP2 SWAP1 POP JUMP JUMPDEST PUSH32 0x4E487B7100000000000000000000000000000000000000000000000000000000 PUSH1 0x0 MSTORE PUSH1 0x11 PUSH1 0x4 MSTORE PUSH1 0x24 PUSH1 0x0 REVERT JUMPDEST PUSH1 0x0 PUSH3 0xE4C DUP3 PUSH3 0xE03 JUMP JUMPDEST SWAP2 POP PUSH3 0xE59 DUP4 PUSH3 0xE03 JUMP JUMPDEST SWAP3 POP DUP3 DUP3 ADD SWAP1 POP PUSH1 0xFF DUP2 GT ISZERO PUSH3 0xE75 JUMPI PUSH3 0xE74 PUSH3 0xE10 JUMP JUMPDEST JUMPDEST SWAP3 SWAP2 POP POP JUMP JUMPDEST PUSH32 0x4E487B7100000000000000000000000000000000000000000000000000000000 PUSH1 0x0 MSTORE PUSH1 0x32 PUSH1 0x4 MSTORE PUSH1 0x24 PUSH1 0x0 REVERT JUMPDEST PUSH1 0x0 PUSH3 0xEB7 DUP3 PUSH3 0xE03 JUMP JUMPDEST SWAP2 POP PUSH1 0xFF DUP3 SUB PUSH3 0xECD JUMPI PUSH3 0xECC PUSH3 0xE10 JUMP JUMPDEST JUMPDEST PUSH1 0x1 DUP3 ADD SWAP1 POP SWAP2 SWAP1 POP JUMP JUMPDEST PUSH1 0x80 MLOAD PUSH2 0x3378 PUSH3 0xEFB PUSH1 0x0 CODECOPY PUSH1 0x0 DUP2 DUP2 PUSH2 0x1A71 ADD MSTORE PUSH2 0x1ABD ADD MSTORE PUSH2 0x3378 PUSH1 0x0 RETURN INVALID PUSH1 0x80 PUSH1 0x40 MSTORE CALLVALUE DUP1 ISZERO PUSH2 0x10 JUMPI PUSH1 0x0 DUP1 REVERT JUMPDEST POP PUSH1 0x4 CALLDATASIZE LT PUSH2 0x12C JUMPI PUSH1 0x0 CALLDATALOAD PUSH1 0xE0 SHR DUP1 PUSH4 0x70A08231 GT PUSH2 0xAD JUMPI DUP1 PUSH4 0xA6FE01B3 GT PUSH2 0x71 JUMPI DUP1 PUSH4 0xA6FE01B3 EQ PUSH2 0x37D JUMPI DUP1 PUSH4 0xA9059CBB EQ PUSH2 0x39B JUMPI DUP1 PUSH4 0xDD62ED3E EQ PUSH2 0x3CB JUMPI DUP1 PUSH4 0xEE579C12 EQ PUSH2 0x3FB JUMPI DUP1 PUSH4 0xF9C3AE83 EQ PUSH2 0x42B JUMPI PUSH2 0x12C JUMP JUMPDEST DUP1 PUSH4 0x70A08231 EQ PUSH2 0x2B3 JUMPI DUP1 PUSH4 0x733F28A8 EQ PUSH2 0x2E3 JUMPI DUP1 PUSH4 0x95D89B41 EQ PUSH2 0x313 JUMPI DUP1 PUSH4 0xA457C2D7 EQ PUSH2 0x331 JUMPI DUP1 PUSH4 0xA6F9DAE1 EQ PUSH2 0x361 JUMPI PUSH2 0x12C JUMP JUMPDEST DUP1 PUSH4 0x2AE122BF GT PUSH2 0xF4 JUMPI DUP1 PUSH4 0x2AE122BF EQ PUSH2 0x1FD JUMPI DUP1 PUSH4 0x313CE567 EQ PUSH2 0x22D JUMPI DUP1 PUSH4 0x39509351 EQ PUSH2 0x24B JUMPI DUP1 PUSH4 0x3E0A322D EQ PUSH2 0x27B JUMPI DUP1 PUSH4 0x4B8C7DAF EQ PUSH2 0x297 JUMPI PUSH2 0x12C JUMP JUMPDEST DUP1 PUSH4 0x6FDDE03 EQ PUSH2 0x131 JUMPI DUP1 PUSH4 0x95EA7B3 EQ PUSH2 0x14F JUMPI DUP1 PUSH4 0x16B81889 EQ PUSH2 0x17F JUMPI DUP1 PUSH4 0x18160DDD EQ PUSH2 0x1AF JUMPI DUP1 PUSH4 0x23B872DD EQ PUSH2 0x1CD JUMPI JUMPDEST PUSH1 0x0 DUP1 REVERT JUMPDEST PUSH2 0x139 PUSH2 0x449 JUMP JUMPDEST PUSH1 0x40 MLOAD PUSH2 0x146 SWAP2 SWAP1 PUSH2 0x216B JUMP JUMPDEST PUSH1 0x40 MLOAD DUP1 SWAP2 SUB SWAP1 RETURN JUMPDEST PUSH2 0x169 PUSH1 0x4 DUP1 CALLDATASIZE SUB DUP2 ADD SWAP1 PUSH2 0x164 SWAP2 SWAP1 PUSH2 0x2235 JUMP JUMPDEST PUSH2 0x4DB JUMP JUMPDEST PUSH1 0x40 MLOAD PUSH2 0x176 SWAP2 SWAP1 PUSH2 0x2290 JUMP JUMPDEST PUSH1 0x40 MLOAD DUP1 SWAP2 SUB SWAP1 RETURN JUMPDEST PUSH2 0x199 PUSH1 0x4 DUP1 CALLDATASIZE SUB DUP2 ADD SWAP1 PUSH2 0x194 SWAP2 SWAP1 PUSH2 0x22AB JUMP JUMPDEST PUSH2 0x4FE JUMP JUMPDEST PUSH1 0x40 MLOAD PUSH2 0x1A6 SWAP2 SWAP1 PUSH2 0x22E7 JUMP JUMPDEST PUSH1 0x40 MLOAD DUP1 SWAP2 SUB SWAP1 RETURN JUMPDEST PUSH2 0x1B7 PUSH2 0x515 JUMP JUMPDEST PUSH1 0x40 MLOAD PUSH2 0x1C4 SWAP2 SWAP1 PUSH2 0x22E7 JUMP JUMPDEST PUSH1 0x40 MLOAD DUP1 SWAP2 SUB SWAP1 RETURN JUMPDEST PUSH2 0x1E7 PUSH1 0x4 DUP1 CALLDATASIZE SUB DUP2 ADD SWAP1 PUSH2 0x1E2 SWAP2 SWAP1 PUSH2 0x2302 JUMP JUMPDEST PUSH2 0x51F JUMP JUMPDEST PUSH1 0x40 MLOAD PUSH2 0x1F4 SWAP2 SWAP1 PUSH2 0x2290 JUMP JUMPDEST PUSH1 0x40 MLOAD DUP1 SWAP2 SUB SWAP1 RETURN JUMPDEST PUSH2 0x217 PUSH1 0x4 DUP1 CALLDATASIZE SUB DUP2 ADD SWAP1 PUSH2 0x212 SWAP2 SWAP1 PUSH2 0x22AB JUMP JUMPDEST PUSH2 0x54E JUMP JUMPDEST PUSH1 0x40 MLOAD PUSH2 0x224 SWAP2 SWAP1 PUSH2 0x2371 JUMP JUMPDEST PUSH1 0x40 MLOAD DUP1 SWAP2 SUB SWAP1 RETURN JUMPDEST PUSH2 0x235 PUSH2 0x5A7 JUMP JUMPDEST PUSH1 0x40 MLOAD PUSH2 0x242 SWAP2 SWAP1 PUSH2 0x2371 JUMP JUMPDEST PUSH1 0x40 MLOAD DUP1 SWAP2 SUB SWAP1 RETURN JUMPDEST PUSH2 0x265 PUSH1 0x4 DUP1 CALLDATASIZE SUB DUP2 ADD SWAP1 PUSH2 0x260 SWAP2 SWAP1 PUSH2 0x2235 JUMP JUMPDEST PUSH2 0x5B0 JUMP JUMPDEST PUSH1 0x40 MLOAD PUSH2 0x272 SWAP2 SWAP1 PUSH2 0x2290 JUMP JUMPDEST PUSH1 0x40 MLOAD DUP1 SWAP2 SUB SWAP1 RETURN JUMPDEST PUSH2 0x295 PUSH1 0x4 DUP1 CALLDATASIZE SUB DUP2 ADD SWAP1 PUSH2 0x290 SWAP2 SWAP1 PUSH2 0x238C JUMP JUMPDEST PUSH2 0x5E7 JUMP JUMPDEST STOP JUMPDEST PUSH2 0x2B1 PUSH1 0x4 DUP1 CALLDATASIZE SUB DUP2 ADD SWAP1 PUSH2 0x2AC SWAP2 SWAP1 PUSH2 0x25F0 JUMP JUMPDEST PUSH2 0x8D7 JUMP JUMPDEST STOP JUMPDEST PUSH2 0x2CD PUSH1 0x4 DUP1 CALLDATASIZE SUB DUP2 ADD SWAP1 PUSH2 0x2C8 SWAP2 SWAP1 PUSH2 0x22AB JUMP JUMPDEST PUSH2 0xDA9 JUMP JUMPDEST PUSH1 0x40 MLOAD PUSH2 0x2DA SWAP2 SWAP1 PUSH2 0x22E7 JUMP JUMPDEST PUSH1 0x40 MLOAD DUP1 SWAP2 SUB SWAP1 RETURN JUMPDEST PUSH2 0x2FD PUSH1 0x4 DUP1 CALLDATASIZE SUB DUP2 ADD SWAP1 PUSH2 0x2F8 SWAP2 SWAP1 PUSH2 0x267B JUMP JUMPDEST PUSH2 0xDF1 JUMP JUMPDEST PUSH1 0x40 MLOAD PUSH2 0x30A SWAP2 SWAP1 PUSH2 0x2766 JUMP JUMPDEST PUSH1 0x40 MLOAD DUP1 SWAP2 SUB SWAP1 RETURN JUMPDEST PUSH2 0x31B PUSH2 0xF28 JUMP JUMPDEST PUSH1 0x40 MLOAD PUSH2 0x328 SWAP2 SWAP1 PUSH2 0x216B JUMP JUMPDEST PUSH1 0x40 MLOAD DUP1 SWAP2 SUB SWAP1 RETURN JUMPDEST PUSH2 0x34B PUSH1 0x4 DUP1 CALLDATASIZE SUB DUP2 ADD SWAP1 PUSH2 0x346 SWAP2 SWAP1 PUSH2 0x2235 JUMP JUMPDEST PUSH2 0xFBA JUMP JUMPDEST PUSH1 0x40 MLOAD PUSH2 0x358 SWAP2 SWAP1 PUSH2 0x2290 JUMP JUMPDEST PUSH1 0x40 MLOAD DUP1 SWAP2 SUB SWAP1 RETURN JUMPDEST PUSH2 0x37B PUSH1 0x4 DUP1 CALLDATASIZE SUB DUP2 ADD SWAP1 PUSH2 0x376 SWAP2 SWAP1 PUSH2 0x22AB JUMP JUMPDEST PUSH2 0x1031 JUMP JUMPDEST STOP JUMPDEST PUSH2 0x385 PUSH2 0x1181 JUMP JUMPDEST PUSH1 0x40 MLOAD PUSH2 0x392 SWAP2 SWAP1 PUSH2 0x22E7 JUMP JUMPDEST PUSH1 0x40 MLOAD DUP1 SWAP2 SUB SWAP1 RETURN JUMPDEST PUSH2 0x3B5 PUSH1 0x4 DUP1 CALLDATASIZE SUB DUP2 ADD SWAP1 PUSH2 0x3B0 SWAP2 SWAP1 PUSH2 0x2235 JUMP JUMPDEST PUSH2 0x118B JUMP JUMPDEST PUSH1 0x40 MLOAD PUSH2 0x3C2 SWAP2 SWAP1 PUSH2 0x2290 JUMP JUMPDEST PUSH1 0x40 MLOAD DUP1 SWAP2 SUB SWAP1 RETURN JUMPDEST PUSH2 0x3E5 PUSH1 0x4 DUP1 CALLDATASIZE SUB DUP2 ADD SWAP1 PUSH2 0x3E0 SWAP2 SWAP1 PUSH2 0x2788 JUMP JUMPDEST PUSH2 0x11AE JUMP JUMPDEST PUSH1 0x40 MLOAD PUSH2 0x3F2 SWAP2 SWAP1 PUSH2 0x22E7 JUMP JUMPDEST PUSH1 0x40 MLOAD DUP1 SWAP2 SUB SWAP1 RETURN JUMPDEST PUSH2 0x415 PUSH1 0x4 DUP1 CALLDATASIZE SUB DUP2 ADD SWAP1 PUSH2 0x410 SWAP2 SWAP1 PUSH2 0x22AB JUMP JUMPDEST PUSH2 0x1235 JUMP JUMPDEST PUSH1 0x40 MLOAD PUSH2 0x422 SWAP2 SWAP1 PUSH2 0x22E7 JUMP JUMPDEST PUSH1 0x40 MLOAD DUP1 SWAP2 SUB SWAP1 RETURN JUMPDEST PUSH2 0x433 PUSH2 0x1281 JUMP JUMPDEST PUSH1 0x40 MLOAD PUSH2 0x440 SWAP2 SWAP1 PUSH2 0x27D7 JUMP JUMPDEST PUSH1 0x40 MLOAD DUP1 SWAP2 SUB SWAP1 RETURN JUMPDEST PUSH1 0x60 PUSH1 0x3 DUP1 SLOAD PUSH2 0x458 SWAP1 PUSH2 0x2821 JUMP JUMPDEST DUP1 PUSH1 0x1F ADD PUSH1 0x20 DUP1 SWAP2 DIV MUL PUSH1 0x20 ADD PUSH1 0x40 MLOAD SWAP1 DUP2 ADD PUSH1 0x40 MSTORE DUP1 SWAP3 SWAP2 SWAP1 DUP2 DUP2 MSTORE PUSH1 0x20 ADD DUP3 DUP1 SLOAD PUSH2 0x484 SWAP1 PUSH2 0x2821 JUMP JUMPDEST DUP1 ISZERO PUSH2 0x4D1 JUMPI DUP1 PUSH1 0x1F LT PUSH2 0x4A6 JUMPI PUSH2 0x100 DUP1 DUP4 SLOAD DIV MUL DUP4 MSTORE SWAP2 PUSH1 0x20 ADD SWAP2 PUSH2 0x4D1 JUMP JUMPDEST DUP3 ADD SWAP2 SWAP1 PUSH1 0x0 MSTORE PUSH1 0x20 PUSH1 0x0 KECCAK256 SWAP1 JUMPDEST DUP2 SLOAD DUP2 MSTORE SWAP1 PUSH1 0x1 ADD SWAP1 PUSH1 0x20 ADD DUP1 DUP4 GT PUSH2 0x4B4 JUMPI DUP3 SWAP1 SUB PUSH1 0x1F AND DUP3 ADD SWAP2 JUMPDEST POP POP POP POP POP SWAP1 POP SWAP1 JUMP JUMPDEST PUSH1 0x0 DUP1 PUSH2 0x4E6 PUSH2 0x12AB JUMP JUMPDEST SWAP1 POP PUSH2 0x4F3 DUP2 DUP6 DUP6 PUSH2 0x12B3 JUMP JUMPDEST PUSH1 0x1 SWAP2 POP POP SWAP3 SWAP2 POP POP JUMP JUMPDEST PUSH1 0x0 DUP1 PUSH2 0x50A DUP4 PUSH2 0x147C JUMP JUMPDEST SWAP1 POP DUP1 SWAP2 POP POP SWAP2 SWAP1 POP JUMP JUMPDEST PUSH1 0x0 PUSH1 0x2 SLOAD SWAP1 POP SWAP1 JUMP JUMPDEST PUSH1 0x0 DUP1 PUSH2 0x52A PUSH2 0x12AB JUMP JUMPDEST SWAP1 POP PUSH2 0x537 DUP6 DUP3 DUP6 PUSH2 0x1563 JUMP JUMPDEST PUSH2 0x542 DUP6 DUP6 DUP6 PUSH2 0x15EF JUMP JUMPDEST PUSH1 0x1 SWAP2 POP POP SWAP4 SWAP3 POP POP POP JUMP JUMPDEST PUSH1 0x0 PUSH1 0x9 PUSH1 0x0 DUP4 PUSH20 0xFFFFFFFFFFFFFFFFFFFFFFFFFFFFFFFFFFFFFFFF AND PUSH20 0xFFFFFFFFFFFFFFFFFFFFFFFFFFFFFFFFFFFFFFFF AND DUP2 MSTORE PUSH1 0x20 ADD SWAP1 DUP2 MSTORE PUSH1 0x20 ADD PUSH1 0x0 KECCAK256 PUSH1 0x2 ADD PUSH1 0x0 SWAP1 SLOAD SWAP1 PUSH2 0x100 EXP SWAP1 DIV PUSH1 0xFF AND SWAP1 POP SWAP2 SWAP1 POP JUMP JUMPDEST PUSH1 0x0 PUSH1 0x12 SWAP1 POP SWAP1 JUMP JUMPDEST PUSH1 0x0 DUP1 PUSH2 0x5BB PUSH2 0x12AB JUMP JUMPDEST SWAP1 POP PUSH2 0x5DC DUP2 DUP6 DUP6 PUSH2 0x5CD DUP6 DUP10 PUSH2 0x11AE JUMP JUMPDEST PUSH2 0x5D7 SWAP2 SWAP1 PUSH2 0x2881 JUMP JUMPDEST PUSH2 0x12B3 JUMP JUMPDEST PUSH1 0x1 SWAP2 POP POP SWAP3 SWAP2 POP POP JUMP JUMPDEST PUSH1 0x5 PUSH1 0x0 SWAP1 SLOAD SWAP1 PUSH2 0x100 EXP SWAP1 DIV PUSH20 0xFFFFFFFFFFFFFFFFFFFFFFFFFFFFFFFFFFFFFFFF AND PUSH20 0xFFFFFFFFFFFFFFFFFFFFFFFFFFFFFFFFFFFFFFFF AND CALLER PUSH20 0xFFFFFFFFFFFFFFFFFFFFFFFFFFFFFFFFFFFFFFFF AND EQ PUSH2 0x677 JUMPI PUSH1 0x40 MLOAD PUSH32 0x8C379A000000000000000000000000000000000000000000000000000000000 DUP2 MSTORE PUSH1 0x4 ADD PUSH2 0x66E SWAP1 PUSH2 0x2901 JUMP JUMPDEST PUSH1 0x40 MLOAD DUP1 SWAP2 SUB SWAP1 REVERT JUMPDEST PUSH1 0x0 PUSH1 0x6 SLOAD EQ PUSH2 0x6BC JUMPI PUSH1 0x40 MLOAD PUSH32 0x8C379A000000000000000000000000000000000000000000000000000000000 DUP2 MSTORE PUSH1 0x4 ADD PUSH2 0x6B3 SWAP1 PUSH2 0x296D JUMP JUMPDEST PUSH1 0x40 MLOAD DUP1 SWAP2 SUB SWAP1 REVERT JUMPDEST TIMESTAMP DUP2 LT ISZERO PUSH2 0x6FF JUMPI PUSH1 0x40 MLOAD PUSH32 0x8C379A000000000000000000000000000000000000000000000000000000000 DUP2 MSTORE PUSH1 0x4 ADD PUSH2 0x6F6 SWAP1 PUSH2 0x29D9 JUMP JUMPDEST PUSH1 0x40 MLOAD DUP1 SWAP2 SUB SWAP1 REVERT JUMPDEST DUP1 PUSH1 0x6 DUP2 SWAP1 SSTORE POP PUSH1 0x0 JUMPDEST PUSH1 0x5 DUP2 PUSH1 0xFF AND LT ISZERO PUSH2 0x8D3 JUMPI PUSH1 0x0 PUSH2 0x73A PUSH1 0x2D DUP4 PUSH1 0xFF AND PUSH1 0x7 DUP2 LT PUSH2 0x731 JUMPI PUSH2 0x730 PUSH2 0x29F9 JUMP JUMPDEST JUMPDEST PUSH1 0x5 MUL ADD PUSH2 0x1A49 JUMP JUMPDEST SWAP1 SWAP2 SWAP3 POP SWAP1 SWAP2 POP SWAP1 POP POP DUP1 SWAP2 POP POP PUSH1 0x0 PUSH1 0x1 DUP4 PUSH2 0x757 SWAP2 SWAP1 PUSH2 0x2A28 JUMP JUMPDEST SWAP1 POP PUSH1 0x0 JUMPDEST PUSH1 0x8 PUSH1 0x0 DUP4 PUSH1 0xFF AND PUSH1 0xFF AND DUP2 MSTORE PUSH1 0x20 ADD SWAP1 DUP2 MSTORE PUSH1 0x20 ADD PUSH1 0x0 KECCAK256 DUP1 SLOAD SWAP1 POP DUP2 PUSH1 0xFF AND LT ISZERO PUSH2 0x8BD JUMPI PUSH1 0x0 PUSH1 0x8 PUSH1 0x0 DUP5 PUSH1 0xFF AND PUSH1 0xFF AND DUP2 MSTORE PUSH1 0x20 ADD SWAP1 DUP2 MSTORE PUSH1 0x20 ADD PUSH1 0x0 KECCAK256 DUP1 SLOAD SWAP1 POP EQ PUSH2 0x8AA JUMPI DUP3 PUSH1 0x9 PUSH1 0x0 PUSH1 0x8 PUSH1 0x0 DUP7 PUSH1 0xFF AND PUSH1 0xFF AND DUP2 MSTORE PUSH1 0x20 ADD SWAP1 DUP2 MSTORE PUSH1 0x20 ADD PUSH1 0x0 KECCAK256 DUP5 PUSH1 0xFF AND DUP2 SLOAD DUP2 LT PUSH2 0x7DA JUMPI PUSH2 0x7D9 PUSH2 0x29F9 JUMP JUMPDEST JUMPDEST SWAP1 PUSH1 0x0 MSTORE PUSH1 0x20 PUSH1 0x0 KECCAK256 ADD PUSH1 0x0 SWAP1 SLOAD SWAP1 PUSH2 0x100 EXP SWAP1 DIV PUSH20 0xFFFFFFFFFFFFFFFFFFFFFFFFFFFFFFFFFFFFFFFF AND PUSH20 0xFFFFFFFFFFFFFFFFFFFFFFFFFFFFFFFFFFFFFFFF AND PUSH20 0xFFFFFFFFFFFFFFFFFFFFFFFFFFFFFFFFFFFFFFFF AND DUP2 MSTORE PUSH1 0x20 ADD SWAP1 DUP2 MSTORE PUSH1 0x20 ADD PUSH1 0x0 KECCAK256 PUSH1 0x8 ADD DUP2 SWAP1 SSTORE POP PUSH2 0x8A9 PUSH1 0x8 PUSH1 0x0 DUP5 PUSH1 0xFF AND PUSH1 0xFF AND DUP2 MSTORE PUSH1 0x20 ADD SWAP1 DUP2 MSTORE PUSH1 0x20 ADD PUSH1 0x0 KECCAK256 DUP3 PUSH1 0xFF AND DUP2 SLOAD DUP2 LT PUSH2 0x877 JUMPI PUSH2 0x876 PUSH2 0x29F9 JUMP JUMPDEST JUMPDEST SWAP1 PUSH1 0x0 MSTORE PUSH1 0x20 PUSH1 0x0 KECCAK256 ADD PUSH1 0x0 SWAP1 SLOAD SWAP1 PUSH2 0x100 EXP SWAP1 DIV PUSH20 0xFFFFFFFFFFFFFFFFFFFFFFFFFFFFFFFFFFFFFFFF AND PUSH1 0x1 PUSH2 0x1BF5 JUMP JUMPDEST JUMPDEST DUP1 DUP1 PUSH2 0x8B5 SWAP1 PUSH2 0x2A5D JUMP JUMPDEST SWAP2 POP POP PUSH2 0x75C JUMP JUMPDEST POP POP POP DUP1 DUP1 PUSH2 0x8CB SWAP1 PUSH2 0x2A5D JUMP JUMPDEST SWAP2 POP POP PUSH2 0x709 JUMP JUMPDEST POP POP JUMP JUMPDEST PUSH1 0x5 PUSH1 0x0 SWAP1 SLOAD SWAP1 PUSH2 0x100 EXP SWAP1 DIV PUSH20 0xFFFFFFFFFFFFFFFFFFFFFFFFFFFFFFFFFFFFFFFF AND PUSH20 0xFFFFFFFFFFFFFFFFFFFFFFFFFFFFFFFFFFFFFFFF AND CALLER PUSH20 0xFFFFFFFFFFFFFFFFFFFFFFFFFFFFFFFFFFFFFFFF AND EQ PUSH2 0x967 JUMPI PUSH1 0x40 MLOAD PUSH32 0x8C379A000000000000000000000000000000000000000000000000000000000 DUP2 MSTORE PUSH1 0x4 ADD PUSH2 0x95E SWAP1 PUSH2 0x2901 JUMP JUMPDEST PUSH1 0x40 MLOAD DUP1 SWAP2 SUB SWAP1 REVERT JUMPDEST PUSH1 0x0 DUP4 PUSH1 0xFF AND SUB PUSH2 0x9AD JUMPI PUSH1 0x40 MLOAD PUSH32 0x8C379A000000000000000000000000000000000000000000000000000000000 DUP2 MSTORE PUSH1 0x4 ADD PUSH2 0x9A4 SWAP1 PUSH2 0x2AD2 JUMP JUMPDEST PUSH1 0x40 MLOAD DUP1 SWAP2 SUB SWAP1 REVERT JUMPDEST DUP1 MLOAD DUP3 MLOAD EQ PUSH2 0x9F1 JUMPI PUSH1 0x40 MLOAD PUSH32 0x8C379A000000000000000000000000000000000000000000000000000000000 DUP2 MSTORE PUSH1 0x4 ADD PUSH2 0x9E8 SWAP1 PUSH2 0x2B3E JUMP JUMPDEST PUSH1 0x40 MLOAD DUP1 SWAP2 SUB SWAP1 REVERT JUMPDEST PUSH1 0x0 PUSH1 0x1 DUP5 PUSH2 0xA00 SWAP2 SWAP1 PUSH2 0x2B5E JUMP JUMPDEST SWAP1 POP PUSH1 0x0 DUP1 PUSH1 0x7 PUSH1 0x0 DUP8 PUSH1 0xFF AND PUSH1 0xFF AND DUP2 MSTORE PUSH1 0x20 ADD SWAP1 DUP2 MSTORE PUSH1 0x20 ADD PUSH1 0x0 KECCAK256 SWAP1 POP PUSH1 0x0 JUMPDEST DUP5 MLOAD DUP2 LT ISZERO PUSH2 0xA67 JUMPI DUP5 DUP2 DUP2 MLOAD DUP2 LT PUSH2 0xA3F JUMPI PUSH2 0xA3E PUSH2 0x29F9 JUMP JUMPDEST JUMPDEST PUSH1 0x20 MUL PUSH1 0x20 ADD ADD MLOAD DUP4 PUSH2 0xA52 SWAP2 SWAP1 PUSH2 0x2881 JUMP JUMPDEST SWAP3 POP DUP1 DUP1 PUSH2 0xA5F SWAP1 PUSH2 0x2B93 JUMP JUMPDEST SWAP2 POP POP PUSH2 0xA23 JUMP JUMPDEST POP DUP2 DUP2 PUSH1 0x1 ADD SLOAD LT ISZERO PUSH2 0xAAF JUMPI PUSH1 0x40 MLOAD PUSH32 0x8C379A000000000000000000000000000000000000000000000000000000000 DUP2 MSTORE PUSH1 0x4 ADD PUSH2 0xAA6 SWAP1 PUSH2 0x2C27 JUMP JUMPDEST PUSH1 0x40 MLOAD DUP1 SWAP2 SUB SWAP1 REVERT JUMPDEST DUP2 DUP2 PUSH1 0x1 ADD SLOAD PUSH2 0xABF SWAP2 SWAP1 PUSH2 0x2C47 JUMP JUMPDEST DUP2 PUSH1 0x1 ADD DUP2 SWAP1 SSTORE POP PUSH1 0x0 DUP1 PUSH1 0x0 DUP1 PUSH1 0x0 PUSH2 0xAF2 PUSH1 0x2D DUP10 PUSH1 0xFF AND PUSH1 0x7 DUP2 LT PUSH2 0xAE9 JUMPI PUSH2 0xAE8 PUSH2 0x29F9 JUMP JUMPDEST JUMPDEST PUSH1 0x5 MUL ADD PUSH2 0x1A49 JUMP JUMPDEST DUP1 SWAP6 POP DUP2 SWAP7 POP DUP3 SWAP8 POP DUP4 SWAP9 POP DUP5 SWAP10 POP POP POP POP POP POP PUSH1 0x0 JUMPDEST DUP11 MLOAD DUP2 LT ISZERO PUSH2 0xD60 JUMPI PUSH1 0x8 PUSH1 0x0 DUP14 PUSH1 0xFF AND PUSH1 0xFF AND DUP2 MSTORE PUSH1 0x20 ADD SWAP1 DUP2 MSTORE PUSH1 0x20 ADD PUSH1 0x0 KECCAK256 DUP12 DUP3 DUP2 MLOAD DUP2 LT PUSH2 0xB3E JUMPI PUSH2 0xB3D PUSH2 0x29F9 JUMP JUMPDEST JUMPDEST PUSH1 0x20 MUL PUSH1 0x20 ADD ADD MLOAD SWAP1 DUP1 PUSH1 0x1 DUP2 SLOAD ADD DUP1 DUP3 SSTORE DUP1 SWAP2 POP POP PUSH1 0x1 SWAP1 SUB SWAP1 PUSH1 0x0 MSTORE PUSH1 0x20 PUSH1 0x0 KECCAK256 ADD PUSH1 0x0 SWAP1 SWAP2 SWAP1 SWAP2 SWAP1 SWAP2 PUSH2 0x100 EXP DUP2 SLOAD DUP2 PUSH20 0xFFFFFFFFFFFFFFFFFFFFFFFFFFFFFFFFFFFFFFFF MUL NOT AND SWAP1 DUP4 PUSH20 0xFFFFFFFFFFFFFFFFFFFFFFFFFFFFFFFFFFFFFFFF AND MUL OR SWAP1 SSTORE POP PUSH1 0x40 MLOAD DUP1 PUSH2 0x120 ADD PUSH1 0x40 MSTORE DUP1 DUP12 DUP4 DUP2 MLOAD DUP2 LT PUSH2 0xBC5 JUMPI PUSH2 0xBC4 PUSH2 0x29F9 JUMP JUMPDEST JUMPDEST PUSH1 0x20 MUL PUSH1 0x20 ADD ADD MLOAD DUP2 MSTORE PUSH1 0x20 ADD DUP12 DUP4 DUP2 MLOAD DUP2 LT PUSH2 0xBE5 JUMPI PUSH2 0xBE4 PUSH2 0x29F9 JUMP JUMPDEST JUMPDEST PUSH1 0x20 MUL PUSH1 0x20 ADD ADD MLOAD DUP2 MSTORE PUSH1 0x20 ADD DUP14 PUSH1 0xFF AND DUP2 MSTORE PUSH1 0x20 ADD DUP5 DUP2 MSTORE PUSH1 0x20 ADD DUP7 DUP2 MSTORE PUSH1 0x20 ADD DUP6 DUP2 MSTORE PUSH1 0x20 ADD DUP4 DUP2 MSTORE PUSH1 0x20 ADD PUSH1 0x0 DUP2 MSTORE PUSH1 0x20 ADD DUP8 DUP2 MSTORE POP PUSH1 0x9 PUSH1 0x0 DUP14 DUP5 DUP2 MLOAD DUP2 LT PUSH2 0xC35 JUMPI PUSH2 0xC34 PUSH2 0x29F9 JUMP JUMPDEST JUMPDEST PUSH1 0x20 MUL PUSH1 0x20 ADD ADD MLOAD PUSH20 0xFFFFFFFFFFFFFFFFFFFFFFFFFFFFFFFFFFFFFFFF AND PUSH20 0xFFFFFFFFFFFFFFFFFFFFFFFFFFFFFFFFFFFFFFFF AND DUP2 MSTORE PUSH1 0x20 ADD SWAP1 DUP2 MSTORE PUSH1 0x20 ADD PUSH1 0x0 KECCAK256 PUSH1 0x0 DUP3 ADD MLOAD DUP2 PUSH1 0x0 ADD SSTORE PUSH1 0x20 DUP3 ADD MLOAD DUP2 PUSH1 0x1 ADD SSTORE PUSH1 0x40 DUP3 ADD MLOAD DUP2 PUSH1 0x2 ADD PUSH1 0x0 PUSH2 0x100 EXP DUP2 SLOAD DUP2 PUSH1 0xFF MUL NOT AND SWAP1 DUP4 PUSH1 0xFF AND MUL OR SWAP1 SSTORE POP PUSH1 0x60 DUP3 ADD MLOAD DUP2 PUSH1 0x3 ADD SSTORE PUSH1 0x80 DUP3 ADD MLOAD DUP2 PUSH1 0x4 ADD SSTORE PUSH1 0xA0 DUP3 ADD MLOAD DUP2 PUSH1 0x5 ADD SSTORE PUSH1 0xC0 DUP3 ADD MLOAD DUP2 PUSH1 0x6 ADD SSTORE PUSH1 0xE0 DUP3 ADD MLOAD DUP2 PUSH1 0x7 ADD SSTORE PUSH2 0x100 DUP3 ADD MLOAD DUP2 PUSH1 0x8 ADD SSTORE SWAP1 POP POP PUSH2 0xD4D PUSH1 0x5 PUSH1 0x0 SWAP1 SLOAD SWAP1 PUSH2 0x100 EXP SWAP1 DIV PUSH20 0xFFFFFFFFFFFFFFFFFFFFFFFFFFFFFFFFFFFFFFFF AND DUP13 DUP4 DUP2 MLOAD DUP2 LT PUSH2 0xD25 JUMPI PUSH2 0xD24 PUSH2 0x29F9 JUMP JUMPDEST JUMPDEST PUSH1 0x20 MUL PUSH1 0x20 ADD ADD MLOAD DUP13 DUP5 DUP2 MLOAD DUP2 LT PUSH2 0xD40 JUMPI PUSH2 0xD3F PUSH2 0x29F9 JUMP JUMPDEST JUMPDEST PUSH1 0x20 MUL PUSH1 0x20 ADD ADD MLOAD PUSH2 0x15EF JUMP JUMPDEST DUP1 DUP1 PUSH2 0xD58 SWAP1 PUSH2 0x2B93 JUMP JUMPDEST SWAP2 POP POP PUSH2 0xB09 JUMP JUMPDEST POP DUP11 PUSH1 0xFF AND PUSH32 0xD3356A0B92566DB109E603A7DA2C30CB2E62FD20493200BE85A409EEB009B36B DUP7 PUSH1 0x40 MLOAD PUSH2 0xD94 SWAP2 SWAP1 PUSH2 0x22E7 JUMP JUMPDEST PUSH1 0x40 MLOAD DUP1 SWAP2 SUB SWAP1 LOG2 POP POP POP POP POP POP POP POP POP POP POP JUMP JUMPDEST PUSH1 0x0 DUP1 PUSH1 0x0 DUP4 PUSH20 0xFFFFFFFFFFFFFFFFFFFFFFFFFFFFFFFFFFFFFFFF AND PUSH20 0xFFFFFFFFFFFFFFFFFFFFFFFFFFFFFFFFFFFFFFFF AND DUP2 MSTORE PUSH1 0x20 ADD SWAP1 DUP2 MSTORE PUSH1 0x20 ADD PUSH1 0x0 KECCAK256 SLOAD SWAP1 POP SWAP2 SWAP1 POP JUMP JUMPDEST PUSH1 0x60 PUSH1 0x5 PUSH1 0x0 SWAP1 SLOAD SWAP1 PUSH2 0x100 EXP SWAP1 DIV PUSH20 0xFFFFFFFFFFFFFFFFFFFFFFFFFFFFFFFFFFFFFFFF AND PUSH20 0xFFFFFFFFFFFFFFFFFFFFFFFFFFFFFFFFFFFFFFFF AND CALLER PUSH20 0xFFFFFFFFFFFFFFFFFFFFFFFFFFFFFFFFFFFFFFFF AND EQ PUSH2 0xE83 JUMPI PUSH1 0x40 MLOAD PUSH32 0x8C379A000000000000000000000000000000000000000000000000000000000 DUP2 MSTORE PUSH1 0x4 ADD PUSH2 0xE7A SWAP1 PUSH2 0x2901 JUMP JUMPDEST PUSH1 0x40 MLOAD DUP1 SWAP2 SUB SWAP1 REVERT JUMPDEST PUSH1 0x8 PUSH1 0x0 DUP4 PUSH1 0xFF AND PUSH1 0xFF AND DUP2 MSTORE PUSH1 0x20 ADD SWAP1 DUP2 MSTORE PUSH1 0x20 ADD PUSH1 0x0 KECCAK256 DUP1 SLOAD DUP1 PUSH1 0x20 MUL PUSH1 0x20 ADD PUSH1 0x40 MLOAD SWAP1 DUP2 ADD PUSH1 0x40 MSTORE DUP1 SWAP3 SWAP2 SWAP1 DUP2 DUP2 MSTORE PUSH1 0x20 ADD DUP3 DUP1 SLOAD DUP1 ISZERO PUSH2 0xF1C JUMPI PUSH1 0x20 MUL DUP3 ADD SWAP2 SWAP1 PUSH1 0x0 MSTORE PUSH1 0x20 PUSH1 0x0 KECCAK256 SWAP1 JUMPDEST DUP2 PUSH1 0x0 SWAP1 SLOAD SWAP1 PUSH2 0x100 EXP SWAP1 DIV PUSH20 0xFFFFFFFFFFFFFFFFFFFFFFFFFFFFFFFFFFFFFFFF AND PUSH20 0xFFFFFFFFFFFFFFFFFFFFFFFFFFFFFFFFFFFFFFFF AND DUP2 MSTORE PUSH1 0x20 ADD SWAP1 PUSH1 0x1 ADD SWAP1 DUP1 DUP4 GT PUSH2 0xED2 JUMPI JUMPDEST POP POP POP POP POP SWAP1 POP SWAP2 SWAP1 POP JUMP JUMPDEST PUSH1 0x60 PUSH1 0x4 DUP1 SLOAD PUSH2 0xF37 SWAP1 PUSH2 0x2821 JUMP JUMPDEST DUP1 PUSH1 0x1F ADD PUSH1 0x20 DUP1 SWAP2 DIV MUL PUSH1 0x20 ADD PUSH1 0x40 MLOAD SWAP1 DUP2 ADD PUSH1 0x40 MSTORE DUP1 SWAP3 SWAP2 SWAP1 DUP2 DUP2 MSTORE PUSH1 0x20 ADD DUP3 DUP1 SLOAD PUSH2 0xF63 SWAP1 PUSH2 0x2821 JUMP JUMPDEST DUP1 ISZERO PUSH2 0xFB0 JUMPI DUP1 PUSH1 0x1F LT PUSH2 0xF85 JUMPI PUSH2 0x100 DUP1 DUP4 SLOAD DIV MUL DUP4 MSTORE SWAP2 PUSH1 0x20 ADD SWAP2 PUSH2 0xFB0 JUMP JUMPDEST DUP3 ADD SWAP2 SWAP1 PUSH1 0x0 MSTORE PUSH1 0x20 PUSH1 0x0 KECCAK256 SWAP1 JUMPDEST DUP2 SLOAD DUP2 MSTORE SWAP1 PUSH1 0x1 ADD SWAP1 PUSH1 0x20 ADD DUP1 DUP4 GT PUSH2 0xF93 JUMPI DUP3 SWAP1 SUB PUSH1 0x1F AND DUP3 ADD SWAP2 JUMPDEST POP POP POP POP POP SWAP1 POP SWAP1 JUMP JUMPDEST PUSH1 0x0 DUP1 PUSH2 0xFC5 PUSH2 0x12AB JUMP JUMPDEST SWAP1 POP PUSH1 0x0 PUSH2 0xFD3 DUP3 DUP7 PUSH2 0x11AE JUMP JUMPDEST SWAP1 POP DUP4 DUP2 LT ISZERO PUSH2 0x1018 JUMPI PUSH1 0x40 MLOAD PUSH32 0x8C379A000000000000000000000000000000000000000000000000000000000 DUP2 MSTORE PUSH1 0x4 ADD PUSH2 0x100F SWAP1 PUSH2 0x2CED JUMP JUMPDEST PUSH1 0x40 MLOAD DUP1 SWAP2 SUB SWAP1 REVERT JUMPDEST PUSH2 0x1025 DUP3 DUP7 DUP7 DUP5 SUB PUSH2 0x12B3 JUMP JUMPDEST PUSH1 0x1 SWAP3 POP POP POP SWAP3 SWAP2 POP POP JUMP JUMPDEST PUSH1 0x5 PUSH1 0x0 SWAP1 SLOAD SWAP1 PUSH2 0x100 EXP SWAP1 DIV PUSH20 0xFFFFFFFFFFFFFFFFFFFFFFFFFFFFFFFFFFFFFFFF AND PUSH20 0xFFFFFFFFFFFFFFFFFFFFFFFFFFFFFFFFFFFFFFFF AND CALLER PUSH20 0xFFFFFFFFFFFFFFFFFFFFFFFFFFFFFFFFFFFFFFFF AND EQ PUSH2 0x10C1 JUMPI PUSH1 0x40 MLOAD PUSH32 0x8C379A000000000000000000000000000000000000000000000000000000000 DUP2 MSTORE PUSH1 0x4 ADD PUSH2 0x10B8 SWAP1 PUSH2 0x2901 JUMP JUMPDEST PUSH1 0x40 MLOAD DUP1 SWAP2 SUB SWAP1 REVERT JUMPDEST DUP1 PUSH20 0xFFFFFFFFFFFFFFFFFFFFFFFFFFFFFFFFFFFFFFFF AND PUSH1 0x5 PUSH1 0x0 SWAP1 SLOAD SWAP1 PUSH2 0x100 EXP SWAP1 DIV PUSH20 0xFFFFFFFFFFFFFFFFFFFFFFFFFFFFFFFFFFFFFFFF AND PUSH20 0xFFFFFFFFFFFFFFFFFFFFFFFFFFFFFFFFFFFFFFFF AND PUSH32 0x9AECF86140D81442289F667EB72E1202A8FBB3478A686659952E145E85319656 PUSH1 0x40 MLOAD PUSH1 0x40 MLOAD DUP1 SWAP2 SUB SWAP1 LOG3 DUP1 PUSH1 0x5 PUSH1 0x0 PUSH2 0x100 EXP DUP2 SLOAD DUP2 PUSH20 0xFFFFFFFFFFFFFFFFFFFFFFFFFFFFFFFFFFFFFFFF MUL NOT AND SWAP1 DUP4 PUSH20 0xFFFFFFFFFFFFFFFFFFFFFFFFFFFFFFFFFFFFFFFF AND MUL OR SWAP1 SSTORE POP POP JUMP JUMPDEST PUSH1 0x0 PUSH1 0x6 SLOAD SWAP1 POP SWAP1 JUMP JUMPDEST PUSH1 0x0 DUP1 PUSH2 0x1196 PUSH2 0x12AB JUMP JUMPDEST SWAP1 POP PUSH2 0x11A3 DUP2 DUP6 DUP6 PUSH2 0x15EF JUMP JUMPDEST PUSH1 0x1 SWAP2 POP POP SWAP3 SWAP2 POP POP JUMP JUMPDEST PUSH1 0x0 PUSH1 0x1 PUSH1 0x0 DUP5 PUSH20 0xFFFFFFFFFFFFFFFFFFFFFFFFFFFFFFFFFFFFFFFF AND PUSH20 0xFFFFFFFFFFFFFFFFFFFFFFFFFFFFFFFFFFFFFFFF AND DUP2 MSTORE PUSH1 0x20 ADD SWAP1 DUP2 MSTORE PUSH1 0x20 ADD PUSH1 0x0 KECCAK256 PUSH1 0x0 DUP4 PUSH20 0xFFFFFFFFFFFFFFFFFFFFFFFFFFFFFFFFFFFFFFFF AND PUSH20 0xFFFFFFFFFFFFFFFFFFFFFFFFFFFFFFFFFFFFFFFF AND DUP2 MSTORE PUSH1 0x20 ADD SWAP1 DUP2 MSTORE PUSH1 0x20 ADD PUSH1 0x0 KECCAK256 SLOAD SWAP1 POP SWAP3 SWAP2 POP POP JUMP JUMPDEST PUSH1 0x0 PUSH1 0x9 PUSH1 0x0 DUP4 PUSH20 0xFFFFFFFFFFFFFFFFFFFFFFFFFFFFFFFFFFFFFFFF AND PUSH20 0xFFFFFFFFFFFFFFFFFFFFFFFFFFFFFFFFFFFFFFFF AND DUP2 MSTORE PUSH1 0x20 ADD SWAP1 DUP2 MSTORE PUSH1 0x20 ADD PUSH1 0x0 KECCAK256 PUSH1 0x0 ADD SLOAD SWAP1 POP SWAP2 SWAP1 POP JUMP JUMPDEST PUSH1 0x0 PUSH1 0x5 PUSH1 0x0 SWAP1 SLOAD SWAP1 PUSH2 0x100 EXP SWAP1 DIV PUSH20 0xFFFFFFFFFFFFFFFFFFFFFFFFFFFFFFFFFFFFFFFF AND SWAP1 POP SWAP1 JUMP JUMPDEST PUSH1 0x0 CALLER SWAP1 POP SWAP1 JUMP JUMPDEST PUSH1 0x0 PUSH20 0xFFFFFFFFFFFFFFFFFFFFFFFFFFFFFFFFFFFFFFFF AND DUP4 PUSH20 0xFFFFFFFFFFFFFFFFFFFFFFFFFFFFFFFFFFFFFFFF AND SUB PUSH2 0x1322 JUMPI PUSH1 0x40 MLOAD PUSH32 0x8C379A000000000000000000000000000000000000000000000000000000000 DUP2 MSTORE PUSH1 0x4 ADD PUSH2 0x1319 SWAP1 PUSH2 0x2D7F JUMP JUMPDEST PUSH1 0x40 MLOAD DUP1 SWAP2 SUB SWAP1 REVERT JUMPDEST PUSH1 0x0 PUSH20 0xFFFFFFFFFFFFFFFFFFFFFFFFFFFFFFFFFFFFFFFF AND DUP3 PUSH20 0xFFFFFFFFFFFFFFFFFFFFFFFFFFFFFFFFFFFFFFFF AND SUB PUSH2 0x1391 JUMPI PUSH1 0x40 MLOAD PUSH32 0x8C379A000000000000000000000000000000000000000000000000000000000 DUP2 MSTORE PUSH1 0x4 ADD PUSH2 0x1388 SWAP1 PUSH2 0x2E11 JUMP JUMPDEST PUSH1 0x40 MLOAD DUP1 SWAP2 SUB SWAP1 REVERT JUMPDEST DUP1 PUSH1 0x1 PUSH1 0x0 DUP6 PUSH20 0xFFFFFFFFFFFFFFFFFFFFFFFFFFFFFFFFFFFFFFFF AND PUSH20 0xFFFFFFFFFFFFFFFFFFFFFFFFFFFFFFFFFFFFFFFF AND DUP2 MSTORE PUSH1 0x20 ADD SWAP1 DUP2 MSTORE PUSH1 0x20 ADD PUSH1 0x0 KECCAK256 PUSH1 0x0 DUP5 PUSH20 0xFFFFFFFFFFFFFFFFFFFFFFFFFFFFFFFFFFFFFFFF AND PUSH20 0xFFFFFFFFFFFFFFFFFFFFFFFFFFFFFFFFFFFFFFFF AND DUP2 MSTORE PUSH1 0x20 ADD SWAP1 DUP2 MSTORE PUSH1 0x20 ADD PUSH1 0x0 KECCAK256 DUP2 SWAP1 SSTORE POP DUP2 PUSH20 0xFFFFFFFFFFFFFFFFFFFFFFFFFFFFFFFFFFFFFFFF AND DUP4 PUSH20 0xFFFFFFFFFFFFFFFFFFFFFFFFFFFFFFFFFFFFFFFF AND PUSH32 0x8C5BE1E5EBEC7D5BD14F71427D1E84F3DD0314C0F7B2291E5B200AC8C7C3B925 DUP4 PUSH1 0x40 MLOAD PUSH2 0x146F SWAP2 SWAP1 PUSH2 0x22E7 JUMP JUMPDEST PUSH1 0x40 MLOAD DUP1 SWAP2 SUB SWAP1 LOG3 POP POP POP JUMP JUMPDEST PUSH1 0x0 DUP1 PUSH1 0x9 PUSH1 0x0 DUP5 PUSH20 0xFFFFFFFFFFFFFFFFFFFFFFFFFFFFFFFFFFFFFFFF AND PUSH20 0xFFFFFFFFFFFFFFFFFFFFFFFFFFFFFFFFFFFFFFFF AND DUP2 MSTORE PUSH1 0x20 ADD SWAP1 DUP2 MSTORE PUSH1 0x20 ADD PUSH1 0x0 KECCAK256 SWAP1 POP PUSH1 0x0 DUP2 PUSH1 0x2 ADD PUSH1 0x0 SWAP1 SLOAD SWAP1 PUSH2 0x100 EXP SWAP1 DIV PUSH1 0xFF AND SWAP1 POP PUSH1 0x0 DUP2 PUSH1 0xFF AND EQ DUP1 PUSH2 0x14EC JUMPI POP PUSH1 0x0 DUP3 PUSH1 0x1 ADD SLOAD EQ JUMPDEST ISZERO PUSH2 0x14FC JUMPI PUSH1 0x0 SWAP3 POP POP POP PUSH2 0x155E JUMP JUMPDEST PUSH1 0x0 TIMESTAMP SWAP1 POP PUSH1 0x0 DUP4 PUSH1 0x0 ADD SLOAD SWAP1 POP PUSH1 0x6 DUP4 PUSH1 0xFF AND EQ ISZERO DUP1 ISZERO PUSH2 0x1522 JUMPI POP PUSH1 0x7 DUP4 PUSH1 0xFF AND EQ ISZERO JUMPDEST DUP1 ISZERO PUSH2 0x153C JUMPI POP PUSH1 0x0 PUSH1 0x6 SLOAD EQ DUP1 PUSH2 0x153B JUMPI POP PUSH1 0x6 SLOAD DUP3 LT JUMPDEST JUMPDEST ISZERO PUSH2 0x154D JUMPI DUP1 SWAP5 POP POP POP POP POP PUSH2 0x155E JUMP JUMPDEST PUSH2 0x1557 DUP5 DUP4 PUSH2 0x1DE8 JUMP JUMPDEST SWAP5 POP POP POP POP POP JUMPDEST SWAP2 SWAP1 POP JUMP JUMPDEST PUSH1 0x0 PUSH2 0x156F DUP5 DUP5 PUSH2 0x11AE JUMP JUMPDEST SWAP1 POP PUSH32 0xFFFFFFFFFFFFFFFFFFFFFFFFFFFFFFFFFFFFFFFFFFFFFFFFFFFFFFFFFFFFFFFF DUP2 EQ PUSH2 0x15E9 JUMPI DUP2 DUP2 LT ISZERO PUSH2 0x15DB JUMPI PUSH1 0x40 MLOAD PUSH32 0x8C379A000000000000000000000000000000000000000000000000000000000 DUP2 MSTORE PUSH1 0x4 ADD PUSH2 0x15D2 SWAP1 PUSH2 0x2E7D JUMP JUMPDEST PUSH1 0x40 MLOAD DUP1 SWAP2 SUB SWAP1 REVERT JUMPDEST PUSH2 0x15E8 DUP5 DUP5 DUP5 DUP5 SUB PUSH2 0x12B3 JUMP JUMPDEST JUMPDEST POP POP POP POP JUMP JUMPDEST PUSH1 0x0 PUSH20 0xFFFFFFFFFFFFFFFFFFFFFFFFFFFFFFFFFFFFFFFF AND DUP4 PUSH20 0xFFFFFFFFFFFFFFFFFFFFFFFFFFFFFFFFFFFFFFFF AND SUB PUSH2 0x165E JUMPI PUSH1 0x40 MLOAD PUSH32 0x8C379A000000000000000000000000000000000000000000000000000000000 DUP2 MSTORE PUSH1 0x4 ADD PUSH2 0x1655 SWAP1 PUSH2 0x2F0F JUMP JUMPDEST PUSH1 0x40 MLOAD DUP1 SWAP2 SUB SWAP1 REVERT JUMPDEST PUSH1 0x0 PUSH20 0xFFFFFFFFFFFFFFFFFFFFFFFFFFFFFFFFFFFFFFFF AND DUP3 PUSH20 0xFFFFFFFFFFFFFFFFFFFFFFFFFFFFFFFFFFFFFFFF AND SUB PUSH2 0x16CD JUMPI PUSH1 0x40 MLOAD PUSH32 0x8C379A000000000000000000000000000000000000000000000000000000000 DUP2 MSTORE PUSH1 0x4 ADD PUSH2 0x16C4 SWAP1 PUSH2 0x2FA1 JUMP JUMPDEST PUSH1 0x40 MLOAD DUP1 SWAP2 SUB SWAP1 REVERT JUMPDEST PUSH1 0x5 PUSH1 0x0 SWAP1 SLOAD SWAP1 PUSH2 0x100 EXP SWAP1 DIV PUSH20 0xFFFFFFFFFFFFFFFFFFFFFFFFFFFFFFFFFFFFFFFF AND PUSH20 0xFFFFFFFFFFFFFFFFFFFFFFFFFFFFFFFFFFFFFFFF AND DUP4 PUSH20 0xFFFFFFFFFFFFFFFFFFFFFFFFFFFFFFFFFFFFFFFF AND SUB PUSH2 0x1807 JUMPI PUSH1 0x0 PUSH1 0x9 PUSH1 0x0 DUP5 PUSH20 0xFFFFFFFFFFFFFFFFFFFFFFFFFFFFFFFFFFFFFFFF AND PUSH20 0xFFFFFFFFFFFFFFFFFFFFFFFFFFFFFFFFFFFFFFFF AND DUP2 MSTORE PUSH1 0x20 ADD SWAP1 DUP2 MSTORE PUSH1 0x20 ADD PUSH1 0x0 KECCAK256 PUSH1 0x2 ADD PUSH1 0x0 SWAP1 SLOAD SWAP1 PUSH2 0x100 EXP SWAP1 DIV PUSH1 0xFF AND PUSH1 0xFF AND EQ ISZERO DUP1 ISZERO PUSH2 0x17C7 JUMPI POP PUSH1 0x0 PUSH1 0x9 PUSH1 0x0 DUP5 PUSH20 0xFFFFFFFFFFFFFFFFFFFFFFFFFFFFFFFFFFFFFFFF AND PUSH20 0xFFFFFFFFFFFFFFFFFFFFFFFFFFFFFFFFFFFFFFFF AND DUP2 MSTORE PUSH1 0x20 ADD SWAP1 DUP2 MSTORE PUSH1 0x20 ADD PUSH1 0x0 KECCAK256 PUSH1 0x7 ADD SLOAD EQ JUMPDEST PUSH2 0x1806 JUMPI PUSH1 0x40 MLOAD PUSH32 0x8C379A000000000000000000000000000000000000000000000000000000000 DUP2 MSTORE PUSH1 0x4 ADD PUSH2 0x17FD SWAP1 PUSH2 0x300D JUMP JUMPDEST PUSH1 0x40 MLOAD DUP1 SWAP2 SUB SWAP1 REVERT JUMPDEST JUMPDEST PUSH2 0x1812 DUP4 PUSH1 0x0 PUSH2 0x1BF5 JUMP JUMPDEST PUSH1 0x0 DUP1 PUSH1 0x0 DUP6 PUSH20 0xFFFFFFFFFFFFFFFFFFFFFFFFFFFFFFFFFFFFFFFF AND PUSH20 0xFFFFFFFFFFFFFFFFFFFFFFFFFFFFFFFFFFFFFFFF AND DUP2 MSTORE PUSH1 0x20 ADD SWAP1 DUP2 MSTORE PUSH1 0x20 ADD PUSH1 0x0 KECCAK256 SLOAD SWAP1 POP PUSH1 0x0 PUSH1 0x9 PUSH1 0x0 DUP7 PUSH20 0xFFFFFFFFFFFFFFFFFFFFFFFFFFFFFFFFFFFFFFFF AND PUSH20 0xFFFFFFFFFFFFFFFFFFFFFFFFFFFFFFFFFFFFFFFF AND DUP2 MSTORE PUSH1 0x20 ADD SWAP1 DUP2 MSTORE PUSH1 0x20 ADD PUSH1 0x0 KECCAK256 PUSH1 0x1 ADD SLOAD SWAP1 POP DUP3 DUP2 DUP4 PUSH2 0x18A9 SWAP2 SWAP1 PUSH2 0x2C47 JUMP JUMPDEST LT ISZERO PUSH2 0x18EA JUMPI PUSH1 0x40 MLOAD PUSH32 0x8C379A000000000000000000000000000000000000000000000000000000000 DUP2 MSTORE PUSH1 0x4 ADD PUSH2 0x18E1 SWAP1 PUSH2 0x3079 JUMP JUMPDEST PUSH1 0x40 MLOAD DUP1 SWAP2 SUB SWAP1 REVERT JUMPDEST PUSH2 0x18F5 DUP6 DUP6 DUP6 PUSH2 0x2063 JUMP JUMPDEST DUP3 DUP3 LT ISZERO PUSH2 0x1938 JUMPI PUSH1 0x40 MLOAD PUSH32 0x8C379A000000000000000000000000000000000000000000000000000000000 DUP2 MSTORE PUSH1 0x4 ADD PUSH2 0x192F SWAP1 PUSH2 0x310B JUMP JUMPDEST PUSH1 0x40 MLOAD DUP1 SWAP2 SUB SWAP1 REVERT JUMPDEST DUP3 DUP3 SUB PUSH1 0x0 DUP1 DUP8 PUSH20 0xFFFFFFFFFFFFFFFFFFFFFFFFFFFFFFFFFFFFFFFF AND PUSH20 0xFFFFFFFFFFFFFFFFFFFFFFFFFFFFFFFFFFFFFFFF AND DUP2 MSTORE PUSH1 0x20 ADD SWAP1 DUP2 MSTORE PUSH1 0x20 ADD PUSH1 0x0 KECCAK256 DUP2 SWAP1 SSTORE POP DUP3 PUSH1 0x0 DUP1 DUP7 PUSH20 0xFFFFFFFFFFFFFFFFFFFFFFFFFFFFFFFFFFFFFFFF AND PUSH20 0xFFFFFFFFFFFFFFFFFFFFFFFFFFFFFFFFFFFFFFFF AND DUP2 MSTORE PUSH1 0x20 ADD SWAP1 DUP2 MSTORE PUSH1 0x20 ADD PUSH1 0x0 KECCAK256 PUSH1 0x0 DUP3 DUP3 SLOAD PUSH2 0x19CB SWAP2 SWAP1 PUSH2 0x2881 JUMP JUMPDEST SWAP3 POP POP DUP2 SWAP1 SSTORE POP DUP4 PUSH20 0xFFFFFFFFFFFFFFFFFFFFFFFFFFFFFFFFFFFFFFFF AND DUP6 PUSH20 0xFFFFFFFFFFFFFFFFFFFFFFFFFFFFFFFFFFFFFFFF AND PUSH32 0xDDF252AD1BE2C89B69C2B068FC378DAA952BA7F163C4A11628F55A4DF523B3EF DUP6 PUSH1 0x40 MLOAD PUSH2 0x1A2F SWAP2 SWAP1 PUSH2 0x22E7 JUMP JUMPDEST PUSH1 0x40 MLOAD DUP1 SWAP2 SUB SWAP1 LOG3 PUSH2 0x1A42 DUP6 DUP6 DUP6 PUSH2 0x2068 JUMP JUMPDEST POP POP POP POP POP JUMP JUMPDEST PUSH1 0x0 DUP1 PUSH1 0x0 DUP1 PUSH1 0x0 DUP1 DUP7 PUSH1 0x1 PUSH1 0x5 DUP2 LT PUSH2 0x1A66 JUMPI PUSH2 0x1A65 PUSH2 0x29F9 JUMP JUMPDEST JUMPDEST ADD SLOAD SWAP1 POP PUSH1 0x0 PUSH2 0x1AB4 PUSH32 0x0 DUP10 PUSH1 0x2 PUSH1 0x5 DUP2 LT PUSH2 0x1AA4 JUMPI PUSH2 0x1AA3 PUSH2 0x29F9 JUMP JUMPDEST JUMPDEST ADD SLOAD PUSH2 0x206D SWAP1 SWAP2 SWAP1 PUSH4 0xFFFFFFFF AND JUMP JUMPDEST SWAP1 POP PUSH1 0x0 PUSH2 0x1B00 PUSH32 0x0 DUP11 PUSH1 0x3 PUSH1 0x5 DUP2 LT PUSH2 0x1AF0 JUMPI PUSH2 0x1AEF PUSH2 0x29F9 JUMP JUMPDEST JUMPDEST ADD SLOAD PUSH2 0x206D SWAP1 SWAP2 SWAP1 PUSH4 0xFFFFFFFF AND JUMP JUMPDEST SWAP1 POP PUSH1 0x0 DUP10 PUSH1 0x4 PUSH1 0x5 DUP2 LT PUSH2 0x1B18 JUMPI PUSH2 0x1B17 PUSH2 0x29F9 JUMP JUMPDEST JUMPDEST ADD SLOAD SWAP1 POP PUSH1 0x0 DUP2 SUB PUSH2 0x1B3E JUMPI PUSH1 0x6 SLOAD DUP4 DUP4 DUP7 DUP5 SWAP9 POP SWAP9 POP SWAP9 POP SWAP9 POP SWAP9 POP POP POP POP POP PUSH2 0x1BEC JUMP JUMPDEST PUSH1 0x0 PUSH2 0x3E8 SWAP1 POP PUSH1 0x0 PUSH2 0x1B5A DUP7 DUP4 PUSH2 0x2083 SWAP1 SWAP2 SWAP1 PUSH4 0xFFFFFFFF AND JUMP JUMPDEST SWAP1 POP PUSH1 0x0 PUSH2 0x1B95 DUP5 PUSH2 0x1B87 PUSH2 0x1B78 DUP8 DUP7 PUSH2 0x2099 SWAP1 SWAP2 SWAP1 PUSH4 0xFFFFFFFF AND JUMP JUMPDEST DUP6 PUSH2 0x2083 SWAP1 SWAP2 SWAP1 PUSH4 0xFFFFFFFF AND JUMP JUMPDEST PUSH2 0x20AF SWAP1 SWAP2 SWAP1 PUSH4 0xFFFFFFFF AND JUMP JUMPDEST SWAP1 POP PUSH1 0x0 PUSH2 0x1BD2 PUSH2 0x1BAF DUP8 DUP5 PUSH2 0x206D SWAP1 SWAP2 SWAP1 PUSH4 0xFFFFFFFF AND JUMP JUMPDEST PUSH2 0x1BC4 DUP10 PUSH1 0x6 SLOAD PUSH2 0x20C5 SWAP1 SWAP2 SWAP1 PUSH4 0xFFFFFFFF AND JUMP JUMPDEST PUSH2 0x20C5 SWAP1 SWAP2 SWAP1 PUSH4 0xFFFFFFFF AND JUMP JUMPDEST SWAP1 POP DUP1 DUP8 DUP8 DUP11 DUP9 SWAP13 POP SWAP13 POP SWAP13 POP SWAP13 POP SWAP13 POP POP POP POP POP POP POP POP POP JUMPDEST SWAP2 SWAP4 SWAP6 SWAP1 SWAP3 SWAP5 POP JUMP JUMPDEST PUSH1 0x0 PUSH1 0x9 PUSH1 0x0 DUP5 PUSH20 0xFFFFFFFFFFFFFFFFFFFFFFFFFFFFFFFFFFFFFFFF AND PUSH20 0xFFFFFFFFFFFFFFFFFFFFFFFFFFFFFFFFFFFFFFFF AND DUP2 MSTORE PUSH1 0x20 ADD SWAP1 DUP2 MSTORE PUSH1 0x20 ADD PUSH1 0x0 KECCAK256 SWAP1 POP PUSH1 0x0 DUP2 PUSH1 0x2 ADD PUSH1 0x0 SWAP1 SLOAD SWAP1 PUSH2 0x100 EXP SWAP1 DIV PUSH1 0xFF AND SWAP1 POP PUSH1 0x0 DUP2 PUSH1 0xFF AND EQ DUP1 PUSH2 0x1CA2 JUMPI POP PUSH1 0x0 PUSH1 0x9 PUSH1 0x0 DUP7 PUSH20 0xFFFFFFFFFFFFFFFFFFFFFFFFFFFFFFFFFFFFFFFF AND PUSH20 0xFFFFFFFFFFFFFFFFFFFFFFFFFFFFFFFFFFFFFFFF AND DUP2 MSTORE PUSH1 0x20 ADD SWAP1 DUP2 MSTORE PUSH1 0x20 ADD PUSH1 0x0 KECCAK256 PUSH1 0x1 ADD SLOAD EQ JUMPDEST ISZERO PUSH2 0x1CAE JUMPI POP POP PUSH2 0x1DE4 JUMP JUMPDEST PUSH1 0x0 TIMESTAMP SWAP1 POP PUSH1 0x6 DUP3 PUSH1 0xFF AND EQ ISZERO DUP1 ISZERO PUSH2 0x1CCB JUMPI POP PUSH1 0x7 DUP3 PUSH1 0xFF AND EQ ISZERO JUMPDEST DUP1 ISZERO PUSH2 0x1CDB JUMPI POP PUSH1 0x0 DUP3 PUSH1 0xFF AND EQ ISZERO JUMPDEST ISZERO PUSH2 0x1D78 JUMPI PUSH1 0x0 PUSH1 0x6 SLOAD SUB PUSH2 0x1D25 JUMPI PUSH1 0x40 MLOAD PUSH32 0x8C379A000000000000000000000000000000000000000000000000000000000 DUP2 MSTORE PUSH1 0x4 ADD PUSH2 0x1D1C SWAP1 PUSH2 0x3177 JUMP JUMPDEST PUSH1 0x40 MLOAD DUP1 SWAP2 SUB SWAP1 REVERT JUMPDEST DUP4 ISZERO PUSH2 0x1D77 JUMPI PUSH1 0x6 SLOAD DUP2 LT PUSH2 0x1D6F JUMPI PUSH1 0x40 MLOAD PUSH32 0x8C379A000000000000000000000000000000000000000000000000000000000 DUP2 MSTORE PUSH1 0x4 ADD PUSH2 0x1D66 SWAP1 PUSH2 0x31E3 JUMP JUMPDEST PUSH1 0x40 MLOAD DUP1 SWAP2 SUB SWAP1 REVERT JUMPDEST POP POP POP PUSH2 0x1DE4 JUMP JUMPDEST JUMPDEST PUSH1 0x0 DUP4 PUSH1 0x1 ADD SLOAD SUB PUSH2 0x1DBF JUMPI PUSH1 0x40 MLOAD PUSH32 0x8C379A000000000000000000000000000000000000000000000000000000000 DUP2 MSTORE PUSH1 0x4 ADD PUSH2 0x1DB6 SWAP1 PUSH2 0x324F JUMP JUMPDEST PUSH1 0x40 MLOAD DUP1 SWAP2 SUB SWAP1 REVERT JUMPDEST PUSH1 0x0 PUSH2 0x1DCB DUP5 DUP4 PUSH2 0x1DE8 JUMP JUMPDEST SWAP1 POP DUP1 DUP5 PUSH1 0x1 ADD DUP2 SWAP1 SSTORE POP DUP2 DUP5 PUSH1 0x7 ADD DUP2 SWAP1 SSTORE POP POP POP POP POP JUMPDEST POP POP JUMP JUMPDEST PUSH1 0x0 DUP1 PUSH1 0x0 DUP1 DUP6 PUSH1 0x7 ADD SLOAD SUB PUSH2 0x1F7A JUMPI DUP4 PUSH2 0x1E12 PUSH1 0x6 SLOAD DUP8 PUSH1 0x4 ADD SLOAD PUSH2 0x20C5 SWAP1 SWAP2 SWAP1 PUSH4 0xFFFFFFFF AND JUMP JUMPDEST GT ISZERO PUSH2 0x1E66 JUMPI PUSH2 0x1E5D PUSH2 0x1E4A PUSH2 0x3E8 PUSH2 0x1E3C DUP9 PUSH1 0x3 ADD SLOAD DUP10 PUSH1 0x0 ADD SLOAD PUSH2 0x206D SWAP1 SWAP2 SWAP1 PUSH4 0xFFFFFFFF AND JUMP JUMPDEST PUSH2 0x20AF SWAP1 SWAP2 SWAP1 PUSH4 0xFFFFFFFF AND JUMP JUMPDEST DUP7 PUSH1 0x1 ADD SLOAD PUSH2 0x2083 SWAP1 SWAP2 SWAP1 PUSH4 0xFFFFFFFF AND JUMP JUMPDEST SWAP3 POP POP POP PUSH2 0x205D JUMP JUMPDEST DUP5 PUSH1 0x8 ADD SLOAD DUP5 GT ISZERO PUSH2 0x1E7D JUMPI PUSH1 0x0 SWAP3 POP POP POP PUSH2 0x205D JUMP JUMPDEST PUSH2 0x1E96 DUP6 PUSH1 0x4 ADD SLOAD PUSH1 0x6 SLOAD PUSH2 0x20C5 SWAP1 SWAP2 SWAP1 PUSH4 0xFFFFFFFF AND JUMP JUMPDEST SWAP2 POP PUSH2 0x1EAB DUP3 DUP6 PUSH2 0x2083 SWAP1 SWAP2 SWAP1 PUSH4 0xFFFFFFFF AND JUMP JUMPDEST SWAP1 POP PUSH1 0x0 PUSH2 0x1F01 PUSH1 0x1 PUSH2 0x1EF3 DUP9 PUSH1 0x5 ADD SLOAD PUSH2 0x1EE5 PUSH2 0x1ED6 DUP12 PUSH1 0x5 ADD SLOAD DUP9 PUSH2 0x2099 SWAP1 SWAP2 SWAP1 PUSH4 0xFFFFFFFF AND JUMP JUMPDEST DUP8 PUSH2 0x2083 SWAP1 SWAP2 SWAP1 PUSH4 0xFFFFFFFF AND JUMP JUMPDEST PUSH2 0x20AF SWAP1 SWAP2 SWAP1 PUSH4 0xFFFFFFFF AND JUMP JUMPDEST PUSH2 0x20C5 SWAP1 SWAP2 SWAP1 PUSH4 0xFFFFFFFF AND JUMP JUMPDEST SWAP1 POP PUSH2 0x1F70 PUSH2 0x1F5D PUSH2 0x3E8 PUSH2 0x1F4F PUSH2 0x1F3C PUSH2 0x1F29 DUP12 PUSH1 0x6 ADD SLOAD DUP8 PUSH2 0x206D SWAP1 SWAP2 SWAP1 PUSH4 0xFFFFFFFF AND JUMP JUMPDEST DUP12 PUSH1 0x3 ADD SLOAD PUSH2 0x20C5 SWAP1 SWAP2 SWAP1 PUSH4 0xFFFFFFFF AND JUMP JUMPDEST DUP11 PUSH1 0x0 ADD SLOAD PUSH2 0x206D SWAP1 SWAP2 SWAP1 PUSH4 0xFFFFFFFF AND JUMP JUMPDEST PUSH2 0x20AF SWAP1 SWAP2 SWAP1 PUSH4 0xFFFFFFFF AND JUMP JUMPDEST DUP8 PUSH1 0x1 ADD SLOAD PUSH2 0x2083 SWAP1 SWAP2 SWAP1 PUSH4 0xFFFFFFFF AND JUMP JUMPDEST SWAP4 POP POP POP POP PUSH2 0x205D JUMP JUMPDEST DUP5 PUSH1 0x8 ADD SLOAD DUP5 GT ISZERO PUSH2 0x1F91 JUMPI PUSH1 0x0 SWAP3 POP POP POP PUSH2 0x205D JUMP JUMPDEST PUSH2 0x1FA8 DUP6 PUSH1 0x7 ADD SLOAD DUP6 PUSH2 0x2083 SWAP1 SWAP2 SWAP1 PUSH4 0xFFFFFFFF AND JUMP JUMPDEST SWAP1 POP PUSH1 0x0 PUSH2 0x1FFE PUSH1 0x1 PUSH2 0x1FF0 DUP9 PUSH1 0x5 ADD SLOAD PUSH2 0x1FE2 PUSH2 0x1FD3 DUP12 PUSH1 0x5 ADD SLOAD DUP9 PUSH2 0x2099 SWAP1 SWAP2 SWAP1 PUSH4 0xFFFFFFFF AND JUMP JUMPDEST DUP8 PUSH2 0x2083 SWAP1 SWAP2 SWAP1 PUSH4 0xFFFFFFFF AND JUMP JUMPDEST PUSH2 0x20AF SWAP1 SWAP2 SWAP1 PUSH4 0xFFFFFFFF AND JUMP JUMPDEST PUSH2 0x20C5 SWAP1 SWAP2 SWAP1 PUSH4 0xFFFFFFFF AND JUMP JUMPDEST SWAP1 POP PUSH2 0x2057 PUSH2 0x2044 PUSH2 0x2035 PUSH2 0x3E8 PUSH2 0x2027 DUP11 PUSH1 0x6 ADD SLOAD DUP12 PUSH1 0x0 ADD SLOAD PUSH2 0x206D SWAP1 SWAP2 SWAP1 PUSH4 0xFFFFFFFF AND JUMP JUMPDEST PUSH2 0x20AF SWAP1 SWAP2 SWAP1 PUSH4 0xFFFFFFFF AND JUMP JUMPDEST DUP4 PUSH2 0x206D SWAP1 SWAP2 SWAP1 PUSH4 0xFFFFFFFF AND JUMP JUMPDEST DUP8 PUSH1 0x1 ADD SLOAD PUSH2 0x2083 SWAP1 SWAP2 SWAP1 PUSH4 0xFFFFFFFF AND JUMP JUMPDEST SWAP4 POP POP POP POP JUMPDEST SWAP3 SWAP2 POP POP JUMP JUMPDEST POP POP POP JUMP JUMPDEST POP POP POP JUMP JUMPDEST PUSH1 0x0 DUP2 DUP4 PUSH2 0x207B SWAP2 SWAP1 PUSH2 0x326F JUMP JUMPDEST SWAP1 POP SWAP3 SWAP2 POP POP JUMP JUMPDEST PUSH1 0x0 DUP2 DUP4 PUSH2 0x2091 SWAP2 SWAP1 PUSH2 0x2C47 JUMP JUMPDEST SWAP1 POP SWAP3 SWAP2 POP POP JUMP JUMPDEST PUSH1 0x0 DUP2 DUP4 PUSH2 0x20A7 SWAP2 SWAP1 PUSH2 0x32E0 JUMP JUMPDEST SWAP1 POP SWAP3 SWAP2 POP POP JUMP JUMPDEST PUSH1 0x0 DUP2 DUP4 PUSH2 0x20BD SWAP2 SWAP1 PUSH2 0x3311 JUMP JUMPDEST SWAP1 POP SWAP3 SWAP2 POP POP JUMP JUMPDEST PUSH1 0x0 DUP2 DUP4 PUSH2 0x20D3 SWAP2 SWAP1 PUSH2 0x2881 JUMP JUMPDEST SWAP1 POP SWAP3 SWAP2 POP POP JUMP JUMPDEST PUSH1 0x0 DUP2 MLOAD SWAP1 POP SWAP2 SWAP1 POP JUMP JUMPDEST PUSH1 0x0 DUP3 DUP3 MSTORE PUSH1 0x20 DUP3 ADD SWAP1 POP SWAP3 SWAP2 POP POP JUMP JUMPDEST PUSH1 0x0 JUMPDEST DUP4 DUP2 LT ISZERO PUSH2 0x2115 JUMPI DUP1 DUP3 ADD MLOAD DUP2 DUP5 ADD MSTORE PUSH1 0x20 DUP2 ADD SWAP1 POP PUSH2 0x20FA JUMP JUMPDEST PUSH1 0x0 DUP5 DUP5 ADD MSTORE POP POP POP POP JUMP JUMPDEST PUSH1 0x0 PUSH1 0x1F NOT PUSH1 0x1F DUP4 ADD AND SWAP1 POP SWAP2 SWAP1 POP JUMP JUMPDEST PUSH1 0x0 PUSH2 0x213D DUP3 PUSH2 0x20DB JUMP JUMPDEST PUSH2 0x2147 DUP2 DUP6 PUSH2 0x20E6 JUMP JUMPDEST SWAP4 POP PUSH2 0x2157 DUP2 DUP6 PUSH1 0x20 DUP7 ADD PUSH2 0x20F7 JUMP JUMPDEST PUSH2 0x2160 DUP2 PUSH2 0x2121 JUMP JUMPDEST DUP5 ADD SWAP2 POP POP SWAP3 SWAP2 POP POP JUMP JUMPDEST PUSH1 0x0 PUSH1 0x20 DUP3 ADD SWAP1 POP DUP2 DUP2 SUB PUSH1 0x0 DUP4 ADD MSTORE PUSH2 0x2185 DUP2 DUP5 PUSH2 0x2132 JUMP JUMPDEST SWAP1 POP SWAP3 SWAP2 POP POP JUMP JUMPDEST PUSH1 0x0 PUSH1 0x40 MLOAD SWAP1 POP SWAP1 JUMP JUMPDEST PUSH1 0x0 DUP1 REVERT JUMPDEST PUSH1 0x0 DUP1 REVERT JUMPDEST PUSH1 0x0 PUSH20 0xFFFFFFFFFFFFFFFFFFFFFFFFFFFFFFFFFFFFFFFF DUP3 AND SWAP1 POP SWAP2 SWAP1 POP JUMP JUMPDEST PUSH1 0x0 PUSH2 0x21CC DUP3 PUSH2 0x21A1 JUMP JUMPDEST SWAP1 POP SWAP2 SWAP1 POP JUMP JUMPDEST PUSH2 0x21DC DUP2 PUSH2 0x21C1 JUMP JUMPDEST DUP2 EQ PUSH2 0x21E7 JUMPI PUSH1 0x0 DUP1 REVERT JUMPDEST POP JUMP JUMPDEST PUSH1 0x0 DUP2 CALLDATALOAD SWAP1 POP PUSH2 0x21F9 DUP2 PUSH2 0x21D3 JUMP JUMPDEST SWAP3 SWAP2 POP POP JUMP JUMPDEST PUSH1 0x0 DUP2 SWAP1 POP SWAP2 SWAP1 POP JUMP JUMPDEST PUSH2 0x2212 DUP2 PUSH2 0x21FF JUMP JUMPDEST DUP2 EQ PUSH2 0x221D JUMPI PUSH1 0x0 DUP1 REVERT JUMPDEST POP JUMP JUMPDEST PUSH1 0x0 DUP2 CALLDATALOAD SWAP1 POP PUSH2 0x222F DUP2 PUSH2 0x2209 JUMP JUMPDEST SWAP3 SWAP2 POP POP JUMP JUMPDEST PUSH1 0x0 DUP1 PUSH1 0x40 DUP4 DUP6 SUB SLT ISZERO PUSH2 0x224C JUMPI PUSH2 0x224B PUSH2 0x2197 JUMP JUMPDEST JUMPDEST PUSH1 0x0 PUSH2 0x225A DUP6 DUP3 DUP7 ADD PUSH2 0x21EA JUMP JUMPDEST SWAP3 POP POP PUSH1 0x20 PUSH2 0x226B DUP6 DUP3 DUP7 ADD PUSH2 0x2220 JUMP JUMPDEST SWAP2 POP POP SWAP3 POP SWAP3 SWAP1 POP JUMP JUMPDEST PUSH1 0x0 DUP2 ISZERO ISZERO SWAP1 POP SWAP2 SWAP1 POP JUMP JUMPDEST PUSH2 0x228A DUP2 PUSH2 0x2275 JUMP JUMPDEST DUP3 MSTORE POP POP JUMP JUMPDEST PUSH1 0x0 PUSH1 0x20 DUP3 ADD SWAP1 POP PUSH2 0x22A5 PUSH1 0x0 DUP4 ADD DUP5 PUSH2 0x2281 JUMP JUMPDEST SWAP3 SWAP2 POP POP JUMP JUMPDEST PUSH1 0x0 PUSH1 0x20 DUP3 DUP5 SUB SLT ISZERO PUSH2 0x22C1 JUMPI PUSH2 0x22C0 PUSH2 0x2197 JUMP JUMPDEST JUMPDEST PUSH1 0x0 PUSH2 0x22CF DUP5 DUP3 DUP6 ADD PUSH2 0x21EA JUMP JUMPDEST SWAP2 POP POP SWAP3 SWAP2 POP POP JUMP JUMPDEST PUSH2 0x22E1 DUP2 PUSH2 0x21FF JUMP JUMPDEST DUP3 MSTORE POP POP JUMP JUMPDEST PUSH1 0x0 PUSH1 0x20 DUP3 ADD SWAP1 POP PUSH2 0x22FC PUSH1 0x0 DUP4 ADD DUP5 PUSH2 0x22D8 JUMP JUMPDEST SWAP3 SWAP2 POP POP JUMP JUMPDEST PUSH1 0x0 DUP1 PUSH1 0x0 PUSH1 0x60 DUP5 DUP7 SUB SLT ISZERO PUSH2 0x231B JUMPI PUSH2 0x231A PUSH2 0x2197 JUMP JUMPDEST JUMPDEST PUSH1 0x0 PUSH2 0x2329 DUP7 DUP3 DUP8 ADD PUSH2 0x21EA JUMP JUMPDEST SWAP4 POP POP PUSH1 0x20 PUSH2 0x233A DUP7 DUP3 DUP8 ADD PUSH2 0x21EA JUMP JUMPDEST SWAP3 POP POP PUSH1 0x40 PUSH2 0x234B DUP7 DUP3 DUP8 ADD PUSH2 0x2220 JUMP JUMPDEST SWAP2 POP POP SWAP3 POP SWAP3 POP SWAP3 JUMP JUMPDEST PUSH1 0x0 PUSH1 0xFF DUP3 AND SWAP1 POP SWAP2 SWAP1 POP JUMP JUMPDEST PUSH2 0x236B DUP2 PUSH2 0x2355 JUMP JUMPDEST DUP3 MSTORE POP POP JUMP JUMPDEST PUSH1 0x0 PUSH1 0x20 DUP3 ADD SWAP1 POP PUSH2 0x2386 PUSH1 0x0 DUP4 ADD DUP5 PUSH2 0x2362 JUMP JUMPDEST SWAP3 SWAP2 POP POP JUMP JUMPDEST PUSH1 0x0 PUSH1 0x20 DUP3 DUP5 SUB SLT ISZERO PUSH2 0x23A2 JUMPI PUSH2 0x23A1 PUSH2 0x2197 JUMP JUMPDEST JUMPDEST PUSH1 0x0 PUSH2 0x23B0 DUP5 DUP3 DUP6 ADD PUSH2 0x2220 JUMP JUMPDEST SWAP2 POP POP SWAP3 SWAP2 POP POP JUMP JUMPDEST PUSH2 0x23C2 DUP2 PUSH2 0x2355 JUMP JUMPDEST DUP2 EQ PUSH2 0x23CD JUMPI PUSH1 0x0 DUP1 REVERT JUMPDEST POP JUMP JUMPDEST PUSH1 0x0 DUP2 CALLDATALOAD SWAP1 POP PUSH2 0x23DF DUP2 PUSH2 0x23B9 JUMP JUMPDEST SWAP3 SWAP2 POP POP JUMP JUMPDEST PUSH1 0x0 DUP1 REVERT JUMPDEST PUSH32 0x4E487B7100000000000000000000000000000000000000000000000000000000 PUSH1 0x0 MSTORE PUSH1 0x41 PUSH1 0x4 MSTORE PUSH1 0x24 PUSH1 0x0 REVERT JUMPDEST PUSH2 0x2422 DUP3 PUSH2 0x2121 JUMP JUMPDEST DUP2 ADD DUP2 DUP2 LT PUSH8 0xFFFFFFFFFFFFFFFF DUP3 GT OR ISZERO PUSH2 0x2441 JUMPI PUSH2 0x2440 PUSH2 0x23EA JUMP JUMPDEST JUMPDEST DUP1 PUSH1 0x40 MSTORE POP POP POP JUMP JUMPDEST PUSH1 0x0 PUSH2 0x2454 PUSH2 0x218D JUMP JUMPDEST SWAP1 POP PUSH2 0x2460 DUP3 DUP3 PUSH2 0x2419 JUMP JUMPDEST SWAP2 SWAP1 POP JUMP JUMPDEST PUSH1 0x0 PUSH8 0xFFFFFFFFFFFFFFFF DUP3 GT ISZERO PUSH2 0x2480 JUMPI PUSH2 0x247F PUSH2 0x23EA JUMP JUMPDEST JUMPDEST PUSH1 0x20 DUP3 MUL SWAP1 POP PUSH1 0x20 DUP2 ADD SWAP1 POP SWAP2 SWAP1 POP JUMP JUMPDEST PUSH1 0x0 DUP1 REVERT JUMPDEST PUSH1 0x0 PUSH2 0x24A9 PUSH2 0x24A4 DUP5 PUSH2 0x2465 JUMP JUMPDEST PUSH2 0x244A JUMP JUMPDEST SWAP1 POP DUP1 DUP4 DUP3 MSTORE PUSH1 0x20 DUP3 ADD SWAP1 POP PUSH1 0x20 DUP5 MUL DUP4 ADD DUP6 DUP2 GT ISZERO PUSH2 0x24CC JUMPI PUSH2 0x24CB PUSH2 0x2491 JUMP JUMPDEST JUMPDEST DUP4 JUMPDEST DUP2 DUP2 LT ISZERO PUSH2 0x24F5 JUMPI DUP1 PUSH2 0x24E1 DUP9 DUP3 PUSH2 0x21EA JUMP JUMPDEST DUP5 MSTORE PUSH1 0x20 DUP5 ADD SWAP4 POP POP PUSH1 0x20 DUP2 ADD SWAP1 POP PUSH2 0x24CE JUMP JUMPDEST POP POP POP SWAP4 SWAP3 POP POP POP JUMP JUMPDEST PUSH1 0x0 DUP3 PUSH1 0x1F DUP4 ADD SLT PUSH2 0x2514 JUMPI PUSH2 0x2513 PUSH2 0x23E5 JUMP JUMPDEST JUMPDEST DUP2 CALLDATALOAD PUSH2 0x2524 DUP5 DUP3 PUSH1 0x20 DUP7 ADD PUSH2 0x2496 JUMP JUMPDEST SWAP2 POP POP SWAP3 SWAP2 POP POP JUMP JUMPDEST PUSH1 0x0 PUSH8 0xFFFFFFFFFFFFFFFF DUP3 GT ISZERO PUSH2 0x2548 JUMPI PUSH2 0x2547 PUSH2 0x23EA JUMP JUMPDEST JUMPDEST PUSH1 0x20 DUP3 MUL SWAP1 POP PUSH1 0x20 DUP2 ADD SWAP1 POP SWAP2 SWAP1 POP JUMP JUMPDEST PUSH1 0x0 PUSH2 0x256C PUSH2 0x2567 DUP5 PUSH2 0x252D JUMP JUMPDEST PUSH2 0x244A JUMP JUMPDEST SWAP1 POP DUP1 DUP4 DUP3 MSTORE PUSH1 0x20 DUP3 ADD SWAP1 POP PUSH1 0x20 DUP5 MUL DUP4 ADD DUP6 DUP2 GT ISZERO PUSH2 0x258F JUMPI PUSH2 0x258E PUSH2 0x2491 JUMP JUMPDEST JUMPDEST DUP4 JUMPDEST DUP2 DUP2 LT ISZERO PUSH2 0x25B8 JUMPI DUP1 PUSH2 0x25A4 DUP9 DUP3 PUSH2 0x2220 JUMP JUMPDEST DUP5 MSTORE PUSH1 0x20 DUP5 ADD SWAP4 POP POP PUSH1 0x20 DUP2 ADD SWAP1 POP PUSH2 0x2591 JUMP JUMPDEST POP POP POP SWAP4 SWAP3 POP POP POP JUMP JUMPDEST PUSH1 0x0 DUP3 PUSH1 0x1F DUP4 ADD SLT PUSH2 0x25D7 JUMPI PUSH2 0x25D6 PUSH2 0x23E5 JUMP JUMPDEST JUMPDEST DUP2 CALLDATALOAD PUSH2 0x25E7 DUP5 DUP3 PUSH1 0x20 DUP7 ADD PUSH2 0x2559 JUMP JUMPDEST SWAP2 POP POP SWAP3 SWAP2 POP POP JUMP JUMPDEST PUSH1 0x0 DUP1 PUSH1 0x0 PUSH1 0x60 DUP5 DUP7 SUB SLT ISZERO PUSH2 0x2609 JUMPI PUSH2 0x2608 PUSH2 0x2197 JUMP JUMPDEST JUMPDEST PUSH1 0x0 PUSH2 0x2617 DUP7 DUP3 DUP8 ADD PUSH2 0x23D0 JUMP JUMPDEST SWAP4 POP POP PUSH1 0x20 DUP5 ADD CALLDATALOAD PUSH8 0xFFFFFFFFFFFFFFFF DUP2 GT ISZERO PUSH2 0x2638 JUMPI PUSH2 0x2637 PUSH2 0x219C JUMP JUMPDEST JUMPDEST PUSH2 0x2644 DUP7 DUP3 DUP8 ADD PUSH2 0x24FF JUMP JUMPDEST SWAP3 POP POP PUSH1 0x40 DUP5 ADD CALLDATALOAD PUSH8 0xFFFFFFFFFFFFFFFF DUP2 GT ISZERO PUSH2 0x2665 JUMPI PUSH2 0x2664 PUSH2 0x219C JUMP JUMPDEST JUMPDEST PUSH2 0x2671 DUP7 DUP3 DUP8 ADD PUSH2 0x25C2 JUMP JUMPDEST SWAP2 POP POP SWAP3 POP SWAP3 POP SWAP3 JUMP JUMPDEST PUSH1 0x0 PUSH1 0x20 DUP3 DUP5 SUB SLT ISZERO PUSH2 0x2691 JUMPI PUSH2 0x2690 PUSH2 0x2197 JUMP JUMPDEST JUMPDEST PUSH1 0x0 PUSH2 0x269F DUP5 DUP3 DUP6 ADD PUSH2 0x23D0 JUMP JUMPDEST SWAP2 POP POP SWAP3 SWAP2 POP POP JUMP JUMPDEST PUSH1 0x0 DUP2 MLOAD SWAP1 POP SWAP2 SWAP1 POP JUMP JUMPDEST PUSH1 0x0 DUP3 DUP3 MSTORE PUSH1 0x20 DUP3 ADD SWAP1 POP SWAP3 SWAP2 POP POP JUMP JUMPDEST PUSH1 0x0 DUP2 SWAP1 POP PUSH1 0x20 DUP3 ADD SWAP1 POP SWAP2 SWAP1 POP JUMP JUMPDEST PUSH2 0x26DD DUP2 PUSH2 0x21C1 JUMP JUMPDEST DUP3 MSTORE POP POP JUMP JUMPDEST PUSH1 0x0 PUSH2 0x26EF DUP4 DUP4 PUSH2 0x26D4 JUMP JUMPDEST PUSH1 0x20 DUP4 ADD SWAP1 POP SWAP3 SWAP2 POP POP JUMP JUMPDEST PUSH1 0x0 PUSH1 0x20 DUP3 ADD SWAP1 POP SWAP2 SWAP1 POP JUMP JUMPDEST PUSH1 0x0 PUSH2 0x2713 DUP3 PUSH2 0x26A8 JUMP JUMPDEST PUSH2 0x271D DUP2 DUP6 PUSH2 0x26B3 JUMP JUMPDEST SWAP4 POP PUSH2 0x2728 DUP4 PUSH2 0x26C4 JUMP JUMPDEST DUP1 PUSH1 0x0 JUMPDEST DUP4 DUP2 LT ISZERO PUSH2 0x2759 JUMPI DUP2 MLOAD PUSH2 0x2740 DUP9 DUP3 PUSH2 0x26E3 JUMP JUMPDEST SWAP8 POP PUSH2 0x274B DUP4 PUSH2 0x26FB JUMP JUMPDEST SWAP3 POP POP PUSH1 0x1 DUP2 ADD SWAP1 POP PUSH2 0x272C JUMP JUMPDEST POP DUP6 SWAP4 POP POP POP POP SWAP3 SWAP2 POP POP JUMP JUMPDEST PUSH1 0x0 PUSH1 0x20 DUP3 ADD SWAP1 POP DUP2 DUP2 SUB PUSH1 0x0 DUP4 ADD MSTORE PUSH2 0x2780 DUP2 DUP5 PUSH2 0x2708 JUMP JUMPDEST SWAP1 POP SWAP3 SWAP2 POP POP JUMP JUMPDEST PUSH1 0x0 DUP1 PUSH1 0x40 DUP4 DUP6 SUB SLT ISZERO PUSH2 0x279F JUMPI PUSH2 0x279E PUSH2 0x2197 JUMP JUMPDEST JUMPDEST PUSH1 0x0 PUSH2 0x27AD DUP6 DUP3 DUP7 ADD PUSH2 0x21EA JUMP JUMPDEST SWAP3 POP POP PUSH1 0x20 PUSH2 0x27BE DUP6 DUP3 DUP7 ADD PUSH2 0x21EA JUMP JUMPDEST SWAP2 POP POP SWAP3 POP SWAP3 SWAP1 POP JUMP JUMPDEST PUSH2 0x27D1 DUP2 PUSH2 0x21C1 JUMP JUMPDEST DUP3 MSTORE POP POP JUMP JUMPDEST PUSH1 0x0 PUSH1 0x20 DUP3 ADD SWAP1 POP PUSH2 0x27EC PUSH1 0x0 DUP4 ADD DUP5 PUSH2 0x27C8 JUMP JUMPDEST SWAP3 SWAP2 POP POP JUMP JUMPDEST PUSH32 0x4E487B7100000000000000000000000000000000000000000000000000000000 PUSH1 0x0 MSTORE PUSH1 0x22 PUSH1 0x4 MSTORE PUSH1 0x24 PUSH1 0x0 REVERT JUMPDEST PUSH1 0x0 PUSH1 0x2 DUP3 DIV SWAP1 POP PUSH1 0x1 DUP3 AND DUP1 PUSH2 0x2839 JUMPI PUSH1 0x7F DUP3 AND SWAP2 POP JUMPDEST PUSH1 0x20 DUP3 LT DUP2 SUB PUSH2 0x284C JUMPI PUSH2 0x284B PUSH2 0x27F2 JUMP JUMPDEST JUMPDEST POP SWAP2 SWAP1 POP JUMP JUMPDEST PUSH32 0x4E487B7100000000000000000000000000000000000000000000000000000000 PUSH1 0x0 MSTORE PUSH1 0x11 PUSH1 0x4 MSTORE PUSH1 0x24 PUSH1 0x0 REVERT JUMPDEST PUSH1 0x0 PUSH2 0x288C DUP3 PUSH2 0x21FF JUMP JUMPDEST SWAP2 POP PUSH2 0x2897 DUP4 PUSH2 0x21FF JUMP JUMPDEST SWAP3 POP DUP3 DUP3 ADD SWAP1 POP DUP1 DUP3 GT ISZERO PUSH2 0x28AF JUMPI PUSH2 0x28AE PUSH2 0x2852 JUMP JUMPDEST JUMPDEST SWAP3 SWAP2 POP POP JUMP JUMPDEST PUSH32 0x6E6F74206F6E7765720000000000000000000000000000000000000000000000 PUSH1 0x0 DUP3 ADD MSTORE POP JUMP JUMPDEST PUSH1 0x0 PUSH2 0x28EB PUSH1 0x9 DUP4 PUSH2 0x20E6 JUMP JUMPDEST SWAP2 POP PUSH2 0x28F6 DUP3 PUSH2 0x28B5 JUMP JUMPDEST PUSH1 0x20 DUP3 ADD SWAP1 POP SWAP2 SWAP1 POP JUMP JUMPDEST PUSH1 0x0 PUSH1 0x20 DUP3 ADD SWAP1 POP DUP2 DUP2 SUB PUSH1 0x0 DUP4 ADD MSTORE PUSH2 0x291A DUP2 PUSH2 0x28DE JUMP JUMPDEST SWAP1 POP SWAP2 SWAP1 POP JUMP JUMPDEST PUSH32 0x737461727454696D652065786973740000000000000000000000000000000000 PUSH1 0x0 DUP3 ADD MSTORE POP JUMP JUMPDEST PUSH1 0x0 PUSH2 0x2957 PUSH1 0xF DUP4 PUSH2 0x20E6 JUMP JUMPDEST SWAP2 POP PUSH2 0x2962 DUP3 PUSH2 0x2921 JUMP JUMPDEST PUSH1 0x20 DUP3 ADD SWAP1 POP SWAP2 SWAP1 POP JUMP JUMPDEST PUSH1 0x0 PUSH1 0x20 DUP3 ADD SWAP1 POP DUP2 DUP2 SUB PUSH1 0x0 DUP4 ADD MSTORE PUSH2 0x2986 DUP2 PUSH2 0x294A JUMP JUMPDEST SWAP1 POP SWAP2 SWAP1 POP JUMP JUMPDEST PUSH32 0x74696D65206572726F7200000000000000000000000000000000000000000000 PUSH1 0x0 DUP3 ADD MSTORE POP JUMP JUMPDEST PUSH1 0x0 PUSH2 0x29C3 PUSH1 0xA DUP4 PUSH2 0x20E6 JUMP JUMPDEST SWAP2 POP PUSH2 0x29CE DUP3 PUSH2 0x298D JUMP JUMPDEST PUSH1 0x20 DUP3 ADD SWAP1 POP SWAP2 SWAP1 POP JUMP JUMPDEST PUSH1 0x0 PUSH1 0x20 DUP3 ADD SWAP1 POP DUP2 DUP2 SUB PUSH1 0x0 DUP4 ADD MSTORE PUSH2 0x29F2 DUP2 PUSH2 0x29B6 JUMP JUMPDEST SWAP1 POP SWAP2 SWAP1 POP JUMP JUMPDEST PUSH32 0x4E487B7100000000000000000000000000000000000000000000000000000000 PUSH1 0x0 MSTORE PUSH1 0x32 PUSH1 0x4 MSTORE PUSH1 0x24 PUSH1 0x0 REVERT JUMPDEST PUSH1 0x0 PUSH2 0x2A33 DUP3 PUSH2 0x2355 JUMP JUMPDEST SWAP2 POP PUSH2 0x2A3E DUP4 PUSH2 0x2355 JUMP JUMPDEST SWAP3 POP DUP3 DUP3 ADD SWAP1 POP PUSH1 0xFF DUP2 GT ISZERO PUSH2 0x2A57 JUMPI PUSH2 0x2A56 PUSH2 0x2852 JUMP JUMPDEST JUMPDEST SWAP3 SWAP2 POP POP JUMP JUMPDEST PUSH1 0x0 PUSH2 0x2A68 DUP3 PUSH2 0x2355 JUMP JUMPDEST SWAP2 POP PUSH1 0xFF DUP3 SUB PUSH2 0x2A7B JUMPI PUSH2 0x2A7A PUSH2 0x2852 JUMP JUMPDEST JUMPDEST PUSH1 0x1 DUP3 ADD SWAP1 POP SWAP2 SWAP1 POP JUMP JUMPDEST PUSH32 0x6F72676964206973207A65726F00000000000000000000000000000000000000 PUSH1 0x0 DUP3 ADD MSTORE POP JUMP JUMPDEST PUSH1 0x0 PUSH2 0x2ABC PUSH1 0xD DUP4 PUSH2 0x20E6 JUMP JUMPDEST SWAP2 POP PUSH2 0x2AC7 DUP3 PUSH2 0x2A86 JUMP JUMPDEST PUSH1 0x20 DUP3 ADD SWAP1 POP SWAP2 SWAP1 POP JUMP JUMPDEST PUSH1 0x0 PUSH1 0x20 DUP3 ADD SWAP1 POP DUP2 DUP2 SUB PUSH1 0x0 DUP4 ADD MSTORE PUSH2 0x2AEB DUP2 PUSH2 0x2AAF JUMP JUMPDEST SWAP1 POP SWAP2 SWAP1 POP JUMP JUMPDEST PUSH32 0x6C656E677468206572726F720000000000000000000000000000000000000000 PUSH1 0x0 DUP3 ADD MSTORE POP JUMP JUMPDEST PUSH1 0x0 PUSH2 0x2B28 PUSH1 0xC DUP4 PUSH2 0x20E6 JUMP JUMPDEST SWAP2 POP PUSH2 0x2B33 DUP3 PUSH2 0x2AF2 JUMP JUMPDEST PUSH1 0x20 DUP3 ADD SWAP1 POP SWAP2 SWAP1 POP JUMP JUMPDEST PUSH1 0x0 PUSH1 0x20 DUP3 ADD SWAP1 POP DUP2 DUP2 SUB PUSH1 0x0 DUP4 ADD MSTORE PUSH2 0x2B57 DUP2 PUSH2 0x2B1B JUMP JUMPDEST SWAP1 POP SWAP2 SWAP1 POP JUMP JUMPDEST PUSH1 0x0 PUSH2 0x2B69 DUP3 PUSH2 0x2355 JUMP JUMPDEST SWAP2 POP PUSH2 0x2B74 DUP4 PUSH2 0x2355 JUMP JUMPDEST SWAP3 POP DUP3 DUP3 SUB SWAP1 POP PUSH1 0xFF DUP2 GT ISZERO PUSH2 0x2B8D JUMPI PUSH2 0x2B8C PUSH2 0x2852 JUMP JUMPDEST JUMPDEST SWAP3 SWAP2 POP POP JUMP JUMPDEST PUSH1 0x0 PUSH2 0x2B9E DUP3 PUSH2 0x21FF JUMP JUMPDEST SWAP2 POP PUSH32 0xFFFFFFFFFFFFFFFFFFFFFFFFFFFFFFFFFFFFFFFFFFFFFFFFFFFFFFFFFFFFFFFF DUP3 SUB PUSH2 0x2BD0 JUMPI PUSH2 0x2BCF PUSH2 0x2852 JUMP JUMPDEST JUMPDEST PUSH1 0x1 DUP3 ADD SWAP1 POP SWAP2 SWAP1 POP JUMP JUMPDEST PUSH32 0x746F74616C206572726F72000000000000000000000000000000000000000000 PUSH1 0x0 DUP3 ADD MSTORE POP JUMP JUMPDEST PUSH1 0x0 PUSH2 0x2C11 PUSH1 0xB DUP4 PUSH2 0x20E6 JUMP JUMPDEST SWAP2 POP PUSH2 0x2C1C DUP3 PUSH2 0x2BDB JUMP JUMPDEST PUSH1 0x20 DUP3 ADD SWAP1 POP SWAP2 SWAP1 POP JUMP JUMPDEST PUSH1 0x0 PUSH1 0x20 DUP3 ADD SWAP1 POP DUP2 DUP2 SUB PUSH1 0x0 DUP4 ADD MSTORE PUSH2 0x2C40 DUP2 PUSH2 0x2C04 JUMP JUMPDEST SWAP1 POP SWAP2 SWAP1 POP JUMP JUMPDEST PUSH1 0x0 PUSH2 0x2C52 DUP3 PUSH2 0x21FF JUMP JUMPDEST SWAP2 POP PUSH2 0x2C5D DUP4 PUSH2 0x21FF JUMP JUMPDEST SWAP3 POP DUP3 DUP3 SUB SWAP1 POP DUP2 DUP2 GT ISZERO PUSH2 0x2C75 JUMPI PUSH2 0x2C74 PUSH2 0x2852 JUMP JUMPDEST JUMPDEST SWAP3 SWAP2 POP POP JUMP JUMPDEST PUSH32 0x45524332303A2064656372656173656420616C6C6F77616E63652062656C6F77 PUSH1 0x0 DUP3 ADD MSTORE PUSH32 0x207A65726F000000000000000000000000000000000000000000000000000000 PUSH1 0x20 DUP3 ADD MSTORE POP JUMP JUMPDEST PUSH1 0x0 PUSH2 0x2CD7 PUSH1 0x25 DUP4 PUSH2 0x20E6 JUMP JUMPDEST SWAP2 POP PUSH2 0x2CE2 DUP3 PUSH2 0x2C7B JUMP JUMPDEST PUSH1 0x40 DUP3 ADD SWAP1 POP SWAP2 SWAP1 POP JUMP JUMPDEST PUSH1 0x0 PUSH1 0x20 DUP3 ADD SWAP1 POP DUP2 DUP2 SUB PUSH1 0x0 DUP4 ADD MSTORE PUSH2 0x2D06 DUP2 PUSH2 0x2CCA JUMP JUMPDEST SWAP1 POP SWAP2 SWAP1 POP JUMP JUMPDEST PUSH32 0x45524332303A20617070726F76652066726F6D20746865207A65726F20616464 PUSH1 0x0 DUP3 ADD MSTORE PUSH32 0x7265737300000000000000000000000000000000000000000000000000000000 PUSH1 0x20 DUP3 ADD MSTORE POP JUMP JUMPDEST PUSH1 0x0 PUSH2 0x2D69 PUSH1 0x24 DUP4 PUSH2 0x20E6 JUMP JUMPDEST SWAP2 POP PUSH2 0x2D74 DUP3 PUSH2 0x2D0D JUMP JUMPDEST PUSH1 0x40 DUP3 ADD SWAP1 POP SWAP2 SWAP1 POP JUMP JUMPDEST PUSH1 0x0 PUSH1 0x20 DUP3 ADD SWAP1 POP DUP2 DUP2 SUB PUSH1 0x0 DUP4 ADD MSTORE PUSH2 0x2D98 DUP2 PUSH2 0x2D5C JUMP JUMPDEST SWAP1 POP SWAP2 SWAP1 POP JUMP JUMPDEST PUSH32 0x45524332303A20617070726F766520746F20746865207A65726F206164647265 PUSH1 0x0 DUP3 ADD MSTORE PUSH32 0x7373000000000000000000000000000000000000000000000000000000000000 PUSH1 0x20 DUP3 ADD MSTORE POP JUMP JUMPDEST PUSH1 0x0 PUSH2 0x2DFB PUSH1 0x22 DUP4 PUSH2 0x20E6 JUMP JUMPDEST SWAP2 POP PUSH2 0x2E06 DUP3 PUSH2 0x2D9F JUMP JUMPDEST PUSH1 0x40 DUP3 ADD SWAP1 POP SWAP2 SWAP1 POP JUMP JUMPDEST PUSH1 0x0 PUSH1 0x20 DUP3 ADD SWAP1 POP DUP2 DUP2 SUB PUSH1 0x0 DUP4 ADD MSTORE PUSH2 0x2E2A DUP2 PUSH2 0x2DEE JUMP JUMPDEST SWAP1 POP SWAP2 SWAP1 POP JUMP JUMPDEST PUSH32 0x45524332303A20696E73756666696369656E7420616C6C6F77616E6365000000 PUSH1 0x0 DUP3 ADD MSTORE POP JUMP JUMPDEST PUSH1 0x0 PUSH2 0x2E67 PUSH1 0x1D DUP4 PUSH2 0x20E6 JUMP JUMPDEST SWAP2 POP PUSH2 0x2E72 DUP3 PUSH2 0x2E31 JUMP JUMPDEST PUSH1 0x20 DUP3 ADD SWAP1 POP SWAP2 SWAP1 POP JUMP JUMPDEST PUSH1 0x0 PUSH1 0x20 DUP3 ADD SWAP1 POP DUP2 DUP2 SUB PUSH1 0x0 DUP4 ADD MSTORE PUSH2 0x2E96 DUP2 PUSH2 0x2E5A JUMP JUMPDEST SWAP1 POP SWAP2 SWAP1 POP JUMP JUMPDEST PUSH32 0x45524332303A207472616E736665722066726F6D20746865207A65726F206164 PUSH1 0x0 DUP3 ADD MSTORE PUSH32 0x6472657373000000000000000000000000000000000000000000000000000000 PUSH1 0x20 DUP3 ADD MSTORE POP JUMP JUMPDEST PUSH1 0x0 PUSH2 0x2EF9 PUSH1 0x25 DUP4 PUSH2 0x20E6 JUMP JUMPDEST SWAP2 POP PUSH2 0x2F04 DUP3 PUSH2 0x2E9D JUMP JUMPDEST PUSH1 0x40 DUP3 ADD SWAP1 POP SWAP2 SWAP1 POP JUMP JUMPDEST PUSH1 0x0 PUSH1 0x20 DUP3 ADD SWAP1 POP DUP2 DUP2 SUB PUSH1 0x0 DUP4 ADD MSTORE PUSH2 0x2F28 DUP2 PUSH2 0x2EEC JUMP JUMPDEST SWAP1 POP SWAP2 SWAP1 POP JUMP JUMPDEST PUSH32 0x45524332303A207472616E7366657220746F20746865207A65726F2061646472 PUSH1 0x0 DUP3 ADD MSTORE PUSH32 0x6573730000000000000000000000000000000000000000000000000000000000 PUSH1 0x20 DUP3 ADD MSTORE POP JUMP JUMPDEST PUSH1 0x0 PUSH2 0x2F8B PUSH1 0x23 DUP4 PUSH2 0x20E6 JUMP JUMPDEST SWAP2 POP PUSH2 0x2F96 DUP3 PUSH2 0x2F2F JUMP JUMPDEST PUSH1 0x40 DUP3 ADD SWAP1 POP SWAP2 SWAP1 POP JUMP JUMPDEST PUSH1 0x0 PUSH1 0x20 DUP3 ADD SWAP1 POP DUP2 DUP2 SUB PUSH1 0x0 DUP4 ADD MSTORE PUSH2 0x2FBA DUP2 PUSH2 0x2F7E JUMP JUMPDEST SWAP1 POP SWAP2 SWAP1 POP JUMP JUMPDEST PUSH32 0x63616E206E6F7420747800000000000000000000000000000000000000000000 PUSH1 0x0 DUP3 ADD MSTORE POP JUMP JUMPDEST PUSH1 0x0 PUSH2 0x2FF7 PUSH1 0xA DUP4 PUSH2 0x20E6 JUMP JUMPDEST SWAP2 POP PUSH2 0x3002 DUP3 PUSH2 0x2FC1 JUMP JUMPDEST PUSH1 0x20 DUP3 ADD SWAP1 POP SWAP2 SWAP1 POP JUMP JUMPDEST PUSH1 0x0 PUSH1 0x20 DUP3 ADD SWAP1 POP DUP2 DUP2 SUB PUSH1 0x0 DUP4 ADD MSTORE PUSH2 0x3026 DUP2 PUSH2 0x2FEA JUMP JUMPDEST SWAP1 POP SWAP2 SWAP1 POP JUMP JUMPDEST PUSH32 0x6E6F7420656E6F75676800000000000000000000000000000000000000000000 PUSH1 0x0 DUP3 ADD MSTORE POP JUMP JUMPDEST PUSH1 0x0 PUSH2 0x3063 PUSH1 0xA DUP4 PUSH2 0x20E6 JUMP JUMPDEST SWAP2 POP PUSH2 0x306E DUP3 PUSH2 0x302D JUMP JUMPDEST PUSH1 0x20 DUP3 ADD SWAP1 POP SWAP2 SWAP1 POP JUMP JUMPDEST PUSH1 0x0 PUSH1 0x20 DUP3 ADD SWAP1 POP DUP2 DUP2 SUB PUSH1 0x0 DUP4 ADD MSTORE PUSH2 0x3092 DUP2 PUSH2 0x3056 JUMP JUMPDEST SWAP1 POP SWAP2 SWAP1 POP JUMP JUMPDEST PUSH32 0x45524332303A207472616E7366657220616D6F756E7420657863656564732062 PUSH1 0x0 DUP3 ADD MSTORE PUSH32 0x616C616E63650000000000000000000000000000000000000000000000000000 PUSH1 0x20 DUP3 ADD MSTORE POP JUMP JUMPDEST PUSH1 0x0 PUSH2 0x30F5 PUSH1 0x26 DUP4 PUSH2 0x20E6 JUMP JUMPDEST SWAP2 POP PUSH2 0x3100 DUP3 PUSH2 0x3099 JUMP JUMPDEST PUSH1 0x40 DUP3 ADD SWAP1 POP SWAP2 SWAP1 POP JUMP JUMPDEST PUSH1 0x0 PUSH1 0x20 DUP3 ADD SWAP1 POP DUP2 DUP2 SUB PUSH1 0x0 DUP4 ADD MSTORE PUSH2 0x3124 DUP2 PUSH2 0x30E8 JUMP JUMPDEST SWAP1 POP SWAP2 SWAP1 POP JUMP JUMPDEST PUSH32 0x6E6F2073746172742074696D6500000000000000000000000000000000000000 PUSH1 0x0 DUP3 ADD MSTORE POP JUMP JUMPDEST PUSH1 0x0 PUSH2 0x3161 PUSH1 0xD DUP4 PUSH2 0x20E6 JUMP JUMPDEST SWAP2 POP PUSH2 0x316C DUP3 PUSH2 0x312B JUMP JUMPDEST PUSH1 0x20 DUP3 ADD SWAP1 POP SWAP2 SWAP1 POP JUMP JUMPDEST PUSH1 0x0 PUSH1 0x20 DUP3 ADD SWAP1 POP DUP2 DUP2 SUB PUSH1 0x0 DUP4 ADD MSTORE PUSH2 0x3190 DUP2 PUSH2 0x3154 JUMP JUMPDEST SWAP1 POP SWAP2 SWAP1 POP JUMP JUMPDEST PUSH32 0x6E6F7420696E697469616C2074696D6500000000000000000000000000000000 PUSH1 0x0 DUP3 ADD MSTORE POP JUMP JUMPDEST PUSH1 0x0 PUSH2 0x31CD PUSH1 0x10 DUP4 PUSH2 0x20E6 JUMP JUMPDEST SWAP2 POP PUSH2 0x31D8 DUP3 PUSH2 0x3197 JUMP JUMPDEST PUSH1 0x20 DUP3 ADD SWAP1 POP SWAP2 SWAP1 POP JUMP JUMPDEST PUSH1 0x0 PUSH1 0x20 DUP3 ADD SWAP1 POP DUP2 DUP2 SUB PUSH1 0x0 DUP4 ADD MSTORE PUSH2 0x31FC DUP2 PUSH2 0x31C0 JUMP JUMPDEST SWAP1 POP SWAP2 SWAP1 POP JUMP JUMPDEST PUSH32 0x616C6C2072656C65617365640000000000000000000000000000000000000000 PUSH1 0x0 DUP3 ADD MSTORE POP JUMP JUMPDEST PUSH1 0x0 PUSH2 0x3239 PUSH1 0xC DUP4 PUSH2 0x20E6 JUMP JUMPDEST SWAP2 POP PUSH2 0x3244 DUP3 PUSH2 0x3203 JUMP JUMPDEST PUSH1 0x20 DUP3 ADD SWAP1 POP SWAP2 SWAP1 POP JUMP JUMPDEST PUSH1 0x0 PUSH1 0x20 DUP3 ADD SWAP1 POP DUP2 DUP2 SUB PUSH1 0x0 DUP4 ADD MSTORE PUSH2 0x3268 DUP2 PUSH2 0x322C JUMP JUMPDEST SWAP1 POP SWAP2 SWAP1 POP JUMP JUMPDEST PUSH1 0x0 PUSH2 0x327A DUP3 PUSH2 0x21FF JUMP JUMPDEST SWAP2 POP PUSH2 0x3285 DUP4 PUSH2 0x21FF JUMP JUMPDEST SWAP3 POP DUP3 DUP3 MUL PUSH2 0x3293 DUP2 PUSH2 0x21FF JUMP JUMPDEST SWAP2 POP DUP3 DUP3 DIV DUP5 EQ DUP4 ISZERO OR PUSH2 0x32AA JUMPI PUSH2 0x32A9 PUSH2 0x2852 JUMP JUMPDEST JUMPDEST POP SWAP3 SWAP2 POP POP JUMP JUMPDEST PUSH32 0x4E487B7100000000000000000000000000000000000000000000000000000000 PUSH1 0x0 MSTORE PUSH1 0x12 PUSH1 0x4 MSTORE PUSH1 0x24 PUSH1 0x0 REVERT JUMPDEST PUSH1 0x0 PUSH2 0x32EB DUP3 PUSH2 0x21FF JUMP JUMPDEST SWAP2 POP PUSH2 0x32F6 DUP4 PUSH2 0x21FF JUMP JUMPDEST SWAP3 POP DUP3 PUSH2 0x3306 JUMPI PUSH2 0x3305 PUSH2 0x32B1 JUMP JUMPDEST JUMPDEST DUP3 DUP3 MOD SWAP1 POP SWAP3 SWAP2 POP POP JUMP JUMPDEST PUSH1 0x0 PUSH2 0x331C DUP3 PUSH2 0x21FF JUMP JUMPDEST SWAP2 POP PUSH2 0x3327 DUP4 PUSH2 0x21FF JUMP JUMPDEST SWAP3 POP DUP3 PUSH2 0x3337 JUMPI PUSH2 0x3336 PUSH2 0x32B1 JUMP JUMPDEST JUMPDEST DUP3 DUP3 DIV SWAP1 POP SWAP3 SWAP2 POP POP JUMP INVALID LOG2 PUSH5 0x6970667358 0x22 SLT KECCAK256 0xA6 MOD SHL RETURN LOG4 0xCE 0xD8 0xE4 DUP16 0xAF DUP16 BYTE SWAP1 SUB CHAINID 0xA7 SWAP12 0x4D REVERT DUP11 DUP1 0xD3 0xF8 ADD 0xDE 0xD0 0x5E DUP9 ADDRESS CREATE2 0xD6 SHR PUSH5 0x736F6C6343 STOP ADDMOD SLT STOP CALLER "
				},
				"gasEstimates": {
					"creation": {
						"codeDepositCost": "2635200",
						"executionCost": "infinite",
						"totalCost": "infinite"
					},
					"external": {
						"allowance(address,address)": "infinite",
						"approve(address,uint256)": "infinite",
						"balanceOf(address)": "2864",
						"belongOrg(address)": "2912",
						"changeOwner(address)": "30684",
						"decimals()": "388",
						"decreaseAllowance(address,uint256)": "infinite",
						"increaseAllowance(address,uint256)": "infinite",
						"lockNum(address)": "infinite",
						"name()": "infinite",
						"searchOwner()": "2632",
						"searchStartTime()": "2459",
						"setOrganization(uint8,address[],uint256[])": "infinite",
						"setStartTime(uint256)": "infinite",
						"symbol()": "infinite",
						"totalLock(address)": "2935",
						"totalSupply()": "2527",
						"transfer(address,uint256)": "infinite",
						"transferFrom(address,address,uint256)": "infinite",
						"wallets(uint8)": "infinite"
					},
					"internal": {
						"_afterTokenTransfer(address,address,uint256)": "15",
						"_approve(address,address,uint256)": "infinite",
						"_beforeTokenTransfer(address,address,uint256)": "15",
						"_burn(address,uint256)": "infinite",
						"_lockBalanceNum(struct ERC20.WalletRecord storage pointer,uint256)": "infinite",
						"_mint(address,uint256)": "infinite",
						"_releaseAll(uint256[5] storage pointer)": "infinite",
						"_releaseToken(address,bool)": "infinite",
						"_releaseTokenSearch(address)": "infinite",
						"_spendAllowance(address,address,uint256)": "infinite",
						"_transfer(address,address,uint256)": "infinite"
					}
				},
				"methodIdentifiers": {
					"allowance(address,address)": "dd62ed3e",
					"approve(address,uint256)": "095ea7b3",
					"balanceOf(address)": "70a08231",
					"belongOrg(address)": "2ae122bf",
					"changeOwner(address)": "a6f9dae1",
					"decimals()": "313ce567",
					"decreaseAllowance(address,uint256)": "a457c2d7",
					"increaseAllowance(address,uint256)": "39509351",
					"lockNum(address)": "16b81889",
					"name()": "06fdde03",
					"searchOwner()": "f9c3ae83",
					"searchStartTime()": "a6fe01b3",
					"setOrganization(uint8,address[],uint256[])": "4b8c7daf",
					"setStartTime(uint256)": "3e0a322d",
					"symbol()": "95d89b41",
					"totalLock(address)": "ee579c12",
					"totalSupply()": "18160ddd",
					"transfer(address,uint256)": "a9059cbb",
					"transferFrom(address,address,uint256)": "23b872dd",
					"wallets(uint8)": "733f28a8"
				}
			},
			"storageLayout": {
				"storage": [
					{
						"astId": 331,
						"contract": "contracts/ERC20/ERC20.sol:ERC20",
						"label": "_balances",
						"offset": 0,
						"slot": "0",
						"type": "t_mapping(t_address,t_uint256)"
					},
					{
						"astId": 337,
						"contract": "contracts/ERC20/ERC20.sol:ERC20",
						"label": "_allowances",
						"offset": 0,
						"slot": "1",
						"type": "t_mapping(t_address,t_mapping(t_address,t_uint256))"
					},
					{
						"astId": 339,
						"contract": "contracts/ERC20/ERC20.sol:ERC20",
						"label": "_totalSupply",
						"offset": 0,
						"slot": "2",
						"type": "t_uint256"
					},
					{
						"astId": 341,
						"contract": "contracts/ERC20/ERC20.sol:ERC20",
						"label": "_name",
						"offset": 0,
						"slot": "3",
						"type": "t_string_storage"
					},
					{
						"astId": 343,
						"contract": "contracts/ERC20/ERC20.sol:ERC20",
						"label": "_symbol",
						"offset": 0,
						"slot": "4",
						"type": "t_string_storage"
					},
					{
						"astId": 345,
						"contract": "contracts/ERC20/ERC20.sol:ERC20",
						"label": "_owner",
						"offset": 0,
						"slot": "5",
						"type": "t_address"
					},
					{
						"astId": 347,
						"contract": "contracts/ERC20/ERC20.sol:ERC20",
						"label": "_startTime",
						"offset": 0,
						"slot": "6",
						"type": "t_uint256"
					},
					{
						"astId": 355,
						"contract": "contracts/ERC20/ERC20.sol:ERC20",
						"label": "orgRecord",
						"offset": 0,
						"slot": "7",
						"type": "t_mapping(t_uint8,t_struct(OrgRecord)510_storage)"
					},
					{
						"astId": 360,
						"contract": "contracts/ERC20/ERC20.sol:ERC20",
						"label": "orgWallet",
						"offset": 0,
						"slot": "8",
						"type": "t_mapping(t_uint8,t_array(t_address)dyn_storage)"
					},
					{
						"astId": 365,
						"contract": "contracts/ERC20/ERC20.sol:ERC20",
						"label": "walletRecords",
						"offset": 0,
						"slot": "9",
						"type": "t_mapping(t_address,t_struct(WalletRecord)529_storage)"
					},
					{
						"astId": 391,
						"contract": "contracts/ERC20/ERC20.sol:ERC20",
						"label": "orgOne",
						"offset": 0,
						"slot": "10",
						"type": "t_array(t_uint256)5_storage"
					},
					{
						"astId": 409,
						"contract": "contracts/ERC20/ERC20.sol:ERC20",
						"label": "orgTwo",
						"offset": 0,
						"slot": "15",
						"type": "t_array(t_uint256)5_storage"
					},
					{
						"astId": 427,
						"contract": "contracts/ERC20/ERC20.sol:ERC20",
						"label": "orgThree",
						"offset": 0,
						"slot": "20",
						"type": "t_array(t_uint256)5_storage"
					},
					{
						"astId": 445,
						"contract": "contracts/ERC20/ERC20.sol:ERC20",
						"label": "orgFour",
						"offset": 0,
						"slot": "25",
						"type": "t_array(t_uint256)5_storage"
					},
					{
						"astId": 463,
						"contract": "contracts/ERC20/ERC20.sol:ERC20",
						"label": "orgFive",
						"offset": 0,
						"slot": "30",
						"type": "t_array(t_uint256)5_storage"
					},
					{
						"astId": 477,
						"contract": "contracts/ERC20/ERC20.sol:ERC20",
						"label": "orgSix",
						"offset": 0,
						"slot": "35",
						"type": "t_array(t_uint256)5_storage"
					},
					{
						"astId": 491,
						"contract": "contracts/ERC20/ERC20.sol:ERC20",
						"label": "orgSeven",
						"offset": 0,
						"slot": "40",
						"type": "t_array(t_uint256)5_storage"
					},
					{
						"astId": 505,
						"contract": "contracts/ERC20/ERC20.sol:ERC20",
						"label": "orgRecords",
						"offset": 0,
						"slot": "45",
						"type": "t_array(t_array(t_uint256)5_storage)7_storage"
					}
				],
				"types": {
					"t_address": {
						"encoding": "inplace",
						"label": "address",
						"numberOfBytes": "20"
					},
					"t_array(t_address)dyn_storage": {
						"base": "t_address",
						"encoding": "dynamic_array",
						"label": "address[]",
						"numberOfBytes": "32"
					},
					"t_array(t_array(t_uint256)5_storage)7_storage": {
						"base": "t_array(t_uint256)5_storage",
						"encoding": "inplace",
						"label": "uint256[5][7]",
						"numberOfBytes": "1120"
					},
					"t_array(t_uint256)5_storage": {
						"base": "t_uint256",
						"encoding": "inplace",
						"label": "uint256[5]",
						"numberOfBytes": "160"
					},
					"t_mapping(t_address,t_mapping(t_address,t_uint256))": {
						"encoding": "mapping",
						"key": "t_address",
						"label": "mapping(address => mapping(address => uint256))",
						"numberOfBytes": "32",
						"value": "t_mapping(t_address,t_uint256)"
					},
					"t_mapping(t_address,t_struct(WalletRecord)529_storage)": {
						"encoding": "mapping",
						"key": "t_address",
						"label": "mapping(address => struct ERC20.WalletRecord)",
						"numberOfBytes": "32",
						"value": "t_struct(WalletRecord)529_storage"
					},
					"t_mapping(t_address,t_uint256)": {
						"encoding": "mapping",
						"key": "t_address",
						"label": "mapping(address => uint256)",
						"numberOfBytes": "32",
						"value": "t_uint256"
					},
					"t_mapping(t_uint8,t_array(t_address)dyn_storage)": {
						"encoding": "mapping",
						"key": "t_uint8",
						"label": "mapping(uint8 => address[])",
						"numberOfBytes": "32",
						"value": "t_array(t_address)dyn_storage"
					},
					"t_mapping(t_uint8,t_struct(OrgRecord)510_storage)": {
						"encoding": "mapping",
						"key": "t_uint8",
						"label": "mapping(uint8 => struct ERC20.OrgRecord)",
						"numberOfBytes": "32",
						"value": "t_struct(OrgRecord)510_storage"
					},
					"t_string_storage": {
						"encoding": "bytes",
						"label": "string",
						"numberOfBytes": "32"
					},
					"t_struct(OrgRecord)510_storage": {
						"encoding": "inplace",
						"label": "struct ERC20.OrgRecord",
						"members": [
							{
								"astId": 507,
								"contract": "contracts/ERC20/ERC20.sol:ERC20",
								"label": "orgTotal",
								"offset": 0,
								"slot": "0",
								"type": "t_uint256"
							},
							{
								"astId": 509,
								"contract": "contracts/ERC20/ERC20.sol:ERC20",
								"label": "orgBalance",
								"offset": 0,
								"slot": "1",
								"type": "t_uint256"
							}
						],
						"numberOfBytes": "64"
					},
					"t_struct(WalletRecord)529_storage": {
						"encoding": "inplace",
						"label": "struct ERC20.WalletRecord",
						"members": [
							{
								"astId": 512,
								"contract": "contracts/ERC20/ERC20.sol:ERC20",
								"label": "lockTotal",
								"offset": 0,
								"slot": "0",
								"type": "t_uint256"
							},
							{
								"astId": 514,
								"contract": "contracts/ERC20/ERC20.sol:ERC20",
								"label": "lockBalanceNum",
								"offset": 0,
								"slot": "1",
								"type": "t_uint256"
							},
							{
								"astId": 516,
								"contract": "contracts/ERC20/ERC20.sol:ERC20",
								"label": "index",
								"offset": 0,
								"slot": "2",
								"type": "t_uint8"
							},
							{
								"astId": 518,
								"contract": "contracts/ERC20/ERC20.sol:ERC20",
								"label": "firstUnlockPre",
								"offset": 0,
								"slot": "3",
								"type": "t_uint256"
							},
							{
								"astId": 520,
								"contract": "contracts/ERC20/ERC20.sol:ERC20",
								"label": "releaseInterval",
								"offset": 0,
								"slot": "4",
								"type": "t_uint256"
							},
							{
								"astId": 522,
								"contract": "contracts/ERC20/ERC20.sol:ERC20",
								"label": "intervalTime",
								"offset": 0,
								"slot": "5",
								"type": "t_uint256"
							},
							{
								"astId": 524,
								"contract": "contracts/ERC20/ERC20.sol:ERC20",
								"label": "secondUnlockPre",
								"offset": 0,
								"slot": "6",
								"type": "t_uint256"
							},
							{
								"astId": 526,
								"contract": "contracts/ERC20/ERC20.sol:ERC20",
								"label": "lastRelease",
								"offset": 0,
								"slot": "7",
								"type": "t_uint256"
							},
							{
								"astId": 528,
								"contract": "contracts/ERC20/ERC20.sol:ERC20",
								"label": "releaseAllTime",
								"offset": 0,
								"slot": "8",
								"type": "t_uint256"
							}
						],
						"numberOfBytes": "288"
					},
					"t_uint256": {
						"encoding": "inplace",
						"label": "uint256",
						"numberOfBytes": "32"
					},
					"t_uint8": {
						"encoding": "inplace",
						"label": "uint8",
						"numberOfBytes": "1"
					}
				}
			},
			"userdoc": {
				"kind": "user",
				"methods": {
					"setOrganization(uint8,address[],uint256[])": {
						"notice": "添加管理机构及其对应token数量 _organizationId:机构id _walletArray：对应机构的钱包地址数组 _amountArray：对应机构的钱包地址token数量 _firstUnlockPre：初始解锁千分比（默认千分比） _releaseInterval:初始释放间隔时间（day） _intervalTime:初始释放间隔时间之后每次释放的间隔时间（day） _secondUnlockPre: 以后每次释放的千分比（默认千分比） 所有机构之间的钱包不能重复"
					}
				},
				"version": 1
			}
		}
	}
}